:020000040800F2
:100000000022002065010008150D0008F50B00080E
:10001000F90B00086D0900083D13000800000000FE
:10002000000000000000000000000000A111000816
:10003000C909000800000000DF0E0008AD1100082B
:100040007F0100087F0100087F0100087F01000890
:100050007F0100087F0100087F0100087F01000880
:100060007F0100087F0100087F0100087F01000870
:100070007F0100087F0100087F010008A90900082E
:100080007F0100087F0100087F0100087F01000850
:100090007F0100087F0100087F0100087F01000840
:1000A0007F0100087F0100087F0100087F01000830
:1000B0007F0100087F0100087F0100087F01000820
:1000C0007F0100087F0100087F0100087F01000810
:1000D0007F010008151300087F0100087F01000858
:1000E0007F0100087F0100087F0100087F010008F0
:1000F0007F0100087F0100087F0100080000000068
:100100007F010008000000007F0100087F01000857
:100110007F0100087F0100087F0100087F010008BF
:100120007F0100087F0100087F0100087F010008AF
:100130007F0100087F0100087F0100087F0100089F
:100140007F0100087F0100087F0100087F0100088F
:10015000DFF80CD000F0F8FB004800478D240008C1
:10016000002200200648804706480047FEE7FEE7D9
:10017000FEE7FEE7FEE7FEE7FEE7FEE7FEE7FEE757
:10018000C51100085101000840EA01039B0703D094
:1001900009E008C9121F08C0042AFAD203E011F8C6
:1001A000013B00F8013B521EF9D27047D2B201E088
:1001B00000F8012B491EFBD270470022F6E710B56C
:1001C00013460A4604461946FFF7F0FF204610BDC5
:1001D000F0B480EA0102D40F4200B2EB410F02D228
:1001E0000246084611464A0042D0C30DDDB2C1F3B3
:1001F000C752AD1A202D35DAC1F3160141F40002C1
:1002000004B15242C5F1200602FA06F12A41104417
:10021000B3EBD05F23D0C4B1012DA0EBC35009DCF8
:10022000F0BC4FF0004202EAC352DBB200F500001E
:1002300000F0FEBA400000F1807000EBC350A0F166
:10024000807040EAD170490009E0490841EAC07174
:10025000A0EBC35000F50000400800EBC350F0BC19
:1002600000F0DDBA6142012202EB4101001BF6E71A
:10027000F0BC704781F00041AAE780F00040A7E79A
:1002800080EA010210B502F00043400022D04A008B
:100290001FD0010E01EB1261C0F35600C2F35602EB
:1002A00040F4000042F40002A0FB022000047F3969
:1002B000140400D0401C50EA124001D44000491EF2
:1002C000C2B20C0604EBD010401C4008802A02D0B9
:1002D00003E0002010BD20F00100002900DA00201A
:1002E000184310BD30B480EA010202F0004530F03E
:1002F000004221F0004013D090B1C30DD40DC2F3E1
:100300001601C0F31600E41A41F4000140F40002A3
:100310007D34914201D3641C00E04900002C02DAD4
:1003200030BC002070474FF400000023914201D3FD
:10033000891A034340084FEA4101F7D151B1914274
:1003400002D14FF0004105E002D24FF0010101E07F
:100350006FF0010103EBC450284430BC00F05FBAD9
:100360002DE9FE4F804681EA0300C00F0C46009045
:1003700021F0004123F00045B8EB0200A94105D26D
:100380004046214690461C460B46024623F000405C
:10039000104347D0270DC7F30A00C3F30A51029058
:1003A000401A019040286BDAC3F3130040F4801B1D
:1003B0000098924620B10023D2EB030A63EB0B0BAB
:1003C00001985946C0F14002504600F0F7F9064640
:1003D0000D4650465946019A00F00FFA10EB0800FE
:1003E0006141002487EA115284EAE7731A4340D03E
:1003F000009A62B3019A012A4FEA075215DC001BEA
:1004000061EB02014FF0004202EA0752CDE90042DF
:10041000001C41F5801132462B4600F046FA03B02D
:10042000BDE8F08F40462146F9E7001B61EB020171
:10043000001C41F5801300185B412018A2F500173D
:1004400047EB030140EAD570B6196D4111E06D0824
:100450004FEA360645EAC0754FEA0752001B61EBCA
:100460000201001C41F5801149084FEA30000019D3
:10047000514132462B4603B0BDE8F04F00F006BABA
:100480000098012240000023D0EB020263EBE073EE
:10049000009821464FEAE074B8EB000061EB0401DC
:1004A000E9E783F000435BE781F0004158E72DE97D
:1004B000FE4F81EA030404F0004421F0004100945F
:1004C0004FF0000B23F0004350EA01045ED052EAE3
:1004D00003045BD0C3F30A54C1F30A552C44A4F2BD
:1004E000F3340194A0FB0254C1F3130141F48011D1
:1004F000C3F3130343F4801301FB024400FB034ED8
:10050000840A970A44EA815447EA8357A4FB0768A0
:1005100002958D0A05FB07854FEA932C04FB0C54CA
:100520002705029D4FEA065847EA1637B5EB08053E
:100530006EEB070C870E920E47EA811742EA831290
:10054000A7FB0201B6EB0B0164EB00042B0D43EAA1
:100550000C335E1844EB1C50DA465146E7FB0201AF
:10056000C5F313044FEA0B3343EA14534FEA043242
:10057000019C43EA0603A4F10C040294009CCDE91B
:1005800000B400F092F903B0BDE8F08F00200146FE
:10059000F9E72DE9F04D81EA030404F0004B21F066
:1005A000004514464FF0000A23F0004150EA0502CE
:1005B00020D054EA01021DD0C5F30A570246C5F304
:1005C0001303C1F31300C1F30A5640F4801543F43A
:1005D0008013A7EB0608101BD64608F2FD3873EB14
:1005E000050002D308F1010801E092185B41B8F15F
:1005F000000F03DA00200146BDE8F08D00204FF423
:100600008011064684460EE0171B73EB050705D3E1
:10061000121B63EB050306434CEA010C49084FEA41
:10062000300092185B4150EA0107EDD152EA030015
:1006300012D082EA040083EA0501084305D0101BAA
:10064000AB4106D20122002306E000224FF0004316
:1006500002E06FF0010253101AEB06004CEB085158
:1006600010EB0A0041EB0B01BDE8F04D00F00EB9B4
:1006700096230022114600F0DBB820F00040C10DA7
:10068000C0F3160040F400007F2901DA0020704713
:10069000962903DCC1F19601C8407047963988401D
:1006A0007047C1F30A5210B5C1F3130140F2FF3392
:1006B00041F480119A4201DA002010BD40F2334328
:1006C0009A42A2F2334203DC524200F086F810BD97
:1006D000904010BD00F0004230F000400AD0C10D43
:1006E00001F56071C0F3160042EA0151C2084007EB
:1006F00011437047002001467047000030B5041ECA
:1007000071F1000404DB4FF00044404264EB01014E
:10071000141E73F1000405DB1C464FF000435242E7
:1007200063EB04038B4208BF824230BD30B5041E28
:1007300071F1000404DB4FF00044404264EB01011E
:10074000141E73F1000405DB1C464FF000435242B7
:1007500063EB0403994208BF904230BD01F00043AF
:1007600030B421F0004150EA010206D00A0DA2F592
:100770006072C1F31301002A02DC30BC0020704714
:10078000440F44EAC104C100E01830BC00EBC25081
:1007900000F045B8002801DBC0F10040002901DB72
:1007A000C1F1004181427047002801DBC0F10040E7
:1007B000002901DBC1F1004188427047202A04DB97
:1007C000203A00FA02F1002070479140C2F1200364
:1007D00020FA03F3194390407047202A04DB203AA3
:1007E00021FA02F00021704721FA02F3D040C2F151
:1007F00020029140084319467047202A06DBCB1798
:10080000203A41FA02F043EAE07306E041FA02F3CB
:10081000D040C2F120029140084319467047002998
:10082000A8BF7047401C490008BF20F00100704776
:1008300010B4B0FA80FC00FA0CF050EA010404BFD6
:1008400010BC704749B1CCF1200421FA04F411FA2C
:100850000CF118BF012121430843A3EB0C01CB1D70
:100860004FEA00614FEA102042BF002010BC7047E1
:1008700000EBC35010440029A4BF10BC7047401CBB
:10088000490008BF20F0010010BC704710B5141ECD
:1008900073F1000408DA401C41F1000192185B4139
:1008A0001A4301D120F0010010BD2DE9F04D924610
:1008B0009B4611B1B1FA81F202E0B0FA80F2203227
:1008C0009046FFF77BFF04460F4640EA0A0041EAE4
:1008D0000B0153465A46084313D0114653EA010010
:1008E00019D0C8F140025046FFF777FF05460E4683
:1008F000504659464246FFF761FF084305D00120A4
:1009000004E020463946BDE8F08D0020054346EA64
:10091000E0762C4337430A986305E40AA0EB08000D
:100920000022FD0A44EA47540A3002D5002001465D
:10093000E9E7010510196941DDE908450019694138
:10094000BDE8F04DA2E70000064C074D06E0E06868
:1009500040F0010394E8070098471034AC42F6D306
:10096000FFF7FAFB243500084435000800BFFEE716
:1009700070B502460C46FF25FF2309E012F8010B73
:1009800080EA05010648405C80EA03050548435CAF
:10099000201EA4F10106B4B2F0D143EA052070BDD7
:1009A000243300082434000810B50222042105482D
:1009B00001F051F920B101220421024801F043F96C
:1009C00010BD000000000240704710B504462046EC
:1009D00001F036FA10BD00002DE9F0470023012296
:1009E0000A21104601F08CFF012000F0F7F80128E1
:1009F0007ED10221474800F069FE0A2000F0E4FFA2
:100A0000444940310868FFF733FE4349086008460F
:100A10000068FFF75FFE05462A460B4600203F4967
:100A2000FFF7B7FD0746FFF799FE3B4908603C48D2
:100A300008603C490868FFF71BFE04463648016819
:100A40002046FFF71DFC044637492046FFF74AFCC5
:100A500004463648007810B93548046015E0354939
:100A60002046FFF73FFC0646324931480068FFF751
:100A700039FC07462E4801683846FFF7FEFB05465D
:100A80003146FFF7A5FB2A49086001202749087075
:100A9000274801682848FFF7F3FB8146FFF71AFE55
:100AA00007460022254BFFF7FCFC0546FFF756FEE4
:100AB000234908601F4922480068FFF713FC0646D7
:100AC0001C4920480068FFF70DFC07461D480168D7
:100AD0003846FFF7D2FB05463146FFF779FB194947
:100AE0000860194917480068FFF7CAFB174900E07A
:100AF0000EE0086108691649FFF74CFE02D200209B
:100B000012490861012300221146184601F0F8FE3F
:100B1000BDE8F087002401401C0000200032B340F3
:100B2000333353401400002000F07F452C00002098
:100B3000200000200000A0410000F04100C0424021
:100B4000240000202800002000007A446C000020CF
:100B50000000FA4300487047CC010020004870476D
:100B6000380100202DE9F04781460C4615469A468B
:100B7000DDE9086700F038F815490968401AB0F552
:100B80007A7F23D3FFF7EAFF90F80580FFF7E2FFB3
:100B900080F80080FFF7DEFF02218171FFF7DAFFA6
:100BA0004470FFF7D7FF4580FFF7D4FF00F112082C
:100BB0003A4631464046FFF7E7FAFFF7CBFF80465B
:100BC00000F04CF800F010F801490860BDE8F0872B
:100BD00030000020004870476C00002001460148AA
:100BE000405C7047B8000020014800687047000072
:100BF0000C00002000BFFEE700BFFEE700B5FFF7D6
:100C0000A9FF007B78B9FFF7A5FF00220273FFF769
:100C1000A1FF064AD27A8273FFF79CFF034A127B38
:100C2000C273022100E00121084600BD3801002006
:100C300000B5FFF78FFF007B58B9FFF78BFF064A1F
:100C4000527B8273FFF786FF034A927BC2730321B4
:100C500000E00121084600BD3801002070B50546BE
:100C600000246878032818D12A782046611CCCB269
:100C700026490A546A782046611CCCB223490A549A
:100C8000AA792046611CCCB220490A540846204467
:100C9000698A0180A01CC4B21EE02A782046611C2B
:100CA000CCB21A490A546A782046611CCCB2174962
:100CB0000A54688802122046611CCCB213490A54B7
:100CC000AA782046611CCCB210490A540846204438
:100CD000698A0180A01CC4B2264631460B48FFF742
:100CE00047FE0B4908600846027808483446711CE4
:100CF000425407480088C0F3072104480155B01C3E
:100D0000C1B20022014800F02FF970BD850100201A
:100D1000600000207047000010B5002807DA0A07BD
:100D2000140E054A00F00F031B1FD45403E00A07FA
:100D3000130E024A135410BD18ED00E000E400E069
:100D4000BFF34F8F0648006800F4E0600549084390
:100D5000001D03490860BFF34F8F00BFFEE700008E
:100D60000CED00E00000FA052DE9FF5F8CB0824633
:100D7000DAE900B15846DDE90E23FFF792FB804621
:100D8000894642464B46DAE90EB15846FFF7E8FA83
:100D9000CAE90E01DAE90CB3DAE908015A46CDE9ED
:100DA0000801FFF77EFBCDE90A01DAE90801CAE98B
:100DB0000C01CAE90889DAE906B15846DDE90A23D7
:100DC000FFF775FBCDE90801DAE90EB3DAE90401B2
:100DD0005A46CDE90001FFF76AFBCDE9040142461E
:100DE0004B46DAE902B15846FFF761FBCDE9020153
:100DF000DDE90423FFF7B4FACDE90601DDE90823B4
:100E0000FFF7AEFA04460D462C480CC8204629468A
:100E1000FFF78CFC20D229480CC820462946FFF752
:100E200040FB06460F460022134630463946FFF780
:100E30007DFC2AD20022224B30463946FFF776FC51
:100E400023D800221F4B1D4903C9FFF789FA1B4A0B
:100E500003C21A4830C818E022462B46174903C976
:100E6000FFF71FFB06460F460022154B304639465A
:100E7000FFF75CFC09D80022124B104903C9FFF7A9
:100E800010FB0E4A03C20D4830C800220E4B20460C
:100E90002946FFF733FC01D200240B4D00220B4BF7
:100EA00020462946FFF742FC01D80024074DCAE935
:100EB0000A452046294610B0BDE8F09F50000020AA
:100EC00000409F4000C0724000209C40004CDD402C
:100ED00010B5044640212046FFF76FF910BD70475A
:100EE00003200149487170473801002010B50020E7
:100EF0001B4981F84C0004211A4800F00CFFC0F196
:100F000020001749A1F84A000421164800F068FDA6
:100F1000134890F8290012494979884215D11048A0
:100F200090F82A00032804D00D4890F82A000628DB
:100F30000BD10B48093000F120010A6802604968B2
:100F400041600220064981F84C0020220421054816
:100F500000F0CEFE0421034800F05BFD10BD000050
:100F600038010020000002402DE9F04104460D4602
:100F7000174600260122D1020F4801F0EDF90DE0DD
:100F80003046721CD6B2215C0C4802F05AF800BF01
:100F900007210A4802F0AFF80028F9D0AE42EFDB93
:100FA000142000F011FD00224FF40061024801F00E
:100FB000D3F9BDE8F081000000080140003801408D
:100FC00070B50125564890F84C00022877D1544856
:100FD000407A534949798842F8D15148807A0328A8
:100FE00007D04F48807A062803D04D48807A1028D1
:100FF000ECD108204A49A1F84A000846B0F84A0056
:10100000801E81B246480930FFF7B2FC45490860AE
:101010004348B0F84A00401E414909310A5C404843
:10102000B0F84A00801E085C42EA00243D4800688F
:10103000A0426FD13A48007B07283BD03848007B5C
:10104000082801D1012000E000203549097B16293C
:1010500001D1012100E00021084358BB3048007B4A
:10106000192827D02E48007B1A2823D02C48007B33
:101070001B281FD02A48007B34281BD02848007B1F
:10108000362817D02648007B382813D02448007B08
:101090003E280FD02248007B3F280BD02048007B01
:1010A000662807D01E48007B402809DB1C48007BCF
:1010B000452805DCFFF74EFD0021017304E029E01F
:1010C000FFF748FD012101731548807A16494870E1
:1010D0001348C07A4880084640884FF6FF7101EAFD
:1010E000002011494880084641880D48007B08448B
:1010F0000D4948800A48807A032802D0062808D182
:1011000003E0FFF77BFD054603E0FFF791FD054691
:1011100000BF00BF0020024981F84C00284670BD86
:101120003801002060000020CC01002010B50446EA
:1011300084B901220421194801F00EF90A2000F0B7
:1011400043FC00220221154801F006F90A2000F0B4
:101150003BFC22E0012C10D1002204210F4801F0B9
:10116000FBF80A2000F030FC012202210B4801F0BC
:10117000F3F80A2000F028FC0FE0002204210748C1
:1011800001F0EAF80A2000F01FFC002202210348C7
:1011900001F0E2F80A2000F017FC10BD000C01403D
:1011A0007047012000F0DBF8FFF7CAFD10B500F032
:1011B00091F803480068401C0149086010BD000018
:1011C0000C00002010B51C48006840F001001A49CE
:1011D00008600846406820F0030048600846006840
:1011E00016490840144908600846406814490840F8
:1011F0001149486008460068104908400E490860D7
:101200000846006820F480200860084640680D49C0
:1012100008400949486008460068084908400649EE
:1012200008604FF41F00886001F0FAFB00214FF0C6
:10123000006001F00BFA10BD00100240FFFFF6FE47
:101240000C00FFE8FFFF00F758B5002401226946B3
:10125000204600F07BFB9DF800005A2803D09DF843
:1012600000005B2816D1FFF775FC064660190122C5
:10127000314600F06BFBFFF771FC4079032804DB7B
:10128000FFF76CFC4079062806DDFFF767FCFF21BD
:10129000417101E000F001F858BD58B572B6002464
:1012A00000BF2046FFF791FB00BF00BF5A2000900F
:1012B00001226946204600F065FB0124FFF74EFC41
:1012C000461D01223146204600F05CFB2C4462B6EC
:1012D00058BD000000B5002116E00D48405C012813
:1012E00010D1FFF781FC0A4A3C3252F82120821AC1
:1012F00007480C3050F82100824203D301220448F1
:1013000030304254481CC1B20929E6DB00BD000060
:101310008800002010B50749074801F025FF40B1BB
:101320000449054801F013FF034801F085FEFFF76B
:10133000DDFD10BD040304000038014000BFFEE7DE
:1013400002E008C8121F08C1002AFAD1704770478E
:10135000002001E001C1121F002AFBD1704700F0FC
:10136000010181F313887047816841F008018160B1
:1013700000BF816801F008010029FAD1816841F0BD
:101380000401816000BF816801F004010029FAD1E5
:10139000704730B5012902D002291AD10CE0C36A86
:1013A00023F47003C362C36A541E4FF4700505EA48
:1013B00004542343C3620DE0836B23F4401383631F
:1013C000836B541E4FF4401505EA04542343836392
:1013D00000E000BF00BF30BD10B52C4800F064F83D
:1013E000002000F00FF901220221284800F07DF9C9
:1013F00001221102254800F078F90021234800F06D
:1014000047F800F09FF9022211462048FFF7C1FF7C
:101410000723102200211D4800F0B7F807231122EE
:1014200001211A4800F0B1F84FF4E04202211748B8
:1014300000F093F8012211461448FFF7AAFF052394
:1014400000221146114800F0EBF84FF46022012110
:101450000E4800F082F8012211460C4800F05EF8B8
:1014600001220221094800F059F8084800F04DF81F
:10147000012000F0A9FA0548FFF776FF034800F0C5
:101480003FF80121014800F021F910BD002401407E
:1014900021B1826842F40062826003E0826822F433
:1014A000006282607047000010B504461348204473
:1014B00030B1B0F5806F0CD0B0F5C05F1BD111E03A
:1014C00040F2093001F00CFA40F2093001F0F8F96D
:1014D00012E040F20A3001F003FA40F20A3001F063
:1014E000EFF909E040F20F3001F0FAF940F20F3065
:1014F00001F0E6F900E000BF00BF10BD00DCFEBF58
:10150000816841F4807181607047816801F0010158
:1015100019B9816841F001018160704772B101F031
:1015200001031BB1836843F48013836001F002035D
:1015300093B1836843F4004383600DE001F001033D
:101540001BB1836823F48013836001F002031BB195
:10155000836823F4004383607047012902D0022985
:1015600010D107E0836823F460238360836813430A
:10157000836008E0836823F4E04383608368134357
:10158000836000E000BF00BF7047F0B50C46876B7A
:10159000C7F30156856B371B07EB8707C7F10F0CA5
:1015A0001F2707FA0CF7BD43371B07EB8707C7F167
:1015B0000F0702FA07F73D4385630A2A0DDA01692E
:1015C00002EB420C072707FA0CF7B94302EB42077C
:1015D00003FA07F73943016112E0122A10DAC168F1
:1015E000A2F10A0707EB470C072707FA0CF7B943E4
:1015F000A2F10A0707EB470703FA07F73943C1606F
:10160000F0BD00000549096821F47021034A11600A
:10161000114609680143116070470000042401402D
:10162000F0B51D4606290CDA436B01EB81071F2636
:10163000BE40B34301EB810602FA06F6334343632F
:1016400022E00C290EDA036B8E1F06EB86071F269D
:10165000BE40B3438E1F06EB860602FA06F63343FE
:10166000036311E010290FDAC36AA1F10C0606EB3F
:1016700086071F26BE40B343A1F10C0606EB860683
:1016800002FA06F63343C3620A2A0CDA046902EB53
:1016900042070726BE40B44302EB420605FA06F6AF
:1016A0003443046111E0122A0FDAC468A2F10A0679
:1016B00006EB46070726BE40B443A2F10A0606EB36
:1016C000460605FA06F63443C460F0BD01F0010297
:1016D0001AB1826842F48002826001F002021AB1FB
:1016E000826842F4001282607047AAB101F48073EC
:1016F0001BB1436843F48073436001F480631BB102
:10170000436843F48063436001F00203CBB1836814
:1017100043F00203836014E001F480731BB143685B
:1017200023F48073436001F480631BB1436823F4A6
:101730008063436001F002031BB1836823F002035E
:10174000836070470348006840F400000149086066
:1017500070470000082401407FB5FFF731FC0546C3
:10176000022D01D0032D7DD1FFF7F4F94078032835
:101770005AD17448006810B9012072490875FFF702
:10178000E9F94088402808D102206E490023402210
:10179000CDE900100321FFF7E5F9FFF7DBF94088F9
:1017A000412810D100208DF80800FFF7D7F94079C3
:1017B0008DF80900022002A900234122CDE9001082
:1017C0000321FFF7CFF9FFF7C5F9408842280DD173
:1017D00002215C48083000234222CDE900010321A8
:1017E0000220FFF7BFF9012056490875FFF7B2F94B
:1017F0004088432867D1534908695349FEF772FD71
:101800000646FEF73AFF0446200A8DF80C00E0B2C7
:101810008DF80D00022003A900234322CDE900101A
:101820000321FFF79FF94EE0FFF794F9407806286F
:1018300049D1FFF78FF9408840280BD1FFF78EF987
:10184000807B404908600846007800F00F0008607F
:1018500000204875FFF77EF94088452808D1FFF73A
:101860007DF900E056E0807B36494875012008602C
:10187000FFF770F94088412813D1FFF76FF9807B9B
:1018800030490871FFF766F92E4909790170FFF7B1
:1018900065F92C4909794171FFF7FFFC02202949BC
:1018A0000875FFF757F94088442806D1FFF756F925
:1018B000807B2449C860FFF774FC2248006810B19F
:1018C000002020490875FFF745F9408845281AD0BF
:1018D000FFF740F94088402815D0002301224FF43B
:1018E000FA51032001F00CF80320FFF777F930B329
:1018F0000020144908604875012300221146032086
:1019000000F0FEFF1BE0012300221146032000F03F
:10191000F7FF14E0002301224FF4FA51032000F0F6
:10192000EFFF0320FFF75AF948B10020054908608E
:101930004875012300221146032000F0E1FF00F06A
:1019400041F87FBD6C0000200000204170B50346C7
:1019500098180A4EB04201D9012070BD0AB9012081
:10196000FBE707481D18002404E015F8010B01F8F7
:10197000010B641C9442F8D30020EEE700400808F5
:10198000004000082DE9F04106460F461446301984
:101990000B49884202D90120BDE8F0810CB9012031
:1019A000FAE700F099FB002504E0795D304600F08D
:1019B00075FB6D1CA542F8D300F0E4FA0020EBE7BC
:1019C0000040080870470000044A116800BF034A3D
:1019D0001268521A8242FAD3704700000C000020AD
:1019E00070B505460C462146284600F075F908B941
:1019F00000BFFEE704EB8400810005F108004058B9
:101A000020F0010104EB8400820005F10800815000
:101A100070BD70B505460C462146284600F05CF9BD
:101A200008B900BFFEE704EB8400810005F108005F
:101A3000405840F0010104EB8400820005F10800E9
:101A4000815070BD70B505460C462146284600F011
:101A500043F908B900BFFEE704EB8400810005F1FB
:101A60000800405820F0200104EB8400820005F1BA
:101A70000800815070BD70B505460C4621462846C9
:101A800000F02AF908B900BFFEE704EB84008100EA
:101A900005F10800405840F0200104EB840082006A
:101AA00005F10800815070BD70B504460D46294609
:101AB000204600F011F908B900BFFEE705EB8500EC
:101AC000810004F10800405820F0010105EB850079
:101AD000820004F108008150002105EB850082009E
:101AE00004F10800815005EB8500820004F10C0030
:101AF000815005EB8500820004F11000815005EB58
:101B00008500820004F1140081506068AA000F2152
:101B100091400843606070BD2DE9F04104460D46D8
:101B200016462946204600F0D7F808B900BFFEE760
:101B300005EB8500820004F110003168815005EB4F
:101B40008500820004F11400B1688150308A81B2AE
:101B500005EB8500820004F10C00815005EB850047
:101B6000810004F10800475827F47C57F168706839
:101B7000084371690843074305EB8500810004F1C0
:101B800008004750307E01280ED105EB850081000A
:101B900004F10800405840F0400105EB8500820048
:101BA00004F1080081500DE005EB8500810004F18F
:101BB0000800405820F0400105EB8500820004F148
:101BC00008008150707E01280ED105EB8500810050
:101BD00004F10800405840F0800105EB85008200C8
:101BE00004F1080081500DE005EB8500810004F14F
:101BF0000800405820F0800105EB8500820004F1C8
:101C000008008150B07E70B905EB8500810004F1B9
:101C10000800405820F0100105EB8500820004F117
:101C2000080081500DE005EB8500810004F10800FB
:101C3000405840F0100105EB8500820004F10800D7
:101C40008150BDE8F08110B543688C0002FA04F4BD
:101C50002343436010BD70B5034600BF00BF022A96
:101C600004D0042A11D0082A2DD11DE018688E0056
:101C700002FA06F600EA060501EB8100860003F190
:101C80000800805900F002041FE018688E0002FA74
:101C900006F600EA060501EB8100860003F1080064
:101CA000805900F0040410E018688E0002FA06F66D
:101CB00000EA060501EB8100860003F10800805967
:101CC00000F0080401E000BFFEE700BF15B10CB151
:101CD000012070BD0020FCE702460120034B9A4220
:101CE00002D1042900DD00207047000000040240FA
:101CF00070B506460C46154621463046FFF7ECFF08
:101D000008B900BFFEE7A9B204EB8400820006F127
:101D10000C00815070BD70B505460C462146284622
:101D2000FFF7DAFF08B900BFFEE704EB840081008B
:101D300005F10C00405870BD2DE9F0410446FEF756
:101D40004BFED4B91248407D18B90020FFF7EEF9D8
:101D500005E00F48407D012801D1FFF7E7F90C4964
:101D60000869FEF7B7FC064600F0AEFC85B22A46CD
:101D70000221084800F0A9FF07E00320FFF7D6F989
:101D800000220221034800F0A0FFBDE8F08100001E
:101D90006C0000200004004000B50346012200BF93
:101DA00000F00CF802465B1E012A01D1002BF7D18E
:101DB000012A00D10422104600BD000000200A497B
:101DC000C96801F0010109B101200CE00649C968A8
:101DD00001F0100109B1032005E00349C96801F0D1
:101DE000040101B1022070470020024000B5034603
:101DF000012200BF00F00CF802465B1E012A01D14F
:101E0000002BF7D1012A00D10422104600BD0000AA
:101E100000200A49C96C01F0010109B101200CE060
:101E20000649C96C01F0100109B1032005E003491E
:101E3000C96C01F0040101B102207047002002408A
:101E400070B5044600F048F940F2053000F02AF879
:101E50004FF4417000F026F840F2023000F022F812
:101E60000E480444002512E04FF4806101FB054058
:101E700000F09EF840F2053000F014F84FF4417085
:101E800000F010F840F2023000F00CF86D1C04482D
:101E900000688542E8D300F075F870BD0040000886
:101EA00068000020064A02EB9011096800F01F0349
:101EB00001229A401143024B03EB901211607047CC
:101EC0000020024070B504460D4600262A480088CE
:101ED000B0F5007F35D92948844219D24FF47020DB
:101EE000FFF75AFF0646002E43D12548006940F00F
:101EF00001002349086125804FF47020FFF74CFF53
:101F000006461F48006920F001001D49086130E0C5
:101F10004FF47020FFF76AFF064656BB1848006D65
:101F200040F001001649086525804FF47020FFF746
:101F30005DFF06461248006D20F00100104908655B
:101F400017E04FF47020FFF727FF06468EB90C48C4
:101F5000006940F001000A49086125804FF47020B3
:101F6000FFF71AFF06460648006920F00100044901
:101F70000861304670BD0000E0F7FF1FFFFF070853
:101F8000002002400848006940F0800006490861CE
:101F900006480088B0F5007F04D90846006D40F07F
:101FA000800008657047000000200240E0F7FF1F36
:101FB00030B5054636480088B0F5007F48D9354829
:101FC00085421ED24FF47020FFF7E6FE0446002C37
:101FD0005BD13148006940F002002F490861084692
:101FE0004561006940F0400008614FF47020FFF740
:101FF000D3FE04462848006920F002002649086103
:1020000043E04FF47020FFF7F1FE0446002C3CD172
:102010002148006D40F002001F49086508464565EB
:10202000C06900F0020008B1084645611A48006D19
:1020300040F04000184908654FF47020FFF7D6FEC5
:1020400004461548006D20F00200134908651CE0A5
:102050004FF47020FFF7A0FE0446B4B90E480069A3
:1020600040F002000C49086108464561006940F0F3
:10207000400008614FF47020FFF78EFE04460648CA
:10208000006920F0020004490861204630BD0000CC
:10209000E0F7FF1FFFFF07080020024070B504466D
:1020A0000D460B4800EB44000A49086029460948E0
:1020B0000068FFF707FF40F20530FFF7F3FE4FF42B
:1020C0004170FFF7EFFE40F20230FFF7EBFE70BD0C
:1020D00000400008640000200C48006900F0800007
:1020E00020B10B48094948600A4848600A480088FE
:1020F000B0F5007F09D90548006D00F0800020B1DF
:10210000034802494864034848647047002002407D
:1021100023016745AB89EFCDE0F7FF1F30B50246DD
:102120000B46164C002145F25550154D286000BF56
:102130001348C06800F00101601E041E01D0002990
:10214000F6D109B1002030BD0D4843600B4C00BFF3
:102150000B48C06800F00201601E041E01D0002977
:10216000F6D109B10020EEE7C2F30B00044DA860E0
:102170004AF6AA2028600120E5E70000FFFF0F00D3
:10218000003000404AF6AA2001490860704700006C
:10219000003000404CF6CC40014908607047000018
:1021A0000030004000B58FB04FF4A06000F078FB25
:1021B00000212648FFF778FC2548089000208DF87C
:1021C000380024480A9001208DF839000002099057
:1021D00080000B9000208DF83A0001200C90400305
:1021E0000D9008AA00211948FFF796FC0021174816
:1021F000FFF741FC00211548FFF70BFC04211348B1
:10220000FFF752FC00208DF81E00134803900120B8
:102210008DF81D0000200490202005900F480190AB
:1022200000208DF81C0004904FF44050069001AA45
:1022300004210648FFF770FC04210448FFF702FC64
:1022400004210248FFF7E5FB0FB000BD000002408B
:102250004C2401401400002061010020043801409A
:1022600010B540F2026000F01BFB40F20E6000F07F
:1022700017FB4FF4007303221821344800F0B0F824
:102280004FF4806303220421304800F0A9F830485D
:1022900000F0DCFE4FF416512D4800F085FE0021C1
:1022A0002B4800F09DFF0021294800F089FF002104
:1022B000274800F075FF0021254800F033FF00217A
:1022C000234800F027FF0421214800F071FF082176
:1022D0001F4800F07DFF00221146252000F056F92E
:1022E0004FF441711A4800F025FF194800F0FEFE36
:1022F0000021184800F074FF0021164800F060FF2C
:102300000021144800F04CFF0021124800F00AFFA1
:102310000021104800F0FEFE04210E4800F048FFA6
:1023200008210C4800F054FF4021094800F0D6FE77
:1023300000221146262000F029F94FF4417105488A
:1023400000F0F8FE034800F0D1FE10BD0008014087
:1023500000380140004400400AB1016100E04161E1
:102360007047000010B5012303220021194800F036
:1023700037F8012251031848FFF7EEFF002202212F
:102380001648FFF7E9FF002204211448FFF7E4FF95
:1023900000224FF400610F48FFF7DEFF4FF40053B7
:1023A000032210210C4800F01BF806230322102101
:1023B0000A4800F015F84FF4006303221021054885
:1023C00000F00EF8012303221821044800F008F859
:1023D00010BD00000008014000100140000C014049
:1023E000F0B5044616460025002201F00F0501F065
:1023F000100707B1354300201EE0012787401F402A
:10240000C7B122684FEA800C0F2707FA0CF7BA43CE
:10241000870005FA07F73A43282904D101278740A6
:102420001F40676105E0482903D1012787401F400D
:1024300027612260471CB8B20828DED3082022E0BA
:10244000012787401F40E7B16268A0F108074FEA03
:10245000870C0F2707FA0CF7BA43A0F10807BF0053
:1024600005FA07F73A43282904D1012787401F407E
:10247000676105E0482903D1012787401F40276194
:102480006260471CB8B21028DAD3F0BD00F0EAF958
:1024900000F0CAFAFFF766FF00F058FCFEF79CFF59
:1024A000FFF7DEFEFFF77EFE00F06EF800F0D8F8D2
:1024B00000224FF400512F48FFF74EFF40F20B70FF
:1024C00000F0EEF9052140F6FF70FFF727FEFFF759
:1024D00061FE4DE0FFF756FE00F046FAFEF77AFB8C
:1024E0000068012804D14FF496702349086017E072
:1024F000FEF770FB007D022804D14FF47A701E496C
:1025000008600DE0FEF766FB007D012804D14FF462
:10251000FA601949086003E04FF0FF30164908607F
:10252000FEF762FB15490968401A13490968884299
:1025300018D3FEF759FB114908601148007840B9DB
:1025400001200F490870012241030A48FFF704FFE8
:1025500008E000200A49087000224FF400510548A5
:10256000FFF7FAFE00224FF400610648FFF7F4FE81
:10257000B0E700000010014004000020000000202F
:102580000800002000080140704700002DE9F041DC
:1025900003460D46164600240027A046244800683E
:1025A00000F4E060B0F5A06F15D006DCB0F5407F18
:1025B00018D0B0F5806F19D110E0B0F5C06F06D01B
:1025C000B0F5E06F12D100274FF0040815E00127A5
:1025D0004FF0030811E00227B8460EE003274FF042
:1025E00001080AE004274FF0000806E04FF4A0605D
:1025F00000F022F80227B84600BF00BFC7F1040070
:1026000005FA00F4C8F104010F20C840304004432B
:1026100024010848C45403F01F01012088405911C7
:10262000890001F1E021C1F80001BDE8F08100005E
:102630000CED00E000E400E002490143024A1160B1
:10264000704700000000FA050CED00E0024A0A4065
:102650000243024B1A60704780FFFF1F08ED00E045
:1026600010B5FEF73DFCFEF7EFFD024800F004F860
:1026700010BD000000401C4610B504460E48FEF791
:1026800027FC00210D480C4AC2E902100C490D48F4
:10269000C2E9041000219161D1612046FEF71AF8C9
:1026A000054A03C20021083A1162516200201063FA
:1026B00050639163D16310BDF800002000003440E6
:1026C00048AFBC9AF2D76A3E70B504460D4607483B
:1026D00030C008380CC80648FEF746FB054A03C25E
:1026E000044903C9FDF7DDFF70BD0000480000206C
:1026F000F8000020400000200F4A51680F4A1140A6
:10270000082814D2DFE800F004050607130A130BAB
:1027100000BF00BF00BF41EA803109E000BF20F0E8
:1027200004004FF0805242EA8032114300E000BFC3
:1027300000BF014A5160704700100240FF3FFFEFA9
:102740002DE9F04F8BB00746002009903EA090E89D
:10275000004CC068CDE905BECDF810A007900FF27F
:10276000EC0ADAE9000ACDE9020A0FF2E00ADAE936
:10277000000ACDE9000A38484068C0F381000A9099
:102780000A9820B1012804D0022829D103E0334956
:1027900028E0324926E03048406800F48038B8F537
:1027A000803F09D12D4C2C48406800F40039B9F520
:1027B000003F02D1641000E0294C27484068C0F374
:1027C00083422548406800F0006008B142F01002E2
:1027D0000F2A01D2921C00E0521C04FB02F101E01E
:1027E0001E4900BF00BF1C484068C0F3031504A881
:1027F000465D21FA06F318484068C0F3022502A896
:10280000465D23FA06FC14484068C0F3C2251DF853
:10281000056023FA06F0089037B1012F06D0022F89
:1028200006D0032F0AD106E0099108E0099306E0DB
:10283000CDF824C003E00898099000E000BF00BF75
:1028400009980BB0BDE8F08F000000000000000008
:1028500001020304060708090010024000127A0072
:1028600000093D0010B540F2026000F019F840F296
:10287000036000F015F840F2046000F011F84FF426
:10288000C06000F00DF840F2096000F009F84FF464
:10289000A06000F005F80320FFF72EFF10BD000038
:1028A000064A02EB9011096800F01F0301229A40CA
:1028B0001143024B03EB901211607047001002406D
:1028C000064A02EB9011096800F01F0301229A40AA
:1028D0009143024B03EB90121160704700100240CD
:1028E000064A02EB9011096800F01F0301229A408A
:1028F0001143024B03EB901211607047001002402D
:1029000030B50446DBB9174850F82400A8B915487B
:1029100040F82410FEF768F9124D303545F82400D0
:10292000002510482430055501200E4D0C3D28553A
:1029300005F160000255002030BD0120FCE70025B4
:10294000084840F82450243005550020054D0C3D22
:10295000285500250348303040F8245024300555D0
:102960000220E9E79400002010B5FEF7F5FE00F024
:102970003FFC10BD00200021264A126842F00102EF
:10298000244B1A6000BF401C224A126802F0020168
:1029900011B9B0F5A06FF6D11E4A126802F002021A
:1029A0000AB900BFFEE71B4A52681A4B5A601A4622
:1029B00052685A601A46526842F480625A601A4657
:1029C0005268154B1A40134B5A601A465268134B03
:1029D0001A43104B5A601A46126842F080721A600D
:1029E00000BF0C4A126802F00072002AF9D0094AAE
:1029F000526822F00302074B5A601A46526842F0AE
:102A000002025A6000BF034A526802F00802002A1C
:102A1000F9D0704700100240FFFFC3F700002808FC
:102A200010B5FFF7A7FF10BD10B5124800684FF4AE
:102A30007A71B0FBF1F4601EB0F1807F01D3012008
:102A40000FE0601E4FF0E02148610F214FF0FF3092
:102A5000FEF762F900204FF0E0218861072008614D
:102A6000002008B100BFFEE70021481EFEF754F920
:102A700010BD000010000020016841F080010160DD
:102A80007047000010B531B101293FD002297DD037
:102A900003297CD1BFE0036A23F001030362836949
:102AA00023F003038361036A148823430362036AE8
:102AB00023F002030362036A9488234303626A4B90
:102AC000984202D0694B98421FD1036A23F0040355
:102AD0000362036A548823430362036A23F00803F2
:102AE0000362036AD48823430362436823F4807338
:102AF00043604368148923434360436823F40073AD
:102B000043604368548923434360ABE0036A23F086
:102B100010030362836923F440738361036A14889A
:102B200043EA04130362036A23F020030362036A87
:102B3000948843EA041303624B4B984202D04B4BF8
:102B4000984226D1036A23F040030362036A548843
:102B500043EA04130362036A23F080030362036AF7
:102B6000D48843EA04130362436823F48063436018
:102B70004368148943EA84034360436823F4006391
:102B800043604368548943EA840301E002E068E05B
:102B9000436067E0036A23F480730362C36923F030
:102BA0000303C361036A148843EA04230362036ACC
:102BB00023F400730362036A948843EA04230362E4
:102BC000294B984202D0294B984223D1036A23F41F
:102BD00080630362036A548843EA04230362036A3E
:102BE00023F400630362036AD48843EA0423036284
:102BF000436823F4805343604368148943EA041311
:102C00004360436823F4005343604368548943EAB4
:102C10000413436026E0036A23F480530362C3690C
:102C200023F44073C361036A148843EA04330362E4
:102C3000036A23F400530362036A948843EA04336B
:102C40000362094B984202D0084B984208D143686E
:102C500023F4804343604368148943EA8413436048
:102C600000E000BF00BF10BD002C01400034014057
:102C700031B101290CD0022913D0032922D118E047
:102C8000836923F0700383618369134383611AE0CE
:102C9000836923F4E0438361836943EA0223836108
:102CA00011E0C36923F07003C361C3691343C361B7
:102CB00009E0C36923F4E043C361C36943EA022323
:102CC000C36100E000BF00BF704731B1012906D0E9
:102CD000022906D0032908D105E0426306E0826399
:102CE00004E0C26302E0026400E000BF00BF70477E
:102CF00031B101290CD0022913D0032922D118E0C7
:102D0000836923F0080383618369134383611AE0B5
:102D1000836923F400638361836943EA0223836147
:102D200011E0C36923F00803C361C3691343C3619E
:102D300009E0C36923F40063C361C36943EA022362
:102D4000C36100E000BF00BF7047000000B587B05E
:102D500040F20170FFF7A4FD204800F041F8232065
:102D6000ADF800000020ADF80200ADF804004FF609
:102D7000FF7002900020ADF80C008DF80E0069463F
:102D8000164800F0A1F80020ADF814000120ADF8BD
:102D900010000020ADF81600ADF81200ADF81800D4
:102DA000ADF81A0004AA02210C48FFF76BFE0022BE
:102DB00002210A48FFF789FF602202210748FFF736
:102DC00057FF002202210548FFF792FF0348FFF753
:102DD00053FE024800F072F807B000BD0004004046
:102DE00010B504463349601A8C4244D00CDCB4F16F
:102DF000804F1CD03048204410B3B0F5806F28D0ED
:102E0000B0F5006F52D12DE0B0F5806F3CD0B0F539
:102E10008E3F03D0B0F5923F48D13EE040F20B30F8
:102E2000FFF75EFD40F20B30FFF74AFD3FE04FF445
:102E30008060FFF755FD4FF48060FFF741FD36E0FD
:102E400040F20140FFF74CFD40F20140FFF738FD32
:102E50002DE040F20240FFF743FD40F20240FFF751
:102E60002FFD24E040F20340FFF73AFD40F203401B
:102E7000FFF726FD1BE040F20440FFF731FD40F272
:102E80000440FFF71DFD12E040F20540FFF728FD6A
:102E900040F20540FFF714FD09E040F20D30FFF766
:102EA0001FFD40F20D30FFF70BFD00E000BF00BF3B
:102EB00010BD00000010004000FCFFBF016841F0A1
:102EC00001010160704700000A888262294A90422D
:102ED00020D0B0F1804F1DD0274A90421AD0274A07
:102EE000904217D0264A904214D0264A904211D0E0
:102EF000254A90420ED0254A90420BD0244A904257
:102F000008D0244A904205D0234A904202D0234A56
:102F100090420FD1026822F07002026002688B7842
:102F200003F060031A43026002680B7903F0100398
:102F30001A4302608A68C262194A90420CD0194A48
:102F4000904209D0026822F44072026002688B89C4
:102F500003F440731A430260064A904202D0094AC1
:102F6000904201D18A7B0263426942F001024261D0
:102F700070470000002C01400004004000080040A1
:102F8000000C004000340140004C01400050014062
:102F90000054014000180040001C00400020004088
:102FA00000100040001400402DE9F04704460D4693
:102FB0000027B846B94600261D49601A8C421CD02D
:102FC00006DC1C48204470B1B0F5806F1FD10FE0C3
:102FD000B0F5806F16D0B0F56C4F18D10320FFF715
:102FE000AFFB074614E00220FFF7AAFB07460FE0FD
:102FF0000220FFF7A5FB07460AE00220FFF7A0FB2F
:10300000074605E00220FFF79BFB074600E000BFF4
:1030100000BF07EB5500B0FBF5F64FF6F07006EA7F
:10302000000806F00F0948EA0900A060BDE8F08733
:10303000004C004000BCFFBF01464868C0F30800D8
:103040007047C1F3080242607047000010B50446A3
:103050002049601A8C4228D006DC1F48204490B1D9
:10306000B0F5806F33D117E0B0F5806F26D0B0F5A2
:103070006C4F2CD140F20E30FFF732FC40F20E3094
:10308000FFF71EFC24E040F21140FFF729FC40F25C
:103090001140FFF715FC1BE040F21240FFF720FC47
:1030A00040F21240FFF70CFC12E040F21340FFF731
:1030B00017FC40F21340FFF703FC09E040F2144014
:1030C000FFF70EFC40F21440FFF7FAFB00E000BFF0
:1030D00000BF10BD004C004000BCFFBF0A460021ED
:1030E000416921F04001114341617047C16841F4D9
:1030F0000051C160704710B5024602EB91100068A4
:1031000001F01F040123A340184008B1012010BDA5
:103110000020FCE70A460021416921F400711143B7
:10312000416170470A460021416921F480711143D1
:103130004161704710B5C1F38912825801F01F0434
:103140000123A3401A43C1F38913C25010BD10B527
:1031500000EB91521268C1F304440123A3409A4347
:1031600000EB91531A6010BD70B502460023002495
:10317000C1F38910105801F01F060125B54000EA7F
:10318000050302EB91500068C1F304460125B540E8
:1031900000EA050414B10BB1012070BD0020FCE76A
:1031A000C26822F4C062C260C2680A43C26070474B
:1031B0000A460021C16821F004011143C160704733
:1031C000026922F44052026102690A4302617047B7
:1031D0000A460021C16821F008011143C16070470F
:1031E000C26822F48052C260C2680A43C26070475B
:1031F00010B547480068012872D10023012240F62B
:10320000B8310220FFF77CFB414908694149FDF7CD
:10321000CBFA09D80120FEF78FFD3F48FFF72CFAC3
:1032200000203B4908602EE00220FDF7D7FC012872
:103230001ED1374908693949FDF7ACFA05D9344937
:1032400008693449FDF7B0FA0BD83148407D40B9E0
:103250000120FEF771FD3048FFF70EFA00202C49DF
:1032600008600123002211460220FFF749FB0AE013
:103270002748807D032803DB0120FEF75DFD02E087
:103280000020FEF759FD2248407D012817D1002378
:1032900001224EF660211846FFF732FB0020FDF7B1
:1032A0009DFC012832D11A48807D401C1849887540
:1032B0000123002211461046FFF722FB26E01448A6
:1032C000807D002804DD1248807D401E10498875ED
:1032D0000123002211461046FFF712FB16E0FFE71C
:1032E0000B48006818B10A48C06801280ED10120B7
:1032F000FEF722FD0648C068012803D1FEF72FF82B
:10330000FDF71EFDFDF770FC0549086010BD0000CB
:103310006C00002000803B4600401C4600002F440B
:103320003C00002000C1814001C0804101C08041BB
:1033300000C1814001C0804100C1814000C1814085
:1033400001C0804101C0804100C1814000C1814075
:1033500001C0804100C1814001C0804101C0804165
:1033600000C1814001C0804100C1814000C1814055
:1033700001C0804100C1814001C0804101C0804145
:1033800000C1814000C1814001C0804101C0804135
:1033900000C1814001C0804100C1814000C1814025
:1033A00001C0804101C0804100C1814000C1814015
:1033B00001C0804100C1814001C0804101C0804105
:1033C00000C1814000C1814001C0804101C08041F5
:1033D00000C1814001C0804100C1814000C18140E5
:1033E00001C0804100C1814001C0804101C08041D5
:1033F00000C1814001C0804100C1814000C18140C5
:1034000001C0804101C0804100C1814000C18140B4
:1034100001C0804100C1814001C0804101C08041A4
:1034200000C1814000C0C101C30302C2C60607C774
:1034300005C5C404CC0C0DCD0FCFCE0E0ACACB0BE4
:10344000C90908C8D81819D91BDBDA1A1EDEDF1F14
:10345000DD1D1CDC14D4D515D71716D6D21213D304
:1034600011D1D010F03031F133F3F23236F6F737B4
:10347000F53534F43CFCFD3DFF3F3EFEFA3A3BFBA4
:1034800039F9F83828E8E929EB2B2AEAEE2E2FEF54
:103490002DEDEC2CE42425E527E7E62622E2E323C4
:1034A000E12120E0A06061A163A3A26266A6A767F4
:1034B000A56564A46CACAD6DAF6F6EAEAA6A6BAB64
:1034C00069A9A86878B8B979BB7B7ABABE7E7FBF94
:1034D0007DBDBC7CB47475B577B7B67672B2B37384
:1034E000B17170B050909151935352929656579734
:1034F000559594549C5C5D9D5F9F9E5E5A9A9B5B24
:1035000099595898884849894B8B8A4A4E8E8F4FD3
:103510008D4D4C8C44848545874746868242438343
:103520004181804044350008000000206C0000000C
:1035300040130008B03500086C0000209421000002
:103540005013000800000000000000000000000010
:103550000000000000F36F06000000000000000003
:10356000000000000000000000000000000000005B
:10357000000000000000000000000000C832000051
:10358000000000000000000000000000000000003B
:10359000000000000000000000000000000000002B
:1035A0000000000000000000000000000200000019
:04000005080001519D
:00000001FF
