:10297600C0F9A4B0FF999282F880908883C6A18698
:102986008E089809C40D480A8C0000000007D0087C
:102996003408FC09C40DAC1388000000001388003D
:1029A60000000013880DAC0BB809C40DAC09C40FA8
:0929B600A007D00FA007D00FA06C
:10244600815C00816100903C0000000100020003F5
:102456000004000500060007843840A00000842818
:10246600406CCCCD842D41C00000843441C80000AE
:10247600815200812C00812700815000815B0082FF
:102486002500008232000082660000825900008129
:10249600530081040081050082060000846200006A
:1024A6000000844C00000000840800000000840C3A
:1024B60000000000811200811300811400812400B5
:052553007868120D92F2
:102558007F007E007D007C007868E2FB08E2F908D5
:10256800E2FA08E2CBF8D3120D4E405E78B4E2FCF2
:1025780008E2FD08E2FE08E2FF7800120D927800FA
:10258800E2FB08E2F908E2FA08E2CBF8C000C00171
:10259800C002C00378B4E2FC08E2FD08E2FE08E2EB
:1025A800FFD003D002D001D000C3EF9BFFEE9AFE0C
:1025B800ED99FDEC98FC7868E2FB08E2F908E2FA8C
:0A25C80008E2CBF8D3120D4E50B418
:0125D20022E6
:102B5A0043B30153B4FE43B10153B2FE43B102532E
:102B6A00B2FD53B1DF43B22053B3FD43B40253B3B2
:102B7A00FB43B40453B3F743B40853B3EF43B4105D
:0D2B8A0053B3DF43B420D295C285D293220D
:102BBD0078527406F2C2857FC87E007D007C0012BB
:102BCD0026A575C7AA75C755759F0275C7AA75C77E
:052BDD0055759F8222E6
:10163000A2AF9200C2AF75C7AA75C755439F01A25A
:101640000092AF75AF0475A60D75A700A2AF92000A
:10165000C2AF75C7AA75C75543A401A20092AF785F
:101660006DE5AEF2786DE2FFEF54F0FF786EEFF2C9
:10167000786EE2FF7E00EF64804E600302171378FD
:101680006DE2FFEF540FFF786DEFF275A60C75A7B2
:1016900000A2AF9200C2AF75C7AA75C75543A40197
:1016A000A20092AF786CE5AEF2786CE2FF7E00EFBC
:1016B00075F010A4FFAEF0786DE2FD7C00EF2DFD1B
:1016C000EE3CFCEC120B63786F120D927F007E00F3
:1016D0007D407C40786FE2FB08E2F908E2FA08E21C
:1016E000CBF812093F7B007A0079807840120A48D3
:1016F0007873120D927F007E007D047CC27873E2C5
:10170000FB08E2F908E2FA08E2CBF812084E785D2D
:10171000120D92786EE2FF7E00EF4E7076786DE2E9
:10172000FFEF540FFF786DEFF275A60C75A700A2BE
:10173000AF9200C2AF75C7AA75C75543A401A200F6
:1017400092AF786CE5AEF2786CE2FF7E00EF75F058
:1017500010A4FFAEF0786DE2FD7C00EF2DFDEE3CB5
:10176000FCEC120B63786F120D927F007E007D40BF
:101770007C40786FE2FB08E2F908E2FA08E2CBF875
:1017800012093F7B007A0079807840120A48785D20
:10179000120D92786EE2FF7E00EF64904E600302BD
:1017A000183675A60E75A700A2AF9200C2AF75C716
:1017B000AA75C75543A401A20092AF786CE5AEF2BA
:1017C00075A60F75A700A2AF9200C2AF75C7AA7524
:1017D000C75543A401A20092AF786DE5AEF2786DD3
:1017E000E2FFEF540FFF786DEFF2786CE2FF7E00BE
:1017F000EF75F010A4FFAEF0786DE2FD7C00EF2DE8
:10180000FDEE3CFCEC120B63786F120D927F007EB4
:10181000007D407C40786FE2FB08E2F908E2FA08BC
:10182000E2CBF812093F7B007A0079807840120AF7
:1018300048785D120D92A2AF9200C2AF75C7AA752B
:09184000C755539FFEA20092AFB0
:01184900227C
:0E23B8007877EEF208EFF27879ECF208EDF2A9
:1023C600A2AF9200C2AF75C7AA75C7554391014324
:1023D600C60875C7AA75C7555391FEA20092AF539A
:1023E600DF3F43DF0153DFF97877E2FE08E2FFAB18
:1023F60007AA06E4F9F87F007E127D7A7C00122A8D
:1024060093787BEEF208EFF2787BE2FE08E2FFEECD
:10241600FF7E008FD1787BE2FE08E2FF7E008FD937
:102426007879E2FE08E2FFEEFF7E008FD57879E24A
:0F243600FE08E2FF7E008FDD53D6F7D2DED2DF45
:012445002274
:100DDD0075950253E8F043B38053B47F75F6004325
:100DED00F60143E101C2EFD2EE30EFFDAFC37E005D
:100DFD00EF75F010A4FFAEF0ADC27C00EF2DFFEE4D
:100E0D003CFE783CEEF208EFF253E1FE53E8F0437E
:100E1D00E80143AC0153ADFE75F60043F60243E124
:100E2D0001C2EFD2EE30EFFDAFC37E00EF75F010D3
:100E3D00A4FFAEF0ADC27C00EF2DFFEE3CFE783E80
:100E4D00EEF208EFF253E1FE53E8F043E80643B14A
:100E5D000853B2F775F60043F64043E101C2EFD2F5
:100E6D00EE30EFFDAFC37E00EF75F010A4FFAEF0D6
:100E7D00ADC27C00EF2DFFEE3CFE7840EEF208EFA8
:100E8D00F253E1FE43E80853E8F843E101C2EFD223
:100E9D00EE30EFFDAFC37E00EF75F010A4FFAEF0A6
:100EAD00ADC27C00EF2DFFEE3CFE7842EEF208EF76
:100EBD00F253E1FE7595007842E2FC08E2FDE41282
:100ECD000B63A804A905AA06AB077F007E007D80F1
:100EDD007C45120A48785DE2FB08E2F908E2FA085F
:100EED00E2CBF812093F7881120D927881E2FC086D
:100EFD00E2FD08E2FE08E2FF7B007A00797A784491
:100F0D00120A487881120D927804E2FF7E00EF4EAE
:100F1D0070127881E2FC08E2FD08E2FE08E2FF783B
:100F2D0038120D927B007A0079C87841C000C0015B
:100F3D00C002C0037838E2FC08E2FD08E2FE08E2D8
:100F4D00FFD003D002D001D000120A48C004C00562
:100F5D00C006C0077838E2FC08E2FD08E2FE08E2B0
:100F6D00FFD003D002D001D00012084AC004C00542
:100F7D00C006C0077B007A0079C87841C000C00167
:100F8D00C002C0037881E2FC08E2FD08E2FE08E23F
:100F9D00FFD003D002D001D000120A48A804A90541
:100FAD00AA06AB07D007D006D005D00412084E789C
:100FBD0038120D92783EE2FC08E2FDE4120B6378E4
:100FCD0038E2FB08E2F908E2FA08E2CBF812093F31
:100FDD007B007AF0797F7845120A487881120D925C
:100FED007804E2FF7E00EF4E70387B007A00793096
:100FFD007841C000C001C002C0037881E2FC08E264
:10100D00FD08E2FE08E2FFD003D002D001D00012AD
:10101D000A487BCD7ACC794C783E120A4878341246
:10102D000D927B007A0079307841C000C001C0027A
:10103D00C0037881E2FC08E2FD08E2FE08E2FFD081
:10104D0003D002D001D000120A487BCD7ACC794C66
:10105D00783E120A487881120D927B007A0079C889
:10106D007841C000C001C002C0037834E2FC08E240
:10107D00FD08E2FE08E2FFD003D002D001D000123D
:10108D000A48C004C005C006C0077834E2FC08E277
:10109D00FD08E2FE08E2FFD003D002D001D000121D
:1010AD00084AC004C005C006C0077B007A0079C895
:1010BD007841C000C001C002C0037881E2FC08E2A3
:1010CD00FD08E2FE08E2FFD003D002D001D00012ED
:1010DD000A48A804A905AA06AB07D007D006D00573
:1010ED00D00412084E7834120D927840E2FC08E2DA
:1010FD00FDE4120B637838E2FB08E2F908E2FA0826
:10110D00E2CBF812093F7B007AF0797F7845120A1D
:10111D00487B007A007900784012093F7881120DE2
:10112D00927804E2FF7E00EF4E70127881E2FC08A7
:10113D00E2FD08E2FE08E2FF7828120D927B007AAC
:10114D000079C87841C000C001C002C0037828E210
:10115D00FC08E2FD08E2FE08E2FFD003D002D00158
:10116D00D000120A48C004C005C006C0077828E2A6
:10117D00FC08E2FD08E2FE08E2FFD003D002D00138
:10118D00D00012084AC004C005C006C0077B007A13
:10119D000079C87841C000C001C002C0037881E267
:1011AD00FC08E2FD08E2FE08E2FFD003D002D00108
:1011BD00D000120A48A804A905AA06AB07D007D08B
:1011CD0006D005D00412084E7828120D92783CE214
:1011DD00FC08E2FDE4120B637838E2FB08E2F90843
:1011ED00E2FA08E2CBF812093F7B007AF0797F78BA
:1011FD0045120A487B007A007930784112093F7810
:10120D007D120D927804E2FF7E00EF4E7012787D14
:10121D00E2FC08E2FD08E2FE08E2FF782D120D92D5
:10122D007B007A0079C87841C000C001C002C003BC
:10123D00782DE2FC08E2FD08E2FE08E2FFD003D0C3
:10124D0002D001D000120A48C004C005C006C00774
:10125D00782DE2FC08E2FD08E2FE08E2FFD003D0A3
:10126D0002D001D00012084AC004C005C006C00754
:10127D007B007A0079C87841C000C001C002C0036C
:10128D00787DE2FC08E2FD08E2FE08E2FFD003D023
:10129D0002D001D000120A48A804A905AA06AB077E
:1012AD00D007D006D005D00412084E782D120D921D
:1012BD00782DE2FC08E2FD08E2FE08E2FF782D122F
:0712CD000D9278047401F298
:0112D40022F7
:102C1B0053890F438910538EEF758DCC758BEAD288
:0A2C2B00ABD2AFD28E7852E4F22251
:101B6B007885EFF27886EDF27885E2FFEF30E024AE
:101B7B007886E2FF7E00EF4E700E785CE2FFEF544A
:101B8B00FEFF785CEFF2800C785CE2FFEF4401FF24
:101B9B00785CEFF27885E2FFEF30E1247886E2FFA4
:101BAB007E00EF4E700E785CE2FFEF54FDFF785C29
:101BBB00EFF2800C785CE2FFEF4402FF785CEFF20F
:101BCB007885E2FFEF30E2247886E2FF7E00EF4E6D
:101BDB00700E785CE2FFEF54FBFF785CEFF2800C49
:101BEB00785CE2FFEF4404FF785CEFF27885E2FF6C
:101BFB00EF30E3247886E2FF7E00EF4E700E785CC8
:101C0B00E2FFEF54F7FF785CEFF2800C785CE2FFB9
:101C1B00EF4408FF785CEFF27885E2FFEF30E424C5
:101C2B007886E2FF7E00EF4E700E785CE2FFEF5499
:101C3B00EFFF785CEFF2800C785CE2FFEF4410FF73
:101C4B00785CEFF27885E2FFEF30E5247886E2FFEF
:101C5B007E00EF4E700E785CE2FFEF54DFFF785C96
:101C6B00EFF2800C785CE2FFEF4420FF785CEFF240
:101C7B007885E2FFEF30E6247886E2FF7E00EF4EB8
:101C8B00700E785CE2FFEF54BFFF785CEFF2800CD4
:101C9B00785CE2FFEF4440FF785CEFF27885E2FF7F
:101CAB00EF30E7247886E2FF7E00EF4E700E785C13
:101CBB00E2FFEF547FFF785CEFF2800C785CE2FF81
:101CCB00EF4480FF785CEFF27885E2FFEF54FFFF83
:0E1CDB007E00EF4E7007785C7406F2C2852220
:0D2C63007887EFF27887E2FF7852EFF222D7
:0C2C7D007D147C007F647E001223B822CE
:1012D5007852E2FFEF120DB712F600130601138DD7
:1012E50002141403149B0415220515A90600001603
:1012F5002F7D007C007FD07E071223B87805E4F2AD
:10130500227805E2FF7E00C3EF9403EE64809480AB
:1013150040107852E4F27805E4F27806E4F208E445
:10132500F2227805E2FFEF25E02487F582E43429EF
:10133500F583E493FE740193FF7806E2FC08E2FD71
:10134500ED6F7002EC6E603A7805E2FFEF25E02460
:1013550087F582E43429F583E493FE740193FF78DD
:1013650006EEF208EFF27806E2FE08E2FF7C007D69
:101375000A120C1DAC06AD077806E2FE08E2FF1264
:1013850023B87805E204F2227805E2FF7E00C3EF78
:101395009403EE6480948040107852E4F27805E47A
:1013A500F27806E4F208E4F2227805E2FFEF25E0A0
:1013B500248DF582E43429F583E493FE740193FFCB
:1013C5007806E2FC08E2FDED6F7002EC6E603A789B
:1013D50005E2FFEF25E0248DF582E43429F583E469
:1013E50093FE740193FF7806EEF208EFF27806E2B9
:1013F500FE08E2FF7C007D0A120C1DAC06AD0778E5
:1014050006E2FE08E2FF1223B87805E204F222782C
:1014150005E2FF7E00C3EF9405EE648094804010E2
:101425007852E4F27805E4F27806E4F208E4F22270
:101435007805E2FFEF25E02493F582E43429F5836E
:10144500E493FE740193FF7806E2FC08E2FDED6F7C
:101455007002EC6E603A7805E2FFEF25E02493F523
:1014650082E43429F583E493FE740193FF7806EE54
:10147500F208EFF27806E2FE08E2FF7C007D0A1230
:101485000C1DAC06AD077806E2FE08E2FF1223B894
:101495007805E204F2227805E2FF7E00D3EF940797
:1014A500EE6480948040107852E4F27805E4F27896
:1014B50006E4F208E4F2227805E2FFEF25E0249D38
:1014C500F582E43429F583E493FE740193FF7806ED
:1014D500E2FC08E2FDED6F7002EC6E603A7805E221
:1014E500FFEF25E0249DF582E43429F583E493FE9E
:1014F500740193FF7806EEF208EFF27806E2FE0833
:10150500E2FF7C007D0A120C1DAC06AD077806E2F1
:10151500FE08E2FF1223B87805E204F2227805E21C
:10152500FF7E00C3EF9405EE6480948040107852EE
:10153500E4F27805E4F27806E4F208E4F2227805AC
:10154500E2FFEF25E024ABF582E43429F583E4934B
:10155500FE740193FF7806E2FC08E2FDED6F700270
:10156500EC6E603A7805E2FFEF25E024ABF582E406
:101575003429F583E493FE740193FF7806EEF208AF
:10158500EFF27806E2FE08E2FF7C007D0A120C1DF0
:10159500AC06AD077806E2FE08E2FF1223B878052F
:1015A500E204F2227805E2FF7E00C3EF9405EE64C3
:1015B50080948040107852E4F27805E4F27806E4ED
:1015C500F208E4F2227805E2FFEF25E024B5F58282
:1015D500E43429F583E493FE740193FF7806E2FC75
:1015E50008E2FDED6F7002EC6E603A7805E2FFEF00
:1015F50025E024B5F582E43429F583E493FE7401EE
:1016050093FF7806EEF208EFF27806E2FE08E2FFB5
:101615007C007D0A120C1DAC06AD077806E2FE08BB
:0A162500E2FF1223B87805E204F298
:01162F002298
:10184A007888EFF23080063090037F0122208003EF
:10185A0002193B7F1E7E007D007C001225537854BE
:10186A00E2FC08E2FD08E2FE08E2FF7B017A007969
:10187A00007800EF2BFFEE3AFEED39FDEC38FC78EC
:10188A0054120D9230805E7862E2FC08E2FD08E2B2
:10189A00FE08E2FF7B017A0079007800EF2BFFEE69
:1018AA003AFEED39FDEC38FC7862120D927F407EEB
:1018BA000D7D037C007862E2FB08E2F908E2FA088F
:1018CA00E2CBF8D3120D4E40BB782CE2FFEF54F076
:1018DA00FF782CEFF2782CE2FFEF4403FF782CEF2D
:1018EA00F28002809F7F407E0D7D037C007862E259
:1018FA00FB08E2F908E2FA08E2CBF8C3120D4E50EF
:10190A0027782CE2FFEF54F0FF782CEFF2782CE2E4
:10191A00FFEF4402FF782CEFF27888E2FF7E00EFB7
:10192A004E70057F02122C637862120D9E00000031
:10193A00002090030219E430905E784CE2FC08E241
:10194A00FD08E2FE08E2FF7B017A0079007800EFE9
:10195A002BFFEE3AFEED39FDEC38FC784C120D9275
:10196A007F407E0D7D037C00784CE2FB08E2F9089B
:10197A00E2FA08E2CBF8D3120D4E40BB782CE2FF14
:10198A00EF540FFF782CEFF2782CE2FFEF4430FF90
:10199A00782CEFF28002809F7F407E0D7D037C00D1
:1019AA00784CE2FB08E2F908E2FA08E2CBF8C31243
:1019BA000D4E501D782CE2FFEF540FFF782CEFF2FA
:1019CA00782CE2FFEF4420FF782CEFF27F02122CF2
:0F19DA0063784C120D9E00000000782CE2FF2273
:102AD700782CE2FFEF54F0FF782CEFF2782CE2FF2E
:102AE700EF4401FF782CEFF27862120D9E00000090
:102AF70000782CE2FFEF540FFF782CEFF2782CE2EE
:102B0700FFEF4410FF782CEFF2784C120D9E000077
:032B170000002299
:101E5E00208103021FB378507405F27811E2FF7EE1
:101E6E0000EF64014E6003021EF77B647A00790076
:101E7E007800C000C001C002C0037808E2FC08E28E
:101E8E00FD08E2FE08E2FFD003D002D001D000121E
:101E9E000CAEAC00AD01AE02AF037B007A00790050
:101EAE007800C3120D4E70257810E2FF7E00EF4EC3
:101EBE00700778107401F280047810E4F27810E262
:101ECE00FD7F04121B6B7D017F02121B6B780812C3
:101EDE000D727B207A4E79007800C3120D4E500998
:101EEE007808120D9E000000007F9A7E997D057C79
:101EFE00417828E2FB08E2F908E2FA08E2CBF81290
:101F0E000AE5600250287F007E007D007C40782824
:101F1E00E2FB08E2F908E2FA08E2CBF8120AE54021
:101F2E000D78117401F278507401F2021FC97F9A74
:101F3E007E997D057C417828E2FB08E2F908E2FAF9
:101F4E0008E2CBF8120AE560434041780C120D729C
:101F5E007B407A9C79007800C3120D4E50227D0191
:101F6E007F04121B6B7D007F02121B6B7811E4F253
:101F7E00780C120D9E00030D4078507402F2803BD7
:101F8E0078117401F278507401F2802F7850740336
:101F9E00F2780C120D9E000000007808120D9E00C3
:101FAE000000008016780C120D9E000000007808CC
:0F1FBE00120D9E000000007850E4F27850E2FF10
:011FCD0022F1
:0824CE007889EFF2788AEDF243
:1024D600788BE4F2788BE2FFEF3395E0FEC3EF945E
:1024E60010EE64809480505C788BE2FFEF3395E0C9
:1024F600FEC3EF9408EE64809480501F7889E2FF53
:10250600EF30E704D2948002C2947889E2FFEF2587
:10251600E0FF7889EFF2D29100801CC291788AE2BE
:10252600FFEF30E704D2948002C294788AE2FFEF8C
:1025360025E0FF788AEFF2C29100D29100788BE213
:0C25460004F28090C292C2930000D29276
:012552002266
:03001700D294225E
:032C8900C29422D0
:032C8C00D29122C0
:032C8F00C29122CD
:032C9200D29222B9
:032C9500C29222C6
:0429BF00788CEFF22F
:1029C300788DE4F2788DE2FF7E00C3EF9408EE6425
:1029D300809480502D788CE2FFEF30E705120017CA
:1029E3008003122C89122C8F0000122C8C0000788B
:1029F3008CE2FFEF25E0FF788CEFF2788DE204F2B2
:022A030080C28F
:012A050022AE
:0D2C7000122C95000000122C920000002292
:082A0600788EEFF2788FEDF2FB
:102A0E00788EE2FF7891EFF2788FE2FF7892EFF214
:102A1E00C2937890E4F27890E2FF7E00C3EF9402C6
:102A2E00EE6480948050147890E2FF74912FF8E257
:0E2A3E00FF1229BF7890E204F280DB122C70A8
:012A4C002267
:1028E000783174FFF27F01122C637D067F00121B8A
:1028F0006BC285C2957833E22401F218E23400F20B
:10290000121CE97D007F10121B6B78317404F27881
:1029100031E2FFEF90297693FF785CE2FD122A0600
:0C2920007FC87E007D007C001226A522EE
:10292C007F01122C637D067F00121B6BC2857831F0
:10293C007404F22081097D007F02121B6B800E7DD6
:10294C00017F02121B6B7D007F04121B6B7831E23E
:10295C00FFEF90297693FF785CE2FD122A067F0A3E
:0A296C007E007D007C00122553223E
:102C0000C2937D017F10121B6B7831E2FFEF902998
:0B2C10007693FF785CE2FD122A06229A
:04001E007893EFF2F2
:100022007827E2FFEF120DB7003A0001970103743F
:10003200040388060000039D7814E4F27813E2FFBB
:1000420004F27E00C3EF9432EE6480948050030287
:10005200039D78137401F27F007E007DE07C40787E
:1000620028E2FB08E2F908E2FA08E2CBF8120AE514
:10007200600250617818E2FB08E2F908E2FA08E24D
:10008200CBF8C000C001C002C00378B4E2FC08E2B1
:10009200FD08E2FE08E2FFD003D002D001D000C387
:1000A200EF9BFFEE9AFEED99FDEC98FC7B207A4ED9
:1000B20079007800D3120D4E400302039D78B4E21A
:1000C200FC08E2FD08E2FE08E2FF7818120D921227
:1000D20028E002039D7F007E007DF07C407828E2CC
:1000E200FB08E2F908E2FA08E2CBF8120AE5600539
:1000F200400302017C7818E2FB08E2F908E2FA0800
:10010200E2CBF8C000C001C002C00378B4E2FC0830
:10011200E2FD08E2FE08E2FFD003D002D001D000E7
:10012200C3EF9BFFEE9AFEED99FDEC98FC7B207AE3
:100132004E79007800D3120D4E400302039D7D00DC
:100142007F59121B6B78277404F22081137D017F83
:1001520002121B6B7D007F04121B6B7F04122C6347
:1001620078B4E2FC08E2FD08E2FE08E2FF78181229
:100172000D9278317404F202039D7D007F5D121BA3
:100182006B7D007F02121B6B78317404F278277446
:1001920001F202039D7850E2FF7E00EF4E600302FF
:1001A200039D7893E2FFEF540FFF7812EFF278127B
:1001B200E2FF7E00EF64024E60030202AF7851E27A
:1001C20004F2785BE2FF7E00EF4E600302026D787C
:1001D20058E2FF7E00EF4E600302026D7853E2FFA9
:1001E2007E00EF4E60030202C7785CE2FFEF4481BB
:1001F200FF785CEFF27825E4F208E4F2785B7401B0
:10020200F2D2857894120D9E417000007894E2FC3F
:1002120008E2FD08E2FE08E2FF120B9C7898EFF27A
:100222007898E2FFEF75F00A84AFF07E00C3EF9496
:1002320005EE64809480400778317402F28005787C
:10024200317401F27861E2FD7F01122BE27D017FC0
:1002520080121B6B7D017F01121B6B7D017F1012CF
:100262001B6B7D007F40121B6B805A785BE2FF7E26
:1002720000EF64014E704E7825E4F208E4F2785BF8
:10028200E4F27861E2FD7F02122BE27831E4F2C2FD
:100292008578317404F27D007F80121B6B7D007FB4
:1002A20001121B6B7D007F40121B6B80187812E2DB
:1002B200FF7E00EF64034E700C1228E07861E2FDCD
:1002C2007F03122BE27893E2FFEF54F0FF7812EFF4
:1002D200F27812E2FF7E00EF64204E70547853E20F
:1002E200FF7E00EF64014E70177D007F08121B6BCA
:1002F2007853E4F27861E2FD7F04122BE202039D5F
:10030200785BE2FF7E00EF4E600302039D7858E2C5
:10031200FF7E00EF4E600302039D78537401F27872
:1003220061E2FD7F05122BE27D017F08121B6B80CB
:100332006A7812E2FF7E00EF64304E705E7853E21C
:10034200FF7E00EF4E7054785BE2FF7E00EF4E704E
:100352004A7858E2FF7E00EF4E704078537401F203
:100362007861E2FD7F06122BE27D017F08121B6B92
:1003720080297850E2FF7E00EF4E701F7827E4F26A
:100382007814E4F280157850E2FF7E00EF4E700B95
:100392001228E07827E4F27814E4F27850E2FF7E43
:1003A20000EF4E700302047478587401F2782774D7
:1003B20006F27893E2FFEF540FFF7812EFF2781211
:1003C200E2FF7E00EF64024E705F78177401F27FE5
:1003D200E87E037D007C00781CE2FB08E2F908E27B
:1003E200FA08E2CBF8D3120D4E502D7814E204F243
:1003F2007814E2FF7E00C3EF940AEE64809480409A
:10040200287861E2FD7F07122BE27F06122C63122D
:100412002BBD7814E4F280117817E4F27814E4F238
:10042200781C120D9E000000007817E2FF7E00EF9C
:1004320064014E7026781CE2FC08E2FD08E2FE0828
:10044200E2FF7B017A0079007800EF2BFFEE3AFEA3
:10045200ED39FDEC38FC781C120D927850E2FF7EEB
:1004620000EF64024E60030206C378277404F202AE
:1004720006C37817E4F2785BE2FF7E00EF64014E78
:10048200600302065D7826E22401F218E23400F2EB
:100492007825E2FE08E2FF7C177D70120C1DED4C00
:1004A20070167831E2FF7E00D3EF9400EE64809400
:1004B2008040057831E214F27825E2FC08E2FDE49E
:1004C200120B637B007AA0790C7846120AE560026F
:1004D200507A7820120D9E00000001785BE4F278D9
:1004E20025E4F208E4F27831E4F2C2857D007F80EF
:1004F200121B6B7D007F01121B6B7D017F40121B63
:100502006B78317404F27F007E007D207C41782D6F
:10051200E2FB08E2F908E2FA08E2CBF8120AE56027
:100522001D401B7861E2FD7F08122BE27F05122C31
:1005320063785AE22401F218E23400F2800E786104
:10054200E2FD7F09122BE27F03122C637F9A7E99D0
:100552007D597C3F7834E2FB08E2F908E2FA08E2CE
:10056200CBF8120AE56002505D7816E22401F21817
:10057200E23400F27815E2FE08E2FFC3EF94E8EEFF
:10058200940350030206C378317404F27815E4F23E
:1005920008E4F2785BE4F27825E4F208E4F2C2853A
:1005A2007D007F80121B6B7D007F01121B6B7861C7
:1005B200E2FD7F0A122BE27D007F40121B6B7F055A
:1005C200122C630206C37F007E007D207C407834BB
:1005D200E2FB08E2F908E2FA08E2CBF8120AE54087
:1005E2005D7816E22401F218E23400F27815E2FE98
:1005F20008E2FFC3EF9490EE940150030206C37821
:10060200317404F27815E4F208E4F2785BE4F278EB
:1006120025E4F208E4F2C2857D007F80121B6B7D27
:10062200007F01121B6B7861E2FD7F0B122BE27DD2
:10063200007F40121B6B7F05122C630206C37815E4
:10064200E2FE08E2FFD3EF9400EE940040737816C6
:10065200E224FFF218E234FFF280667F017E007D21
:10066200007C007820E2FB08E2F908E2FA08E2CB1B
:10067200F8C3120D4E7043782508E2FD2401F218EA
:10068200E2FC3400F2E4120B637B007AA0790C786E
:1006920046120AE5600250297861E2FD7F0C122BB6
:1006A200E27820120D9E000000007D007F40121BA8
:1006B2006B7825E4F208E4F280077D007F40121B8C
:1006C2006B7850E2FF7E00EF4E602278587401F2A0
:1006D200785BE4F27825E4F208E4F27831E4F2C2DD
:1006E2008578317404F27D007F59121B6B7827E202
:1006F200FF7E00EF4E70030208467F007E007DE021
:100702007C407828E2FB08E2F908E2FA08E2CBF83A
:10071200120AE56002506D7818E2FB08E2F908E27D
:10072200FA08E2CBF8C000C001C002C00378B4E20C
:10073200FC08E2FD08E2FE08E2FFD003D002D0018D
:10074200D000C3EF9BFFEE9AFEED99FDEC98FC7B87
:10075200107A2779007800D3120D4E400302084622
:1007620078587401F278B4E2FC08E2FD08E2FE086F
:10077200E2FF7818120D921228E07861E2FD7F0CF8
:10078200122BE2227F007E007DF07C407828E2FB83
:1007920008E2F908E2FA08E2CBF8120AE560025030
:1007A200757818E2FB08E2F908E2FA08E2CBF8C031
:1007B20000C001C002C00378B4E2FC08E2FD08E216
:1007C200FE08E2FFD003D002D001D000C3EF9BFFAE
:1007D200EE9AFEED99FDEC98FC7BE87A03790078BD
:1007E20000D3120D4E505D78587401F27861E2FD2B
:1007F2007F0D122BE27D007F04121B6B7D017F02B5
:10080200121B6B78B4E2FC08E2FD08E2FE08E2FF8C
:100812007818120D922278B4E2FC08E2FD08E2FE9A
:1008220008E2FF7818120D927850E2FF7E00EF4E38
:1008320070127858E4F27D017F04121B6B7D007FF9
:0408420002121B6B18
:01084600228F
:1019E9007824E2FF04F27E00C3EF9432EE6480941F
:1019F900805003021B6A7824E4F278997444F278DF
:101A09009A7442F2789B7458F27F007E007D207CA4
:101A1900417838E2FB08E2F908E2FA08E2CBF81269
:101A2900093F120B9C789CEFF27F007E007D207CA1
:101A390041782DE2FB08E2F908E2FA08E2CBF81254
:101A4900093F120B9C789DEFF27834E2FC08E2FD25
:101A590008E2FE08E2FF120B9C789EEFF27832E270
:101A6900FE08E2FFEEFF7E00789FEFF27832E2FE99
:101A790008E2FF7E0078A0EFF27866E2FE08E2FF56
:101A8900EEFF7E0078A1EFF27866E2FE08E2FF7EC3
:101A99000078A2EFF27859E2FE08E2FFEEFF7E003D
:101AA90078A3EFF27859E2FE08E2FF7E0078A4EF0E
:101AB900F278AFE4F208E4F278AFE2FE08E2FFC39D
:101AC900EF940CEE9400503D78AFE2FE08E2FFEF90
:101AD9004E700D7899E2FF7E0078ADEEF208EFF2D4
:101AE90078AFE2FE08E2FF74992FF8E2FF7E0078F2
:101AF900AEE22FF218E23EF278B0E22401F218E2E7
:101B09003400F280B378ADE2FE08E2FFEEFF7E001A
:101B190078A5EFF278ADE2FE08E2FF7E0078A6EF45
:101B2900F278A77447F278A87410F278AFE4F20853
:101B3900E4F278AFE2FE08E2FFC3EF9410EE9400FE
:101B4900501F78AFE2FE08E2FF74992FF8E2FF7D9B
:101B590000122BE278B0E22401F218E23400F2809C
:011B6900D1AA
:011B6A002258
:0724C60081B30082B10000A8
:03001B000221E9D6
:1021E900C0E0C0F0C083C082C0D075D000C000C0BC
:0D21F90001C002C003C004C005C006C0073D
:1022060078BDE4F278B4E2FC08E2FD08E2FE08E2FA
:10221600FF7B017A0079007800EF2BFFEE3AFEEDA6
:1022260039FDEC38FC78B4120D92758DCC758BEABD
:1022360078B108E2FF2401F218E2FE3400F2C3EF9F
:102246009403EE9400401878B1E4F208E4F2121216
:10225600D578B8E2FFEF600778B8E4F2122C007880
:04226600B37401F25A
:10226A00D007D006D005D004D003D002D001D000C8
:0B227A00D0D0D082D083D0F0D0E03272
:102B1A0075C7AA75C75543AA03A2AF9200C2AF757B
:102B2A00C7AA75C75543AA40A20092AFAFAA7E00B2
:102B3A007EFFEF44BFFFEF64FF4E60F0A2AF92004A
:102B4A00C2AF75C7AA75C75543AA80A20092AF2221
:101FCE0078BEE4F278C07401F275B10075B2007596
:101FDE00B30075B40075AC0075AD00122B5A122CFF
:101FEE001B121E5EEF70187F0112184A7E007E00D3
:101FFE00EF5403FFEF64034E6005122AD780E812F8
:10200E002AD7122B1A7F807E257D007C0012228516
:10201E0012209012163078BFE4F278BFE2FF7E00F5
:10202E00C3EF9432EE64809480500A120DDD78BFB7
:10203E00E204F280E512292C78C0E4F278C0E2FFC7
:10204E0012184A78BEEFF278B3E2FF7E00EF640119
:10205E004E70E9A2AF9200C2AF75C7AA75C75543BD
:10206E00AA40A20092AF121E5E78BEE2FF12001EC0
:10207E00120DDD78B3E4F2122AD778B87401F2802B
:01208E00BB96
:01208F00222E
:072B970078C1EEF208EFF235
:102B9E0078C1E2FE08E2FF8F828E83E493FE740119
:0E2BAE0093FFEEFF7E0078C3EFF278C3E2FFE4
:012BBC0022F6
:101CE90078C4E4F278C57447F208E4F27832E2FE87
:101CF90008E2FF7E00900105EFF07832E2FE08E28B
:101D0900FFEEFF7E00900106EFF07866E2FE08E242
:101D1900FF7E00900107EFF07866E2FE08E2FFEE31
:101D2900FF7E00900108EFF07859E2FE08E2FF7E9D
:101D390000900109EFF07859E2FE08E2FFEEFF7E1C
:101D49000090010AEFF078C5E2FE08E2FFEF54FFC8
:101D5900F5A678C5E2FE08E2FFEEFF7E00EF54FF2C
:101D6900F5A775AEFFA2AF9200C2AF75C7AA75C736
:101D790055439F01A20092AFA2AF9200C2AF75C7AF
:101D8900AA75C75543A501A20092AF75AF22A2AFAC
:101D99009200C2AF75C7AA75C75543A401A20092A4
:101DA900AFA2AF9200C2AF75C7AA75C755439F01CD
:101DB900A20092AFA2AF9200C2AF75C7AA75C7556C
:101DC90043A501A20092AF75AF2178C4E4F278C4AB
:101DD900E2FF7E00C3EF9418EE64809480504F7840
:101DE900C5E2FE08E2FFEF54FFFF78C4E2FEEF2EE2
:101DF900F5A678C5E2FE08E2FFEEFF7E00EF54FF8C
:101E0900F5A778C4E2FF74042FF582E43401F58361
:101E1900E0FF8FAEA2AF9200C2AF75C7AA75C755D2
:101E290043A401A20092AF78C4E204F280A0A2AF59
:101E39009200C2AF75C7AA75C75553A5FEA20092F5
:101E4900AFA2AF9200C2AF75C7AA75C755539FFE1F
:041E5900A20092AFA2
:011E5D002262
:102090007F027E47122B977E00EF7D00FC7F017E42
:1020A00047122B977E00ED2FFFEC3EFE7832EEF2CA
:1020B00008EFF27F047E47122B977E00EF7D00FC35
:1020C0007F037E47122B977E00ED2FFFEC3EFE78BC
:1020D00066EEF208EFF27F067E47122B977E00EF46
:1020E0007D00FC7F057E47122B977E00ED2FFFECD5
:1020F0003EFE7859EEF208EFF27859E2FE08E2FF70
:10210000EF64FF7003EE64FF600F7866E2FE08E2A2
:10211000FFEFB4FF27EEB4FF237832E4F208E4F2D5
:102120007866E4F208E4F27859E4F208E4F2121C6A
:0D213000E97FF47E017D007C001226A522CF
:102A4D0078C7120D9253B1BF53B2BF53B17F53B27A
:102A5D007F759850438920438780438E1053C4DF80
:102A6D0078C7E2FB08E2F908E2FA08E2CBF87F400A
:102A7D007E427D0F7C00120CAEEF04FFEFF404F5E7
:062A8D008DD28ED29922C9
:1022850078CB120D9253B1BF53B2BF53B17F53B246
:102295007F75985043878053C4F843C42078CBE2B8
:1022A500FB08E2F908E2FA08E2CBF87F407E427DBE
:1022B5000F7C00120CAEA804A905AA06AB07C374CF
:1022C500FF9BFF74FF9AFEE499FDE498FC780812E1
:1022D5000D5F8FC678CBE2FB08E2F908E2FA08E267
:1022E500CBF87F407E427D0F7C00120CAEA804A97E
:1022F50005AA06AB07C374FF9BFF74FF9AFEE4991A
:10230500FDE498FCEF54FFFFEE5400FEED5400FD94
:0C231500EC5400FC8FC543C408D2992290
:0E2C45003098FD78CFE599F2C29878CFE2FF83
:012C5300225E
:1000030078D0EFF2C29978D0E2FF8F993099FD78DA
:04001300D0E2FF2216
:102BE20078D1EFF278D2EDF278D2E2FF7E00EF4EAA
:0E2BF200700BC29978D1E2FF8F993099FD22C5
:1023210078D3120D9253B1FB53B2FB53B3BF53B4E5
:10233100BF75F85075C40853C4DF78D3E2FB08E2D7
:10234100F908E2FA08E2CBF87F407E427D0F7C007B
:10235100120CAEA804A905AA06AB07C374FF9BFF24
:1023610074FF9AFEE499FDE498FC7808120D5F8FE2
:10237100C678D3E2FB08E2F908E2FA08E2CBF87F7B
:10238100407E427D0F7C00120CAEA804A905AA066E
:10239100AB07C374FF9BFF74FF9AFEE499FDE498B9
:1023A100FCEF54FFFFEE5400FEED5400FDEC540031
:0723B100FC8FC543C40822A4
:0E2C540030F8FD78D7E59AF2C2F878D7E2FFA3
:012C6200224F
:102C350078D8EFF2C2F978D8E2FF8F9A30F9FD2201
:0526A50078D9120D922E
:1026AA0078DD120D9E0000000078D9E2FC08E2FDF8
:1026BA0008E2FE08E2FF78DDE2FB08E2F908E2FA46
:1026CA0008E2CBF8C3120D4E50337FE87E037D003B
:1026DA007C0012288778DDE2FC08E2FD08E2FE08A9
:1026EA00E2FF7B017A0079007800EF2BFFEE3AFED9
:0D26FA00ED39FDEC38FC78DD120D9280AC5E
:0127070022AF
:0528870078E1120D9242
:10288C0078E5120D9E0000000078E1E2FC08E2FD04
:10289C0008E2FE08E2FF78E5E2FB08E2F908E2FA5A
:1028AC0008E2CBF8C3120D4E50290078E5E2FC0883
:1028BC00E2FD08E2FE08E2FF7B017A007900780075
:1028CC00EF2BFFEE3AFEED39FDEC38FC78E5120DFE
:0328DC009280B631
:0128DF0022D6
:10276A0078E9120D92538EF7438901D28C7F007E4D
:10277A00007D007C0078E9E2FB08E2F908E2FA0849
:10278A00E2CBF8C3120D4E6033758A7E758CFF302A
:10279A008DFDC28D78E9E2FC08E2FD08E2FE08E25E
:1027AA00FF7BFF7AFF79FF78FFEF2BFFEE3AFEED12
:0F27BA0039FDEC38FC78E9120D9280B1C28C2207
:1027C90078ED120D92538EF7438901D28C7F007EEA
:1027D900007D007C0078EDE2FB08E2F908E2FA08E6
:1027E900E2CBF8C3120D4E6033758ACA758CFA3084
:1027F9008DFDC28D78EDE2FC08E2FD08E2FE08E2FB
:10280900FF7BFF7AFF79FF78FFEF2BFFEE3AFEEDB2
:0F28190039FDEC38FC78ED120D9280B1C28C22A3
:1028280078F1120D92538EEF438910D28E7F007E7D
:10283800007D007C0078F1E2FB08E2F908E2FA0882
:10284800E2CBF8C3120D4E6033758BEA758DCB3031
:102858008FFDC28F78F1E2FC08E2FD08E2FE08E293
:10286800FF7BFF7AFF79FF78FFEF2BFFEE3AFEED53
:0F28780039FDEC38FC78F1120D9280B1C28E223E
:1027080078F5120D9253C9BF53C9DF43C910D2CA15
:102718007F007E007D007C0078F5E2FB08E2F90886
:10272800E2FA08E2CBF8C3120D4E603375CC30756F
:10273800CDF830CFFDC2CF78F5E2FC08E2FD08E223
:10274800FE08E2FF7BFF7AFF79FF78FFEF2BFFEEB1
:102758003AFEED39FDEC38FC78F5120D9280B1C2E5
:02276800CA2283
:1025D30078F9120D9275C40743C4087F007E007D0D
:1025E300007C0078F9E2FB08E2F908E2FA08E2CBA2
:1025F300F8C3120D4E603E75C52C75C6CFE5C454A5
:1026030010FF7E00EF64104E70F353C4EF78F9E2CD
:10261300FC08E2FD08E2FE08E2FF7BFF7AFF79FF98
:1026230078FFEF2BFFEE3AFEED39FDEC38FC78F93D
:09263300120D9280A653C4F72297
:10263C007800120D9275C40743C4087F007E007D9C
:10264C00007C007800E2FB08E2F908E2FA08E2CB31
:10265C00F8C3120D4E603E75C5D875C6FFE5C4545F
:10266C0010FF7E00EF64104E70F353C4EF7800E25D
:10267C00FC08E2FD08E2FE08E2FF7BFF7AFF79FF2F
:10268C0078FFEF2BFFEE3AFEED39FDEC38FC7800CD
:09269C00120D9280A653C4F7222E
:0300000002213D9D
:10213D0075C7AA75C75575FD5A75C7AA75C7557563
:10214D00FDA5787FE4F6D8FD9000007FFF7E03E4C7
:0C215D00F0A3DFFCDEFA7581200221A453
:10084700020C08E86480F8E933E83360110460F0CB
:10085700ED33EC337009E8FCE9FDEAFEEBFF220417
:1008670060DED3EB9FEA9EE99DE8C2E78CF0C2F712
:1008770095F0400CE8CCF8E9CDF9EACEFAEBCFFBDE
:10088700120BD385D0F05804700320D5B3E8047059
:10089700075002B2D5020C1292D5EC0460F7E4CCF3
:1008A700C0E0C398F8603B94186008400DD0E0FBA7
:1008B700020BEAE4FBFAC9FC8028E830E406E4C945
:1008C700FBE4CAFCE830E305E4C9CACBFCE85407FB
:1008D7006010F8C3E913F9EA13FAEB13FBEC13FC06
:1008E700D8F130F52FC3E49CFCEF9BFFEE9AFEEDA9
:1008F70099FDD0E0FBEF4E4D4C701222DB03020C4A
:100907000FEC2CFCEF33FFEE33FEED33FDED30E75C
:10091700EB020BEAEF2BFFEE3AFEED39FDD0E0FBE1
:1009270050130BBB0003020C12ED13FDEE13FEEF89
:0809370013FFEC13FC020BEAB4
:10093F00EC4D6011E8497017ED33EC3304600DE4B2
:10094F00FCFFFEFD22E933E8330470F8020C0812B5
:10095F000BD358046009E4CC2481500628500902B7
:10096F000C12284003020C0FC0E0EB4A7044B98010
:10097F0006D0E0FB020BFEEF4E701CBD8008EBFFB4
:10098F00EAFEE9FD80EBE98DF0A4FEE5F0020A280E
:10099F00E9CDF9EAFEEBFFEF89F0A4FCE5F0CE8993
:1009AF00F0A42EFFE435F0CD89F0A42DFEE435F050
:1009BF008067EF4E7005BD80D780C3EF8BF0A4AC7E
:1009CF00F0EE8BF0A42CFCE435F0F8EF8AF0A42CB9
:1009DF00E5F038FCE433CB8DF0A42CFCE5F03BF8CC
:1009EF00EE8AF0A42CFCE5F038F8E433CF89F0A4BC
:1009FF002CFCE5F038CF3400CE89F0A42FFFE5F0C2
:100A0F003EFEE433C98DF0A42EFEE5F039CD8AF019
:100A1F00A42FFFE5F03EFEE43DFD33D0E0FB500791
:100A2F000BBB000F020C12EC2CFCEF33FFEE33FE6E
:060A3F00ED33FD020BEA9D
:100A4500020C12EC5D046005E859047003020C0801
:100A5500120BD3580460F6EC4860F2EC7004FDFE0E
:100A6500FF22C860DB2481C85009C3986002500684
:100A7500020C0F9850CAF582E9294B4A7005AB82E2
:100A8500020BFE75F0007C1A7880C3EF9BEE9AEDA1
:100A950099400DC3EF9BFFEE9AFEED99FDE842F0FC
:100AA500DC23ACF0D0E0FFD0E0FED0E0FDAB82204F
:100AB500E7101BEB60BAEC2CFCEF33FFEE33FEEDD9
:100AC50033FD020BEAE803F830E705C0F075F000E6
:100AD500EF2FFFEE33FEED33FD40B830E7C280AABD
:100AE50074F8CC6480CCC86480C8F58204604FC3B8
:100AF500EB9FF5F0EA9E42F0E99D42F0E89C45F057
:100B0500603C501DE5825FFFE582D313CB5BCBF4E0
:100B15002B5582FB50280ABA002409B90020088009
:100B25001DE5825BFBE582D313CF5FCFF4C3132FA3
:100B35005582FF50090EBE00050DBD00010CC3EB2B
:100B45009FF5F0EA9E42F0E99D42F0E89C45F06091
:090B550007CC4820E701B3EC22B3
:100B5E0075F020800E75F010800575F0087D007E12
:100B6E00007F003392D530D503120D40EC33401088
:100B7E00EF33FFEE33FEED33FDEC33FCD5F0ED221B
:0E0B8E00E5F0247EA2D513CC92E7CDCEFF2257
:100B9C00EDD2E7CD33EC3392D524814006E4FFFE51
:100BAC00FDFC22FCE4CFCECDCC24E0501174FF80B0
:100BBC00EDC3CC13CCCD13CDCE13CECF13CF04704D
:070BCC00F030D5DE020D4000
:100BD300E9D2E7C933E833F892D5EDD2E7CD33EC68
:070BE30033FC5002B2D522E1
:100BEA00EC30E7100FBF000C0EBE00080DBD00046C
:100BFA000BEB6014A2D5EB13FCED92E7FD2274FF18
:100C0A00FCFDFEFF22E480F8A2D574FF13FC7D8070
:030C1A00E480EF84
:10216900021FCEE493A3F8E493A34003F68001F29F
:1021790008DFF48029E493A3F85407240CC8C33377
:10218900C4540F4420C8834004F456800146F6DF46
:10219900E4800B0102040810204080902446E47E6C
:1021A900019360BCA3FF543F30E509541FFEE4933B
:1021B900A360010ECF54C025E060A840B8E493A302
:1021C900FAE493A3F8E493A3C8C582C8CAC583CA2D
:1021D900F0A3C8C582C8CAC583CADFE9DEE780BEE5
:0124CD00000E
:100C1D00BC000BBE0029EF8DF084FFADF022E4CCBB
:100C2D00F875F008EF2FFFEE33FEEC33FCEE9DEC84
:100C3D00984005FCEE9DFE0FD5F0E9E4CEFD22EDCA
:100C4D00F8F5F0EE8420D21CFEADF075F008EF2F14
:100C5D00FFED33FD4007985006D5F0F222C398FD05
:050C6D000FD5F0EA22A2
:100C720075F008758200EF2FFFEE33FECD33CDCC39
:100C820033CCC58233C5829BED9AEC99E5829840BC
:100C92000CF582EE9BFEED9AFDEC99FC0FD5F0D699
:100CA200E4CEFBE4CDFAE4CCF9A88222B800C1B9C3
:100CB2000059BA002DEC8BF084CFCECDFCE5F0CB01
:100CC200F97818EF2FFFEE33FEED33FDEC33FCEB3A
:100CD20033FB10D703994004EB99FB0FD8E5E4F9F5
:100CE200FA227818EF2FFFEE33FEED33FDEC33FCE2
:100CF200C933C910D7059BE99A4007EC9BFCE99AD6
:100D0200F90FD8E0E4C9FAE4CCFB2275F010EF2F1A
:100D1200FFEE33FEED33FDCC33CCC833C810D7071A
:100D22009BEC9AE899400AED9BFDEC9AFCE899F855
:0E0D32000FD5F0DAE4CDFBE4CCFAE4C8F922E8
:102A9300C2D5E830E70FB2D5E4C39BFBE49AFAE46E
:102AA30099F9E498F8EC30E717B2D5122AC9120C59
:102AB300AEE4C39BFBE49AFAE499F9E498F8800343
:102AC300120CAE30D50DE4C39FFFE49EFEE49DFDE2
:042AD300E49CFC2261
:0E0D4000C3E49FFFE49EFEE49DFDE49CFC22C4
:100D4E00EB9FF5F0EA9E42F0E99D42F0E89C45F0FB
:010D5E002272
:100D5F00E8600FECC313FCED13FDEE13FEEF13FF72
:030D6F00D8F12296
:100D72007401FF3395E0FEFDFC080808E2CF2FF274
:100D820018E2CE3EF218E2CD3DF218E2CC3CF2225D
:0C0D9200ECF208EDF208EEF208EFF2229D
:100D9E00D083D082E493F208740193F20874029324
:090DAE00F208740393F27404735B
:100DB700D083D082F8E4937012740193700DA3A3CB
:100DC70093F8740193F5828883E4737402936860DF
:060DD700EFA3A3A380DFDF
:00000001FF
