:1029B100C0F9A4B0FF999282F880908883C6A1865D
:1029C1008E089809C40D480A8C0000000007D00841
:1029D1003408FC09C40DAC13880000000013880002
:1029E10000000013880DAC0BB809C40DAC09C40F6D
:0929F100A007D00FA007D00FA031
:10248100815C00816100903C0000000100020003BA
:102491000004000500060007843840A000008428DD
:1024A100406CCCCD842D41C00000843441C8000073
:1024B100815200812C00812700815000815B0082C4
:1024C10025000082320000826600008259000081EE
:1024D100530081040081050082060000846200002F
:1024E1000000844C00000000840800000000840CFF
:1024F100000000008112008113008114008124007A
:05258E007868120DC980
:102593007F007E007D007C007868E2FB08E2F9089A
:1025A300E2FA08E2CBF8D3120D85405E78B4E2FC80
:1025B30008E2FD08E2FE08E2FF7800120DC9780088
:1025C300E2FB08E2F908E2FA08E2CBF8C000C00136
:1025D300C002C00378B4E2FC08E2FD08E2FE08E2B0
:1025E300FFD003D002D001D000C3EF9BFFEE9AFED1
:1025F300ED99FDEC98FC7868E2FB08E2F908E2FA51
:0A26030008E2CBF8D3120D8550B4A5
:01260D0022AA
:102B950043B30153B4FE43B10153B2FE43B10253F3
:102BA500B2FD53B1DF43B22053B3FD43B40253B377
:102BB500FB43B40453B3F743B40853B3EF43B41022
:0D2BC50053B3DF43B420D295C285D29322D2
:102BF80078527406F2C2857FC87E007D007C001280
:102C080026E075C7AA75C755759F0275C7AA75C707
:052C180055759F8222AA
:10166700A2AF9200C2AF75C7AA75C755439F01A223
:101677000092AF75AF0475A60D75A700A2AF9200D3
:10168700C2AF75C7AA75C75543A401A20092AF7828
:101697006DE5AEF2786DE2FFEF54F0FF786EEFF292
:1016A700786EE2FF7E00EF64804E600302174A788F
:1016B7006DE2FFEF540FFF786DEFF275A60C75A77B
:1016C70000A2AF9200C2AF75C7AA75C75543A40160
:1016D700A20092AF786CE5AEF2786CE2FF7E00EF85
:1016E70075F010A4FFAEF0786DE2FD7C00EF2DFDE4
:1016F700EE3CFCEC120B9A786F120DC97F007E004E
:101707007D407C40786FE2FB08E2F908E2FA08E2E4
:10171700CBF81209767B007A0079807840120A7F2D
:101727007873120DC97F007E007D047CC27873E256
:10173700FB08E2F908E2FA08E2CBF8120885785DBF
:10174700120DC9786EE2FF7E00EF4E7076786DE27B
:10175700FFEF540FFF786DEFF275A60C75A700A287
:10176700AF9200C2AF75C7AA75C75543A401A200BF
:1017770092AF786CE5AEF2786CE2FF7E00EF75F021
:1017870010A4FFAEF0786DE2FD7C00EF2DFDEE3C7E
:10179700FCEC120B9A786F120DC97F007E007D401A
:1017A7007C40786FE2FB08E2F908E2FA08E2CBF83E
:1017B7001209767B007A0079807840120A7F785D7B
:1017C700120DC9786EE2FF7E00EF64904E6003024F
:1017D700186D75A60E75A700A2AF9200C2AF75C7A8
:1017E700AA75C75543A401A20092AF786CE5AEF283
:1017F70075A60F75A700A2AF9200C2AF75C7AA75ED
:10180700C75543A401A20092AF786DE5AEF2786D9B
:10181700E2FFEF540FFF786DEFF2786CE2FF7E0086
:10182700EF75F010A4FFAEF0786DE2FD7C00EF2DB0
:10183700FDEE3CFCEC120B9A786F120DC97F007E0F
:10184700007D407C40786FE2FB08E2F908E2FA0885
:10185700E2CBF81209767B007A0079807840120A89
:101867007F785D120DC9A2AF9200C2AF75C7AA7586
:09187700C755539FFEA20092AF79
:011880002245
:0E23F3007877EEF208EFF27879ECF208EDF26E
:10240100A2AF9200C2AF75C7AA75C75543910143E8
:10241100C60875C7AA75C7555391FEA20092AF535E
:10242100DF3F43DF0153DFF97877E2FE08E2FFABDC
:1024310007AA06E4F9F87F007E127D7A7C00122A51
:10244100CE787BEEF208EFF2787BE2FE08E2FFEE57
:10245100FF7E008FD1787BE2FE08E2FF7E008FD9FC
:102461007879E2FE08E2FFEEFF7E008FD57879E20F
:0F247100FE08E2FF7E008FDD53D6F7D2DED2DF0A
:012480002239
:100E140075950253E8F043B38053B47F75F60043ED
:100E2400F60143E101C2EFD2EE30EFFDAFC37E0025
:100E3400EF75F010A4FFAEF0ADC27C00EF2DFFEE15
:100E44003CFE783CEEF208EFF253E1FE53E8F04347
:100E5400E80143AC0153ADFE75F60043F60243E1ED
:100E640001C2EFD2EE30EFFDAFC37E00EF75F0109C
:100E7400A4FFAEF0ADC27C00EF2DFFEE3CFE783E49
:100E8400EEF208EFF253E1FE53E8F043E80643B113
:100E94000853B2F775F60043F64043E101C2EFD2BE
:100EA400EE30EFFDAFC37E00EF75F010A4FFAEF09F
:100EB400ADC27C00EF2DFFEE3CFE7840EEF208EF71
:100EC400F253E1FE43E80853E8F843E101C2EFD2EC
:100ED400EE30EFFDAFC37E00EF75F010A4FFAEF06F
:100EE400ADC27C00EF2DFFEE3CFE7842EEF208EF3F
:100EF400F253E1FE7595007842E2FC08E2FDE4124B
:100F04000B9AA804A905AA06AB077F007E007D8082
:100F14007C45120A7F785DE2FB08E2F908E2FA08F0
:100F2400E2CBF81209767881120DC97881E2FC08C7
:100F3400E2FD08E2FE08E2FF7B007A00797A784459
:100F4400120A7F7881120DC97804E2FF7E00EF4E09
:100F540070127881E2FC08E2FD08E2FE08E2FF7804
:100F640038120DC97B007A0079C87841C000C001ED
:100F7400C002C0037838E2FC08E2FD08E2FE08E2A1
:100F8400FFD003D002D001D000120A7FC004C005F4
:100F9400C006C0077838E2FC08E2FD08E2FE08E279
:100FA400FFD003D002D001D000120881C004C005D4
:100FB400C006C0077B007A0079C87841C000C00130
:100FC400C002C0037881E2FC08E2FD08E2FE08E208
:100FD400FFD003D002D001D000120A7FA804A905D3
:100FE400AA06AB07D007D006D005D004120885782E
:100FF40038120DC9783EE2FC08E2FDE4120B9A783F
:1010040038E2FB08E2F908E2FA08E2CBF8120976C2
:101014007B007AF0797F7845120A7F7881120DC9B6
:101024007804E2FF7E00EF4E70387B007A0079305E
:101034007841C000C001C002C0037881E2FC08E22C
:10104400FD08E2FE08E2FFD003D002D001D0001276
:101054000A7F7BCD7ACC794C783E120A7F783412A1
:101064000DC97B007A0079307841C000C001C0020C
:10107400C0037881E2FC08E2FD08E2FE08E2FFD04A
:1010840003D002D001D000120A7F7BCD7ACC794CF8
:10109400783E120A7F7881120DC97B007A0079C8E4
:1010A4007841C000C001C002C0037834E2FC08E209
:1010B400FD08E2FE08E2FFD003D002D001D0001206
:1010C4000A7FC004C005C006C0077834E2FC08E209
:1010D400FD08E2FE08E2FFD003D002D001D00012E6
:1010E4000881C004C005C006C0077B007A0079C827
:1010F4007841C000C001C002C0037881E2FC08E26C
:10110400FD08E2FE08E2FFD003D002D001D00012B5
:101114000A7FA804A905AA06AB07D007D006D00504
:10112400D0041208857834120DC97840E2FC08E234
:10113400FDE4120B9A7838E2FB08E2F908E2FA08B7
:10114400E2CBF81209767B007AF0797F7845120AAF
:101154007F7B007A00790078401209767881120D3D
:10116400C97804E2FF7E00EF4E70127881E2FC0839
:10117400E2FD08E2FE08E2FF7828120DC97B007A3E
:101184000079C87841C000C001C002C0037828E2D9
:10119400FC08E2FD08E2FE08E2FFD003D002D00121
:1011A400D000120A7FC004C005C006C0077828E238
:1011B400FC08E2FD08E2FE08E2FFD003D002D00101
:1011C400D000120881C004C005C006C0077B007AA5
:1011D4000079C87841C000C001C002C0037881E230
:1011E400FC08E2FD08E2FE08E2FFD003D002D001D1
:1011F400D000120A7FA804A905AA06AB07D007D01D
:1012040006D005D0041208857828120DC9783CE26E
:10121400FC08E2FDE4120B9A7838E2FB08E2F908D4
:10122400E2FA08E2CBF81209767B007AF0797F784B
:1012340045120A7F7B007A0079307841120976786A
:101244007D120DC97804E2FF7E00EF4E7012787DA6
:10125400E2FC08E2FD08E2FE08E2FF782D120DC967
:101264007B007A0079C87841C000C001C002C00385
:10127400782DE2FC08E2FD08E2FE08E2FFD003D08C
:1012840002D001D000120A7FC004C005C006C00706
:10129400782DE2FC08E2FD08E2FE08E2FFD003D06C
:1012A40002D001D000120881C004C005C006C007E6
:1012B4007B007A0079C87841C000C001C002C00335
:1012C400787DE2FC08E2FD08E2FE08E2FFD003D0EC
:1012D40002D001D000120A7FA804A905AA06AB0710
:1012E400D007D006D005D004120885782D120DC978
:1012F400782DE2FC08E2FD08E2FE08E2FF782D12F8
:071304000DC978047401F229
:01130B0022BF
:102C560053890F438910538EEF758DCC758BEAD24D
:0A2C6600ABD2AFD28E7852E4F22216
:101BA2007885EFF27886EDF27885E2FFEF30E02477
:101BB2007886E2FF7E00EF4E700E785CE2FFEF5413
:101BC200FEFF785CEFF2800C785CE2FFEF4401FFED
:101BD200785CEFF27885E2FFEF30E1247886E2FF6D
:101BE2007E00EF4E700E785CE2FFEF54FDFF785CF2
:101BF200EFF2800C785CE2FFEF4402FF785CEFF2D8
:101C02007885E2FFEF30E2247886E2FF7E00EF4E35
:101C1200700E785CE2FFEF54FBFF785CEFF2800C11
:101C2200785CE2FFEF4404FF785CEFF27885E2FF34
:101C3200EF30E3247886E2FF7E00EF4E700E785C90
:101C4200E2FFEF54F7FF785CEFF2800C785CE2FF82
:101C5200EF4408FF785CEFF27885E2FFEF30E4248E
:101C62007886E2FF7E00EF4E700E785CE2FFEF5462
:101C7200EFFF785CEFF2800C785CE2FFEF4410FF3C
:101C8200785CEFF27885E2FFEF30E5247886E2FFB8
:101C92007E00EF4E700E785CE2FFEF54DFFF785C5F
:101CA200EFF2800C785CE2FFEF4420FF785CEFF209
:101CB2007885E2FFEF30E6247886E2FF7E00EF4E81
:101CC200700E785CE2FFEF54BFFF785CEFF2800C9D
:101CD200785CE2FFEF4440FF785CEFF27885E2FF48
:101CE200EF30E7247886E2FF7E00EF4E700E785CDC
:101CF200E2FFEF547FFF785CEFF2800C785CE2FF4A
:101D0200EF4480FF785CEFF27885E2FFEF54FFFF4B
:0E1D12007E00EF4E7007785C7406F2C28522E8
:0D2C9E007887EFF27887E2FF7852EFF2229C
:0C2CB8007D147C007F647E001223F32258
:10130C007852E2FFEF120DEE132D00133D0113C4C2
:10131C0002144B0314D20415590515E006000016EF
:10132C00667D007C007FD07E071223F37805E4F203
:10133C00227805E2FF7E00C3EF9403EE6480948074
:10134C0040107852E4F27805E4F27806E4F208E40E
:10135C00F2227805E2FFEF25E024C2F582E434297D
:10136C00F583E493FE740193FF7806E2FC08E2FD3A
:10137C00ED6F7002EC6E603A7805E2FFEF25E02429
:10138C00C2F582E43429F583E493FE740193FF786B
:10139C0006EEF208EFF27806E2FE08E2FF7C007D32
:1013AC000A120C54AC06AD077806E2FE08E2FF12F6
:1013BC0023F37805E204F2227805E2FF7E00C3EF06
:1013CC009403EE6480948040107852E4F27805E443
:1013DC00F27806E4F208E4F2227805E2FFEF25E069
:1013EC0024C8F582E43429F583E493FE740193FF59
:1013FC007806E2FC08E2FDED6F7002EC6E603A7864
:10140C0005E2FFEF25E024C8F582E43429F583E4F6
:10141C0093FE740193FF7806EEF208EFF27806E281
:10142C00FE08E2FF7C007D0A120C54AC06AD077876
:10143C0006E2FE08E2FF1223F37805E204F22278BA
:10144C0005E2FF7E00C3EF9405EE648094804010AB
:10145C007852E4F27805E4F27806E4F208E4F22239
:10146C007805E2FFEF25E024CEF582E43429F583FC
:10147C00E493FE740193FF7806E2FC08E2FDED6F45
:10148C007002EC6E603A7805E2FFEF25E024CEF5B1
:10149C0082E43429F583E493FE740193FF7806EE1D
:1014AC00F208EFF27806E2FE08E2FF7C007D0A12F9
:1014BC000C54AC06AD077806E2FE08E2FF1223F3EB
:1014CC007805E204F2227805E2FF7E00D3EF940760
:1014DC00EE6480948040107852E4F27805E4F2785F
:1014EC0006E4F208E4F2227805E2FFEF25E024D8C6
:1014FC00F582E43429F583E493FE740193FF7806B6
:10150C00E2FC08E2FDED6F7002EC6E603A7805E2E9
:10151C00FFEF25E024D8F582E43429F583E493FE2B
:10152C00740193FF7806EEF208EFF27806E2FE08FB
:10153C00E2FF7C007D0A120C54AC06AD077806E283
:10154C00FE08E2FF1223F37805E204F2227805E2AA
:10155C00FF7E00C3EF9405EE6480948040107852B7
:10156C00E4F27805E4F27806E4F208E4F222780575
:10157C00E2FFEF25E024E6F582E43429F583E493D9
:10158C00FE740193FF7806E2FC08E2FDED6F700239
:10159C00EC6E603A7805E2FFEF25E024E6F582E494
:1015AC003429F583E493FE740193FF7806EEF20878
:1015BC00EFF27806E2FE08E2FF7C007D0A120C5482
:1015CC00AC06AD077806E2FE08E2FF1223F37805BD
:1015DC00E204F2227805E2FF7E00C3EF9405EE648C
:1015EC0080948040107852E4F27805E4F27806E4B6
:1015FC00F208E4F2227805E2FFEF25E024F0F58210
:10160C00E43429F583E493FE740193FF7806E2FC3D
:10161C0008E2FDED6F7002EC6E603A7805E2FFEFC8
:10162C0025E024F0F582E43429F583E493FE74017B
:10163C0093FF7806EEF208EFF27806E2FE08E2FF7E
:10164C007C007D0A120C54AC06AD077806E2FE084D
:0A165C00E2FF1223F37805E204F226
:011666002261
:101881007888EFF23080063090037F0122208003B8
:101891000219727F1E7E007D007C0012258E785415
:1018A100E2FC08E2FD08E2FE08E2FF7B017A007932
:1018B100007800EF2BFFEE3AFEED39FDEC38FC78B5
:1018C10054120DC930805E7862E2FC08E2FD08E244
:1018D100FE08E2FF7B017A0079007800EF2BFFEE32
:1018E1003AFEED39FDEC38FC7862120DC97F407E7D
:1018F1000D7D037C007862E2FB08E2F908E2FA0858
:10190100E2CBF8D3120D8540BB782CE2FFEF54F007
:10191100FF782CEFF2782CE2FFEF4403FF782CEFF5
:10192100F28002809F7F407E0D7D037C007862E221
:10193100FB08E2F908E2FA08E2CBF8C3120D855080
:1019410027782CE2FFEF54F0FF782CEFF2782CE2AD
:10195100FFEF4402FF782CEFF27888E2FF7E00EF80
:101961004E70057F02122C9E7862120DD500000088
:1019710000209003021A1B30905E784CE2FC08E2D2
:10198100FD08E2FE08E2FF7B017A0079007800EFB2
:101991002BFFEE3AFEED39FDEC38FC784C120DC907
:1019A1007F407E0D7D037C00784CE2FB08E2F90864
:1019B100E2FA08E2CBF8D3120D8540BB782CE2FFA6
:1019C100EF540FFF782CEFF2782CE2FFEF4430FF59
:1019D100782CEFF28002809F7F407E0D7D037C009A
:1019E100784CE2FB08E2F908E2FA08E2CBF8C3120C
:1019F1000D85501D782CE2FFEF540FFF782CEFF28C
:101A0100782CE2FFEF4420FF782CEFF27F02122CBA
:0F1A11009E784C120DD500000000782CE2FF22C9
:102B1200782CE2FFEF54F0FF782CEFF2782CE2FFF2
:102B2200EF4401FF782CEFF27862120DD50000001D
:102B320000782CE2FFEF540FFF782CEFF2782CE2B2
:102B4200FFEF4410FF782CEFF2784C120DD5000005
:032B52000000225E
:101E9500208103021FEE78507405F27811E2FF7E6F
:101EA50000EF64014E6003021F2E7B647A00790007
:101EB5007800C000C001C002C0037808E2FC08E257
:101EC500FD08E2FE08E2FFD003D002D001D00012E7
:101ED5000CE5AC00AD01AE02AF037B007A007900E2
:101EE5007800C3120D8570257810E2FF7E00EF4E55
:101EF500700778107401F280047810E4F27810E22B
:101F0500FD7F04121BA27D017F02121BA27808121D
:101F15000DA97B207A4E79007800C3120D855009F2
:101F25007808120DD5000000007F9A7E997D057C0A
:101F3500417828E2FB08E2F908E2FA08E2CBF81258
:101F45000B1C600250287F007E007DC07C407828F5
:101F5500E2FB08E2F908E2FA08E2CBF8120B1C40B2
:101F65000D78117401F278507401F20220047F9A01
:101F75007E997D057C417828E2FB08E2F908E2FAC2
:101F850008E2CBF8120B1C60434041780C120DA9F6
:101F95007B407A9C79007800C3120D8550227D0123
:101FA5007F04121BA27D007F02121BA27811E4F2AE
:101FB500780C120DD500030D4078507402F2803F65
:101FC50078117401F278507401F2803378507403FB
:101FD500F2780C120DD5000000007808120DD5001E
:101FE5000000007811E4F28016780C120DD500007F
:101FF50000007808120DD5000000007850E4F27852
:0320050050E2FFA7
:0120080022B5
:082509007889EFF2788AEDF207
:10251100788BE4F2788BE2FFEF3395E0FEC3EF9422
:1025210010EE64809480505C788BE2FFEF3395E08D
:10253100FEC3EF9408EE64809480501F7889E2FF17
:10254100EF30E704D2948002C2947889E2FFEF254C
:10255100E0FF7889EFF2D29100801CC291788AE283
:10256100FFEF30E704D2948002C294788AE2FFEF51
:1025710025E0FF788AEFF2C29100D29100788BE2D8
:0C25810004F28090C292C2930000D2923B
:01258D00222B
:03001700D294225E
:032CC400C2942295
:032CC700D2912285
:032CCA00C2912292
:032CCD00D292227E
:032CD000C292228B
:0429FA00788CEFF2F4
:1029FE00788DE4F2788DE2FF7E00C3EF9408EE64EA
:102A0E00809480502D788CE2FFEF30E7051200178E
:102A1E008003122CC4122CCA0000122CC70000789E
:102A2E008CE2FFEF25E0FF788CEFF2788DE204F276
:022A3E0080C254
:012A40002273
:0D2CAB00122CD0000000122CCD00000022E1
:082A4100788EEFF2788FEDF2C0
:102A4900788EE2FF7891EFF2788FE2FF7892EFF2D9
:102A5900C2937890E4F27890E2FF7E00C3EF94028B
:102A6900EE6480948050147890E2FF74912FF8E21C
:0E2A7900FF1229FA7890E204F280DB122CABF7
:012A8700222C
:10291B00783174FFF27F01122C9E7D067F00121B13
:10292B00A2C285C2957833E22401F218E23400F298
:10293B00121D207D007F10121BA278317404F278D7
:10294B0031E2FFEF9029B193FF785CE2FD122A414F
:0C295B007FC87E007D007C001226E02278
:102967007F01122C9E7D067F00121BA2C285783143
:102977007404F22081097D007F02121BA2800E7D64
:10298700017F02121BA27D007F04121BA27831E295
:10299700FFEF9029B193FF785CE2FD122A417F0A8D
:0A29A7007E007D007C0012258E22C8
:102C3B00C2937D017F10121BA27831E2FFEF902926
:0B2C4B00B193FF785CE2FD122A4122E9
:04001E007893EFF2F2
:100022007827E2FFEF120DEE003A0001BA010397C2
:100032000403AB06000003C07814E4F27813E2FF75
:1000420004F27E00C3EF9432EE6480948050030287
:10005200019078137401F27F007E007DE07C40788D
:1000620028E2FB08E2F908E2FA08E2CBF8120B1CDC
:10007200600250617818E2FB08E2F908E2FA08E24D
:10008200CBF8C000C001C002C00378B4E2FC08E2B1
:10009200FD08E2FE08E2FFD003D002D001D000C387
:1000A200EF9BFFEE9AFEED99FDEC98FC7B207A4ED9
:1000B20079007800D3120D85400302019078B4E2F2
:1000C200FC08E2FD08E2FE08E2FF7818120DC912F0
:1000D200291B0201907F007E007DF07C407828E29F
:1000E200FB08E2F908E2FA08E2CBF8120B1C600501
:1000F20040030201787818E2FB08E2F908E2FA0804
:10010200E2CBF8C000C001C002C00378B4E2FC0830
:10011200E2FD08E2FE08E2FFD003D002D001D000E7
:10012200C3EF9BFFEE9AFEED99FDEC98FC7BF47A0F
:100132000179007800D3120D8550537D007F59124A
:100142001BA278277404F22081137D017F02121B07
:10015200A27D007F04121BA27F04122C9E78B4E2BF
:10016200FC08E2FD08E2FE08E2FF7818120DC978E9
:10017200317404F280187D007F5D121BA27D007F26
:1001820002121BA278317404F278277401F2789378
:10019200E2FFEF540FFF7812EFF27812E2FF7E00D7
:1001A200EF64034E60030203C012291B7861E2FD73
:1001B2007F03122C1D0203C07850E2FF7E00EF4E37
:1001C20060030203C07893E2FFEF540FFF7812EF4F
:1001D200F27812E2FF7E00EF64024E60030202D266
:1001E2007851E204F2785BE2FF7E00EF4E60030298
:1001F20002907858E2FF7E00EF4E60030202907890
:1002020053E2FF7E00EF4E60030202EA785CE2FFF7
:10021200EF4481FF785CEFF27825E4F208E4F278AB
:100222005B7401F2D2857894120DD541700000788A
:1002320094E2FC08E2FD08E2FE08E2FF120BD3782A
:1002420098EFF27898E2FFEF75F00A84AFF07E0043
:10025200C3EF9405EE64809480400778317402F213
:10026200800578317401F27861E2FD7F01122C1D64
:100272007D017F80121BA27D017F01121BA27D01E5
:100282007F10121BA27D007F40121BA2805A785B56
:10029200E2FF7E00EF64014E704E7825E4F208E43E
:1002A200F2785BE4F27861E2FD7F02122C1D783174
:1002B200E4F2C28578317404F27D007F80121BA2C1
:1002C2007D007F01121BA27D007F40121BA28018BD
:1002D2007812E2FF7E00EF64034E700C12291B7845
:1002E20061E2FD7F03122C1D7893E2FFEF54F0FFD1
:1002F2007812EFF27812E2FF7E00EF64204E705423
:100302007853E2FF7E00EF64014E70177D007F0894
:10031200121BA27853E4F27861E2FD7F04122C1DD5
:100322000203C0785BE2FF7E00EF4E60030203C06F
:100332007858E2FF7E00EF4E60030203C0785374E8
:1003420001F27861E2FD7F05122C1D7D017F08120A
:100352001BA2806A7812E2FF7E00EF64304E705E6C
:100362007853E2FF7E00EF4E7054785BE2FF7E002E
:10037200EF4E704A7858E2FF7E00EF4E704078539D
:100382007401F27861E2FD7F06122C1D7D017F0867
:10039200121BA280297850E2FF7E00EF4E701F7878
:1003A20027E4F27814E4F280157850E2FF7E00EF41
:1003B2004E700B12291B7827E4F27814E4F278507D
:1003C200E2FF7E00EF4E70030204AB78587401F234
:1003D20078277406F27893E2FFEF540FFF7812EF5A
:1003E200F27812E2FF7E00EF64024E705F781774BB
:1003F20001F27FE87E037D007C00781CE2FB08E2CC
:10040200F908E2FA08E2CBF8D3120D85502D7814E0
:10041200E204F27814E2FF7E00C3EF940AEE6480F5
:10042200948040287861E2FD7F07122C1D7F06121E
:100432002C9E122BF87814E4F280117817E4F278EB
:1004420014E4F2781C120DD5000000007817E2FFC8
:100452007E00EF64014E7026781CE2FC08E2FD0883
:10046200E2FE08E2FF7B017A0079007800EF2BFFC1
:10047200EE3AFEED39FDEC38FC781C120DC97850CD
:10048200E2FF7E00EF64024E700578277404F27872
:1004920050E2FF7E00EF64034E60030206FA782703
:1004A2007404F212291B0206FA7817E4F2785BE26E
:1004B200FF7E00EF64014E60030206947826E22478
:1004C20001F218E23400F27825E2FE08E2FF7C171E
:1004D2007D70120C54ED4C70167831E2FF7E00D321
:1004E200EF9400EE6480948040057831E214F27853
:1004F20025E2FC08E2FDE4120B9A7B007AA0790C5B
:100502007846120B1C6002507A7820120DD500003A
:100512000001785BE4F27825E4F208E4F27831E451
:10052200F2C2857D007F80121BA27D007F01121B1B
:10053200A27D017F40121BA278317404F27F007EFB
:10054200007D207C41782DE2FB08E2F908E2FA08FE
:10055200E2CBF8120B1C601D401B7861E2FD7F08A4
:10056200122C1D7F05122C9E785AE22401F218E209
:100572003400F2800E7861E2FD7F09122C1D7F03A8
:10058200122C9E7F9A7E997D597C3F7834E2FB083B
:10059200E2F908E2FA08E2CBF8120B1C6002505DA5
:1005A2007816E22401F218E23400F27815E2FE082D
:1005B200E2FFC3EF94E8EE940350030206FA7831A7
:1005C2007404F27815E4F208E4F2785BE4F2782538
:1005D200E4F208E4F2C2857D007F80121BA27D0056
:1005E2007F01121BA27861E2FD7F0A122C1D7D00A1
:1005F2007F40121BA27F05122C9E0206FA7F007E0C
:10060200007D207C407834E2FB08E2F908E2FA0837
:10061200E2CBF8120B1C405D7816E22401F218E2DC
:100622003400F27815E2FE08E2FFC3EF9490EE94F4
:100632000150030206FA78317404F27815E4F208E4
:10064200E4F2785BE4F27825E4F208E4F2C2857D14
:10065200007F80121BA27D007F01121BA27861E243
:10066200FD7F0B122C1D7D007F40121BA27F051205
:100672002C9E0206FA7815E2FE08E2FFD3EF940000
:10068200EE940040737816E224FFF218E234FFF28F
:1006920080667F017E007D007C007820E2FB08E21C
:1006A200F908E2FA08E2CBF8C3120D857043782507
:1006B20008E2FD2401F218E2FC3400F2E4120B9A83
:1006C2007B007AA0790C7846120B1C6002502978C4
:1006D20061E2FD7F0C122C1D7820120DD500000066
:1006E200007D007F40121BA27825E4F208E4F2802C
:1006F200077D007F40121BA27850E2FF7E00EF4E82
:10070200602278587401F2785BE4F27825E4F2080A
:10071200E4F27831E4F2C28578317404F27D007F2C
:1007220059121BA27827E2FF7E00EF4E70030208E7
:100732007D7F007E007DE07C407828E2FB08E2F9C4
:1007420008E2FA08E2CBF8120B1C6002506D78182E
:10075200E2FB08E2F908E2FA08E2CBF8C000C001C5
:10076200C002C00378B4E2FC08E2FD08E2FE08E23F
:10077200FFD003D002D001D000C3EF9BFFEE9AFE60
:10078200ED99FDEC98FC7B107A2779007800D31262
:100792000D85400302087D78587401F278B4E2FCBA
:1007A20008E2FD08E2FE08E2FF7818120DC91229DC
:1007B2001B7861E2FD7F0C122C1D227F007E007DE2
:1007C200F07C407828E2FB08E2F908E2FA08E2CB82
:1007D200F8120B1C600250757818E2FB08E2F90867
:1007E200E2FA08E2CBF8C000C001C002C00378B44C
:1007F200E2FC08E2FD08E2FE08E2FFD003D002D0EC
:1008020001D000C3EF9BFFEE9AFEED99FDEC98FC40
:100812007BE87A0379007800D3120D85505D785811
:100822007401F27861E2FD7F0D122C1D7D007F04C0
:10083200121BA27D017F02121BA278B4E2FC08E225
:10084200FD08E2FE08E2FF7818120DC92278B4E230
:10085200FC08E2FD08E2FE08E2FF7818120DC978F2
:1008620050E2FF7E00EF4E70127858E4F27D017F75
:0B08720004121BA27D007F02121BA2DB
:01087D002258
:101A20007824E2FF04F27E00C3EF9432EE648094E7
:101A3000805003021BA17824E4F278997444F27870
:101A40009A7442F2789B7458F27F007E007D207C6D
:101A5000417838E2FB08E2F908E2FA08E2CBF81232
:101A60000976120BD3789CEFF27F007E007D207CFC
:101A700041782DE2FB08E2F908E2FA08E2CBF8121D
:101A80000976120BD3789DEFF27834E2FC08E2FD80
:101A900008E2FE08E2FF120BD3789EEFF27832E202
:101AA000FE08E2FFEEFF7E00789FEFF27832E2FE62
:101AB00008E2FF7E0078A0EFF27866E2FE08E2FF1F
:101AC000EEFF7E0078A1EFF27866E2FE08E2FF7E8C
:101AD0000078A2EFF27859E2FE08E2FFEEFF7E0006
:101AE00078A3EFF27859E2FE08E2FF7E0078A4EFD7
:101AF000F278AFE4F208E4F278AFE2FE08E2FFC366
:101B0000EF940CEE9400503D78AFE2FE08E2FFEF58
:101B10004E700D7899E2FF7E0078ADEEF208EFF29C
:101B200078AFE2FE08E2FF74992FF8E2FF7E0078BA
:101B3000AEE22FF218E23EF278B0E22401F218E2AF
:101B40003400F280B378ADE2FE08E2FFEEFF7E00E3
:101B500078A5EFF278ADE2FE08E2FF7E0078A6EF0E
:101B6000F278A77447F278A87410F278AFE4F2081C
:101B7000E4F278AFE2FE08E2FFC3EF9410EE9400C7
:101B8000501F78AFE2FE08E2FF74992FF8E2FF7D64
:101B900000122C1D78B0E22401F218E23400F28029
:011BA000D173
:011BA1002221
:0725010081B30082B100006C
:03001B000222249A
:10222400C0E0C0F0C083C082C0D075D000C000C080
:0D22340001C002C003C004C005C006C00701
:1022410078BDE4F278B4E2FC08E2FD08E2FE08E2BF
:10225100FF7B017A0079007800EF2BFFEE3AFEED6B
:1022610039FDEC38FC78B4120DC9758DCC758BEA4B
:1022710078B108E2FF2401F218E2FE3400F2C3EF64
:102281009403EE9400401878B1E4F208E4F21213DA
:102291000C78B8E2FFEF600778B8E4F2122C3B78D3
:0422A100B37401F21F
:1022A500D007D006D005D004D003D002D001D0008D
:0B22B500D0D0D082D083D0F0D0E03237
:102B550075C7AA75C75543AA03A2AF9200C2AF7540
:102B6500C7AA75C75543AA40A20092AFAFAA7E0077
:102B75007EFFEF44BFFFEF64FF4E60F0A2AF92000F
:102B8500C2AF75C7AA75C75543AA80A20092AF22E6
:1020090078BEE4F278C07401F275B10075B200755A
:10201900B30075B40075AC0075AD00122B95122C88
:1020290056121E95EF70187F011218817E007E00EE
:10203900EF5403FFEF64034E6005122B1280E81280
:102049002B12122B557F807E257D007C001222C029
:102059001220CB12166778BFE4F278BFE2FF7E0048
:10206900C3EF9432EE64809480500A120E1478BF44
:10207900E204F280E512296778C0E4F278C0E2FF51
:1020890012188178BEEFF278B3E2FF7E00EF6401A7
:102099004E70E9A2AF9200C2AF75C7AA75C7554382
:1020A900AA40A20092AF121E9578BEE2FF12001E4E
:1020B900120E1478B3E4F2122B1278B87401F2807C
:0120C900BB5B
:0120CA0022F3
:072BD20078C1EEF208EFF2FA
:102BD90078C1E2FE08E2FF8F828E83E493FE7401DE
:0E2BE90093FFEEFF7E0078C3EFF278C3E2FFA9
:012BF70022BB
:101D200078C4E4F278C57447F208E4F27832E2FE4F
:101D300008E2FF7E00900105EFF07832E2FE08E253
:101D4000FFEEFF7E00900106EFF07866E2FE08E20B
:101D5000FF7E00900107EFF07866E2FE08E2FFEEFA
:101D6000FF7E00900108EFF07859E2FE08E2FF7E66
:101D700000900109EFF07859E2FE08E2FFEEFF7EE5
:101D80000090010AEFF078C5E2FE08E2FFEF54FF91
:101D9000F5A678C5E2FE08E2FFEEFF7E00EF54FFF5
:101DA000F5A775AEFFA2AF9200C2AF75C7AA75C7FF
:101DB00055439F01A20092AFA2AF9200C2AF75C778
:101DC000AA75C75543A501A20092AF75AF22A2AF75
:101DD0009200C2AF75C7AA75C75543A401A200926D
:101DE000AFA2AF9200C2AF75C7AA75C755439F0196
:101DF000A20092AFA2AF9200C2AF75C7AA75C75535
:101E000043A501A20092AF75AF2178C4E4F278C473
:101E1000E2FF7E00C3EF9418EE64809480504F7808
:101E2000C5E2FE08E2FFEF54FFFF78C4E2FEEF2EAA
:101E3000F5A678C5E2FE08E2FFEEFF7E00EF54FF54
:101E4000F5A778C4E2FF74042FF582E43401F5832A
:101E5000E0FF8FAEA2AF9200C2AF75C7AA75C7559B
:101E600043A401A20092AF78C4E204F280A0A2AF22
:101E70009200C2AF75C7AA75C75553A5FEA20092BE
:101E8000AFA2AF9200C2AF75C7AA75C755539FFEE8
:041E9000A20092AF6B
:011E9400222B
:1020CB007F027E47122BD27E00EF7D00FC7F017ECC
:1020DB0047122BD27E00ED2FFFEC3EFE7832EEF254
:1020EB0008EFF27F047E47122BD27E00EF7D00FCBF
:1020FB007F037E47122BD27E00ED2FFFEC3EFE7846
:10210B0066EEF208EFF27F067E47122BD27E00EFCF
:10211B007D00FC7F057E47122BD27E00ED2FFFEC5E
:10212B003EFE7859EEF208EFF27859E2FE08E2FF34
:10213B00EF64FF7003EE64FF600F7866E2FE08E267
:10214B00FFEFB4FF27EEB4FF237832E4F208E4F29A
:10215B007866E4F208E4F27859E4F208E4F2121D2E
:0D216B00207FF47E017D007C001226E02222
:102A880078C7120DC953B1BF53B2BF53B17F53B208
:102A98007F759850438920438780438E1053C4DF45
:102AA80078C7E2FB08E2F908E2FA08E2CBF87F40CF
:102AB8007E427D0F7C00120CE5EF04FFEFF404F575
:062AC8008DD28ED299228E
:1022C00078CB120DC953B1BF53B2BF53B17F53B2D4
:1022D0007F75985043878053C4F843C42078CBE27D
:1022E000FB08E2F908E2FA08E2CBF87F407E427D83
:1022F0000F7C00120CE5A804A905AA06AB07C3745D
:10230000FF9BFF74FF9AFEE499FDE498FC780812A5
:102310000D968FC678CBE2FB08E2F908E2FA08E2F4
:10232000CBF87F407E427D0F7C00120CE5A804A90B
:1023300005AA06AB07C374FF9BFF74FF9AFEE499DE
:10234000FDE498FCEF54FFFFEE5400FEED5400FD59
:0C235000EC5400FC8FC543C408D2992255
:0E2C80003098FD78CFE599F2C29878CFE2FF48
:012C8E002223
:1000030078D0EFF2C29978D0E2FF8F993099FD78DA
:04001300D0E2FF2216
:102C1D0078D1EFF278D2EDF278D2E2FF7E00EF4E6E
:0E2C2D00700BC29978D1E2FF8F993099FD2289
:10235C0078D3120DC953B1FB53B2FB53B3BF53B473
:10236C00BF75F85075C40853C4DF78D3E2FB08E29C
:10237C00F908E2FA08E2CBF87F407E427D0F7C0040
:10238C00120CE5A804A905AA06AB07C374FF9BFFB2
:10239C0074FF9AFEE499FDE498FC7808120D968F70
:1023AC00C678D3E2FB08E2F908E2FA08E2CBF87F40
:1023BC00407E427D0F7C00120CE5A804A905AA06FC
:1023CC00AB07C374FF9BFF74FF9AFEE499FDE4987E
:1023DC00FCEF54FFFFEE5400FEED5400FDEC5400F6
:0723EC00FC8FC543C4082269
:0E2C8F0030F8FD78D7E59AF2C2F878D7E2FF68
:012C9D002214
:102C700078D8EFF2C2F978D8E2FF8F9A30F9FD22C6
:0526E00078D9120DC9BC
:1026E50078DD120DD50000000078D9E2FC08E2FD86
:1026F50008E2FE08E2FF78DDE2FB08E2F908E2FA0B
:1027050008E2CBF8C3120D8550337FE87E037D00C8
:102715007C001228C278DDE2FC08E2FD08E2FE0832
:10272500E2FF7B017A0079007800EF2BFFEE3AFE9D
:0D273500ED39FDEC38FC78DD120DC980ACEB
:012742002274
:0528C20078E1120DC9D0
:1028C70078E5120DD50000000078E1E2FC08E2FD92
:1028D70008E2FE08E2FF78E5E2FB08E2F908E2FA1F
:1028E70008E2CBF8C3120D8550290078E5E2FC0811
:1028F700E2FD08E2FE08E2FF7B017A00790078003A
:10290700EF2BFFEE3AFEED39FDEC38FC78E5120DC2
:03291700C980B6BE
:01291A00229A
:1027A50078E9120DC9538EF7438901D28C7F007EDB
:1027B500007D007C0078E9E2FB08E2F908E2FA080E
:1027C500E2CBF8C3120D856033758A7E758CFF30B8
:1027D5008DFDC28D78E9E2FC08E2FD08E2FE08E223
:1027E500FF7BFF7AFF79FF78FFEF2BFFEE3AFEEDD7
:0F27F50039FDEC38FC78E9120DC980B1C28C2295
:1028040078ED120DC9538EF7438901D28C7F007E77
:10281400007D007C0078EDE2FB08E2F908E2FA08AA
:10282400E2CBF8C3120D856033758ACA758CFA3011
:102834008DFDC28D78EDE2FC08E2FD08E2FE08E2BF
:10284400FF7BFF7AFF79FF78FFEF2BFFEE3AFEED77
:0F28540039FDEC38FC78ED120DC980B1C28C2231
:1028630078F1120DC9538EEF438910D28E7F007E0B
:10287300007D007C0078F1E2FB08E2F908E2FA0847
:10288300E2CBF8C3120D856033758BEA758DCB30BF
:102893008FFDC28F78F1E2FC08E2FD08E2FE08E258
:1028A300FF7BFF7AFF79FF78FFEF2BFFEE3AFEED18
:0F28B30039FDEC38FC78F1120DC980B1C28E22CC
:1027430078F5120DC953C9BF53C9DF43C910D2CAA3
:102753007F007E007D007C0078F5E2FB08E2F9084B
:10276300E2FA08E2CBF8C3120D85603375CC3075FD
:10277300CDF830CFFDC2CF78F5E2FC08E2FD08E2E8
:10278300FE08E2FF7BFF7AFF79FF78FFEF2BFFEE76
:102793003AFEED39FDEC38FC78F5120DC980B1C273
:0227A300CA2248
:10260E0078F9120DC975C40743C4087F007E007D9A
:10261E00007C0078F9E2FB08E2F908E2FA08E2CB66
:10262E00F8C3120D85603E75C52C75C6CFE5C45432
:10263E0010FF7E00EF64104E70F353C4EF78F9E292
:10264E00FC08E2FD08E2FE08E2FF7BFF7AFF79FF5D
:10265E0078FFEF2BFFEE3AFEED39FDEC38FC78F902
:09266E00120DC980A653C4F72225
:102677007800120DC975C40743C4087F007E007D2A
:10268700007C007800E2FB08E2F908E2FA08E2CBF6
:10269700F8C3120D85603E75C5D875C6FFE5C454ED
:1026A70010FF7E00EF64104E70F353C4EF7800E222
:1026B700FC08E2FD08E2FE08E2FF7BFF7AFF79FFF4
:1026C70078FFEF2BFFEE3AFEED39FDEC38FC780092
:0926D700120DC980A653C4F722BC
:0300000002217862
:1021780075C7AA75C75575FD5A75C7AA75C7557528
:10218800FDA5787FE4F6D8FD9000007FFF7E03E48C
:0C219800F0A3DFFCDEFA7581200221DFDD
:10087E00020C3FE86480F8E933E83360110460F05D
:10088E00ED33EC337009E8FCE9FDEAFEEBFF2204E0
:10089E0060DED3EB9FEA9EE99DE8C2E78CF0C2F7DB
:1008AE0095F0400CE8CCF8E9CDF9EACEFAEBCFFBA7
:1008BE00120C0A85D0F05804700320D5B3E80470EA
:1008CE00075002B2D5020C4992D5EC0460F7E4CC85
:1008DE00C0E0C398F8603B94186008400DD0E0FB70
:1008EE00020C21E4FBFAC9FC8028E830E406E4C9D6
:1008FE00FBE4CAFCE830E305E4C9CACBFCE85407C4
:10090E006010F8C3E913F9EA13FAEB13FBEC13FCCE
:10091E00D8F130F52FC3E49CFCEF9BFFEE9AFEED71
:10092E0099FDD0E0FBEF4E4D4C701222DB03020C12
:10093E0046EC2CFCEF33FFEE33FEED33FDED30E7EE
:10094E00EB020C21EF2BFFEE3AFEED39FDD0E0FB72
:10095E0050130BBB0003020C49ED13FDEE13FEEF1B
:08096E0013FFEC13FC020C2145
:10097600EC4D6011E8497017ED33EC3304600DE47B
:10098600FCFFFEFD22E933E8330470F8020C3F1247
:100996000C0A58046009E4CC248150062850090248
:1009A6000C49284003020C46C0E0EB4A7044B9806B
:1009B60006D0E0FB020C35EF4E701CBD8008EBFF45
:1009C600EAFEE9FD80EBE98DF0A4FEE5F0020A5FA0
:1009D600E9CDF9EAFEEBFFEF89F0A4FCE5F0CE895C
:1009E600F0A42EFFE435F0CD89F0A42DFEE435F019
:1009F6008067EF4E7005BD80D780C3EF8BF0A4AC47
:100A0600F0EE8BF0A42CFCE435F0F8EF8AF0A42C81
:100A1600E5F038FCE433CB8DF0A42CFCE5F03BF894
:100A2600EE8AF0A42CFCE5F038F8E433CF89F0A484
:100A36002CFCE5F038CF3400CE89F0A42FFFE5F08A
:100A46003EFEE433C98DF0A42EFEE5F039CD8AF0E2
:100A5600A42FFFE5F03EFEE43DFD33D0E0FB50075A
:100A66000BBB000F020C49EC2CFCEF33FFEE33FE00
:060A7600ED33FD020C212E
:100A7C00020C49EC5D046005E859047003020C3F5C
:100A8C00120C0A580460F6EC4860F2EC7004FDFE9F
:100A9C00FF22C860DB2481C85009C398600250064D
:100AAC00020C469850CAF582E9294B4A7005AB8274
:100ABC00020C3575F0007C1A7880C3EF9BEE9AED32
:100ACC0099400DC3EF9BFFEE9AFEED99FDE842F0C5
:100ADC00DC23ACF0D0E0FFD0E0FED0E0FDAB822018
:100AEC00E7101BEB60BAEC2CFCEF33FFEE33FEEDA2
:100AFC0033FD020C21E803F830E705C0F075F00077
:100B0C00EF2FFFEE33FEED33FD40B830E7C280AA85
:100B1C0074F8CC6480CCC86480C8F58204604FC380
:100B2C00EB9FF5F0EA9E42F0E99D42F0E89C45F01F
:100B3C00603C501DE5825FFFE582D313CB5BCBF4A9
:100B4C002B5582FB50280ABA002409B900200880D2
:100B5C001DE5825BFBE582D313CF5FCFF4C3132F6C
:100B6C005582FF50090EBE00050DBD00010CC3EBF4
:100B7C009FF5F0EA9E42F0E99D42F0E89C45F0605A
:090B8C0007CC4820E701B3EC227C
:100B950075F020800E75F010800575F0087D007EDB
:100BA500007F003392D530D503120D77EC3340101A
:100BB500EF33FFEE33FEED33FDEC33FCD5F0ED22E4
:0E0BC500E5F0247EA2D513CC92E7CDCEFF2220
:100BD300EDD2E7CD33EC3392D524814006E4FFFE1A
:100BE300FDFC22FCE4CFCECDCC24E0501174FF8079
:100BF300EDC3CC13CCCD13CDCE13CECF13CF047016
:070C0300F030D5DE020D7791
:100C0A00E9D2E7C933E833F892D5EDD2E7CD33EC30
:070C1A0033FC5002B2D522A9
:100C2100EC30E7100FBF000C0EBE00080DBD000434
:100C31000BEB6014A2D5EB13FCED92E7FD2274FFE0
:100C4100FCFDFEFF22E480F8A2D574FF13FC7D8039
:030C5100E480EF4D
:1021A400022009E493A3F8E493A34003F68001F228
:1021B40008DFF48029E493A3F85407240CC8C3333C
:1021C400C4540F4420C8834004F456800146F6DF0B
:1021D400E4800B0102040810204080902481E47EF6
:1021E400019360BCA3FF543F30E509541FFEE49300
:1021F400A360010ECF54C025E060A840B8E493A3C7
:10220400FAE493A3F8E493A3C8C582C8CAC583CAF1
:10221400F0A3C8C582C8CAC583CADFE9DEE780BEA9
:0125080000D2
:100C5400BC000BBE0029EF8DF084FFADF022E4CC84
:100C6400F875F008EF2FFFEE33FEEC33FCEE9DEC4D
:100C7400984005FCEE9DFE0FD5F0E9E4CEFD22ED93
:100C8400F8F5F0EE8420D21CFEADF075F008EF2FDD
:100C9400FFED33FD4007985006D5F0F222C398FDCE
:050CA4000FD5F0EA226B
:100CA90075F008758200EF2FFFEE33FECD33CDCC02
:100CB90033CCC58233C5829BED9AEC99E582984085
:100CC9000CF582EE9BFEED9AFDEC99FC0FD5F0D662
:100CD900E4CEFBE4CDFAE4CCF9A88222B800C1B98C
:100CE9000059BA002DEC8BF084CFCECDFCE5F0CBCA
:100CF900F97818EF2FFFEE33FEED33FDEC33FCEB03
:100D090033FB10D703994004EB99FB0FD8E5E4F9BD
:100D1900FA227818EF2FFFEE33FEED33FDEC33FCAA
:100D2900C933C910D7059BE99A4007EC9BFCE99A9E
:100D3900F90FD8E0E4C9FAE4CCFB2275F010EF2FE3
:100D4900FFEE33FEED33FDCC33CCC833C810D707E3
:100D59009BEC9AE899400AED9BFDEC9AFCE899F81E
:0E0D69000FD5F0DAE4CDFBE4CCFAE4C8F922B1
:102ACE00C2D5E830E70FB2D5E4C39BFBE49AFAE433
:102ADE0099F9E498F8EC30E717B2D5122B04120CE2
:102AEE00E5E4C39BFBE49AFAE499F9E498F88003D1
:102AFE00120CE530D50DE4C39FFFE49EFEE49DFD70
:042B0E00E49CFC2225
:0E0D7700C3E49FFFE49EFEE49DFDE49CFC228D
:100D8500EB9FF5F0EA9E42F0E99D42F0E89C45F0C4
:010D9500223B
:100D9600E8600FECC313FCED13FDEE13FEEF13FF3B
:030DA600D8F1225F
:100DA9007401FF3395E0FEFDFC080808E2CF2FF23D
:100DB90018E2CE3EF218E2CD3DF218E2CC3CF22226
:0C0DC900ECF208EDF208EEF208EFF22266
:100DD500D083D082E493F208740193F208740293ED
:090DE500F208740393F274047324
:100DEE00D083D082F8E4937012740193700DA3A394
:100DFE0093F8740193F5828883E4737402936860A8
:060E0E00EFA3A3A380DFA7
:00000001FF
