:1000000002032E53B1BF53B2BF53B17F53B27F75BA
:10001000C7AA75C755439F01512851B751F3D28CD8
:10002000C201309819C298AF79057974242FF8A6C7
:1000300099E579B44005E4F579D202E4F521308DF3
:100040000AC28D0521E5217002F5793002D4300114
:100050000A756408319A200102217DE524710801A6
:1000600014A0008FA1008FA2007BA4007DA6017DBB
:10007000AB007BAE0082B100000176210E757127C6
:10008000210E757150757236E4F573F574807FE555
:100090002464A1706175C7AA75C75543A50475AFDF
:1000A000E2F5A6F5A775AEFF75C7AA75C75543A4B7
:1000B0000175AFE1852CAE75C7AA75C75543A4017C
:1000C000852DAE05A675C7AA75C75543A40105A61B
:1000D000852EAE75C7AA75C75543A40175A60485BC
:1000E00030AE75C7AA75C75543A40175C7AA75C7B1
:1000F0005553A5FB51B7850C71850D72850E73851F
:1001000010757574FF7576FF7577FF7578FF5185EB
:1001100051DB806275C7AA75C75543A50175650097
:10012000853066E531FEEE4265E4F567F568F57AFF
:10013000F57BD201F5A6F5A775AEFF75AF22E56692
:10014000AE657807CEC313CE13D8F904F57CE4F579
:1001500064E564C3957C501975C7AA75C75543A457
:1001600001748025A6F5A6E5A6700205A7056480A2
:10017000E0756410319AC202E4F579012275C7AACC
:1001800075C755539FFE75C7AA75C755539FFD7513
:10019000C7AA75C755439F8080FEE564C39440504D
:1001A0007B74242564F8E6FDF57CE57B457A700CCC
:1001B000E57C64026004D2008002C2003000097451
:1001C000AD257CF57C637CFF857CAE75AF21E57B3E
:1001D000F5A6E57AF5A775C7AA75C75543A401E446
:1001E000F5AF75C7AA75C75543A401E5AE657C6038
:1001F0000280FEE59FB4430280FEED2568F568E4C9
:100200003567F567057BE57B7002057AB56609E51C
:100210007AB56504C20180040564219AE568F57128
:10022000E567F572518541DB75A630E4F5A775AF3A
:100230000475C7AA75C75543A40185AE0A05A675FE
:10024000C7AA75C75543A40185AE0BE50A25E0F59D
:1002500009E433F508E50B30E00343090174F125A7
:1002600009F50974FF3508F50875C7AA75C755E57E
:1002700008C313E50913F58475C7AA75C755E509C1
:100280005401F58522E4F522F523F56474242564F0
:10029000F8E62523F523E43522F5220564E564B468
:1002A00040EAE523F569E522F56AE52804F56D8560
:1002B000296E7002056E2275AFC0E4F5A6F5A7F5AC
:1002C0006475C7AA75C75543A401740C2564F8A6C4
:1002D000AE05A60564E564B405E722E4F564C299B9
:1002E00074692564F8E6F5993099FD0564E564B410
:1002F00040EC22759852438922438780438E1053E5
:10030000C4DF758DF7D28E22D083D082F8E493704B
:1003100012740193700DA3A393F8740193F582886E
:1003200083E4737402936860EFA3A3A380DF787FF4
:0A033000E4F6D8FD75817C0200039D
:00000001FF
