:020000040800F2
:10000000F808002001010008C5090008C709000818
:10001000CB090008CF090008D30900080000000040
:10002000000000000000000000000000D7090008E8
:10003000D909000800000000DB090008DD090008FC
:100040001701000817010008170100081701000830
:100050001701000817010008170100081701000820
:100060001701000817010008170100081701000810
:10007000E5090008F7090008170100081701000842
:1000800017010008170100081701000817010008F0
:1000900017010008170100081701000817010008E0
:1000A000170100080D0A00081701000817010008D1
:1000B000190A0008170100081701000817010008B5
:1000C00017010008170100081701000817010008B0
:1000D000170100081701000817010008533A00082B
:1000E000170100081701000817010008DFF80CD0FD
:1000F00006F030FB00480047D5080008F80800204B
:1001000005480047FEE7FEE7FEE7FEE7FEE7FEE7FD
:10011000FEE7FEE7FEE7FEE7ED00000801B5002080
:1001200006E0002101E000BF491C0629FBD3401C6A
:10013000009A9042F5D308BD11B5002404E04FF4B5
:100140007A70FFF7EBFF641C00988442F7D318BD68
:100150003EB50446FE4890FBF4F080B2ADF80400D2
:100160004720ADF800000020ADF80600ADF8020011
:100170006946F84805F01FF8F54991FBF4F000EBEB
:10018000D071C1F34F01F34A403211803EBD00B53A
:1001900089B001210C2004F0E1F90121C80204F02A
:1001A000DDF90121084604F0D9F94FF48070ADF86B
:1001B000140018208DF8170003208DF8160005A9EB
:1001C000E54803F02FFF4FF40050ADF8140018205D
:1001D0008DF8170003208DF8160005A9DF4803F0FD
:1001E00021FFDF4804F07CFF4FF47A60ADF81C007B
:1001F0004720ADF818000020ADF81E00ADF81A0039
:100200008DF8200006A9D64804F0D5FF0121D44876
:1002100005F058FB6020ADF804000120ADF80600A1
:100220000420ADF808000020ADF80C00ADF80E0079
:100230004FF48070ADF810000020ADF812004FF4BC
:10024000FA60ADF80A0001A9C54804F0CDFF082105
:10025000C34805F067FB0121C14805F032FA0121CE
:10026000BF4805F03AFA09B000BD0EB501210846B5
:1002700004F081F94FF0804004F032FF41F2883001
:10028000ADF8040040F2CF20ADF800000020ADF83A
:100290000600ADF8020069464FF0804004F08BFF85
:1002A0000121880705F0FCFC01221146900705F0AA
:1002B00023FA0121880705F004FA0EBD00B589B0C4
:1002C0000121022004F057F90121092004F046F928
:1002D0000220ADF8200018208DF8230003208DF8AF
:1002E000220008A99D4803F09DFE9A4804F0F8FEFC
:1002F0004FF4B770ADF818004720ADF81400002097
:10030000ADF81A00ADF8160005A9924804F053FFA5
:100310006020ADF804000120ADF806000020ADF823
:100320000A00ADF80C0001A98A4805F026F808215A
:10033000884805F016FB0121864805F0C3FA012123
:10034000844805F0CAF90121824805F0BAF9002075
:1003500080494031088009B000BD00B589B0012155
:10036000042004F008F90121092004F0F7F84FF403
:100370007070ADF8200018208DF8230003208DF850
:10038000220008A9754803F04DFE764804F0A8FE47
:100390004FF47A60ADF818000120ADF81400002089
:1003A000ADF81A00ADF8160005A96E4804F003FF79
:1003B0006020ADF804000120ADF806000020ADF883
:1003C0000A00ADF80C0001A9664804F00DFF0821F1
:1003D000644805F0A7FA01A9624804F03CFF08212F
:1003E000604805F0A8FA01A95E4804F0C6FF08219C
:1003F0005C4805F0B6FA01215A4805F063FA01217C
:10040000584805F05EF90020564934310880091D2E
:100410000880091D08804FF47A60091D088009B022
:1004200000BD30B55049B1F1807F01D301201DE0FE
:1004300021F07F40401E4FF0E022506150170F2204
:10044000002807DA13071D0E484B00F00F04241F85
:100450001D5503E013071C0E454B1C5400BF002024
:100460004FF0E022906107201061002008B100BF2A
:10047000FEE730BD10B53F490888411C3D4A118058
:1004800063284EDD00201146088001203A4908709B
:100490003A490878411C394A11703B2815DB002085
:1004A0001146087036490878411C354A11703B28BE
:1004B0000BDB00201146087032480078182804DA57
:1004C00030480078401C2F4908702F48007840B908
:1004D00001202D49087000BF0103204803F04FFEA2
:1004E00009E000202849087000BF4FF480511B48E4
:1004F00003F047FE00BF2548007840B92448007843
:100500002D2804DA22480078401C214908701B4835
:100510000078022802DD01201E49087001201E49D2
:10052000087014480088322190FBF1F201FB1200A0
:10053000B0BB1648007810B900201849088013484D
:1005400000780A283BD115480088B0F5F57F28E0EF
:1005500040420F000004004000080140000C014030
:10056000002C01400008004080FC0A0018ED00E06B
:1005700000E400E00400002000000020080000204B
:10058000090000200A0000200E0000202F0000209B
:100590000C0000200D0000200200002010000020B0
:1005A0000DE00CDA0848006805F086FFC1B2074884
:1005B00002880088401C054B1880054881540120A2
:1005C0000449087010BD0000200000201000002029
:1005D0004C0100200100002008B50121112003F08A
:1005E000BDFF012005F0C1FB002003F024FF002027
:1005F00005F065FB4FF46040ADF8000003208DF876
:10060000020010208DF803006946A94803F00AFD96
:100610000121082003F0A2FF4FF48150ADF8000043
:1006200003208DF8020010208DF803006946A148D0
:1006300003F0F8FC0121082003F090FF0120ADF841
:10064000000048208DF8030069469A4803F0EAFC50
:100650000121042003F082FFC020ADF800004820F3
:100660008DF803006946944803F0DCFC0121042066
:1006700003F074FF4FF48070ADF8000003208DF894
:10068000020010208DF8030069468B4803F0CAFC75
:100690000121082003F062FF4FF40050ADF8000084
:1006A00003208DF8020010208DF803006946814870
:1006B00003F0B8FC00BF4FF400417D4803F061FD3A
:1006C00000BF00BF4FF40051794803F05AFD00BF4E
:1006D00000BF4FF48041764803F053FD00BF00BFD8
:1006E0002021744803F04DFD00BF00BF4FF480711E
:1006F000714803F046FD00BF00BF4FF400516D4844
:1007000003F03FFD00BF08BD08B54FF4A06004F042
:1007100061FA0D208DF8000000208DF801008DF8A1
:10072000020001208DF80300684604F058FA0C20FE
:100730008DF8000000208DF8010001208DF80200E6
:100740008DF80300684604F04AFA27208DF800006F
:1007500000208DF8010002208DF8020001208DF8A4
:100760000300684604F03BFA1C208DF800000120CD
:100770008DF8010000208DF8020001208DF80300A3
:10078000684604F02CFA08BD10B545F2555005F046
:1007900041FB062005F041FBC82005F041FB05F0B8
:1007A00042FB05F045FB10BD08B5FFF715FF02F051
:1007B000A6FE02F01DF8FFF734FE01F0F3F901F098
:1007C00095FAFFF752FDFFF779FDFFF7C6FD02F03E
:1007D0007FFFFFF799FF394A0421142003F05BFBE8
:1007E0006A4602211E2003F056FB9DF800009DF88A
:1007F000011001EB810100EB410031490880282004
:1008000003F0FCFA8DF800009DF80000AA2802D140
:1008100001202C490870322003F0F0FA8DF8000016
:100820009DF80000BB2802D10120274908706A46C4
:1008300002213C2003F02FFB9DF800009DF80110E1
:1008400001EB810100EB4100204908800846008847
:100850004FF6FF71884202D100201C4908801B48D6
:100860000088B0F5A87F03DB0520194908701AE05D
:1008700016480088A62803DD04201549087012E0F8
:1008800012480088322803DD0320114908700AE06D
:100890000E480088052803DD02200D49087002E09B
:1008A00001200B490870FFF76FFF002008BD000012
:1008B00000100140000C01400008014046000020EB
:1008C0002C0000204A000020320000202A000020D6
:1008D000E300002005F030FBFFF766FF02F04BF865
:1008E00059E02D492D48006805F064FE06D800BF88
:1008F0004FF400412A4803F044FC00BF2948007827
:10090000012816D100202749087001F064FA00F090
:100910005CF902F03BFE00F055FC2348007801280A
:1009200002D102F028F802E001202049087005F009
:100930007AFA1F480078012823D100201C4908704A
:100940001C4800F0D3F91C4800781A4909788842FD
:1009500010D11A4801780078401C184A10700A29F2
:100960000FDD00201146087001201249087012495D
:10097000087006E00F4800780F49087000200F4902
:1009800008700F480078012805D100200C49087034
:10099000084800F055FAA4E70000D24220000020E9
:1009A00000100140010000200D0000203300002055
:1009B000000000201200002014000020130000207E
:1009C00032010020704700BFFEE700BFFEE700BF16
:1009D000FEE700BFFEE770477047704710B5FFF7AE
:1009E00049FD10BD10B5202004F0C4F8002168486E
:1009F00004F094F810BD10B54FF4007004F0BAF88C
:100A000000216348143004F089F810BD10B50121AD
:100A1000604805F045F910BD10B50121880705F0C3
:100A20003FF95D48007805287ED2DFE800F0030C2E
:100A3000345C860000205949088000214FF0804036
:100A400004F03FFEA2E0564801780078401C544A6A
:100A50001070042907DB00204F4908701146087008
:100A60005049088016E050484D49097830F8110087
:100A70004C49098888420DD04B484949097830F8DB
:100A80001100484908804849454A127831F8120057
:100A9000FFF75EFB7AE0424801780078401C404A4C
:100AA0001070012907DB00203B49087011460870CF
:100AB0003C49088016E03D483949097830F8110072
:100AC0003849098888420DD038483549097830F8C6
:100AD0001100344908803549314A127831F8120042
:100AE000FFF736FB52E02E4801780078401C2C4A74
:100AF0001070042907DB0020274908701146087090
:100B00002849088018E02A482549097830F811005A
:100B10002449098888420FD025482149097830F8AE
:100B200011002049088000E02FE021491C4A12787A
:100B300031F81200FFF70CFB28E019480178007823
:100B4000401C174A1070042907DB00201249087066
:100B5000114608701349088016E0164810490978B4
:100B600030F811000F49098888420DD011480C490E
:100B7000097830F811000B4908800E49084A1278AC
:100B800031F81200FFF7E4FA00E000BF00BF10BD2B
:100B90001C000240002C01400B00002040040040DB
:100BA0001600002018000020EC670008F667000817
:100BB000FA6700080468000810B50446FE4804708F
:100BC0000121880704F07DFD10BD10B50121FB480F
:100BD00003F0BBFA10BBFA480078032802D1F849A9
:100BE000087021E0F648007802280BD1F54801682A
:100BF0000068401CF34A1060322915D90320F049DF
:100C0000087011E0EF4801680068401CED4A106070
:100C1000322909D90120EA49087005E00220E84993
:100C200008700020E74908604021E74803F08DFA8A
:100C3000A8B9E3488078082802D1E14988700AE021
:100C4000E24801680068401CE04A1060322902D97D
:100C50000820DB4988700020DD49086014E0D8488E
:100C60008078072802D1D64988700AE0D848016800
:100C70000068401CD64A1060322902D90720D049AA
:100C800088700020D14908608021CF4803F05DFAC8
:100C9000A8B9CB484078052802D1C94948700AE074
:100CA000CC4801680068401CCA4A1060322902D949
:100CB0000520C34948700020C749086014E0C048B7
:100CC0004078042802D1BE4948700AE0C248016851
:100CD0000068401CC04A1060322902D90420B8497B
:100CE00048700020BB490860204610BD38B5044656
:100CF00000200090002520780B2877D2DFE800F054
:100D00009B061C1F23262A2E32363A00012002F0B1
:100D100003FFB24801780078401CB04A10700929DE
:100D200009DB0920114608700020AD490870AD4963
:100D30000880AD49087081E0032020707EE0032028
:100D400002F0EAFE7AE00520207077E0052002F04C
:100D5000E3FE73E0062002F0DFFE6FE0072002F002
:100D6000DBFE6BE0082002F0D7FE67E0092002F00E
:100D7000D3FE63E09D480088B0F57A7F58DB002001
:100D80009A49088097480088002833DD95490988EA
:100D9000481EC11700EB1161090A8DF80010914936
:100DA0000988481EC11700EB11610912A0EB01214F
:100DB000C9B28DF801109DF8000080F0FF008DF899
:100DC00002009DF8010080F0FF008DF803008849C3
:100DD00009780831C8B2694602F0C7FE8448007835
:100DE000012804D100208249087003E023E001209B
:100DF0007F4908707B4800880A2190FBF1F0C0B25F
:100E00008DF801007748008890FBF1F201FB120099
:100E1000C0B28DF80000002507E01DF8051005F1AF
:100E20003C0002F0DBFE681CC5B2022DF5DB01E0E0
:100E30000120207002E00120207000BF00BF38BDFB
:100E40002DE9FC41054600260027002469A0006822
:100E5000009069480078AA2801D0BDE8FC81664866
:100E600040780A2800D0F8E763488078001DC7B2B0
:100E70006148C05DBB2800D0EFE7012404E05E4874
:100E8000005D4640601CC4B2BC42F8DB06B1E4E73A
:100E90005948C07800B1E0E70020504908700120AF
:100EA0005149087028780B286FD2DFE800F06E06F1
:100EB0004E4FC3C4C7F0F3EDEC00002409E0201D41
:100EC0004D49085C4D49095D884200D003E0601C33
:100ED000C4B2042CF3DB00BF042C0DDA0120484916
:100EE0000870484801780078401C464A1070032971
:100EF0001FDB032028701CE0002042490870404995
:100F0000087041480078022802D10320287010E0C0
:100F10003D48007801280AD128700A20314908800C
:100F200000203A49087002202D49087001E008208D
:100F30002870002406E0201D2F49085C344908551C
:100F4000601CC4B2042CF6DB39E138E100240CE06B
:100F50002F48005D1DF804104840211D264A515CB1
:100F6000884200D003E0601CC4B2042CF0DB00BF58
:100F7000042C02DA012028705BE00420287020484D
:100F80000078012855D100240CE015E12048005DCF
:100F90001A4908551E4A115D04F1140002F01EFEA4
:100FA000601CC4B2042CF1DBAA21282002F016FE3A
:100FB0000320FFF701FE2DE00B000020000C014094
:100FC0004B0000205C000020000801406800002069
:100FD000600000206C00002064000020550000200C
:100FE000E30000202A000020560000202C000020F2
:100FF0004E00002055AA55AA9E050020460000205C
:1010000078000020750000207A0000204A000020AF
:10101000700000200020FE490870FE490870012081
:10102000FD4908700020FD490880FD490880FD4900
:101030000870C4E0C3E006202870C0E0FA480079D8
:10104000432809D1F8484079432805D10820287061
:101050000020F649087015E0F3480079542811D1B2
:10106000F148407954280DD10120F04908700A2038
:10107000EF4908800020E84908700220ED49087017
:10108000012028709BE094E023E003E0FFE70820C4
:10109000287094E0E4480079E34989794840FF28C2
:1010A00011D1E1484079E049C9794840FF280AD187
:1010B000DD484179007901EB0020DF4908800120FB
:1010C000D449087002E00020D24908700920287035
:1010D00075E0D5480079D44989794840FF281AD16C
:1010E000D1484079D049C9794840FF2813D1C9482F
:1010F000007801280FD1CC484179007901EB00201C
:10110000CD490988884206DCC7484179007901EB5E
:101110000020C9490880C8480088C5490880C748D8
:101120000078F8B90120C5490870C14800880A2133
:1011300090FBF1F0C0B28DF80500BD48008890FB2F
:10114000F1F201FB1200C0B28DF80400002407E0A8
:1011500001AA115D04F13C0002F040FD601CC4B224
:10116000022CF5DBB2480088B0F5A87F03DB052030
:10117000B04908701AE0AE480088A62803DD0420B4
:10118000AC49087012E0AA480088322803DD032029
:10119000A84908700AE0A6480088052803DD022057
:1011A000A449087002E00120A24908700A202870B2
:1011B00005E00120287002E00120287000BF00BF78
:1011C00000BF4AE62DE9F84F9D480078262809DD42
:1011D00001209C4908709C48007840F002009A4920
:1011E000087008E00020974908709748007800F0E0
:1011F000FD009549087095488078072809D101209D
:10120000934908709048007840F004008E490870B7
:1012100008E000208E4908708B48007800F0FB0041
:101220008949087089484078042809D101208949F2
:1012300008708548007840F008008349087008E08D
:101240000020844908708048007840F0F7007E490B
:10125000087071480078012807D17F490870002084
:101260007E4908707E49087002E000207A490870C3
:101270007C4800782D2806DB0020794908707749E2
:101280000870794908707948007879490978884266
:101290007ED0774800787549087076480078002835
:1012A0007CD17348007805287BD173480078A0B9B9
:1012B0005948007888B95F48007801280DD06F48F8
:1012C0000078032805DA6D480078401C6B490870E7
:1012D00006E000206949087002E00B2066490870AA
:1012E00054480078012807DD65480078012803D0BC
:1012F00054480078012804D10020604908705749FB
:1013000008705E48007840B912205E494870087045
:101310005D4908704870887038E05C485749097822
:10132000405C0A2190FBF1F05649487057485349F8
:101330000978405C0A2190FBF1F201FB120051494F
:10134000087053484D49097830F81100642190FB2A
:10135000F1F04D4908704E484849097830F81100BD
:10136000642190FBF1F201FB12000A2190FBF1F0E5
:101370004549487046484149097830F811000A212A
:1013800090FBF1F201FB12003F498870022002E05D
:101390001CE003E005E0FFF70FFC02E00020354908
:1013A00008703348007806281BD13A48007870B995
:1013B0000120394908700320FFF7FEFB0020314966
:1013C00048700220087000202C49087009E032485B
:1013D0000078012805D100202F4908700320FFF76D
:1013E000EBFB224880782249897888427ED02048C9
:1013F00080781E4988701E48807809285FD1184877
:10140000007801284FD1002015490870134945E0A4
:1014100078000020740000204A00002050000020C6
:101420002C000020750000209E0500207A0000207E
:101430002A000020E3000020760000207900002030
:1014400024000020E4000020540000204B00002075
:10145000E0000020E1000020E50000203400002032
:101460007E0000200C000020330000207B000020C4
:10147000200100202E0000202F0000203500002039
:10148000E2000020E7000020EA0000203A000020EF
:101490003E0000200D0000203100002008702D20AB
:1014A000FE49087008E0FE480078012804D00120B9
:1014B000FC490870FC4908700220FFF77DFBFB48DF
:1014C000007828BBFA488078082824D1F9480078A9
:1014D000B8B9F4480078012813D1F1480078012800
:1014E0000FD0F1480078032807DA00E024E0EE4846
:1014F0000078401CEC49087006E00020EA490870BA
:1015000002E00B20EB4908700220FFF755FB02E0D8
:101510000020E6490870E2480078012807DDE64827
:101520000078012803D0E5480078012804D1002084
:10153000E3490870DC490870E2484078DC494978A2
:1015400088423BD0DA484078DE494870D848407835
:10155000022833D1D5480078C8B9D648007890B968
:101560000120D44908700020D7490880D24800786B
:1015700001280FD11220D54948700870D44908704D
:101580004870887006E00B20CA49087002E000200D
:10159000C64908700220FFF70FFBC14800780128F8
:1015A00007DDC5480078012803D0C4480078012829
:1015B00004D10020C2490870BB490870BD480078BA
:1015C0000D287DD2DFE800F0072741586CA4B2DD7A
:1015D000FEFDFCFBFA0000BF4FF40041BD4802F0E5
:1015E000D0FD00BF00BF4FF40051BA4802F0C9FD62
:1015F00000BF00BF4FF48041B64802F0C2FD00BFFB
:1016000000BF2021B44802F0BCFD00BF01F0F9FB8F
:1016100001F005FC9DE2B148807807280AD0AF4868
:101620004078042806D0AE48007818B1AD4800785C
:10163000052806DA0B209F4908700320FFF7BCFA43
:1016400002E002209B49087083E2A7480078012845
:1016500007D193480078012803D0072095490870E6
:1016600009E09148007818B905209249087002E015
:101670000320904908706CE29C48008896280BDA99
:1016800098480078262807DA85480078012803D092
:1016900004208849087002E005208649087058E255
:1016A00081480078012808D191499248006804F0E7
:1016B00081FF02D205207F4908707B48007800E056
:1016C0003FE2022808D18C498A48006804F072FF82
:1016D00002D205207749087073480078032808D1A2
:1016E00086498448006804F065FF02D205207149EC
:1016F0000870834801880088401C814A1080C829EE
:1017000002DD05206B49087005206A49087020E257
:1017100000207B4908806A48007818B9082065498C
:10172000087002E006206349087012E26F480088E2
:10173000962822DA6B48007826281EDA5848007866
:1017400001281AD000BF4FF40051624802F019FD81
:1017500000BF00BF4FF480415E4802F010FD00BFA3
:101760000A20FEF7E9FC00BF20215B4802F007FDDC
:1017700000BF5348007801F0E5FA08204D49087091
:10178000E7E15A48008896282ADA56480078262841
:1017900026DA43480078012822D002204849087000
:1017A00000BF01034B4802F0EAFC00BF00BF4FF44A
:1017B0008041484802F0E5FC00BF04E055E12BE120
:1017C0004EE021E010E00A20FEF7B6FC00BF202129
:1017D000414802F0D4FC00BF3948007801F0B2FA69
:1017E000082034490870B4E12F48007801F0BEFAAF
:1017F000434801880088401C414A1080C82902DD06
:1018000009202C490870A4E136480078262805DA1A
:101810003C493848006804F0CDFE04D822480078DE
:1018200008B101F00BFB0020354908801E48007804
:1018300090B12E48008896280EDA2A48007826288B
:101840000ADA17480078012806D000BF4FF400419B
:10185000204802F094FC00BF0A201649087078E185
:101860001E488078072803D01C484078042805D1FA
:101870000B20104908700320FFF79EF922480078DA
:1018800001287DD10020204908702049088804F0F3
:10189000EDFD064600221E4B3CE000000C0000203F
:1018A000E30000207E000020340000202E000020F5
:1018B000200100202F000020E2000020E400002092
:1018C000350000207B00002052000020E7000020AF
:1018D000EA00002000100140000C01404B000020F5
:1018E00056000020240000204A000020280000208C
:1018F0000000A041200000200000C8410000F0418D
:10190000800000200000B44202000020380800409F
:101910000040AF4004F02DFD044600228F4B04F040
:10192000B6FC804604F020FE8D4908608D48008892
:1019300004F097FD05468A480168284604F038FB04
:10194000044604F0B9FD874908808748008804F000
:1019500088FD054682480168284604F029FB0446B4
:1019600004F0AAFD8049088080480078012822D12F
:101970007F48008804F075FD05467948016800E05D
:1019800049E0284604F014FB044604F095FD78492C
:1019900008800846008840F2DC5188420BDB0B20AF
:1019A000744908700020714908707149088000214D
:1019B000282002F013F96C480088B0F5FA6F05DDB5
:1019C0000B206C4908700020674908806648008831
:1019D000322802DD01206849087068480078012833
:1019E00019DC00BF4FF40041654802F0CAFB00BF9C
:1019F00000BF4FF40051624802F0C3FB00BF00BFBC
:101A00004FF480415E4802F0BCFB00BF00205D49FE
:101A100008705D4908709CE000BF4FF400415848D1
:101A200002F0AFFB00BF01F0FAF901F0EAF9002083
:101A3000514908700A20FEF77FFB00BF4FF40051A8
:101A40004F4802F09EFB00BF00BF4FF480414C485E
:101A500002F097FB00BF00BF20214C4802F091FB31
:101A600000BF0C204349087073E04648007840B935
:101A700012204749487008704649087048708870BD
:101A800024E045483F49097830F81100642190FB73
:101A9000F1F04049087040483A49097830F811009F
:101AA000642190FBF1F201FB12000A2190FBF1F09E
:101AB0003849487038483349097830F811000A210C
:101AC00090FBF1F201FB1200324988702548008832
:101AD000B0F57A7F20DA234800880A2190FBF1F0E4
:101AE000C0B28DF801001F48008890FBF1F201FBA5
:101AF0001200C0B28DF800004FF0000A09E01DF896
:101B00000A100AF11E0002F069F80AF1010000F063
:101B1000FF0ABAF1020FF2DB18480078012807DD4E
:101B20001E480078012803D01D480078012804D100
:101B30000020144908701449087000200D490870ED
:101B400007E001F05EF901F06AF90B20094908701D
:101B500000BF00BF0020BDE8F88F00000000344047
:101B6000580000202C000020520000204A000020D5
:101B7000500000202F00002033000020E300002050
:101B8000001001403500002034000020000C01400E
:101B9000E7000020EA0000203E000020E2000020D4
:101BA000E400002000B591B00121042002F0D6FC31
:101BB0000121480202F0D2FCFE4803F079F83F20F0
:101BC000ADF8400000208DF8430010A9FA4802F05B
:101BD00029FA684603F0BCF80020009001208DF837
:101BE00004008DF805004FF460200290002003905F
:101BF00007208DF810006946EE4803F086F84FF490
:101C0000004002F00FFC012003F02AFA0223012217
:101C10000021E84803F011F902231A460121E548A2
:101C200003F00BF9022303221946E24803F005F9F9
:101C3000022304220321DF4803F0FFF802230522D8
:101C40001146DC4803F0F9F8022306221021D94896
:101C500003F0F3F8022307221121D64803F0EDF830
:101C60000121D44803F088F80121D24803F079F823
:101C7000D04803F098F800BFCE4803F099F8002848
:101C8000FAD1CC4803F09EF800BFCA4803F09FF891
:101C90000028FAD10121C74803F0A3F80121084622
:101CA00002F04FFCC54802F075FEC2484C3005906A
:101CB000C348069000200790232008900020099038
:101CC00080200A9040000B9080000C9020200D9006
:101CD00000020E9000200F9005A9B84802F0F3FE14
:101CE0000121B64802F01AFF11B000BD00B587B05F
:101CF0000121042002F032FC0121880202F02EFCB6
:101D0000B04802F0D5FF1020ADF8180000208DF883
:101D10001B0006A9A84802F085F901A803F018F8ED
:101D20000020019001208DF8080000208DF80900A6
:101D30004FF4602003900020049001208DF81400DF
:101D400001A9A04802F0E1FF4FF4004002F06AFB55
:101D5000012003F085F9022301220421994803F0B0
:101D60006CF80121974802F0FCFF964803F01BF83D
:101D700000BF944803F01CF80028FAD1914803F002
:101D800021F800BF8F4803F022F80028FAD1002183
:101D90008C4803F026F807B000BD2DE9F041054658
:101DA000002600240FE0C4EBC401854A02EB410188
:101DB00031F8150004F055FB0746314604F0F8F8F9
:101DC0000646601CC4B2052CEDDB7F49304604F0AA
:101DD00079F9BDE8F08100B58FB000200A907B480A
:101DE0000088401C794908800620FFF7D6FF0E9036
:101DF00077490E9804F066F9059004F08AFB0022FA
:101E0000744BCDE90801744903C904F0B2FACDE975
:101E1000040171480CC8049804F036FACDE90601B3
:101E2000DDE9082304F08CF96B4A03C20020FFF7B8
:101E3000B4FF0E9064490E9804F044F9059004F044
:101E400068FB0022654BCDE90801654903C904F030
:101E500090FACDE9040162480CC8049804F014FA21
:101E6000CDE90601DDE9082304F06AF95C4A03C202
:101E70000320FFF792FF0E9055490E9804F022F9C7
:101E8000059004F046FB0022524BCDE9080155496C
:101E900003C904F06EFACDE9040152480CC8049855
:101EA00004F0F2F9CDE90601DDE9082304F048F970
:101EB0004C4A03C20120FFF770FF0E9044490E9870
:101EC00004F000F9059004F024FB0022414BCDE919
:101ED0000801454903C904F04CFACDE90401424820
:101EE0000CC8049804F0D0F9CDE90601DDE9082317
:101EF00004F026F93C4A03C20220FFF74EFF0E9081
:101F000033490E9804F0DEF8059004F002FB00223D
:101F1000304BCDE90801354903C904F02AFACDE96F
:101F2000040132480CC8049804F0AEF9CDE906016A
:101F3000DDE9082304F004F92C4A03C20520FFF769
:101F40002CFF0E9022490E9804F0BCF8059004F086
:101F5000E0FA00221F4BCDE90801254903C904F02E
:101F600008FACDE9040122480CC8049804F08CF961
:101F7000CDE90601DDE9082304F0E2F81C4A03C2BA
:101F80004FF066321B4B194903C904F080F9002257
:101F9000194BCDE9020104F0ECF90022174BCDE911
:101FA000040104F0C9FA3AD24FF06632114B0F49DE
:101FB00003C925E000240140000801400800024058
:101FC00040030020002801400000A040D200002073
:101FD0000000C84100003940B80000200000144053
:101FE000A800002098000020A0000020B0000020E1
:101FF000C000002066660A4000FEAF4000000440BA
:1020000004F045F90022FE4BCDE9020104F0B1F9DC
:102010000022FC4BCDE9040104F033F912E04FF04B
:102020006632F94BF94903C904F031F90022F44B47
:10203000CDE9020104F09DF90022F24BCDE9040143
:1020400004F022F9F24AF34BCDE9060104F091F9CC
:10205000CDE9080104F088FA0E90EF48007848B9FD
:10206000EE480078012805D1ED490E98086001205E
:10207000E9490870EA4801680E9803F0EBFF002177
:10208000089004F097FA05D2E54801680E9803F02D
:10209000E1FF00E00020099004F00EFAE149088019
:1020A000E148E249097830F81100079004F0D9F9C5
:1020B0000990DF48DD49097830F81100059004F0F7
:1020C000D0F90790DA48D949097830F81100D54994
:1020D0000988081A059004F0BBF90690079903F0E7
:1020E000F1FF0890099903F0BBFF0E900E9804F0E1
:1020F00010FAD04AD04BCDE9020104F0C8F8CDE97E
:102100000601C948C949097830F81100039004F064
:10211000ADF9CDE90401DDE9062304F011F8CDE9BC
:10212000080104F0DDF980B20C90C44909880C98CC
:1021300088422DD04FF48041C14802F006F80128B2
:1021400026D1C0480088322190FBF1F201FB120039
:10215000F0B9BA490C98088008460088642190FBC1
:10216000F1F0B9490870B5480088642190FBF1F29C
:1021700001FB12000A2190FBF1F0B3494870AF480F
:1021800000880A2190FBF1F201FB1200AE49887031
:10219000AE480CC80020AE4904F073F8CDE9060142
:1021A000AA480CC80020AB4904F071F8CDE904013D
:1021B000DDE9062304F0DDF8CDE9080104F0D4F9E7
:1021C0000D9000200A9019E0A3490A9851F82000C8
:1021D000014609900D9804F0E3F90BD89E490A983E
:1021E000401C51F82000014609900D9804F0E2F9D6
:1021F00000D806E00A98401C80B20A900A987E280F
:10220000E2DB00BF94490A98401C51F82000059079
:102210000A9851F820000490059903F01BFF8E499D
:1022200007900A9851F8200005900D9903F012FFCD
:102230000690079903F046FF09900A9804F011F9F7
:102240000890099903F0B4FE8449086084498348E2
:10225000006804F0A5F916D88048006804F059F920
:102260000022804BCDE9040104F083F800227E4B6C
:10227000CDE9060104F00BF8CDE9080104F030F9CE
:102280007A4908704AE07A497448006804F088F98D
:1022900022D87248006804F03CF90022714BCDE965
:1022A000000103F0EEFF0022724BCDE9020104F0C1
:1022B00060F80022704BCDE9040103F0E8FF002232
:1022C000694BCDE9060103F03BFFCDE9080104F0BD
:1022D00007F96649087021E06048006804F019F9C0
:1022E0000022664BCDE9000103F0CBFF0022594BE1
:1022F000CDE9020104F03DF800225E4BCDE9040176
:1023000003F0C5FF0022574BCDE9060103F018FF8B
:10231000CDE9080104F0E4F8544908705348007806
:102320005A2802DD5A205149087055480CC800202F
:10233000474903F0A6FFCDE9060151480CC800202B
:10234000444903F0A4FFCDE90401DDE9062304F0CC
:1023500010F8CDE9080104F007F90D9000200A906B
:1023600019E03D490A9851F82000014609900D985E
:1023700004F016F90BD838490A98401C51F820008F
:10238000014609900D9804F015F900D806E00A9866
:10239000401C80B20A900A987E28E2DB00BF2E49DA
:1023A0000A98401C51F8200005900A9851F8200026
:1023B0000490059903F04EFE274907900A9851F8BA
:1023C000200005900D9903F045FE0690079903F053
:1023D00079FE09900A9804F044F80890099903F0EE
:1023E000E7FD0E9027480E99006804F0E3F858D2F4
:1023F00024480E99006803F02DFE079044E0000089
:1024000000FEAF400000044066660A40B0000020B5
:1024100056F146E6913F283FD00000200D000020F5
:10242000D8000020260000203E00002035000020BB
:10243000B26D00089A9999999999B93FD4000020F2
:1024400000100140D2000020EA000020A800002077
:102450000000B04000002440106800082000002068
:102460000000824200405040008046401C00002096
:102470000000A04200002E40000034400000544004
:1024800098000020DC00002004F043F80022C24B3A
:10249000CDE9080104F050F815D2C0490E98086043
:1024A00011E0BE4801680E9803F0D4FD079004F0D7
:1024B00030F80022B84BCDE9080104F03DF802D213
:1024C000B6490E980860B649B448006804F068F848
:1024D00002D2B448B1490860B349B048006804F07A
:1024E00069F802D2B048AD490860AC48006803F012
:1024F000E3FFAE49087008460078AD490870AD4862
:10250000007801287ED100BF0102AB4801F037FE00
:1025100000BF00BF4FF40051A84801F032FE00BFD9
:102520000520FDF7FBFD0121A54802F05AFC00BF84
:102530000221A34802F0A7FD0028F9D0A04802F02C
:10254000E3FC099003F08DFF0E9000219C4802F0FF
:1025500048FC00BF4FF48071974801F012FE00BFA5
:1025600000BF4FF40051954801F00BFE00BF0A2058
:10257000FDF7D4FD00BF4FF480718F4801F001FEDC
:1025800000BF00BF4FF400518C4801F0F8FD00BFC0
:102590000720FDF7C3FD00BF4FF48071864801F0AE
:1025A000F0FD00BF00BF4FF40051844801F0E9FD89
:1025B00000BF84490E9803F085FD059003F0A9FF44
:1025C0000022814BCDE90801804903C903F0D1FE07
:1025D000CDE904017D480CC8049803F055FECDE90F
:1025E0000601DDE9082303F0ABFD784A03C2784811
:1025F0000088962811DD01207649087000BF41034C
:10260000754800E0B7E001F0BCFD00BF00BF4FF42B
:102610008041714801F0B5FD02E000206D4908706D
:1026200062480078142819DD00200A900FE06B4AF8
:102630006B4B664903C903F09CFECDE9080103F02A
:102640004FFF80B20B900A98401C80B20A90574806
:10265000007814380A998842E9DC24E0534800786D
:1026600014281ADA00200A900FE05C4A5C4B5749A4
:1026700003C903F00CFECDE9080103F031FF80B27D
:102680000B900A98401C80B20A9048480078C0F12C
:1026900014010A988142E8DC05E04C4903C903F0C3
:1026A0001FFF80B20B904F4801880B98814204DCD9
:1026B0004D480188464801805DE000200A9013E003
:1026C00048490A98401C31F810100B98814207DCE9
:1026D00044490A9831F810100B98814200DD06E059
:1026E0000A98401C80B20A900A98E028E8DB00BFF4
:1026F0000A98E12801DBDF200A903A490A9831F86C
:102700001010384A401C32F81000081A029003F0EA
:102710009FFE344904900A98401C31F810100B9821
:10272000401A029003F094FE0390049903F0CAFC4F
:102730002D4906900A98401C31F810102A4A0A9830
:1027400032F81000081A049003F082FE05900699F2
:1027500003F086FC244908900A9831F8100006908E
:1027600003F07FFE0790089903F022FC099003F024
:10277000A3FE174908801D4800880A2190FBF1F24A
:1027800001FB120018B900F05EFB00F0EEFBFFF752
:1027900009FA0FB000BD00000000E03FDC0000209F
:1027A000000040400000A04000000C422400002037
:1027B000360000203300002000080140000C0140DA
:1027C000002801400000C84100003940C800002036
:1027D00028000020E200002000100140AE47E17A0E
:1027E00014AEEF3F086A0008CA6B0008D200002050
:1027F00008B50121082001F0B1FE4FF44040ADF8CA
:10280000000003208DF8020010208DF803006946B7
:10281000FB4801F007FC08BD10B500BF4FF40041B4
:10282000F74801F0AEFC00BF00BF4FF48041F44810
:1028300001F0A7FC00BF0A20FDF770FC00BF4FF4B9
:102840008041EF4801F09BFC00BF0A20FDF766FCC9
:1028500000BF4FF40041EA4801F091FC00BF0A209C
:10286000FDF75CFC10BD10B500BF4FF40041E4481B
:1028700001F085FC00BF00BF4FF48041E04801F04B
:102880007EFC00BF0A20FDF749FC00BF4FF4004169
:10289000DB4801F076FC00BF0A20FDF73FFC00BFDB
:1028A0004FF48041D64801F06CFC00BF0A20FDF7D0
:1028B00035FC10BD70B5044600252AE000BF4FF47A
:1028C0000041CF4801F05BFC00BF0A20FDF726FC69
:1028D00004F0010030B100BF4FF48041C84801F05E
:1028E00050FC06E000BF4FF48041C54801F047FCB2
:1028F00000BF0A20FDF712FC00BF4FF40041C048A2
:1029000001F03FFC00BF0A20FDF708FC6410681CC2
:10291000C5B2082DD2DB70BD70B50446002527E096
:1029200000BF4FF40041B64801F029FC00BF04F09D
:10293000010030B100BF4FF48041B14801F021FCEB
:1029400006E000BF4FF48041AD4801F018FC00BF25
:102950000A20FDF7E3FB00BF4FF40041A84801F057
:1029600010FC00BF0A20FDF7D9FB6410681CC5B23B
:10297000082DD5DB70BD10B50024A24800780128D1
:1029800014D1A148A1490978405C0A2190FBF1F0DB
:102990009F4948709C489D490978405C0A2190FBFA
:1029A000F1F201FB12009A49087003E012209849E5
:1029B0004870087097480078012838D196480088F8
:1029C0004FF47A7190FBF1F201FB1200642190FB4D
:1029D000F1F09249087090480088642190FBF1F270
:1029E00001FB12000A2190FBF1F08C4948708A48E3
:1029F00000880A2190FBF1F201FB120087498870E0
:102A00008248007898B1864800780A280FD1854816
:102A100000780A2190FBF1F07D49487081480078E8
:102A20000A2190FBF1F201FB120079490870FFF7CF
:102A3000F3FE4020FFF73EFFFFF715FFFFF7ECFE28
:102A4000C020FFF737FF002477480078012802D123
:102A500044F0030401E004F0FC0474480078012809
:102A600002D144F00C0401E004F0F3047048007853
:102A7000012802D144F0300401E004F0CF046D4895
:102A80000078012802D144F0C00401E004F03F04C2
:102A90002046FFF741FF002467480078012802D153
:102AA00044F0030401E004F0FC042046FFF734FF87
:102AB00062480078062821D2DFE800F00305181AE2
:102AC0001C1E00241BE05E4801780078401C5C4A14
:102AD0001070142908DD0E2410460078282804DD23
:102AE00000201146087000E08E2408E08E2406E0E5
:102AF0004E2404E06E2402E07E2400E000BF00BF0C
:102B00002046FFF709FF424909784E4A505CFFF71B
:102B100003FF3F4949784B4A505CFFF7FDFE3F49B0
:102B20008978484A505CFFF7F7FE00243748007860
:102B300020B93B4800780A2800D1802437494978D9
:102B4000404A515C41EA0400FFF7E6FE3349097848
:102B50003C4A515C41F08000FFF7DEFE00242B4828
:102B60000078012803D029480078022804D12C4895
:102B700000780A2800D1802433490978314A515C11
:102B800041EA0400FFF7C8FE2F4949782D4A505CFE
:102B9000FFF7C2FE00241D480078032803D01B481D
:102BA0000078022804D11E4800780A2800D1802429
:102BB00025498978234A515C41EA0400FFF7ACFEBD
:102BC00012480078032801D1C02400E000241F48E7
:102BD000007810B904F0C00442E01C4800780128D5
:102BE00004D104F0C00444F0300439E01748007800
:102BF00002282DD104F0C00444F00C0430E00000A1
:102C0000000C01400D0000203600002034000020A0
:102C1000ED0000203100002028000020EA00002004
:102C20002F0000201C000020E0000020E400002015
:102C3000E2000020E1000020E5000020E300002089
:102C4000EF0000208C6D0008E70000203500002018
:102C500032480078032803D104F0C00444F0030490
:102C60002046FFF759FEF0242D48007810B904F0F3
:102C7000F00417E02A480078012804D104F0F00499
:102C800044F00C040EE026480078022804D104F039
:102C9000F00444F0030405E021480078032801D142
:102CA00004F0F0042046FFF737FE1E48007818B9FC
:102CB000FF20FFF731FE02E01F20FFF72DFE19482D
:102CC000007818B9FF20FFF727FE02E0FC20FFF78D
:102CD00023FE1448007818B9FF20FFF71DFE02E01C
:102CE0000720FFF719FEFFF7BEFDFFF795FD0E4821
:102CF00000782D2806DB02200C49087001200C49C1
:102D0000087002E00720094908700849097841F075
:102D10008800FFF7CFFDFFF7A6FD10BD35000020AE
:102D2000340000202F0000200C000020E6000020CE
:102D30002E0000200020E6490870E649086048603F
:102D400088607047E44931F81010E44A1180E44982
:102D500031F8101009B2E34A11800021DD4A1160F8
:102D6000516091600121DA4A1170704730B1012839
:102D700027D0022829D003282FD12AE00221DA4ABD
:102D80001170DA49097819B940F6AC51D84A118066
:102D9000D6490978012903D140F6C411D44A1180DB
:102DA000D2490978022903D14FF4FA61D04A11803F
:102DB000CE490978032903D14FF4E161CC4A11804F
:102DC0000DE00121C84A117009E00121C64A1170C5
:102DD00005E00121C44A117001E0002000BF00BFDE
:102DE000C44931F81010C44A1180C14931F810109B
:102DF00009B2C24A11800021C14A1160516091603C
:102E000070470020B7490880B1490870B14908608F
:102E1000486088604FF47A60BA49088070470020A3
:102E2000B1490870B5490880B549086048608860B4
:102E3000B44908390880091F0880704740F6B83047
:102E4000AE49088070472DE9F05FA148007801285D
:102E50006FD1AD490988A14A1288881A03F0F8FA9F
:102E60009C4908600868A94903F09AFB02D8994870
:102E7000006800E0A548974908600868A44903F085
:102E800099FB02D89348006800E0A1489149086086
:102E90000A469168506803F0DDF882468D4A516811
:102EA000106803F0D7F88346514603F0D3F8804604
:102EB00098480168404603F0D3F806468548016803
:102EC0009548006803F0CCF88246824A5168106841
:102ED00003F0C0F8834691480168584603F0C0F8F3
:102EE0008046514603F064F80746314603F060F827
:102EF00005467C48B0F9000003F0AAFA814629464D
:102F000003F056F8044603F0BEFA00B27549088093
:102F1000704840686F49886008460068486071489A
:102F2000B0F90000B0F57A6F04DC6E48B0F900002B
:102F300002E014E04FF47A606A4908800846B0F96C
:102F40000000002803DB0846B0F9000000E0002084
:102F500064490880084600886A49088003E04FF405
:102F60007A6068490880BDE8F09F2DE9F05F5E480F
:102F7000007800287EDD5C480078012802D0022815
:102F800013D10CE05C48008803F06BFA04466448F7
:102F90000168204603F061F85949086006E0002006
:102FA000574908604860886000E000BF00BF54498E
:102FB00008685C4903F0F4FA02D85148006800E060
:102FC00058484F4908600868574903F0F3FA02D897
:102FD0004B48006800E054484949086008460068CA
:102FE00052490860084600680860454A9168506880
:102FF00003F030F88246424A5168106803F02AF81C
:103000008346514603F026F8804649480168404609
:1030100003F026F806463A4801684648006803F07F
:103020001FF88246364A5168106803F013F8834649
:1030300041480168584603F013F88046514602F0B3
:10304000B7FF0746314602F0B3FF05462B48B0F9FB
:10305000000003F0FDF98146294602F0A9FF04466D
:1030600003F011FA00B22549088025484068244938
:10307000886000E024E00846006848601F48B0F916
:103080000000B0F57A6F03DC1C48B0F9000001E0E5
:103090004FF47A60194908800846B0F90000B0F58D
:1030A000AF6F03DB0846B0F9000001E04FF4AF60FA
:1030B000124908800846008812490839088005E04E
:1030C0000020104908390880091F0880BDE8F09FDA
:1030D000F000002088030020B26D0008F2000020FC
:1030E000AA6D000814010020F10000203500002026
:1030F00018010020A26D0008F40000201601002035
:103100009403002040080040260000200000C84230
:103110000000C8C200010020FC000020F8000020D0
:103120002000002000004843000020C110010020C2
:103130000C010020080100200401002010B500BF90
:103140004FF40071FE4801F01CF800BF00BF4FF4BF
:103150008061FB4801F015F800BF0520FCF7DEFF99
:1031600000BF4FF48061F64801F009F800BF052068
:10317000FCF7D4FF00BF4FF40071F14800F0FFFFEF
:1031800000BF10BD08B500BF4FF48061EC4800F0EF
:10319000F6FF00BF00BF4FF40071E94800F0F1FFF7
:1031A00000BF00BF4FF40061E54800F0E8FF00BF3A
:1031B0000121042001F0D2F94FF46060ADF8000065
:1031C00003208DF8020014208DF803006946DC48C6
:1031D00000F028FF0A20FCF7AFFFFFF7AFFF08BDA4
:1031E00010B54FF47A7400BF4FF48061D44800F0FA
:1031F000C6FF00BF00BF4FF40071D14800F0BFFF11
:1032000000BF0A20FCF78AFF02E00A20FCF786FFD5
:10321000601E80B2041E06D04FF40071C84800F052
:1032200094FF0028F1D000BF4FF40071C44800F0B3
:10323000A8FF00BF0A20FCF771FF00BF4FF48061B8
:10324000BF4800F09EFF00BF0CB9002010BD012058
:10325000FCE710B500BF4FF48061B94800F091FF62
:1032600000BF00BF4FF40071B54800F08AFF00BFF7
:103270000A20FCF753FF00BF4FF48061B04800F014
:103280007EFF00BF0A20FCF749FF00BF4FF48061BA
:10329000AB4800F076FF00BF10BD10B500BF4FF483
:1032A0008061A74800F06DFF00BF00BF4FF40071C0
:1032B000A34800F064FF00BF0A20FCF72FFF00BF07
:1032C0004FF480619E4800F05AFF00BF0A20FCF7CF
:1032D00025FF00BF4FF48061994800F052FF00BF06
:1032E00010BD10B54FF47A7400BF4FF4806194485C
:1032F00000F045FF00BF0A20FCF710FF02E00A20A3
:10330000FCF70CFF601E80B2041E06D04FF4007163
:103310008B4800F01AFF0028F1D100BF4FF4806104
:10332000874800F02EFF00BF0A20FCF7F7FE0CB91B
:10333000002010BD0120FCE770B50446082500BF41
:10334000E9017F4800F01DFF00BF0520FCF7E6FE05
:1033500029E004F0800030B100BF4FF400717848DC
:1033600000F00DFF06E000BF4FF40071744800F05C
:1033700008FF00BF6006040E0520FCF7CFFE00BF6B
:103380004FF480616E4800F0FAFE00BF0520FCF7A4
:10339000C5FE00BF4FF48061694800F0F2FE00BF37
:1033A0000520FCF7BBFE281EA5F10101CDB2D0D14E
:1033B00070BD70B50825002400BFA901604800F069
:1033C000DEFE00BF1DE000BF4FF480615C4800F0EE
:1033D000D6FE00BF0A20FCF7A1FE6006040E4FF4E3
:1033E0000071574800F0B1FE08B1601CC4B20A2059
:1033F000FCF794FE00BF4FF48061514800F0C1FE1D
:1034000000BF281EA5F10101CDB2DCD1204670BD60
:1034100070B506460C461546FFF7E2FE18B9FFF7F1
:103420008DFE002070BDB820FFF786FFFFF759FF23
:1034300018B9FFF783FE0020F4E73046FFF77CFF62
:10344000FFF74FFF18B9FFF779FE0020EAE70CE01D
:1034500015F8010BFFF770FFFFF743FF18B9FFF7EF
:103460006DFE0020DEE7601EC4B2002CF0DCFFF72A
:1034700065FE0120D6E770B506460C461546FFF7F7
:10348000AFFE18B9FFF75AFE002070BDB820FFF755
:1034900053FFFFF726FF18B9FFF750FE0020F4E7AF
:1034A0003046FFF749FFFFF71CFF18B9FFF746FE4C
:1034B0000020EAE7FFF794FE18B9FFF73FFE00206F
:1034C000E3E7B920FFF738FFFFF70BFF18B9FFF765
:1034D00035FE0020D9E70CE0FFF76BFF05F8010B84
:1034E000012C02D1FFF7D9FE01E0FFF7B2FE601E0A
:1034F000C4B2002CF0DCFFF721FE0120C5E700B5C7
:1035000085B010A0006803900FA0006802900FA182
:1035100003C9CDE90001FFF735FE04AA012102200D
:10352000FFF7A9FF03AA03210846FFF771FF02AACC
:1035300003213920FFF76CFF6A460821402009E08B
:10354000000801400B5500000105200003033F0364
:103550003F3F3F3FFFF75CFF08208DF80C0003AAB8
:1035600001213D20FFF754FF9DF8100005B000BD7C
:1035700008B5FF2000906A4601212A20FFF77BFF53
:1035800008B9002008BD9DF80000FBE710B5FFF763
:10359000EFFF04464848047004F0020028B347488F
:1035A0000078062802D14549087024E04348007895
:1035B00005280BD1424801680068401C404A106051
:1035C000642918D906203D49087014E03C48016878
:1035D0000068401C3A4A106002290CD9052037497E
:1035E000087000203749087005E00420334908704E
:1035F00000203349086004F0010028B32F48807888
:10360000092802D12D49887024E02C4880780828A8
:103610000BD12D4801680068401C2B4A10606429BA
:1036200018D909202549887014E0274801680068E6
:10363000401C254A106002290CD908201F498870B7
:1036400000202049087005E007201C4988700020F0
:103650001D49086004F0080028B318484078032882
:1036600002D11649487024E01448407802280BD152
:10367000164801680068401C144A1060642918D973
:1036800003200E49487014E0104801680068401C8F
:103690000E4A106002290CD9022008494870002007
:1036A0000849087005E001200449487000200749D6
:1036B0000860204610BD00002301002020010020EA
:1036C000240100200C000020280100202C010020F3
:1036D00000B585B00121082000F040FF4FF4806064
:1036E000ADF8100018208DF8130003208DF812009B
:1036F00004A9FE4800F096FC4FF40060ADF81000FD
:1037000004208DF8130004A9F84800F08BFC012177
:10371000880400F030FF4FF4165000900020ADF800
:103720000400ADF80600ADF80800ADF80C000C2060
:10373000ADF80A006946EE4800F0BDFF002240F2F5
:103740002551EB4801F031F8012240F22661E848AA
:1037500001F02BF8012240F22441E54801F025F860
:1037600001224021E24801F040F801228021E04896
:1037700001F03BF80121DE4801F00BF8DD4801F0D3
:1037800009F9DB48001DDC490860DC48486010206E
:103790008860FF20C8600020086180204861002008
:1037A0008861C86108624FF4005048620020886256
:1037B000D04801F088F901220221CE4801F0B9F980
:1037C00001220821CB4801F0B4F901228021C84828
:1037D00001F00BF80021C74801F0A0F9C5481430EA
:1037E00001F0D8F8C248001DC5490860C5484860C6
:1037F00000208860FF20C8600020086180204861A8
:1038000000208861C86108624FF48050486200203F
:103810008862B848143001F056F901220221B548F7
:10382000143001F086F901220821B248143001F069
:1038300080F901224021AE4800F0D7FF0121AD48B8
:10384000143001F06BF905B000BDF0B503460D462C
:103850001646002729460A2E03D000200870284665
:10386000F0BD33B9302001F8010B00200870284664
:10387000F6E7002B03DA2D2001F8010B5B4242F240
:1038800010720DE093FBF2F404B937B104F130008B
:1038900001F8010B04FB123301270A2092FBF0F21E
:1038A000002AEFDC002008702846D9E770B50546ED
:1038B0000C4695480078012800D170BD00218D4844
:1038C00001F02CF9224629468C4802F05FFB89481A
:1038D0001C380462894887491C398862012185485F
:1038E00001F01CF90020E8E70FB42DE9F041ADF537
:1038F000067D00240026A0468DA8019077E08C98D4
:1039000000785C2827D18C98401C8C9000786E2819
:103910000BD0722813D10D222046611C8CB242A913
:103920000A548C98401C8C9014E00A222046611C9A
:103930008CB242A90A548C98401C8C900AE08C9856
:10394000401C8C908C9802782046611C8CB242A955
:103950000A5400BF4BE08C98007825283DD18C9804
:10396000401C8C900078642813D0732829D10198CA
:1039700020C8019006E02A782046611C8CB242A93A
:103980000A546D1C28780028F5D18C98401C8C9026
:1039900022E0019880C801900A2282A93846FFF7E8
:1039A00054FF82AD06E02A782046611C8CB242A901
:1039B0000A546D1C28780028F5D18C98401C8C90F6
:1039C0000AE08C98401C8C908C9802782046611CF0
:1039D0008CB242A90A5400BF09E08C9802782046B4
:1039E000611C8CB242A90A548C98401C8C908C9813
:1039F0000078002883D1002605E042A8805D02A956
:103A00008855701C86B2A642F7DB214602A8FFF754
:103A10004DFF804640460DF5067DBDE8F0015DF89E
:103A200014FB10B5044638480078012800D110BDB9
:103A30000021304801F072F82E481C3804622F48EB
:103A40002C491C39886201212A4801F067F80020BE
:103A5000EDE710B540F22441254800F065FF60B362
:103A600040F22441224800F085FF00212148143013
:103A700001F054F81E4800F0F8FE1E48143001F022
:103A800061F8C0F1FF002149087001202049087049
:103A90001E4802781B491F4802F078FA1548143076
:103AA00000F078FF16491348143001F00CF801219A
:103AB0001048143001F032F816E040F226610C484C
:103AC00000F032FF80B14021094800F02AFF0022B7
:103AD00040F22661064800F068FE0021054801F02A
:103AE0001DF800200849087010BD0000000C0140BE
:103AF000004800401C000240A0060020A003002057
:103B0000CC0600209F040020350100203001002059
:103B1000320100209E050020FEB5054600260F2D2F
:103B200000DD0025AA208DF800000A208DF8010094
:103B300002208DF8020085208DF803008DF80450D6
:103B4000012404E01DF804004640601CC4B2052CAA
:103B5000F8DB8DF80560BB208DF80600072168466C
:103B6000FFF7A4FE07463846FEBD2DE9FF41064695
:103B70000C4600270F2E00DD0026AA208DF800003D
:103B80000A208DF8010006208DF8020084208DF8AF
:103B900003008DF8046020788DF8050060788DF8BA
:103BA0000600A0788DF80700E0788DF80800012560
:103BB00004E01DF805004740681CC5B2092DF8DB7C
:103BC0008DF80970BB208DF80A000B216846FFF7BD
:103BD0006DFE8046404604B0BDE8F08170B50446F5
:103BE0000E4600BF4FF40061D94800F0CAFA00BF8A
:103BF0000A20FCF793FAFFF7F3FA18B9FFF79EFAD9
:103C0000002070BDA020FFF797FBFFF76AFB18B9F3
:103C1000FFF794FA0020F4E72546E11704EB116161
:103C2000C1F30720FFF788FBFFF75BFB18B9FFF72D
:103C300085FA0020E5E72546E11704EB116109123A
:103C4000A4EB0121C8B2FFF777FBFFF74AFB18B9D5
:103C5000FFF774FA0020D4E73046FFF76DFBFFF75B
:103C600040FB18B9FFF76AFA0020CAE7FFF766FAC7
:103C700000BF4FF40061B64800F081FA00BF142085
:103C8000FCF75AFA0120BCE72DE9F04104460D4645
:103C9000164600BF4FF40061AD4800F072FA00BF55
:103CA0000A20FCF73BFAFFF79BFA20B9FFF746FA28
:103CB0000020BDE8F081A020FFF73EFBFFF711FBDD
:103CC00018B9FFF73BFA0020F3E72746E11704EBAA
:103CD0001161C1F30720FFF72FFBFFF702FB18B9B3
:103CE000FFF72CFA0020E4E72746E11704EB116107
:103CF0000912A4EB0121C8B2FFF71EFBFFF7F1FA8E
:103D000018B9FFF71BFA0020D3E70CE016F8010BF7
:103D1000FFF712FBFFF7E5FA18B9FFF70FFA0020DB
:103D2000C7E7681E85B2002DF0DCFFF707FA00BF79
:103D30004FF40061864800F022FA00BF1420FCF71F
:103D4000FBF90120B5E770B504460D4600BF4FF4FE
:103D500000617F4800F015FA00BF0A20FCF7DEF989
:103D6000FFF73EFA18B9FFF7E9F9002070BDA0206F
:103D7000FFF7E2FAFFF7B5FA18B9FFF7DFF900200D
:103D8000F4E72646E11704EB1161C1F30720FFF7C2
:103D9000D3FAFFF7A6FA18B9FFF7D0F90020E5E744
:103DA0002646E11704EB11610912A4EB0121C8B208
:103DB000FFF7C2FAFFF795FA18B9FFF7BFF900202D
:103DC000D4E70BE00020FFF7B7FAFFF78AFA18B93B
:103DD000FFF7B4F90020C9E7681E85B2002DF1DCB9
:103DE000FFF7ACF91420FCF7A7F900BF4FF400610E
:103DF000574800F0C4F900BF0120B7E770B504468A
:103E0000FFF7EEF918B9FFF799F9002070BDA0206F
:103E1000FFF792FAFFF765FA18B9FFF78FF900205C
:103E2000F4E72546E11704EB1161C1F30720FFF722
:103E300083FAFFF756FA18B9FFF780F90020E5E793
:103E40002546E11704EB11610912A4EB0121C8B268
:103E5000FFF772FAFFF745FA18B9FFF76FF900207C
:103E6000D4E7FFF7BDF918B9FFF768F90020CDE7EF
:103E7000A120FFF761FAFFF734FA18B9FFF75EF9EE
:103E80000020C3E7FFF795FA0646FFF706FAFFF7AB
:103E900055F93046BAE72DE9F04104460D4616467D
:103EA000FFF79EF920B9FFF749F90020BDE8F0813E
:103EB000A020FFF741FAFFF714FA18B9FFF73EF90F
:103EC0000020F3E72746E11704EB1161C1F3072057
:103ED000FFF732FAFFF705FA18B9FFF72FF90020BC
:103EE000E4E72746E11704EB11610912A4EB012175
:103EF000C8B2FFF721FAFFF7F4F918B9FFF71EF976
:103F00000020D3E7FFF76CF918B9FFF717F9002085
:103F1000CCE7A120FFF710FAFFF7E3F918B9FFF794
:103F20000DF90020C2E70CE0FFF743FA06F8010B99
:103F3000012D02D1FFF7B1F901E0FFF78AF9681E00
:103F400085B2002DF0DCFFF7F9F80120AEE70000A4
:103F50000008014010B50446C649601A8C422FD0B3
:103F600009DCC548204480B1B0F5806F16D0B0F5AB
:103F7000006F4AD11BE0B0F5806F2AD0B0F5006F1A
:103F800030D0B0F5406F40D135E00121042000F081
:103F9000FFFA0021042000F0FBFA37E0012108209D
:103FA00000F0F6FA0021082000F0F2FA2EE00121DC
:103FB000102000F0EDFA0021102000F0E9FA25E0D1
:103FC0000121202000F0E4FA0021202000F0E0FA96
:103FD0001CE00121402000F0DBFA0021402000F02D
:103FE000D7FA13E00121802000F0D2FA00218020CE
:103FF00000F0CEFA0AE00121080200F0C9FA00211F
:104000004FF4807000F0C4FA00E000BF00BF10BDA4
:1040100010B50121084600F0BBFA0021012000F094
:10402000B7FA10BD2DE9F041024600250026002018
:1040300000230024002791F803C00CF00F0591F82D
:1040400003C00CF0100CBCF1000F03D091F802C0BB
:104050004CEA050591F800C0BCF1000F31D014689E
:1040600000202BE04FF0010C0CFA00F3B1F800C077
:104070000CEA03069E4220D183004FF00F0C0CFA8D
:1040800003F7BC4305FA03FC4CEA040491F803C0AF
:10409000BCF1280F06D14FF0010C0CFA00FCC2F85D
:1040A00014C00AE091F803C0BCF1480F05D14FF0ED
:1040B000010C0CFA00FCC2F810C0401C0828D1D337
:1040C0001460B1F800C0BCF1FF0F34DD546800206B
:1040D0002EE000F1080C4FF0010808FA0CF3B1F8DB
:1040E00000C00CEA03069E4221D183004FF00F0C62
:1040F0000CFA03F7BC4305FA03FC4CEA040491F8FC
:1041000003C0BCF1280F05D100F1080C08FA0CF827
:10411000C2F8148091F803C0BCF1480F07D100F138
:10412000080C4FF0010808FA0CF8C2F81080401C87
:104130000828CED35460BDE8F0814FF6FF710180AE
:10414000022181700421C1707047024600209368EB
:104150000B400BB1012000E0002070470146886849
:1041600080B2704702460020D3680B400BB101209B
:1041700000E0002070470146C86880B270470161C6
:104180007047416170470AB1016100E041617047C9
:10419000C16070474FF480320A438261816182615D
:1041A00082698269704702460020344B18684FF6D6
:1041B0008073184040EA02100843304B1860704783
:1041C0002F49C8617047F0B50A460023002400213A
:1041D00000252A4E7168C0F3034583B200F44016EF
:1041E000B6F5401F08D121F07061244E766826F0A4
:1041F0007066224F7E6012E000F48016B6F5801FD4
:1042000006D1032606FA05F4A14341F0706106E0E9
:10421000460D360103FA06F6B14341F0706122B152
:10422000460D360103FA06F63143144E7160F0BDB7
:1042300030B500228B071C0F0F2303FA04F20F4B3B
:1042400008338C1053F8243093430C4C08348D10F1
:1042500044F8253023468C1053F824308C07240F63
:1042600000FA04F42343054C08348D1044F825303B
:1042700030BD00000014014000F8FEBF0000014006
:1042800000002042DE48006840F00100DC49086080
:1042900008464068DB490840D9494860084600683C
:1042A000D9490840D64908600846006820F48020B3
:1042B00008600846406820F4FE00486000208860DE
:1042C0007047CF49096821F48031CD4A1160114609
:1042D000096821F480211160B0F5803F03D0B0F56A
:1042E000802F0ED106E0C649096841F48031C44AE6
:1042F000116007E0C249096841F4A021C04A116079
:1043000000E000BF00BF704710B501460022002347
:1043100000204A11012A02D1B94C236806E0022A82
:1043200002D1B74C236A01E0B54C636A01F01F0269
:10433000012494401C400CB1012000E0002010BD7D
:1043400038B5002000900024002500BF3120FFF781
:10435000DBFF05460098401C00901DB90098B0F5A1
:10436000A06FF3D13120FFF7CFFF08B1012400E0A7
:104370000024204638BD01460020A14A106820F0E4
:10438000F80040EAC10010607047A049086070471B
:10439000024600209A4B586820F47C1042EA010340
:1043A0001843974B58607047984908667047014614
:1043B0000020934A506820F0030008435060704783
:1043C0008F48406800F00C007047014600208C4A7E
:1043D000506820F0F000084350607047014600200C
:1043E000874A506820F4E0600843506070470146F7
:1043F0000020834A506820F4605040EAC1005060B9
:10440000704729B17E4A527A02437D4B5A7204E0CA
:104410007B4A527A82437A4B5A7270477B49D83131
:104420000860704701460020754A506820F44040FB
:104430000843506070470021714A20321170704A61
:1044400082F82010012802D004280AD104E00121BA
:104450006B4A2032117005E00521694A2032117043
:1044600000E000BF00BF70476949086070476449B9
:10447000096A0143624A116270476549443908601C
:10448000704730B500210022002400235C4D6D6888
:1044900005F00C0121B1042905D0082923D105E03C
:1044A0005C4D056022E05B4D05601FE0544D6D687A
:1044B00005F47012022505EB9242514D6D6805F42A
:1044C00080341CB9544D554305600BE04C4D6D686C
:1044D00005F400351DB1504D5543056002E04D4DCA
:1044E0005543056002E04B4D056000BF00BF444DE1
:1044F0006D6805F0F0010909484D6B5C0568DD4009
:1045000045603F4D6D6805F4E061090A434D6B5C01
:104510004568DD4085603A4D6D6805F46051C90A13
:104520003E4D6B5C4568DD40C560354D6D6805F4FA
:104530004041890B3A4D6B5CC568B5FBF3F50561ED
:1045400030BD29B12E4A526902432D4B5A6104E015
:104550002B4A526982432A4B5A61704729B1284A33
:1045600092690243264B9A6104E0254A926982438C
:10457000234B9A61704729B1214AD2690243204BEB
:10458000DA6104E01E4AD26982431D4BDA6170474A
:1045900029B11B4AD2680243194BDA6004E0184A79
:1045A000D2688243164BDA60704729B1144A126907
:1045B0000243134B1A6104E0114A12698243104B03
:1045C0001A61704712494039086070470F49C86442
:1045D00070470B49C87170470948406A40F08070C5
:1045E00007494862704701460020054A92680A4020
:1045F0000AB1012000E0002070470149887270472D
:10460000001002400000FFF8FFFFF6FE00004242EB
:104610008004424200127A0000093D003601002069
:104620004601002010B50446D749601A8C422BD0B1
:1046300006DCD648204498B1B0F5806F38D119E037
:10464000B0F5806F2AD0B0F56C4F31D101218803CD
:10465000FFF79EFF00214FF48040FFF799FF28E00D
:1046600001214804FFF7A1FF00214FF40030FFF7BC
:104670009CFF1EE001218804FFF797FF00214FF403
:104680008020FFF792FF14E00121C804FFF78DFF9F
:1046900000214FF40020FFF788FF0AE00121080500
:1046A000FFF783FF00214FF48010FFF77EFF00E04B
:1046B00000BF00BF10BD2DE9F04786B005460E468D
:1046C0000024A24600BF00BF00272F462C8A4CF6CC
:1046D000FF700440F08804432C82AC894EF6F3103E
:1046E0000440B08831890843718908430443AC8190
:1046F000AC8A4FF6FF400440B0890443AC8201A865
:10470000FFF7BFFEA248874202D1DDF810A001E00A
:10471000DDF80CA00AEBCA0000EB0A103168890032
:10472000B0FBF1F86420B8FBF0F00401200964212B
:1047300001FB1089322000EB0910B0FBF1F000F012
:104740000F0004432C8106B0BDE8F0874FF41651EA
:10475000016000218180C18001810C214181002103
:104760008181704710B502460020108A4FF2FF0386
:1047700018400B884C8823438C882343CC882343E0
:104780001843108210BD0021018041808180C180CA
:10479000704721B1828942F40052828104E082890B
:1047A0004DF6FF731A4082817047F0B5034600242E
:1047B0000026002500201846C1F3421401F01F0610
:1047C000012707FA06F5012C01D10C3004E0022C78
:1047D00001D1103000E014301AB107682F43076090
:1047E00002E00768AF430760F0BD1AB1838A0B434C
:1047F000838202E0838A8B4383827047028A4FF66A
:10480000F0731A400282028A0A4302827047828948
:104810004FF2FF731A40828182890A438281704776
:1048200021B1828942F00202828104E082894FF63E
:10483000FD731A4082817047028A4FF6DF731A4077
:104840000282028A0A430282704721B1028A42F43C
:104850008042028204E0028A4BF6FF731A40028211
:104860007047C1F308028280704701468888C0F310
:1048700008007047818941F0010181817047028BF6
:10488000D2B20283028B42EA012202837047028B7A
:1048900002F47F420283028B0A430283704721B1F4
:1048A000828A42F02002828204E0828A4FF6DF731D
:1048B0001A408282704721B1828A42F010028282BD
:1048C00004E0828A4FF6EF731A408282704721B16A
:1048D000828A42F00802828204E0828A4FF6F773ED
:1048E0001A4082827047828A4FF6FB731A40828296
:1048F000828A0A438282704721B1828A42F0020290
:10490000828204E0828A4FF6FD731A4082827047E9
:104910000246002013880B400BB1012000E000206C
:104920007047CA430280704770B502460B460024A8
:10493000002100250020C3F3421503F01F010126CA
:1049400006FA01F1012D02D19689314006E0022DCF
:1049500002D1168A314001E0968A31401C120126AC
:1049600006FA04F41688344011B10CB1012000E0BD
:10497000002070BD10B5002200230A1201249440CB
:10498000A3B2DC43048010BD004C004000BCFFBF5C
:1049900000380140016821F001010160002101603F
:1049A00041608160C160874A811A90425BD012DC0D
:1049B000854AA0EB020190423AD007DC83490144CA
:1049C000D9B1142922D028297AD128E0142938D045
:1049D000282975D13EE0B1F56C7F5BD006DCB1F5DE
:1049E000627F49D0B1F5677F6AD14CE0B1F5717F44
:1049F00057D0B1F5767F63D15BE07349443949689C
:104A000041F00F01704A443A51605AE06E4944390E
:104A1000496841F0F0016C4A443A516051E06A49FA
:104A20004439496841F47061674A443A516048E04A
:104A300065494439496841F47041634A443A5160D8
:104A40003FE061494439496841F470215E4A443A83
:104A5000516036E05C494439496841F470015A4A72
:104A6000443A51602DE058494439496841F0706139
:104A7000554A443A516024E05549096841F00F0114
:104A8000534A11601DE05249096841F0F001504A53
:104A9000116016E04E49096841F470614C4A11609A
:104AA0000FE04B49096841F47041494A116008E040
:104AB00006E04749096841F47021454A116000E069
:104AC00000BF00BF704710B50022026847F6F073C0
:104AD0009A430C6A8B6823430C6923434C69234334
:104AE0008C692343CC6923434C6A23438C6A234358
:104AF0001A430260CB6843600B6883604B68C360F5
:104B000010BD0021016041608160C16001614161AF
:104B10008161C161016241628162704721B10268B5
:104B200042F00102026003E0026822F0010202602A
:104B300070471AB103680B43036002E003688B43BC
:104B4000036070470146486880B270470146002004
:104B5000002201F080531BB11D4B1B1F1A6802E09D
:104B6000194B443B1A6802EA01030BB1012000E033
:104B70000020704700F0805111B11549086002E033
:104B8000114944394860704701460020002201F075
:104B900080531BB10E4B1B1F1A6802E00A4B443BAB
:104BA0001A6802EA01030BB1012000E000207047FF
:104BB00000F0805111B10649086002E00249443911
:104BC000486070478000024044000240F8FFFDBF8B
:104BD0000404024031490143314A1160704770B505
:104BE000002100230F22C47804B32D4C246804F460
:104BF000E064C4F5E064210AC1F10403CA404478CA
:104C000004FA03F18478144021430901254C067805
:104C1000A155047804F01F050124AC4005786D11FE
:104C2000AD0005F1E025C5F8004109E0047804F085
:104C30001F050124AC401C4D0678761145F826402E
:104C400070BD1A4A0A400243154B1B1F1A60704779
:104C500039B1134A121D12680243114B1B1D1A6011
:104C600006E00F4A121D126882430D4B1B1D1A608D
:104C70007047042808D14FF0E021096941F0040190
:104C80004FF0E022116107E04FF0E021096921F0C7
:104C900004014FF0E0221161704700000000FA05A6
:104CA0000CED00E000E400E080E100E080FFFF1F89
:104CB00010B50446F748204430B1B0F5806F0DD0F0
:104CC000B0F5C05F1ED113E001214802FFF760FC80
:104CD00000214FF40070FFF75BFC14E00121880213
:104CE000FFF756FC00214FF48060FFF751FC0AE00B
:104CF0000121C803FFF74CFC00214FF40040FFF7EF
:104D000047FC00E000BF00BF10BD30B502460020E8
:104D100000235068E04C20400D790C6844EA0524DB
:104D2000204350609068DD4C2040D1E902542C4370
:104D30004D7944EA450420439060D06A20F4700025
:104D40000C7C641E1C43E3B240EA0350D06230BDC9
:104D500000210160017141718160C1600121017414
:104D6000704721B1826842F00102826003E08268EC
:104D700022F001028260704721B1826842F48072A1
:104D8000826003E0826822F480728260704710B50E
:104D90000023CBB21AB144681C43446002E044686B
:104DA0009C43446010BD816841F0080181607047F8
:104DB000014600208A6802F008020AB1012000E0E2
:104DC00000207047816841F004018160704701460E
:104DD00000208A6802F004020AB1012000E00020ED
:104DE000704721B1826842F4A002826003E08268C9
:104DF00022F4A00282607047014600208A6802F413
:104E000080020AB1012000E00020704710B50A4678
:104E100000210023416821F46041531E41EA4331DF
:104E2000416010BD21B1426842F40062426003E07B
:104E3000426822F4006242607047F0B504460D46B5
:104E400000200021092D11DDE068A5F10A0606EB1E
:104E50004607072606FA07F18843A5F10A0606EB7E
:104E6000460603FA06F10843E0600CE0206905EB12
:104E70004507072606FA07F1884305EB450603FABE
:104E800006F108432061072A0FDA606B561E06EB15
:104E900086071F2606FA07F18843561E06EB86068C
:104EA00005FA06F10843606322E00D2A0FDA206B51
:104EB000D61F06EB86071F2606FA07F18843D61F82
:104EC00006EB860605FA06F10843206310E0E06A67
:104ED000A2F10D0606EB86071F2606FA07F18843A6
:104EE000A2F10D0606EB860605FA06F10843E0621C
:104EF000F0BD21B1826842F48012826003E08268D2
:104F000022F48012826070470146C86C80B27047FC
:104F100063480068704721B1426842F48062426091
:104F200003E0426822F480624260704721B1426827
:104F300042F48052426003E0426822F480524260B0
:104F400070470A460021816821F4E04111438160E5
:104F5000704721B1826842F40042826003E08268B7
:104F600022F400428260704721B1826842F402124A
:104F7000826003E0826822F4021282607047014678
:104F800000208A6802F400120AB1012000E000202B
:104F90007047F0B504461546002000220026092976
:104FA00011DDE068A1F10A0707EB470C072707FAB4
:104FB0000CF29043A1F10A0707EB470703FA07F247
:104FC0001043E0600CE0206901EB410C072707FA71
:104FD0000CF2904301EB410703FA07F21043206102
:104FE000A06BC0F30156EF1C06F1010CA7EB0C07F8
:104FF00007EB870C1F2707FA0CF29043EF1C06F112
:10500000010CA7EB0C0707EB870701FA07F2104327
:10501000A063F0BD10B50A4600210023816B21F486
:105020004011531E41EA0351816310BD4250704745
:1050300002465018806A80B270470A4600214168D3
:10504000184B1940114341607047416282627047BA
:105050000A460021416821F01F0111434160704759
:1050600040B10F494439096841F400010C4A443AFF
:10507000116007E00A494439096821F40001084A2F
:10508000443A116070470246002013680B405BB140
:1050900001200AE000DCFEBFFFFEF0FFFDF7F1FF9C
:1050A0004C240140FFFD3FFF00207047CA430260CF
:1050B000704770B502460020002300240B1255688B
:1050C000CEB205EA060415681D4015B10CB10120E9
:1050D00000E0002070BD00220A12D3430360704735
:1050E00010B50446F749601A8C4245D00CDCB4F187
:1050F000804F1DD0F448204418B3B0F5806F29D0FC
:10510000B0F5006F54D12EE0B0F5806F3DD0B0F512
:105110008E3F03D0B0F5923F4AD13FE00121C80253
:10512000FFF736FA00214FF40060FFF731FA40E054
:1051300001210846FFF739FA00210120FFF735FA6F
:1051400037E001210220FFF730FA00210220FFF7AB
:105150002CFA2EE001210420FFF727FA0021042079
:10516000FFF723FA25E001210820FFF71EFA0021AE
:105170000820FFF71AFA1CE001211020FFF715FAAA
:1051800000211020FFF711FA13E001212020FFF782
:105190000CFA00212020FFF708FA0AE00121480359
:1051A000FFF7F6F900214FF40050FFF7F1F900E0A6
:1051B00000BF00BF10BD028802F08F020280CA88C3
:1051C0004B881A4303881A4302808A8882850A889A
:1051D0000285BE4A904202D0BD4A904201D10A7A6D
:1051E000028601228282704770B5002400220023CB
:1051F000058C4FF6FE7635400584028C8388048B3F
:105200004FF68F752C400D882C43751E2A400D8952
:105210002A434D882A43CD888586AC4DA84202D0CA
:10522000AB4DA84213D14FF6F7752A404D892A435A
:105230004FF6FB752A408D882A4347F6FF652B40C1
:1052400047F6FF552B408D892B43CD892B43838017
:105250000483028470BD70B5002400220023058CF5
:105260004FF6EF7635400584028C8388048B48F630
:10527000FF752C400D884FF6FF7606EA05252C4376
:105280004FF6DF752A400D8906EA05152A434D8839
:1052900006EA05152A43CD8805878C4DA84202D021
:1052A0008B4DA8421DD14FF67F752A404D894FF690
:1052B000FF7606EA05152A434FF6BF752A408D880A
:1052C00006EA05152A4347F6FF352B4047F2FF75DE
:1052D0002B408D8906EA85052B43CD8906EA850595
:1052E0002B4383800483028470BD70B500240022A8
:1052F0000023058C4FF6FF6635400584028C8388B9
:10530000848B4FF68F752C400D882C434FF6FF553C
:105310002A400D894FF6FF7606EA05252A434D8877
:1053200006EA05252A43CD888587684DA84202D024
:10533000674DA8421DD14FF2FF752A404D894FF6A7
:10534000FF7606EA05252A434FF6FF352A408D8869
:1053500006EA05252A4346F6FF752B4045F6FF75FC
:105360002B408D8906EA05152B43CD8906EA0515E4
:105370002B4383808483028470BD70B50024002297
:105380000023058C4EF6FF7635400584028C838819
:10539000848B48F6FF752C400D884FF6FF7606EAA1
:1053A00005252C434DF6FF752A400D8906EA053583
:1053B0002A434D8806EA05352A43CD88A0F8405097
:1053C000424DA84202D0424DA84207D1C3F30D037B
:1053D0008D894FF6FF7606EA85152B4383808483FB
:1053E000028470BD828B4FF2FF331A408283828B1E
:1053F0004FF6FF7303EA01231A4382837047F0B527
:105400000C461546002100220026078C4EF6FF7C34
:1054100007EA0C070784818B028C4FF6FF7707EAB7
:10542000043640F6FF4739404FF6FF7707EA052775
:105430004FF6FF7C0CEA033C47EA0C0739434DF674
:10544000FF773A4046F480573A4381830284F0BDA7
:10545000828B4FF6F3731A408283828B0A438283D6
:105460007047F0B50C461546002100220026078C37
:105470004FF6FF6C07EA0C070784818B028C4FF60E
:10548000FF7707EA04264FF60C7739404FF6FF778F
:1054900007EA03172F4339434FF6FF573A4046F4C4
:1054A00080773A4381830284F0BD028B4FF2FF3351
:1054B0001A400283028B4FF6FF7303EA01231A435B
:1054C000028370470010004000FCFFBF002C014029
:1054D00000340140F0B50C4615460021002200269C
:1054E000078C4FF6EF7C07EA0C070784018B028CD0
:1054F0004FF6FF7707EA041640F6FF4739404FF6AC
:10550000FF7707EA033739434FF6FF7707EA0527A6
:1055100039434FF6DF773A4046F010073A430183AC
:105520000284F0BD028B4FF6F3731A400283028BA4
:105530000A4302837047F0B50C461546002100224D
:10554000068C4FF6FE773E400684018B028C4FF6A8
:105550000C7631407E1C06EA03162E4331437E1E34
:10556000324044F00106324301830284F0BD70B53D
:1055700005460C46208850B92389A28861882846B0
:10558000FFF7D9FFE1882846FFF7CCFF25E0208808
:1055900004280AD12389A28861882846FFF79AFF48
:1055A000E1882846FFF781FF17E0208808280AD104
:1055B0002389A28861882846FFF753FFE18828469F
:1055C000FFF746FF09E02389A28861882846FFF794
:1055D00016FFE1882846FFF705FF70BD2DE9F04171
:1055E00005460C4600260127608808B9022600E01F
:1055F0000026A088012801D1022700E00127208889
:10560000A0B92389A28861882846FFF794FFE18822
:105610002846FFF787FF23893A4631462846FFF799
:1056200059FFE1882846FFF740FF13E02389A2884D
:1056300061882846FFF74EFFE1882846FFF735FFCF
:1056400023893A4631462846FFF775FFE188284608
:10565000FFF768FFBDE8F0810A884B881A438B8802
:105660001A43CB881A430B891A434B891A438B89F7
:105670001A43A0F8442070474FF6FF718180002143
:105680000180C1804180017270470021018041800A
:105690008180C180018141818181C1817047002168
:1056A00001804180012181800021C18001817047FA
:1056B0000021018041808180C180018141818181FF
:1056C000704721B1028842F00102028004E00288A2
:1056D00040F2FE331A400280704731B1B0F84420E6
:1056E00042F40042A0F8442005E0B0F84420C2F3A0
:1056F0000E02A0F8442070471AB183890B438381BE
:1057000002E083898B43838170478182704741EA3D
:105710000203A0F8483070471AB183890B43838194
:1057200002E083898B438381704701894FF6F872C9
:105730001140018170470A46002101894FF68F739D
:10574000194011430181704730B504460D46294682
:105750002046FFF7F0FF208940F00700208130BD90
:105760002DE9F04104460D4616461F46602D06D130
:105770003B46012231462046FFF7ACFE05E03B46A2
:10578000012231462046FFF7D6FE29462046FFF784
:10579000D2FF208940F007002081BDE8F08170B57C
:1057A0000C4600210189C9B244EA02054FF6FF7692
:1057B00006EA032635432943018170BD2DE9F041F6
:1057C00005460E4617469846002443463A4631465B
:1057D0002846FFF7E4FF2C894FF6F870044044F0A8
:1057E00007044FF68F70044044F070042C81BDE82C
:1057F000F081F0B504460D4616461F463B4632463C
:1058000029462046FFF7CBFF208940F480402081C5
:10581000F0BD0185828270470A460021018840F26E
:105820008F331940114301807047F0B50C4615467F
:105830001E460021002200230189028B038C4FF6B3
:10584000F877394021434FF6FC473A4040F20117C0
:105850003A434FF6DD773B404FF6FF7707EA0617EE
:105860002F433B43018102830384F0BD0A4600219C
:10587000018B4FF68F7319401143018370470A461D
:105880000021018B48F6FF7319404FF6FF7303EABE
:1058900002231943018370470A460021818B4FF68A
:1058A0008F7319401143818370470A460021818B11
:1058B00048F6FF7319404FF6FF7303EA02231943BA
:1058C0008183704721B1028842F08002028004E0A7
:1058D000028840F27F331A400280704721B18288EB
:1058E00042F00402828004E082884FF6FB731A4083
:1058F0008280704721B1828842F00802828004E0F1
:1059000082884FF6F7731A408280704721B18288EF
:1059100042F00102828004E082884FF6FE731A4052
:10592000828070470A460021018B4FF6F7731940B9
:105930001143018370470A460021018B4FF2FF7328
:1059400019404FF6FF7303EA02231943018370479E
:105950000A460021818B4FF6F7731940114381836A
:1059600070470A460021818B4FF2FF7319404FF6B2
:10597000FF7303EA02231943818370470A4600211B
:10598000018B4FF6FB7319401143018370470A46A0
:105990000021018B4FF6FF3319404FF6FF7303EAE6
:1059A00002231943018370470A460021818B4FF679
:1059B000FB7319401143818370470A460021818B94
:1059C0004FF6FF3319404FF6FF7303EA02231943E2
:1059D000818370470A460021018B4FF67F7319407F
:1059E0001143018370470A460021018BC1F30E0168
:1059F0004FF6FF7303EA02231943018370470A46F7
:105A00000021818B4FF67F731940114381837047CA
:105A10000A460021818BC1F30E014FF6FF7303EAA2
:105A200002231943818370470A460021018C4FF6F7
:105A3000FD7319401143018470470A460021018C0F
:105A40004FF6F77319401143018470470A4600214D
:105A5000018C4FF6DF7319404FF6FF7303EA021310
:105A60001943018470470A460021018C4FF67F7369
:105A700019404FF6FF7303EA02131943018470477C
:105A80000A460021018C4FF6FF5319404FF6FF7371
:105A900003EA02231943018470470A460021018C5E
:105AA0004FF2FF7319404FF6FF7303EA02231943C5
:105AB000018470470A460021018C4DF6FF7319409E
:105AC0004FF6FF7303EA023319430184704710B5A0
:105AD000038C01248C40A3430384038C02FA01F459
