:020000040800F2
:10000000F808002001010008C5090008C709000818
:10001000CB090008CF090008D30900080000000040
:10002000000000000000000000000000D7090008E8
:10003000D909000800000000DB090008DD090008FC
:100040001701000817010008170100081701000830
:100050001701000817010008170100081701000820
:100060001701000817010008170100081701000810
:10007000E5090008F7090008170100081701000842
:1000800017010008170100081701000817010008F0
:1000900017010008170100081701000817010008E0
:1000A000170100080D0A00081701000817010008D1
:1000B000190A0008170100081701000817010008B5
:1000C00017010008170100081701000817010008B0
:1000D000170100081701000817010008EB39000894
:1000E000170100081701000817010008DFF80CD0FD
:1000F00006F0FCFA00480047D5080008F808002080
:1001000005480047FEE7FEE7FEE7FEE7FEE7FEE7FD
:10011000FEE7FEE7FEE7FEE7ED00000801B5002080
:1001200006E0002101E000BF491C0629FBD3401C6A
:10013000009A9042F5D308BD11B5002404E04FF4B5
:100140007A70FFF7EBFF641C00988442F7D318BD68
:100150003EB50446FE4890FBF4F080B2ADF80400D2
:100160004720ADF800000020ADF80600ADF8020011
:100170006946F84804F0EBFFF54991FBF4F000EB19
:10018000D071C1F34F01F34A403211803EBD00B53A
:1001900089B001210C2004F0ADF90121C80204F05E
:1001A000A9F90121084604F0A5F94FF48070ADF8D3
:1001B000140018208DF8170003208DF8160005A9EB
:1001C000E54803F0FBFE4FF40050ADF81400182092
:1001D0008DF8170003208DF8160005A9DF4803F0FD
:1001E000EDFEDF4804F048FF4FF47A60ADF81C00E4
:1001F0004720ADF818000020ADF81E00ADF81A0039
:100200008DF8200006A9D64804F0A1FF0121D448AA
:1002100005F024FB6020ADF804000120ADF80600D5
:100220000420ADF808000020ADF80C00ADF80E0079
:100230004FF48070ADF810000020ADF812004FF4BC
:10024000FA60ADF80A0001A9C54804F099FF082139
:10025000C34805F033FB0121C14805F0FEF9012137
:10026000BF4805F006FA09B000BD0EB501210846E9
:1002700004F04DF94FF0804004F0FEFE41F288306A
:10028000ADF8040040F2CF20ADF800000020ADF83A
:100290000600ADF8020069464FF0804004F057FFB9
:1002A0000121880705F0C8FC01221146900705F0DE
:1002B000EFF90121880705F0D0F90EBD00B589B02E
:1002C0000121022004F023F90121092004F012F990
:1002D0000220ADF8200018208DF8230003208DF8AF
:1002E000220008A99D4803F069FE9A4804F0C4FE64
:1002F0004FF4B770ADF818004720ADF81400002097
:10030000ADF81A00ADF8160005A9924804F01FFFD9
:100310006020ADF804000120ADF806000020ADF823
:100320000A00ADF80C0001A98A4804F0F2FF082188
:10033000884805F0E2FA0121864805F08FFA01218C
:10034000844805F096F90121824805F086F90020DD
:1003500080494031088009B000BD00B589B0012155
:10036000042004F0D4F80121092004F0C3F84FF46C
:100370007070ADF8200018208DF8230003208DF850
:10038000220008A9754803F019FE764804F074FEAF
:100390004FF47A60ADF818000120ADF81400002089
:1003A000ADF81A00ADF8160005A96E4804F0CFFEAE
:1003B0006020ADF804000120ADF806000020ADF883
:1003C0000A00ADF80C0001A9664804F0D9FE082126
:1003D000644805F073FA01A9624804F008FF082197
:1003E000604805F074FA01A95E4804F092FF082104
:1003F0005C4805F082FA01215A4805F02FFA0121E4
:10040000584805F02AF90020564934310880091D62
:100410000880091D08804FF47A60091D088009B022
:1004200000BD30B55049B1F1807F01D301201DE0FE
:1004300021F07F40401E4FF0E022506150170F2204
:10044000002807DA13071D0E484B00F00F04241F85
:100450001D5503E013071C0E454B1C5400BF002024
:100460004FF0E022906107201061002008B100BF2A
:10047000FEE730BD10B53F490888411C3D4A118058
:1004800063284EDD00201146088001203A4908709B
:100490003A490878411C394A11703B2815DB002085
:1004A0001146087036490878411C354A11703B28BE
:1004B0000BDB00201146087032480078182804DA57
:1004C00030480078401C2F4908702F48007840B908
:1004D00001202D49087000BF0103204803F01BFED6
:1004E00009E000202849087000BF4FF480511B48E4
:1004F00003F013FE00BF2548007840B92448007877
:100500002D2804DA22480078401C214908701B4835
:100510000078022802DD01201E49087001201E49D2
:10052000087014480088322190FBF1F201FB1200A0
:10053000B0BB1648007810B900201849088013484D
:1005400000780A283BD115480088B0F5F57F28E0EF
:1005500040420F000004004000080140000C014030
:10056000002C01400008004080FC0A0018ED00E06B
:1005700000E400E00400002000000020080000204B
:10058000090000200A0000200E0000202F0000209B
:100590000C0000200D0000200200002010000020B0
:1005A0000DE00CDA0848006805F052FFC1B20748B8
:1005B00002880088401C054B1880054881540120A2
:1005C0000449087010BD0000200000201000002029
:1005D0004C0100200100002008B50121112003F08A
:1005E00089FF012005F08DFB002003F0F0FE0020C4
:1005F00005F031FB4FF46040ADF8000003208DF8AA
:10060000020010208DF803006946A94803F0D6FCCB
:100610000121082003F06EFF4FF48150ADF8000077
:1006200003208DF8020010208DF803006946A148D0
:1006300003F0C4FC0121082003F05CFF0120ADF8A9
:10064000000048208DF8030069469A4803F0B6FC84
:100650000121042003F04EFFC020ADF80000482027
:100660008DF803006946944803F0A8FC012104209A
:1006700003F040FF4FF48070ADF8000003208DF8C8
:10068000020010208DF8030069468B4803F096FCA9
:100690000121082003F02EFF4FF40050ADF80000B8
:1006A00003208DF8020010208DF803006946814870
:1006B00003F084FC00BF4FF400417D4803F02DFDA2
:1006C00000BF00BF4FF40051794803F026FD00BF82
:1006D00000BF4FF48041764803F01FFD00BF00BF0C
:1006E0002021744803F019FD00BF00BF4FF4807152
:1006F000714803F012FD00BF00BF4FF400516D4878
:1007000003F00BFD00BF08BD08B54FF4A06004F076
:100710002DFA0D208DF8000000208DF801008DF8D5
:10072000020001208DF80300684604F024FA0C2032
:100730008DF8000000208DF8010001208DF80200E6
:100740008DF80300684604F016FA27208DF80000A3
:1007500000208DF8010002208DF8020001208DF8A4
:100760000300684604F007FA1C208DF80000012001
:100770008DF8010000208DF8020001208DF80300A3
:10078000684604F0F8F908BD10B545F2555005F07B
:100790000DFB062005F00DFBC82005F00DFB05F054
:1007A0000EFB05F011FB10BD08B5FFF715FF02F0B9
:1007B00072FE01F0E7FFFFF734FE01F0D5F901F01A
:1007C00077FAFFF752FDFFF779FDFFF7C6FD02F05C
:1007D0004BFFFFF799FF394A0421142003F027FB50
:1007E0006A4602211E2003F022FB9DF800009DF8BE
:1007F000011001EB810100EB410031490880282004
:1008000003F0C8FA8DF800009DF80000AA2802D174
:1008100001202C490870322003F0BCFA8DF800004A
:100820009DF80000BB2802D10120274908706A46C4
:1008300002213C2003F0FBFA9DF800009DF8011016
:1008400001EB810100EB4100204908800846008847
:100850004FF6FF71884202D100201C4908801B48D6
:100860000088B0F5A87F03DB0520194908701AE05D
:1008700016480088A62803DD04201549087012E0F8
:1008800012480088322803DD0320114908700AE06D
:100890000E480088052803DD02200D49087002E09B
:1008A00001200B490870FFF76FFF002008BD000012
:1008B00000100140000C01400008014046000020EB
:1008C0002C0000204A000020320000202A000020D6
:1008D000E300002005F0FCFAFFF766FF02F015F8D0
:1008E00059E02D492D48006805F030FE06D800BFBC
:1008F0004FF400412A4803F010FC00BF294800785B
:10090000012816D100202749087001F046FA00F0AE
:100910005CF902F007FE00F055FC2348007801283E
:1009200002D101F0F2FF02E001202049087005F039
:1009300046FA1F480078012823D100201C4908707E
:100940001C4800F0D3F91C4800781A4909788842FD
:1009500010D11A4801780078401C184A10700A29F2
:100960000FDD00201146087001201249087012495D
:10097000087006E00F4800780F49087000200F4902
:1009800008700F480078012805D100200C49087034
:10099000084800F055FAA4E70000D24220000020E9
:1009A00000100140010000200D0000203300002055
:1009B000000000201200002014000020130000207E
:1009C00032010020704700BFFEE700BFFEE700BF16
:1009D000FEE700BFFEE770477047704710B5FFF7AE
:1009E00049FD10BD10B5202004F090F800216848A2
:1009F00004F060F810BD10B54FF4007004F086F8F4
:100A000000216348143004F055F810BD10B50121E1
:100A1000604805F011F910BD10B50121880705F0F7
:100A20000BF95D48007805287ED2DFE800F0030C62
:100A3000345C860000205949088000214FF0804036
:100A400004F00BFEA2E0564801780078401C544A9E
:100A50001070042907DB00204F4908701146087008
:100A60005049088016E050484D49097830F8110087
:100A70004C49098888420DD04B484949097830F8DB
:100A80001100484908804849454A127831F8120057
:100A9000FFF75EFB7AE0424801780078401C404A4C
:100AA0001070012907DB00203B49087011460870CF
:100AB0003C49088016E03D483949097830F8110072
:100AC0003849098888420DD038483549097830F8C6
:100AD0001100344908803549314A127831F8120042
:100AE000FFF736FB52E02E4801780078401C2C4A74
:100AF0001070042907DB0020274908701146087090
:100B00002849088018E02A482549097830F811005A
:100B10002449098888420FD025482149097830F8AE
:100B200011002049088000E02FE021491C4A12787A
:100B300031F81200FFF70CFB28E019480178007823
:100B4000401C174A1070042907DB00201249087066
:100B5000114608701349088016E0164810490978B4
:100B600030F811000F49098888420DD011480C490E
:100B7000097830F811000B4908800E49084A1278AC
:100B800031F81200FFF7E4FA00E000BF00BF10BD2B
:100B90001C000240002C01400B00002040040040DB
:100BA0001600002018000020846700088E670008E7
:100BB000926700089C67000810B50446FE48047060
:100BC0000121880704F049FD10BD10B50121FB4843
:100BD00003F087FA10BBFA480078032802D1F849DD
:100BE000087021E0F648007802280BD1F54801682A
:100BF0000068401CF34A1060322915D90320F049DF
:100C0000087011E0EF4801680068401CED4A106070
:100C1000322909D90120EA49087005E00220E84993
:100C200008700020E74908604021E74803F059FABE
:100C3000A8B9E3488078082802D1E14988700AE021
:100C4000E24801680068401CE04A1060322902D97D
:100C50000820DB4988700020DD49086014E0D8488E
:100C60008078072802D1D64988700AE0D848016800
:100C70000068401CD64A1060322902D90720D049AA
:100C800088700020D14908608021CF4803F029FAFC
:100C9000A8B9CB484078052802D1C94948700AE074
:100CA000CC4801680068401CCA4A1060322902D949
:100CB0000520C34948700020C749086014E0C048B7
:100CC0004078042802D1BE4948700AE0C248016851
:100CD0000068401CC04A1060322902D90420B8497B
:100CE00048700020BB490860204610BD38B5044656
:100CF00000200090002520780B2877D2DFE800F054
:100D00009B061C1F23262A2E32363A00012002F0B1
:100D1000CFFEB24801780078401CB04A1070092913
:100D200009DB0920114608700020AD490870AD4963
:100D30000880AD49087081E0032020707EE0032028
:100D400002F0B6FE7AE00520207077E0052002F080
:100D5000AFFE73E0062002F0ABFE6FE0072002F06A
:100D6000A7FE6BE0082002F0A3FE67E0092002F076
:100D70009FFE63E09D480088B0F57A7F58DB002035
:100D80009A49088097480088002833DD95490988EA
:100D9000481EC11700EB1161090A8DF80010914936
:100DA0000988481EC11700EB11610912A0EB01214F
:100DB000C9B28DF801109DF8000080F0FF008DF899
:100DC00002009DF8010080F0FF008DF803008849C3
:100DD00009780831C8B2694602F093FE8448007869
:100DE000012804D100208249087003E023E001209B
:100DF0007F4908707B4800880A2190FBF1F0C0B25F
:100E00008DF801007748008890FBF1F201FB120099
:100E1000C0B28DF80000002507E01DF8051005F1AF
:100E20003C0002F0A7FE681CC5B2022DF5DB01E014
:100E30000120207002E00120207000BF00BF38BDFB
:100E40002DE9FC41054600260027002469A0006822
:100E5000009069480078AA2801D0BDE8FC81664866
:100E600040780A2800D0F8E763488078001DC7B2B0
:100E70006148C05DBB2800D0EFE7012404E05E4874
:100E8000005D4640601CC4B2BC42F8DB06B1E4E73A
:100E90005948C07800B1E0E70020504908700120AF
:100EA0005149087028780B286FD2DFE800F06E06F1
:100EB0004E4FC3C4C7F0F3EDEC00002409E0201D41
:100EC0004D49085C4D49095D884200D003E0601C33
:100ED000C4B2042CF3DB00BF042C0DDA0120484916
:100EE0000870484801780078401C464A1070032971
:100EF0001FDB032028701CE0002042490870404995
:100F0000087041480078022802D10320287010E0C0
:100F10003D48007801280AD128700A20314908800C
:100F200000203A49087002202D49087001E008208D
:100F30002870002406E0201D2F49085C344908551C
:100F4000601CC4B2042CF6DB39E138E100240CE06B
:100F50002F48005D1DF804104840211D264A515CB1
:100F6000884200D003E0601CC4B2042CF0DB00BF58
:100F7000042C02DA012028705BE00420287020484D
:100F80000078012855D100240CE015E12048005DCF
:100F90001A4908551E4A115D04F1140002F0EAFDD9
:100FA000601CC4B2042CF1DBAA21282002F0E2FD6F
:100FB0000320FFF701FE2DE00B000020000C014094
:100FC0004B0000205C000020000801406800002069
:100FD000600000206C00002064000020550000200C
:100FE000E30000202A000020560000202C000020F2
:100FF0004E00002055AA55AA9E050020460000205C
:1010000078000020750000207A0000204A000020AF
:10101000700000200020FE490870FE490870012081
:10102000FD4908700020FD490880FD490880FD4900
:101030000870C4E0C3E006202870C0E0FA480079D8
:10104000432809D1F8484079432805D10820287061
:101050000020F649087015E0F3480079542811D1B2
:10106000F148407954280DD10120F04908700A2038
:10107000EF4908800020E84908700220ED49087017
:10108000012028709BE094E023E003E0FFE70820C4
:10109000287094E0E4480079E34989794840FF28C2
:1010A00011D1E1484079E049C9794840FF280AD187
:1010B000DD484179007901EB0020DF4908800120FB
:1010C000D449087002E00020D24908700920287035
:1010D00075E0D5480079D44989794840FF281AD16C
:1010E000D1484079D049C9794840FF2813D1C9482F
:1010F000007801280FD1CC484179007901EB00201C
:10110000CD490988884206DCC7484179007901EB5E
:101110000020C9490880C8480088C5490880C748D8
:101120000078F8B90120C5490870C14800880A2133
:1011300090FBF1F0C0B28DF80500BD48008890FB2F
:10114000F1F201FB1200C0B28DF80400002407E0A8
:1011500001AA115D04F13C0002F00CFD601CC4B258
:10116000022CF5DBB2480088B0F5A87F03DB052030
:10117000B04908701AE0AE480088A62803DD0420B4
:10118000AC49087012E0AA480088322803DD032029
:10119000A84908700AE0A6480088052803DD022057
:1011A000A449087002E00120A24908700A202870B2
:1011B00005E00120287002E00120287000BF00BF78
:1011C00000BF4AE62DE9F84F9D480078262809DD42
:1011D00001209C4908709C48007840F002009A4920
:1011E000087008E00020974908709748007800F0E0
:1011F000FD009549087095488078072809D101209D
:10120000934908709048007840F004008E490870B7
:1012100008E000208E4908708B48007800F0FB0041
:101220008949087089484078042809D101208949F2
:1012300008708548007840F008008349087008E08D
:101240000020844908708048007840F0F7007E490B
:10125000087071480078012807D17F490870002084
:101260007E4908707E49087002E000207A490870C3
:101270007C4800782D2806DB0020794908707749E2
:101280000870794908707948007879490978884266
:101290007ED0774800787549087076480078002835
:1012A0007CD17348007805287BD173480078A0B9B9
:1012B0005948007888B95F48007801280DD06F48F8
:1012C0000078032805DA6D480078401C6B490870E7
:1012D00006E000206949087002E00B2066490870AA
:1012E00054480078012807DD65480078012803D0BC
:1012F00054480078012804D10020604908705749FB
:1013000008705E48007840B912205E494870087045
:101310005D4908704870887038E05C485749097822
:10132000405C0A2190FBF1F05649487057485349F8
:101330000978405C0A2190FBF1F201FB120051494F
:10134000087053484D49097830F81100642190FB2A
:10135000F1F04D4908704E484849097830F81100BD
:10136000642190FBF1F201FB12000A2190FBF1F0E5
:101370004549487046484149097830F811000A212A
:1013800090FBF1F201FB12003F498870022002E05D
:101390001CE003E005E0FFF70FFC02E00020354908
:1013A00008703348007806281BD13A48007870B995
:1013B0000120394908700320FFF7FEFB0020314966
:1013C00048700120087000202C49087009E032485C
:1013D0000078012805D100202F4908700320FFF76D
:1013E000EBFB224880782249897888427ED02048C9
:1013F00080781E4988701E48807809285FD1184877
:10140000007801284FD1002015490870134945E0A4
:1014100078000020740000204A00002050000020C6
:101420002C000020750000209E0500207A0000207E
:101430002A000020E3000020760000207900002030
:1014400024000020E4000020540000204B00002075
:10145000E0000020E1000020E50000203400002032
:101460007E0000200C000020330000207B000020C4
:10147000200100202E0000202F0000203500002039
:10148000E2000020E7000020EA0000203A000020EF
:101490003E0000200D0000203100002008702D20AB
:1014A000FE49087008E0FE480078012804D00120B9
:1014B000FC490870FC4908700220FFF77DFBFB48DF
:1014C000007828BBFA488078082824D1F9480078A9
:1014D000B8B9F4480078012813D1F1480078012800
:1014E0000FD0F1480078032807DA00E024E0EE4846
:1014F0000078401CEC49087006E00020EA490870BA
:1015000002E00B20EB4908700220FFF755FB02E0D8
:101510000020E6490870E2480078012807DDE64827
:101520000078012803D0E5480078012804D1002084
:10153000E3490870DC490870E2484078DC494978A2
:1015400088423BD0DA484078DE494870D848407835
:10155000022833D1D5480078C8B9D648007890B968
:101560000120D44908700020D7490880D24800786B
:1015700001280FD11220D54948700870D44908704D
:101580004870887006E00B20CA49087002E000200D
:10159000C64908700220FFF70FFBC14800780128F8
:1015A00007DDC5480078012803D0C4480078012829
:1015B00004D10020C2490870BB490870BD480078BA
:1015C0000D286ED2DFE800F00727415872A5B3DE80
:1015D000FEFDFCFBFA0000BF4FF40041BD4802F0E5
:1015E0009CFD00BF00BF4FF40051BA4802F095FDCA
:1015F00000BF00BF4FF48041B64802F08EFD00BF2F
:1016000000BF2021B44802F088FD00BF01F0C3FBF9
:1016100001F0CFFB81E2B148807807280AD0AF48BB
:101620004078042806D0AE48007818B1AD4800785C
:10163000052806DA0B209F4908700320FFF7BCFA43
:1016400002E002209B49087067E2A7480078012861
:1016500007D193480078012803D0072095490870E6
:1016600009E09148007818B905209249087002E015
:1016700003209049087050E29C480088962811DAAF
:101680009848007826280DDA85480078012809D086
:1016900004208849087000BF41038E4802F03BFDDA
:1016A00003E032E205208349087036E27E48007884
:1016B000012808D18E498F48006804F047FF02D204
:1016C00005207C49087078480078022808D18A49AA
:1016D0008848006804F03AFF02D205207549087076
:1016E00071480078032808D184498248006804F0D2
:1016F0002DFF02D205206F490870814801880088BB
:10170000401C7F4A1080C82902DD05206949087005
:1017100003E200207A4908806948007818B9082057
:101720006449087002E0062062490870F5E16F48DC
:101730000088962822DA6B48007826281EDA584856
:10174000007801281AD000BF4FF40051614802F020
:10175000E4FC00BF00BF4FF480415E4802F0DBFCB8
:1017600000BF0A20FEF7E8FC00BF20215A4802F023
:10177000D2FC00BF5248007801F0AEFA08204D4973
:101780000870CAE15948008896282ADA5548007836
:10179000262826DA42480078012822D0022048492B
:1017A000087000BF01034B4802F0B5FC00BF00BF4A
:1017B0004FF48041474802F0B0FC04E039E10FE10A
:1017C0002EE01AE011E000BF0A20FEF7B5FC00BFD2
:1017D0002021414802F09FFC00BF3948007801F009
:1017E0007BFA08203349087097E12F48007801F010
:1017F00087FA09202F4908708FE13A480078262897
:1018000005DA40493B48006804F0A0FE04D82648A9
:10181000007808B101F0DCFA0A20264908707CE162
:101820002E488078072803D02C484078042805D11A
:101830000B20204908700320FFF7BEF932480078DA
:1018400001286DD10020304908703049088804F023
:10185000D9FD064600222E4B04F057FD0446002217
:101860002C4B04F0E0FC804604F04AFE2A49086054
:101870002A48008804F0C1FD05462748016828462B
:1018800004F062FB044604F0E3FD244908800E489E
:10189000008804F0B2FD05461F4842E00C0000201D
:1018A000E30000207E000020340000202E000020F5
:1018B000200100202F000020E2000020E400002092
:1018C000350000207B00002052000020E7000020AF
:1018D000EA00002000100140000C01404B000020F5
:1018E00056000020240000204A000020280000208C
:1018F0000000A041200000200000C8410000F0418D
:10190000800000200000B44202000020380800409F
:101910000040AF4000003E40580000202C00002056
:101920005DE00168284604F00FFB044604F090FDDA
:101930007C4908807C480078012820D17B480088B9
:1019400004F05BFD05467A480168284604F0FCFA7D
:10195000044604F07DFD754908800846008840F281
:10196000DC5188420BDB0B207249087000206E4965
:1019700008706E4908800021282002F0FBF86948B1
:101980000088B0F5FA6F05DD0B206A490870002069
:101990006449088063480088322802DD01206649D6
:1019A000087066480078012819DC00BF4FF4004138
:1019B000634802F0B2FB00BF00BF4FF40051604823
:1019C00002F0ABFB00BF00BF4FF480415C4802F067
:1019D000A4FB00BF00205B4908705B4908709CE0D5
:1019E00000BF4FF40041564802F097FB00BF01F0E2
:1019F000E0F901F0D0F900204F4908700A20FEF705
:101A00009BFB00BF4FF400514D4802F086FB00BF26
:101A100000BF4FF480414A4802F07FFB00BF00BF87
:101A200020214A4802F079FB00BF0C204149087090
:101A300073E04448007840B9122045494870087066
:101A4000444908704870887024E043483D4909784B
:101A500030F81100642190FBF1F03E4908703E48D7
:101A60003849097830F81100642190FBF1F201FB4C
:101A700012000A2190FBF1F036494870364831498E
:101A8000097830F811000A2190FBF1F201FB1200F5
:101A90003049887031480088B0F57A7F20DA2F48C5
:101AA00000880A2190FBF1F0C0B28DF801002B48AC
:101AB000008890FBF1F201FB1200C0B28DF800002B
:101AC0004FF0000A09E01DF80A100AF11E0002F0AA
:101AD00051F80AF1010000F0FF0ABAF1020FF2DB3F
:101AE00016480078012807DD1D480078012803D03A
:101AF0001C480078012804D10020124908701249BE
:101B0000087000200B49087007E001F044F901F06B
:101B100050F90B200749087000BF00BF0020BDE846
:101B2000F88F0000520000204A00002050000020E2
:101B3000580000202F00002033000020E300002088
:101B4000001001403500002034000020000C01404E
:101B5000E7000020EA0000203E0000202C000020CA
:101B6000E2000020E400002000B591B00121042033
:101B700002F0C0FC0121480202F0BCFCFE4803F068
:101B800063F83F20ADF8400000208DF8430010A915
:101B9000FA4802F013FA684603F0A6F80020009015
:101BA00001208DF804008DF805004FF460200290AC
:101BB0000020039007208DF810006946EE4803F0DE
:101BC00070F84FF4004002F0F9FB012003F014FA22
:101BD000022301220021E84803F0FBF802231A4601
:101BE0000121E54803F0F5F8022303221946E248F3
:101BF00003F0EFF8022304220321DF4803F0E9F8A1
:101C0000022305221146DC4803F0E3F802230622F2
:101C10001021D94803F0DDF8022307221121D6480C
:101C200003F0D7F80121D44803F072F80121D2481B
:101C300003F063F8D04803F082F800BFCE4803F009
:101C400083F80028FAD1CC4803F088F800BFCA48CE
:101C500003F089F80028FAD10121C74803F08DF874
:101C60000121084602F039FCC54802F05FFEC24877
:101C70004C300590C3480690002007902320089020
:101C80000020099080200A9040000B9080000C906A
:101C900020200D9000020E9000200F9005A9B8485A
:101CA00002F0DDFE0121B64802F004FF11B000BDD4
:101CB00000B587B00121042002F01CFC012188023C
:101CC00002F018FCB04802F0BFFF1020ADF8180079
:101CD00000208DF81B0006A9A84802F06FF901A8A2
:101CE00003F002F80020019001208DF80800002088
:101CF0008DF809004FF4602003900020049001202B
:101D00008DF8140001A9A04802F0CBFF4FF4004069
:101D100002F054FB012003F06FF902230122042199
:101D2000994803F056F80121974802F0E6FF9648DB
:101D300003F005F800BF944803F006F80028FAD134
:101D4000914803F00BF800BF8F4803F00CF800280F
:101D5000FAD100218C4803F010F807B000BD2DE93E
:101D6000F0410546002600240FE0C4EBC401854A7B
:101D700002EB410131F8150004F03FFB0746314604
:101D800004F0E2F80646601CC4B2052CEDDB7F4986
:101D9000304604F063F9BDE8F08100B58FB0002053
:101DA0000A907B480088401C794908800620FFF78C
:101DB000D6FF0E9077490E9804F050F9059004F084
:101DC00074FB0022744BCDE90801744903C904F087
:101DD0009CFACDE9040171480CC8049804F020FA7B
:101DE000CDE90601DDE9082304F076F96B4A03C268
:101DF0000020FFF7B4FF0E9064490E9804F02EF90E
:101E0000059004F052FB0022654BCDE908016549BD
:101E100003C904F07AFACDE9040162480CC80498B9
:101E200004F0FEF9CDE90601DDE9082304F054F9D8
:101E30005C4A03C20320FFF792FF0E9055490E98AB
:101E400004F00CF9059004F030FB0022524BCDE970
:101E50000801554903C904F058FACDE90401524874
:101E60000CC8049804F0DCF9CDE90601DDE908238B
:101E700004F032F94C4A03C20120FFF770FF0E90C4
:101E800044490E9804F0EAF8059004F00EFB002295
:101E9000414BCDE90801454903C904F036FACDE9C3
:101EA000040142480CC8049804F0BAF9CDE90601CF
:101EB000DDE9082304F010F93C4A03C20220FFF7D1
:101EC0004EFF0E9033490E9804F0C8F8059004F0C8
:101ED000ECFA0022304BCDE90801354903C904F082
:101EE00014FACDE9040132480CC8049804F098F9BA
:101EF000CDE90601DDE9082304F0EEF82C4A03C21F
:101F00000520FFF72CFF0E9022490E9804F0A6F84A
:101F1000059004F0CAFA00221F4BCDE908012549BB
:101F200003C904F0F2F9CDE9040122480CC8049871
:101F300004F076F9CDE90601DDE9082304F0CCF8D8
:101F40001C4A03C24FF066321B4B194903C904F007
:101F50006AF90022194BCDE9020104F0D6F90022FA
:101F6000174BCDE9040104F0B3FA3AD24FF06632D0
:101F7000114B0F4903C925E000240140000801402E
:101F80000800024040030020002801400000A0405B
:101F9000D20000200000C84100003940B8000020F5
:101FA00000001440A800002098000020A00000209D
:101FB000B0000020C000002066660A4000FEAF406E
:101FC0000000044004F02FF90022FE4BCDE902018D
:101FD00004F09BF90022FC4BCDE9040104F01DF94B
:101FE00012E04FF06632F94BF94903C904F01BF9CE
:101FF0000022F44BCDE9020104F087F90022F24BF4
:10200000CDE9040104F00CF9F24AF34BCDE90601E5
:1020100004F07BF9CDE9080104F072FA0E90EF4864
:10202000007848B9EE480078012805D1ED490E98AE
:1020300008600120E9490870EA4801680E9803F039
:10204000D5FF0021089004F081FA05D2E548016827
:102050000E9803F0CBFF00E00020099004F0F8F99F
:10206000E1490880E148E249097830F81100079019
:1020700004F0C3F90990DF48DD49097830F8110010
:10208000059004F0BAF90790DA48D949097830F890
:102090001100D5490988081A059004F0A5F90690A1
:1020A000079903F0DBFF0890099903F0A5FF0E9054
:1020B0000E9804F0FAF9D04AD04BCDE9020104F0B1
:1020C000B2F8CDE90601C948C949097830F81100CC
:1020D000039004F097F9CDE90401DDE9062303F04C
:1020E000FBFFCDE9080104F0C7F980B20C90C449A8
:1020F00009880C9888422DD04FF48041C14801F0E6
:10210000F0FF012826D1C0480088322190FBF1F26F
:1021100001FB1200F0B9BA490C9808800846008803
:10212000642190FBF1F0B9490870B548008864213A
:1021300090FBF1F201FB12000A2190FBF1F0B34990
:102140004870AF4800880A2190FBF1F201FB1200B1
:10215000AE498870AE480CC80020AE4904F05DF866
:10216000CDE90601AA480CC80020AB4904F05BF891
:10217000CDE90401DDE9062304F0C7F8CDE9080143
:1021800004F0BEF90D9000200A9019E0A3490A98C6
:1021900051F82000014609900D9804F0CDF90BD8B4
:1021A0009E490A98401C51F82000014609900D985C
:1021B00004F0CCF900D806E00A98401CC0B20A909E
:1021C0000A987E28E2DB00BF94490A98401C51F827
:1021D000200005900A9851F820000490059903F01A
:1021E00005FF8E4907900A9851F8200005900D9937
:1021F00003F0FCFE0690079903F030FF09900A985F
:1022000004F0FBF80890099903F09EFE84490860E9
:1022100084498348006804F08FF916D88048006824
:1022200004F043F90022804BCDE9040104F06DF87D
:1022300000227E4BCDE9060103F0F5FFCDE9080150
:1022400004F01AF97A4908704AE07A49744800683B
:1022500004F072F922D87248006804F026F90022CE
:10226000714BCDE9000103F0D8FF0022724BCDE99C
:10227000020104F04AF80022704BCDE9040103F09A
:10228000D2FF0022694BCDE9060103F025FFCDE91D
:10229000080104F0F1F86649087021E06048006820
:1022A00004F003F90022664BCDE9000103F0B5FF0D
:1022B0000022594BCDE9020104F027F800225E4BC1
:1022C000CDE9040103F0AFFF0022574BCDE9060131
:1022D00003F002FFCDE9080104F0CEF8544908707C
:1022E000534800785A2802DD5A2051490870554851
:1022F0000CC80020474903F090FFCDE90601514882
:102300000CC80020444903F08EFFCDE90401DDE94B
:10231000062303F0FAFFCDE9080104F0F1F80D906F
:1023200000200A9019E03D490A9851F82000014622
:1023300009900D9804F000F90BD838490A98401C10
:1023400051F82000014609900D9804F0FFF800D8DC
:1023500006E00A98401CC0B20A900A987E28E2DB88
:1023600000BF2E490A98401C51F8200005900A9899
:1023700051F820000490059903F038FE2749079092
:102380000A9851F8200005900D9903F02FFE069051
:10239000079903F063FE09900A9804F02EF808905C
:1023A000099903F0D1FD0E9027480E99006804F0BA
:1023B000CDF858D224480E99006803F017FE079014
:1023C00044E0000000FEAF400000044066660A40A2
:1023D000B000002056F146E6913F283FD000002093
:1023E0000D000020D8000020260000203E00002024
:1023F000350000204A6D00089A9999999999B93F3A
:10240000D400002000100140D2000020EA0000208B
:10241000A80000200000B04000002440A867000889
:1024200020000020000082420040504000804640D2
:102430001C0000200000A04200002E40000034409C
:102440000000544098000020DC00002004F02DF82B
:102450000022B94BCDE9080104F03AF815D2B7498A
:102460000E98086011E0B54801680E9803F0BEFDB3
:10247000079004F01AF80022AF4BCDE9080104F0F0
:1024800027F802D2AD490E980860AC48006803F006
:10249000DFFFAB49087008460078AA490870AA48CF
:1024A000007801287ED100BF0102A84801F033FE68
:1024B00000BF00BF4FF40051A54801F02EFE00BF41
:1024C0000520FDF72BFE0121A24802F056FC00BFBB
:1024D0000221A04802F0A3FD0028F9D09D4802F097
:1024E000DFFC099003F089FF0E900021994802F06B
:1024F00044FC00BF4FF48071944801F00EFE00BF11
:1025000000BF4FF40051924801F007FE00BF0A20BF
:10251000FDF704FE00BF4FF480718C4801F0FDFD13
:1025200000BF00BF4FF40051894801F0F4FD00BF27
:102530000720FDF7F3FD00BF4FF48071834801F0E1
:10254000ECFD00BF00BF4FF40051814801F0E5FDF4
:1025500000BF81490E9803F081FD059003F0A5FFAF
:1025600000227E4BCDE908017D4903C903F0CDFE71
:10257000CDE904017A480CC8049803F051FECDE976
:102580000601DDE9082303F0A7FD754A03C275487B
:102590000088962811DD01207349087000BF4103AF
:1025A000724800E0B7E001F0B8FD00BF00BF4FF493
:1025B00080416E4801F0B1FD02E000206A490870D8
:1025C0005F480078142819DD00200A900FE0684A5F
:1025D000684B634903C903F098FECDE9080103F095
:1025E0004BFF80B20B900A98401CC0B20A9054482E
:1025F000007814380A998842E9DC24E050480078D1
:1026000014281ADA00200A900FE0594A594B54490D
:1026100003C903F008FECDE9080103F02DFF80B2E5
:102620000B900A98401CC0B20A9045480078C0F14F
:1026300014010A988142E8DC05E0494903C903F026
:102640001BFF80B20B904C4801880B98814204DC40
:102650004A480188434801805DE000200A9013E069
:1026600045490A98401C31F810100B98814207DC4C
:1026700041490A9831F810100B98814200DD06E0BC
:102680000A98401CC0B20A900A98E028E8DB00BF14
:102690000A98E12801DBDF200A9037490A9831F8CF
:1026A0001010354A401C32F81000081A029003F04E
:1026B0009BFE314904900A98401C31F810100B9889
:1026C000401A029003F090FE0390049903F0C6FCB8
:1026D0002A4906900A98401C31F81010274A0A9897
:1026E00032F81000081A049003F07EFE0590069957
:1026F00003F082FC214908900A9831F810000690F6
:1027000003F07BFE0790089903F01EFC099003F08C
:102710009FFE144908801A4800880A2190FBF1F2B4
:1027200001FB120018B900F058FB00F0E8FBFFF7BE
:102730001BFA0FB000BD00000000E03FDC000020ED
:102740002400002036000020330000200008014053
:10275000000C0140002801400000C8410000394041
:10276000C800002028000020E200002000100140E6
:10277000AE47E17A14AEEF3FA0690008626B000833
:10278000D200002008B50121082001F0B3FE4FF46B
:102790004040ADF8000003208DF8020010208DF8B5
:1027A00003006946FB4801F009FC08BD10B500BFF5
:1027B0004FF40041F74801F0B0FC00BF00BF4FF4F8
:1027C0008041F44801F0A9FC00BF0A20FDF7A6FCF7
:1027D00000BF4FF48041EF4801F09DFC00BF0A208C
:1027E000FDF79CFC00BF4FF40041EA4801F093FC68
:1027F00000BF0A20FDF792FC10BD10B500BF4FF4DA
:102800000041E44801F087FC00BF00BF4FF4804165
:10281000E04801F080FC00BF0A20FDF77FFC00BF0C
:102820004FF40041DB4801F078FC00BF0A20FDF7BF
:1028300075FC00BF4FF48041D64801F06EFC00BF2C
:102840000A20FDF76BFC10BD70B5044600252AE098
:1028500000BF4FF40041CF4801F05DFC00BF0A20EB
:10286000FDF75CFC04F0010030B100BF4FF4804183
:10287000C84801F052FC06E000BF4FF48041C54853
:1028800001F049FC00BF0A20FDF748FC00BF4FF4EF
:102890000041C04801F041FC00BF0A20FDF73EFCAA
:1028A0006410681CC5B2082DD2DB70BD70B504463B
:1028B000002527E000BF4FF40041B64801F02BFC93
:1028C00000BF04F0010030B100BF4FF48041B148B7
:1028D00001F023FC06E000BF4FF48041AD4801F059
:1028E0001AFC00BF0A20FDF719FC00BF4FF400419D
:1028F000A84801F012FC00BF0A20FDF70FFC64108D
:10290000681CC5B2082DD5DB70BD10B50024A248E7
:102910000078012814D1A148A1490978405C0A2116
:1029200090FBF1F09F4948709C489D490978405CB4
:102930000A2190FBF1F201FB12009A49087003E0B2
:10294000122098494870087097480078012838D1BB
:10295000964800884FF47A7190FBF1F201FB120067
:10296000642190FBF1F0924908709048008864213E
:1029700090FBF1F201FB12000A2190FBF1F08C496F
:1029800048708A4800880A2190FBF1F201FB12008E
:10299000874988708248007898B1864800780A286C
:1029A0000FD1854800780A2190FBF1F07D494870ED
:1029B000814800780A2190FBF1F201FB120079496D
:1029C0000870FFF7F3FE4020FFF73EFFFFF715FF0B
:1029D000FFF7ECFEC020FFF737FF002477480078B0
:1029E000012802D144F0030401E004F0FC0474481F
:1029F0000078012802D144F00C0401E004F0F30453
:102A000070480078012802D144F0300401E004F05D
:102A1000CF046D480078012802D144F0C00401E0E1
:102A200004F03F042046FFF741FF00246748007888
:102A3000012802D144F0030401E004F0FC04204624
:102A4000FFF734FF62480078062821D2DFE800F063
:102A50000305181A1C1E00241BE05E48017800784C
:102A6000401C5C4A1070142908DD0E2410460078C2
:102A7000282804DD00201146087000E08E2408E0BC
:102A80008E2406E04E2404E06E2402E07E2400E062
:102A900000BF00BF2046FFF709FF424909784E4AB0
:102AA000505CFFF703FF3F4949784B4A505CFFF702
:102AB000FDFE3F498978484A505CFFF7F7FE002445
:102AC0003748007820B93B4800780A2800D1802494
:102AD00037494978404A515C41EA0400FFF7E6FE75
:102AE000334909783C4A515C41F08000FFF7DEFE33
:102AF00000242B480078012803D0294800780228B8
:102B000004D12C4800780A2800D180243349097860
:102B1000314A515C41EA0400FFF7C8FE2F49497869
:102B20002D4A505CFFF7C2FE00241D4800780328A0
:102B300003D01B480078022804D11E4800780A28D8
:102B400000D1802425498978234A515C41EA040058
:102B5000FFF7ACFE12480078032801D1C02400E042
:102B600000241F48007810B904F0C00442E01C485B
:102B70000078012804D104F0C00444F0300439E0A6
:102B80001748007802282DD104F0C00444F00C044A
:102B900030E00000000C01400D0000203600002055
:102BA00034000020ED00002031000020280000202B
:102BB000EA0000202F0000201C000020E000002080
:102BC000E4000020E2000020E1000020E5000020F9
:102BD000E3000020EF000020246D0008E700002043
:102BE0003500002032480078032803D104F0C004E7
:102BF00044F003042046FFF759FEF0242D480078E6
:102C000010B904F0F00417E02A480078012804D134
:102C100004F0F00444F00C040EE02648007802288A
:102C200004D104F0F00444F0030405E021480078E6
:102C3000032801D104F0F0042046FFF737FE1E48B8
:102C4000007818B9FF20FFF731FE02E01F20FFF7E0
:102C50002DFE1948007818B9FF20FFF727FE02E083
:102C6000FC20FFF723FE1448007818B9FF20FFF777
:102C70001DFE02E00720FFF719FEFFF7BEFDFFF77C
:102C800095FD0E4800782D2806DB02200C490870BF
:102C900001200C49087002E0072009490870084922
:102CA000097841F08800FFF7CFFDFFF7A6FD10BDC2
:102CB00035000020340000202F0000200C000020F0
:102CC000E60000202E0000200020E7490870E749B8
:102CD0000860486088607047E54931F81010E54A9F
:102CE0001180E54931F8101009B2E44A1180002141
:102CF000DE4A1160516091600121DB4A117070471A
:102D000030B1012827D0022829D003282FD12AE06A
:102D10000221DB4A1170DB49097819B940F6AC5140
:102D2000D94A1180D7490978012903D140F6C41145
:102D3000D54A1180D3490978022903D14FF4FA61A9
:102D4000D14A1180CF490978032903D14FF4E161B9
:102D5000CD4A11800DE00121C94A117009E001211D
:102D6000C74A117005E00121C54A117001E0002039
:102D700000BF00BFC54931F81010C54A1180C249D3
:102D800031F8101009B2C34A11800021C24A116003
:102D90005160916070470020B8490880B2490870BE
:102DA000B2490860486088604FF47A60BB49088087
:102DB00070470020B2490870B6490880B6490860DB
:102DC00048608860B54908390880091F0880704745
:102DD0004FF47A60AF49088070472DE9F05FA24850
:102DE000007801286FD1AE490988A24A1288881A52
:102DF00003F0FAFA9D4908600868AA4903F09CFBB1
:102E000002D89A48006800E0A64898490860086817
:102E1000A54903F09BFB02D89448006800E0A24853
:102E2000924908600A469168506803F0DFF88246CC
:102E30008E4A5168106803F0D9F88346514603F072
:102E4000D5F8804699480168404603F0D5F8064613
:102E5000864801689648006803F0CEF88246834AA7
:102E60005168106803F0C2F88346924801685846DA
:102E700003F0C2F88046514603F066F80746314633
:102E800003F062F805467D48B0F9000003F0ACFAA3
:102E90008146294603F058F8044603F0C0FA00B210
:102EA0007649088071484068704988600846006823
:102EB00048607248B0F90000B0F57A6F04DC6F48E2
:102EC000B0F9000002E014E04FF47A606B4908802A
:102ED0000846B0F90000002803DB0846B0F90000FE
:102EE00000E0002065490880084600886B4908809A
:102EF00003E04FF47A6069490880BDE8F09F2DE94E
:102F0000F05F5F48007800287EDD5D48007801288A
:102F100002D0022813D10CE05D48008803F06DFA5E
:102F2000044665480168204603F063F85A49086082
:102F300006E00020584908604860886000E000BF53
:102F400000BF554908685D4903F0F6FA02D85248B7
:102F5000006800E05948504908600868584903F083
:102F6000F5FA02D84C48006800E055484A49086024
:102F70000846006853490860084600680860464AE9
:102F80009168506803F032F88246434A51681068ED
:102F900003F02CF88346514603F028F880464A484F
:102FA0000168404603F028F806463B480168474858
:102FB000006803F021F88246374A5168106803F030
:102FC00015F8834642480168584603F015F88046D4
:102FD000514602F0B9FF0746314602F0B5FF0546FB
:102FE0002C48B0F9000003F0FFF98146294602F0B1
:102FF000ABFF044603F013FA00B2264908802648C6
:1030000040682549886000E025E00846006848607F
:103010002048B0F90000B0F57A6F03DC1D48B0F924
:10302000000001E04FF47A601A4908800846B0F9C0
:10303000000040F2AA51884203DB1648B0F90000B4
:1030400001E040F2AA50134908800846008813495D
:103050000839088005E00020104908390880091F58
:103060000880BDE8F09F0000F000002088030020E9
:103070004A6D0008F2000020426D00081401002093
:10308000F100002035000020180100203A6D0008F2
:10309000F4000020160100209403002040080040A6
:1030A000260000200000C8420000C8C20001002025
:1030B000FC000020F8000020200000200000484311
:1030C000000020C1100100200C0100200801002098
:1030D0000401002010B500BF4FF40071FE4801F05C
:1030E0001CF800BF00BF4FF48061FB4801F015F8E9
:1030F00000BF0520FDF712F800BF4FF48061F648CD
:1031000001F009F800BF0520FDF708F800BF4FF4F3
:103110000071F14800F0FFFF00BF10BD08B500BF0F
:103120004FF48061EC4800F0F6FF00BF00BF4FF4A1
:103130000071E94800F0F1FF00BF00BF4FF40061EB
:10314000E54800F0E8FF00BF0121042001F0D2F9BA
:103150004FF46060ADF8000003208DF802001420E9
:103160008DF803006946DC4800F028FF0A20FCF7D0
:10317000E3FFFFF7AFFF08BD10B54FF47A7400BF4F
:103180004FF48061D44800F0C6FF00BF00BF4FF489
:103190000071D14800F0BFFF00BF0A20FCF7BEFF5E
:1031A00002E00A20FCF7BAFF601E80B2040006D0DD
:1031B0004FF40071C84800F094FF0028F1D000BF20
:1031C0004FF40071C44800F0A8FF00BF0A20FCF7CC
:1031D000A5FF00BF4FF48061BF4800F09EFF00BF15
:1031E0000CB9002010BD0120FCE710B500BF4FF462
:1031F0008061B94800F091FF00BF00BF4FF400713B
:10320000B54800F08AFF00BF0A20FCF787FF00BF27
:103210004FF48061B04800F07EFF00BF0A20FCF749
:103220007DFF00BF4FF48061AB4800F076FF00BF28
:1032300010BD10B500BF4FF48061A74800F06DFFCE
:1032400000BF00BF4FF40071A34800F064FF00BF4F
:103250000A20FCF763FF00BF4FF480619E4800F036
:103260005AFF00BF0A20FCF759FF00BF4FF48061EE
:10327000994800F052FF00BF10BD10B54FF47A74AA
:1032800000BF4FF48061944800F045FF00BF0A2062
:10329000FCF744FF02E00A20FCF740FF601E80B20A
:1032A000040006D04FF400718B4800F01AFF00288C
:1032B000F1D100BF4FF48061874800F02EFF00BFBE
:1032C0000A20FCF72BFF0CB9002010BD0120FCE701
:1032D00070B50446082500BFE9017F4800F01DFFD6
:1032E00000BF0520FCF71AFF29E004F0800030B190
:1032F00000BF4FF40071784800F00DFF06E000BFFA
:103300004FF40071744800F008FF00BF6006040E1F
:103310000520FCF703FF00BF4FF480616E4800F00A
:10332000FAFE00BF0520FCF7F9FE00BF4FF48061F4
:10333000694800F0F2FE00BF0520FCF7EFFE280010
:10334000A5F10101CDB2D0D170BD70B50825002422
:1033500000BFA901604800F0DEFE00BF1DE000BF15
:103360004FF480615C4800F0D6FE00BF0A20FCF7F5
:10337000D5FE6006040E4FF40071574800F0B1FE10
:1033800008B1601CC4B20A20FCF7C8FE00BF4FF4AD
:103390008061514800F0C1FE00BF2800A5F1010185
:1033A000CDB2DCD1204670BD70B506460C46154640
:1033B000FFF7E2FE18B9FFF78DFE002070BDB820C0
:1033C000FFF786FFFFF759FF18B9FFF783FE0020CC
:1033D000F4E73046FFF77CFFFFF74FFF18B9FFF720
:1033E00079FE0020EAE70CE015F8010BFFF770FF0B
:1033F000FFF743FF18B9FFF76DFE0020DEE7601E00
:10340000C4B2002CF0DCFFF765FE0120D6E770B5F2
:1034100006460C461546FFF7AFFE18B9FFF75AFEF1
:10342000002070BDB820FFF753FFFFF726FF18B943
:10343000FFF750FE0020F4E73046FFF749FFFFF7A3
:103440001CFF18B9FFF746FE0020EAE7FFF794FEDD
:1034500018B9FFF73FFE0020E3E7B920FFF738FF78
:10346000FFF70BFF18B9FFF735FE0020D9E70CE096
:10347000FFF76BFF05F8010B012C02D1FFF7D9FE16
:1034800001E0FFF7B2FE601EC4B2002CF0DCFFF7D3
:1034900021FE0120C5E700B585B010A000680390AB
:1034A0000FA0006802900FA103C9CDE90001FFF74A
:1034B00035FE04AA01210220FFF7A9FF03AA032178
:1034C0000846FFF771FF02AA03213920FFF76CFFBE
:1034D0006A460821402009E0000801407F550000AD
:1034E000010520003F1F1F3F1F3F3F3FFFF75CFFCD
:1034F00008208DF80C0003AA01213D20FFF754FF9E
:103500009DF8100005B000BD08B5FF2000906A4688
:1035100001212A20FFF77BFF08B9002008BD9DF894
:103520000000FBE710B5FFF7EFFF044648480470C2
:1035300004F0020028B347480078062802D1454924
:10354000087024E04348007805280BD14248016800
:103550000068401C404A1060642918D906203D4983
:10356000087014E03C4801680068401C3A4A10604A
:1035700002290CD905203749087000203749087006
:1035800005E004203349087000203349086004F046
:10359000010028B32F488078092802D12D4988706E
:1035A00024E02C48807808280BD12D480168006859
:1035B000401C2B4A1060642918D9092025498870BD
:1035C00014E0274801680068401C254A1060022961
:1035D0000CD908201F49887000202049087005E098
:1035E00007201C49887000201D49086004F0040071
:1035F00028B318484078032802D11649487024E0BF
:103600001448407802280BD1164801680068401C15
:10361000144A1060642918D903200E49487014E038
:10362000104801680068401C0E4A106002290CD93D
:1036300002200849487000200849087005E0012070
:1036400004494870002007490860204610BD00006A
:103650002301002020010020240100200C00002074
:10366000280100202C01002000B585B00121082090
:1036700000F040FF4FF48060ADF8100018208DF886
:10368000130003208DF8120004A9FE4800F096FCF8
:103690004FF40060ADF8100004208DF8130004A969
:1036A000F84800F08BFC0121880400F030FF4FF453
:1036B000165000900020ADF80400ADF80600ADF8FB
:1036C0000800ADF80C000C20ADF80A006946EE4881
:1036D00000F0BDFF002240F22551EB4801F031F827
:1036E000012240F22661E84801F02BF8012240F265
:1036F0002441E54801F025F801224021E24801F08B
:1037000040F801228021E04801F03BF80121DE4829
:1037100001F00BF8DD4801F009F9DB48001DDC4938
:103720000860DC48486010208860FF20C8600020E6
:1037300008618020486100208861C86108624FF4F8
:103740000050486200208862D04801F088F90122C8
:103750000221CE4801F0B9F901220821CB4801F03D
:10376000B4F901228021C84801F00BF80021C748B4
:1037700001F0A0F9C548143001F0D8F8C248001D86
:10378000C5490860C548486000208860FF20C860BF
:10379000002008618020486100208861C8610862BB
:1037A0004FF48050486200208862B848143001F01D
:1037B00056F901220221B548143001F086F90122A0
:1037C0000821B248143001F080F901224021AE48AE
:1037D00000F0D7FF0121AD48143001F06BF905B0BE
:1037E00000BDF0B503460D461646002729460A2EB1
:1037F00003D0002008702846F0BD33B9302001F80E
:10380000010B002008702846F6E7002B03DA2D2074
:1038100001F8010B5B4242F210720DE093FBF2F4EF
:1038200004B937B104F1300001F8010B04FB123385
:1038300001270A2092FBF0F2002AEFDC002008703A
:103840002846D9E770B505460C469548007801280A
:1038500000D170BD00218D4801F02CF92246294687
:103860008C4802F05FFB89481C380462894887490C
:103870001C3988620121854801F01CF90020E8E725
:103880000FB42DE9F041ADF5067D00240026A046D9
:103890008DA8019077E08C9800785C2827D18C98CF
:1038A000401C8C9000786E280BD0722813D10D220A
:1038B0002046611C8CB242A90A548C98401C8C9002
:1038C00014E00A222046611C8CB242A90A548C984A
:1038D000401C8C900AE08C98401C8C908C9802784C
:1038E0002046611C8CB242A90A5400BF4BE08C9860
:1038F000007825283DD18C98401C8C900078642855
:1039000013D0732829D1019820C8019006E02A78A5
:103910002046611C8CB242A90A546D1C28780028EC
:10392000F5D18C98401C8C9022E0019880C80190C1
:103930000A2282A93846FFF754FF82AD06E02A78B2
:103940002046611C8CB242A90A546D1C28780028BC
:10395000F5D18C98401C8C900AE08C98401C8C907F
:103960008C9802782046611C8CB242A90A5400BF90
:1039700009E08C9802782046611C8CB242A90A5456
:103980008C98401C8C908C980078002883D100265D
:1039900005E042A8805D02A98855701C86B2A64247
:1039A000F7DB214602A8FFF74DFF804640460DF5A4
:1039B000067DBDE8F0015DF814FB10B504463848FB
:1039C0000078012800D110BD0021304801F072F8C4
:1039D0002E481C3804622F482C491C39886201216A
:1039E0002A4801F067F80020EDE710B540F22441C5
:1039F000254800F065FF60B340F22441224800F002
:103A000085FF00212148143001F054F81E4800F0D1
:103A1000F8FE1E48143001F061F8C0F1FF002149A2
:103A200008700120204908701E4802781B491F4871
:103A300002F078FA1548143000F078FF1649134860
:103A4000143001F00CF801211048143001F032F864
:103A500016E040F226610C4800F032FF80B14021B0
:103A6000094800F02AFF002240F22661064800F0D3
:103A700068FE0021054801F01DF800200849087083
:103A800010BD0000000C0140004800401C00024036
:103A9000A0060020A0030020CC0600209F040020E8
:103AA0003501002030010020320100209E05002059
:103AB000FEB5054600260F2D00DD0025AA208DF855
:103AC00000000A208DF8010002208DF802008520F8
:103AD0008DF803008DF80450012404E01DF8040063
:103AE0004640601CC4B2052CF8DB8DF80560BB2095
:103AF0008DF8060007216846FFF7A4FE0746384602
:103B0000FEBD2DE9FF4106460C4600270F2E00DDC5
:103B10000026AA208DF800000A208DF8010006205A
:103B20008DF8020084208DF803008DF80460207861
:103B30008DF8050060788DF80600A0788DF80700F4
:103B4000E0788DF80800012504E01DF805004740E5
:103B5000681CC5B2092DF8DB8DF80970BB208DF803
:103B60000A000B216846FFF76DFE8046404604B010
:103B7000BDE8F08170B504460E4600BF4FF4006109
:103B8000D94800F0CAFA00BF0A20FCF7C7FAFFF7CD
:103B9000F3FA18B9FFF79EFA002070BDA020FFF7D6
:103BA00097FBFFF76AFB18B9FFF794FA0020F4E7D8
:103BB0002546E11704EB1161C1F30720FFF788FBED
:103BC000FFF75BFB18B9FFF785FA0020E5E725460C
:103BD000E11704EB11610912A4EB0121C8B2FFF750
:103BE00077FBFFF74AFB18B9FFF774FA0020D4E718
:103BF0003046FFF76DFBFFF740FB18B9FFF76AFA95
:103C00000020CAE7FFF766FA00BF4FF40061B6482C
:103C100000F081FA00BF1420FCF78EFA0120BCE707
:103C20002DE9F04104460D46164600BF4FF40061F1
:103C3000AD4800F072FA00BF0A20FCF76FFAFFF7F8
:103C40009BFA20B9FFF746FA0020BDE8F081A020DA
:103C5000FFF73EFBFFF711FB18B9FFF73BFA002017
:103C6000F3E72746E11704EB1161C1F30720FFF7E3
:103C70002FFBFFF702FB18B9FFF72CFA0020E4E74F
:103C80002746E11704EB11610912A4EB0121C8B228
:103C9000FFF71EFBFFF7F1FA18B9FFF71BFA002038
:103CA000D3E70CE016F8010BFFF712FBFFF7E5FA7C
:103CB00018B9FFF70FFA0020C7E7681E85B2002D7C
:103CC000F0DCFFF707FA00BF4FF40061864800F010
:103CD00022FA00BF1420FCF72FFA0120B5E770B5D7
:103CE00004460D4600BF4FF400617F4800F015FA0E
:103CF00000BF0A20FCF712FAFFF73EFA18B9FFF7E7
:103D0000E9F9002070BDA020FFF7E2FAFFF7B5FA4D
:103D100018B9FFF7DFF90020F4E72646E11704EBB6
:103D20001161C1F30720FFF7D3FAFFF7A6FA18B91C
:103D3000FFF7D0F90020E5E72646E11704EB116113
:103D40000912A4EB0121C8B2FFF7C2FAFFF795FAF6
:103D500018B9FFF7BFF90020D4E70BE00020FFF708
:103D6000B7FAFFF78AFA18B9FFF7B4F90020C9E7E4
:103D7000681E85B2002DF1DCFFF7ACF91420FCF7CA
:103D8000DBF900BF4FF40061574800F0C4F900BFF1
:103D90000120B7E770B50446FFF7EEF918B9FFF751
:103DA00099F9002070BDA020FFF792FAFFF765FA9D
:103DB00018B9FFF78FF90020F4E72546E11704EB67
:103DC0001161C1F30720FFF783FAFFF756FA18B91C
:103DD000FFF780F90020E5E72546E11704EB1161C4
:103DE0000912A4EB0121C8B2FFF772FAFFF745FAF6
:103DF00018B9FFF76FF90020D4E7FFF7BDF918B93C
:103E0000FFF768F90020CDE7A120FFF761FAFFF77F
:103E100034FA18B9FFF75EF90020C3E7FFF795FA07
:103E20000646FFF706FAFFF755F93046BAE72DE9DF
:103E3000F04104460D461646FFF79EF920B9FFF7FC
:103E400049F90020BDE8F081A020FFF741FAFFF713
:103E500014FA18B9FFF73EF90020F3E72746E117F7
:103E600004EB1161C1F30720FFF732FAFFF705FAFF
:103E700018B9FFF72FF90020E4E72746E11704EB14
:103E800011610912A4EB0121C8B2FFF721FAFFF773
:103E9000F4F918B9FFF71EF90020D3E7FFF76CF922
:103EA00018B9FFF717F90020CCE7A120FFF710FAA7
:103EB000FFF7E3F918B9FFF70DF90020C2E70CE0AE
:103EC000FFF743FA06F8010B012D02D1FFF7B1F914
:103ED00001E0FFF78AF9681E85B2002DF0DCFFF7DC
:103EE000F9F80120AEE700000008014010B50446D3
:103EF000C649601A8C422FD009DCC548204480B1E5
:103F0000B0F5806F16D0B0F5006F4AD11BE0B0F568
:103F1000806F2AD0B0F5006F30D0B0F5406F40D13F
:103F200035E00121042000F0FFFA0021042000F018
:103F3000FBFA37E00121082000F0F6FA0021082002
:103F400000F0F2FA2EE00121102000F0EDFA00213D
:103F5000102000F0E9FA25E00121202000F0E4FA29
:103F60000021202000F0E0FA1CE00121402000F0B8
:103F7000DBFA0021402000F0D7FA13E00121802075
:103F800000F0D2FA0021802000F0CEFA0AE00121F0
:103F9000080200F0C9FA00214FF4807000F0C4FA62
:103FA00000E000BF00BF10BD10B50121084600F0C1
:103FB000BBFA0021012000F0B7FA10BD2DE9F04155
:103FC000024600250026002000230024002791F847
:103FD00003C00CF00F0591F803C00CF0100CBCF1FD
:103FE000000F03D091F802C04CEA050591F800C01B
:103FF000BCF1000F31D0146800202BE04FF0010C11
:104000000CFA00F3B1F800C00CEA03069E4220D17E
:1040100083004FF00F0C0CFA03F7BC4305FA03FCC6
:104020004CEA040491F803C0BCF1280F06D14FF00C
:10403000010C0CFA00FCC2F814C00AE091F803C0AD
:10404000BCF1480F05D14FF0010C0CFA00FCC2F88E
:1040500010C0401C0828D1D31460B1F800C0BCF1D6
:10406000FF0F34DD546800202EE000F1080C4FF003
:10407000010808FA0CF3B1F800C00CEA03069E42EE
:1040800021D183004FF00F0C0CFA03F7BC4305FA63
:1040900003FC4CEA040491F803C0BCF1280F05D1DD
:1040A00000F1080C08FA0CF8C2F8148091F803C06B
:1040B000BCF1480F07D100F1080C4FF0010808FAD5
:1040C0000CF8C2F81080401C0828CED35460BDE81C
:1040D000F0814FF6FF710180022181700421C170CF
:1040E00070470246002093680B400BB1012000E0AE
:1040F000002070470146886880B270470246002061
:10410000D3680B400BB1012000E00020704701464E
:10411000C86880B2704701617047416170470AB159
:10412000016100E041617047C16070474FF4803227
:104130000A438261816182618269826970470246B5
:104140000020344B18684FF68073184040EA021084
:104150000843304B186070472F49C8617047F0B56D
:104160000A4600230024002100252A4E7168C0F36E
:10417000034583B200F44016B6F5401F08D121F084
:104180007061244E766826F07066224F7E6012E0E1
:1041900000F48016B6F5801F06D1032606FA05F452
:1041A000A14341F0706106E0460D360103FA06F6C0
:1041B000B14341F0706122B1460D360103FA06F6B3
:1041C0003143144E7160F0BD30B500228B071C0FD7
:1041D0000F2303FA04F20F4B08338C1053F82430EA
:1041E00093430C4C08348D1044F8253023468C1032
:1041F00053F824308C07240F00FA04F42343054CB1
:1042000008348D1044F8253030BD00000014014002
:1042100000F8FEBF0000014000002042DE480068B8
:1042200040F00100DC49086008464068DB4908406E
:10423000D949486008460068D9490840D64908600D
:104240000846006820F4802008600846406820F492
:10425000FE004860002088607047CF49096821F45B
:104260008031CD4A11601146096821F48021116026
:10427000B0F5803F03D0B0F5802F0ED106E0C649DF
:10428000096841F48031C44A116007E0C2490968F5
:1042900041F4A021C04A116000E000BF00BF704798
:1042A00010B501460022002300204A11012A02D144
:1042B000B94C236806E0022A02D1B74C236A01E018
:1042C000B54C636A01F01F02012494401C400CB1FC
:1042D000012000E0002010BD38B50020009000242F
:1042E000002500BF3120FFF7DBFF05460098401C8A
:1042F00000901DB90098B0F5A06FF3D13120FFF701
:10430000CFFF08B1012400E00024204638BD01465B
:104310000020A14A106820F0F80040EAC1001060B7
:104320007047A04908607047024600209A4B5868C1
:1043300020F47C1042EA01031843974B5860704701
:1043400098490866704701460020934A506820F05B
:1043500003000843506070478F48406800F00C002D
:104360007047014600208C4A506820F0F000084356
:104370005060704701460020874A506820F4E06092
:1043800008435060704701460020834A506820F47B
:10439000605040EAC1005060704729B17E4A527AAD
:1043A00002437D4B5A7204E07B4A527A82437A4B35
:1043B0005A7270477B49D831086070470146002027
:1043C000754A506820F4404008435060704700210F
:1043D000714A20321170704A82F82010012802D0F0
:1043E00004280AD104E001216B4A2032117005E053
:1043F0000521694A2032117000E000BF00BF7047FC
:104400006949086070476449096A0143624A116258
:104410007047654944390860704730B50021002273
:10442000002400235C4D6D6805F00C0121B10429C6
:1044300005D0082923D105E05C4D056022E05B4DE5
:1044400005601FE0544D6D6805F47012022505EB00
:104450009242514D6D6805F480341CB9544D55435A
:1044600005600BE04C4D6D6805F400351DB1504DF5
:104470005543056002E04D4D5543056002E04B4D4C
:10448000056000BF00BF444D6D6805F0F0010909EB
:10449000484D6B5C0568DD4045603F4D6D6805F437
:1044A000E061090A434D6B5C4568DD4085603A4D2B
:1044B0006D6805F46051C90A3E4D6B5C4568DD408E
:1044C000C560354D6D6805F44041890B3A4D6B5C14
:1044D000C568B5FBF3F5056130BD29B12E4A5269B7
:1044E00002432D4B5A6104E02B4A526982432A4B06
:1044F0005A61704729B1284A92690243264B9A6152
:1045000004E0254A92698243234B9A61704729B19E
:10451000214AD2690243204BDA6104E01E4AD26983
:1045200082431D4BDA61704729B11B4AD2680243AE
:10453000194BDA6004E0184AD2688243164BDA60FD
:10454000704729B1144A12690243134B1A6104E0FF
:10455000114A12698243104B1A617047124940395F
:10456000086070470F49C86470470B49C8717047AD
:104570000948406A40F08070074948627047014628
:104580000020054A92680A400AB1012000E000209C
:104590007047014988727047001002400000FFF820
:1045A000FFFFF6FE000042428004424200127A0001
:1045B00000093D00360100204601002010B50446E8
:1045C000D749601A8C422BD006DCD648204498B1DB
:1045D000B0F5806F38D119E0B0F5806F2AD0B0F512
:1045E0006C4F31D101218803FFF79EFF00214FF46A
:1045F0008040FFF799FF28E001214804FFF7A1FF61
:1046000000214FF40030FFF79CFF1EE001218804D9
:10461000FFF797FF00214FF48020FFF792FF14E08F
:104620000121C804FFF78DFF00214FF40020FFF7A0
:1046300088FF0AE001210805FFF783FF00214FF4FE
:104640008010FFF77EFF00E000BF00BF10BD2DE926
:10465000F04786B005460E460024A24600BF00BFC4
:1046600000272F462C8A4CF6FF700440F088044344
:104670002C82AC894EF6F3100440B088318908438F
:10468000718908430443AC81AC8A4FF6FF40044073
:10469000B0890443AC8201A8FFF7BFFEA24887425D
:1046A00002D1DDF810A001E0DDF80CA00AEBCA0091
:1046B00000EB0A1031688900B0FBF1F86420B8FB08
:1046C000F0F004012009642101FB1089322000EB85
:1046D0000910B0FBF1F000F00F0004432C8106B08C
:1046E000BDE8F0874FF41651016000218180C18040
:1046F00001810C21418100218181704710B5024662
:104700000020108A4FF2FF0318400B884C88234387
:104710008C882343CC8823431843108210BD00218A
:10472000018041808180C180704721B1828942F43B
:104730000052828104E082894DF6FF731A40828123
:104740007047F0B5034600240026002500201846D7
:10475000C1F3421401F01F06012707FA06F5012CE8
:1047600001D10C3004E0022C01D1103000E01430F3
:104770001AB107682F43076002E00768AF4307607C
:10478000F0BD1AB1838A0B43838202E0838A8B4394
:1047900083827047028A4FF6F0731A400282028ABF
:1047A0000A430282704782894FF2FF731A40828166
:1047B00082890A438281704721B1828942F00202D4
:1047C000828104E082894FF6FD731A40828170472E
:1047D000028A4FF6DF731A400282028A0A4302827B
:1047E000704721B1028A42F48042028204E0028AC8
:1047F0004BF6FF731A4002827047C1F308028280B1
:10480000704701468888C0F308007047818941F0ED
:10481000010181817047028BD2B20283028B42EA8E
:10482000012202837047028B02F47F420283028BD3
:104830000A430283704721B1828A42F020028282B9
:1048400004E0828A4FF6DF731A408282704721B1FA
:10485000828A42F01002828204E0828A4FF6EF736D
:104860001A408282704721B1828A42F00802828215
:1048700004E0828A4FF6F7731A4082827047828A78
:104880004FF6FB731A408282828A0A438282704703
:1048900021B1828A42F00202828204E0828A4FF6CB
:1048A000FD731A40828270470246002013880B4035
:1048B0000BB1012000E000207047CA43028070471E
:1048C00070B502460B460024002100250020C3F3EA
:1048D000421503F01F01012606FA01F1012D02D154
:1048E0009689314006E0022D02D1168A314001E05E
:1048F000968A31401C12012606FA04F416883440C8
:1049000011B10CB1012000E0002070BD10B50022F3
:1049100000230A1201249440A3B2DC43048010BD9A
:10492000004C004000BCFFBF00380140016821F08E
:10493000010101600021016041608160C160874A1E
:10494000811A90425BD012DC854AA0EB02019042B2
:104950003AD007DC83490144D9B1142922D028294F
:104960007AD128E0142938D0282975D13EE0B1F554
:104970006C7F5BD006DCB1F5627F49D0B1F5677F13
:104980006AD14CE0B1F5717F57D0B1F5767F63D134
:104990005BE073494439496841F00F01704A443A79
:1049A00051605AE06E494439496841F0F0016C4A5F
:1049B000443A516051E06A494439496841F47061B0
:1049C000674A443A516048E065494439496841F4CE
:1049D0007041634A443A51603FE061494439496853
:1049E00041F470215E4A443A516036E05C494439F2
:1049F000496841F470015A4A443A51602DE05849DF
:104A00004439496841F07061554A443A516024E0A4
:104A10005549096841F00F01534A11601DE05249A0
:104A2000096841F0F001504A116016E04E490968EA
:104A300041F470614C4A11600FE04B49096841F440
:104A40007041494A116008E006E04749096841F4AD
:104A50007021454A116000E000BF00BF704710B5EB
:104A60000022026847F6F0739A430C6A8B6823436E
:104A70000C6923434C6923438C692343CC6923434A
:104A80004C6A23438C6A23431A430260CB68436019
:104A90000B6883604B68C36010BD002101604160FA
:104AA0008160C160016141618161C16101624162F6
:104AB0008162704721B1026842F00102026003E0A6
:104AC000026822F00102026070471AB103680B43CA
:104AD000036002E003688B43036070470146486847
:104AE00080B2704701460020002201F080531BB1C4
:104AF0001D4B1B1F1A6802E0194B443B1A6802EA5F
:104B000001030BB1012000E00020704700F080514C
:104B100011B11549086002E01149443948607047F5
:104B200001460020002201F080531BB10E4B1B1FD9
:104B30001A6802E00A4B443B1A6802EA01030BB10F
:104B4000012000E00020704700F0805111B10649BB
:104B5000086002E002494439486070478000024022
:104B600044000240F8FFFDBF040402403149014304
:104B7000314A1160704770B5002100230F22C478BC
:104B800004B32D4C246804F4E064C4F5E064210A05
:104B9000C1F10403CA40447804FA03F18478144054
:104BA00021430901254C0678A155047804F01F051E
:104BB0000124AC4005786D11AD0005F1E025C5F884
:104BC000004109E0047804F01F050124AC401C4DAD
:104BD0000678761145F8264070BD1A4A0A4002430D
:104BE000154B1B1F1A60704739B1134A121D12680A
:104BF0000243114B1B1D1A6006E00F4A121D12687A
:104C000082430D4B1B1D1A607047042808D14FF0DA
:104C1000E021096941F004014FF0E022116107E051
:104C20004FF0E021096921F004014FF0E022116109
:104C3000704700000000FA050CED00E000E400E021
:104C400080E100E080FFFF1F10B50446F7482044D4
:104C500030B1B0F5806F0DD0B0F5C05F1ED113E05C
:104C600001214802FFF760FC00214FF40070FFF7BC
:104C70005BFC14E001218802FFF756FC00214FF491
:104C80008060FFF751FC0AE00121C803FFF74CFCEC
:104C900000214FF40040FFF747FC00E000BF00BFD9
:104CA00010BD30B50246002000235068E04C204083
:104CB0000D790C6844EA0524204350609068DD4C6F
:104CC0002040D1E902542C434D7944EA4504204365
:104CD0009060D06A20F470000C7C641E1C43E3B228
:104CE00040EA0350D06230BD002101600171417182
:104CF0008160C16001210174704721B1826842F076
:104D00000102826003E0826822F001028260704743
:104D100021B1826842F48072826003E0826822F4EA
:104D200080728260704710B50023CBB21AB144681C
:104D30001C43446002E044689C43446010BD8168A9
:104D400041F0080181607047014600208A6802F046
:104D500008020AB1012000E000207047816841F09C
:104D6000040181607047014600208A6802F0040255
:104D70000AB1012000E00020704721B1826842F4AE
:104D8000A002826003E0826822F4A0028260704781
:104D9000014600208A6802F480020AB1012000E086
:104DA0000020704710B50A4600210023416821F415
:104DB0006041531E41EA4331416010BD21B1426858
:104DC00042F40062426003E0426822F40062426002
:104DD0007047F0B504460D4600200021092D11DD75
:104DE000E068A5F10A0606EB4607072606FA07F172
:104DF0008843A5F10A0606EB460603FA06F10843C6
:104E0000E0600CE0206905EB4507072606FA07F18C
:104E1000884305EB450603FA06F108432061072A9B
:104E20000FDA606B561E06EB86071F2606FA07F19F
:104E30008843561E06EB860605FA06F108436063B2
:104E400022E00D2A0FDA206BD61F06EB86071F26FD
:104E500006FA07F18843D61F06EB860605FA06F127
:104E60000843206310E0E06AA2F10D0606EB860716
:104E70001F2606FA07F18843A2F10D0606EB860607
:104E800005FA06F10843E062F0BD21B1826842F400
:104E90008012826003E0826822F480128260704790
:104EA0000146C86C80B2704763480068704721B102
:104EB000426842F48062426003E0426822F4806209
:104EC0004260704721B1426842F48052426003E080
:104ED000426822F48052426070470A46002181688D
:104EE00021F4E04111438160704721B1826842F4AE
:104EF0000042826003E0826822F4004282607047D0
:104F000021B1826842F40212826003E0826822F4D6
:104F1000021282607047014600208A6802F4001283
:104F20000AB1012000E000207047F0B504461546A4
:104F3000002000220026092911DDE068A1F10A07FE
:104F400007EB470C072707FA0CF29043A1F10A0779
:104F500007EB470703FA07F21043E0600CE0206913
:104F600001EB410C072707FA0CF2904301EB4107D4
:104F700003FA07F210432061A06BC0F30156EF1C47
:104F800006F1010CA7EB0C0707EB870C1F2707FAAC
:104F90000CF29043EF1C06F1010CA7EB0C0707EB9A
:104FA000870701FA07F21043A063F0BD10B50A4667
:104FB00000210023816B21F44011531E41EA03516B
:104FC000816310BD4250704702465018806A80B21B
:104FD00070470A4600214168184B1940114341604F
:104FE00070474162826270470A460021416821F0A1
:104FF0001F0111434160704740B10F4944390968AE
:1050000041F400010C4A443A116007E00A4944396E
:10501000096821F40001084A443A116070470246C9
:10502000002013680B405BB101200AE000DCFEBFEA
:10503000FFFEF0FFFDF7F1FF4C240140FFFD3FFFB5
:1050400000207047CA430260704770B502460020D6
:10505000002300240B125568CEB205EA0604156839
:105060001D4015B10CB1012000E0002070BD0022F0
:105070000A12D3430360704710B50446F749601A1B
:105080008C4245D00CDCB4F1804F1DD0F448204454
:1050900018B3B0F5806F29D0B0F5006F54D12EE071
:1050A000B0F5806F3DD0B0F58E3F03D0B0F5923FA4
:1050B0004AD13FE00121C802FFF736FA00214FF440
:1050C0000060FFF731FA40E001210846FFF739FAA6
:1050D00000210120FFF735FA37E001210220FFF718
:1050E00030FA00210220FFF72CFA2EE001210420E3
:1050F000FFF727FA00210420FFF723FA25E001211A
:105100000820FFF71EFA00210820FFF71AFA1CE01A
:1051100001211020FFF715FA00211020FFF711FAE6
:1051200013E001212020FFF70CFA00212020FFF7D7
:1051300008FA0AE001214803FFF7F6F900214FF4CD
:105140000050FFF7F1F900E000BF00BF10BD02887A
:1051500002F08F020280CA884B881A4303881A43E0
:1051600002808A8882850A880285BE4A904202D0DF
:10517000BD4A904201D10A7A02860122828270479A
:1051800070B5002400220023058C4FF6FE763540D2
:105190000584028C8388048B4FF68F752C400D8814
:1051A0002C43751E2A400D892A434D882A43CD88F9
:1051B0008586AC4DA84202D0AB4DA84213D14FF624
:1051C000F7752A404D892A434FF6FB752A408D8892
:1051D0002A4347F6FF652B4047F6FF552B408D8944
:1051E0002B43CD892B4383800483028470BD70B52B
:1051F000002400220023058C4FF6EF76354005840D
:10520000028C8388048B48F6FF752C400D884FF67E
:10521000FF7606EA05252C434FF6DF752A400D89F7
:1052200006EA05152A434D8806EA05152A43CD8866
:1052300005878C4DA84202D08B4DA8421DD14FF658
:105240007F752A404D894FF6FF7606EA05152A43F9
:105250004FF6BF752A408D8806EA05152A4347F6A2
:10526000FF352B4047F2FF752B408D8906EA8505F7
:105270002B43CD8906EA85052B4383800483028472
:1052800070BD70B5002400220023058C4FF6FF6628
:1052900035400584028C8388848B4FF68F752C40B3
:1052A0000D882C434FF6FF552A400D894FF6FF76A7
:1052B00006EA05252A434D8806EA05252A43CD88B6
:1052C0008587684DA84202D0674DA8421DD14FF294
:1052D000FF752A404D894FF6FF7606EA05252A43D9
:1052E0004FF6FF352A408D8806EA05252A4346F603
:1052F000FF752B4045F6FF752B408D8906EA051595
:105300002B43CD8906EA05152B43838084830284D1
:1053100070BD70B5002400220023058C4EF6FF7688
:1053200035400584028C8388848B48F6FF752C40B9
:105330000D884FF6FF7606EA05252C434DF6FF75DE
:105340002A400D8906EA05352A434D8806EA0535C7
:105350002A43CD88A0F84050424DA84202D0424D89
:10536000A84207D1C3F30D038D894FF6FF7606EAF5
:1053700085152B4383808483028470BD828B4FF21A
:10538000FF331A408283828B4FF6FF7303EA0123B7
:105390001A4382837047F0B50C461546002100225F
:1053A0000026078C4EF6FF7C07EA0C070784818BEA
:1053B000028C4FF6FF7707EA043640F6FF47394084
:1053C0004FF6FF7707EA05274FF6FF7C0CEA033C10
:1053D00047EA0C0739434DF6FF773A4046F48057C9
:1053E0003A4381830284F0BD828B4FF6F3731A40F7
:1053F0008283828B0A4382837047F0B50C46154640
:10540000002100220026078C4FF6FF6C07EA0C07EC
:105410000784818B028C4FF6FF7707EA04264FF64C
:105420000C7739404FF6FF7707EA03172F433943CC
:105430004FF6FF573A4046F480773A43818302841F
:10544000F0BD028B4FF2FF331A400283028B4FF6FE
:10545000FF7303EA01231A430283704700100040E0
:1054600000FCFFBF002C014000340140F0B50C46A9
:105470001546002100220026078C4FF6EF7C07EA34
:105480000C070784018B028C4FF6FF7707EA04169E
:1054900040F6FF4739404FF6FF7707EA03373943B5
:1054A0004FF6FF7707EA052739434FF6DF773A4093
:1054B00046F010073A4301830284F0BD028B4FF699
:1054C000F3731A400283028B0A4302837047F0B5DC
:1054D0000C46154600210022068C4FF6FE773E4012
:1054E0000684018B028C4FF60C7631407E1C06EA56
:1054F00003162E4331437E1E324044F001063243F0
:1055000001830284F0BD70B505460C46208850B971
:105510002389A28861882846FFF7D9FFE1882846B9
:10552000FFF7CCFF25E0208804280AD12389A28830
:1055300061882846FFF79AFFE1882846FFF781FF38
:1055400017E0208808280AD12389A2886188284684
:10555000FFF753FFE1882846FFF746FF09E023895C
:10556000A28861882846FFF716FFE1882846FFF7E2
:1055700005FF70BD2DE9F04105460C4600260127C8
:10558000608808B9022600E00026A088012801D121
:10559000022700E001272088A0B92389A28861881A
:1055A0002846FFF794FFE1882846FFF787FF238905
:1055B0003A4631462846FFF759FFE1882846FFF76B
:1055C00040FF13E02389A28861882846FFF74EFF39
:1055D000E1882846FFF735FF23893A4631462846B9
:1055E000FFF775FFE1882846FFF768FFBDE8F08107
:1055F0000A884B881A438B881A43CB881A430B8935
:105600001A434B891A438B891A43A0F844207047E8
:105610004FF6FF71818000210180C18041800172BD
:1056200070470021018041808180C18001814181DA
:105630008181C181704700210180418001218180E9
:105640000021C1800181704700210180418081805B
:10565000C180018141818181704721B1028842F07E
:105660000102028004E0028840F2FE331A40028008
:10567000704731B1B0F8442042F40042A0F8442011
:1056800005E0B0F84420C2F30E02A0F844207047B1
:105690001AB183890B43838102E083898B43838121
:1056A00070478182704741EA0203A0F84830704792
:1056B0001AB183890B43838102E083898B43838101
:1056C000704701894FF6F8721140018170470A4610
:1056D000002101894FF68F731940114301817047F2
:1056E00030B504460D4629462046FFF7F0FF2089D5
:1056F00040F00700208130BD2DE9F04104460D4601
:1057000016461F46602D06D13B46012231462046F3
:10571000FFF7ACFE05E03B46012231462046FFF78D
:10572000D6FE29462046FFF7D2FF208940F0070029
:105730002081BDE8F08170B50C4600210189C9B215
:1057400044EA02054FF6FF7606EA0326354329436D
:10575000018170BD2DE9F04105460E461746984679
:10576000002443463A4631462846FFF7E4FF2C8999
:105770004FF6F870044044F007044FF68F70044071
:1057800044F070042C81BDE8F081F0B504460D466C
:1057900016461F463B46324629462046FFF7CBFFBA
:1057A000208940F480402081F0BD018582827047CD
:1057B0000A460021018840F28F33194011430180CD
:1057C0007047F0B50C4615461E4600210022002306
:1057D0000189028B038C4FF6F877394021434FF64D
:1057E000FC473A4040F201173A434FF6DD773B4021
:1057F0004FF6FF7707EA06172F433B4301810283E9
:105800000384F0BD0A460021018B4FF68F731940C7
:105810001143018370470A460021018B48F6FF734C
:1058200019404FF6FF7303EA0223194301837047BF
:105830000A460021818B4FF68F73194011438183F3
:1058400070470A460021818B48F6FF7319404FF6D6
:10585000FF7303EA022319438183704721B1028851
:1058600042F08002028004E0028840F27F331A4056
:105870000280704721B1828842F00402828004E0F5
:1058800082884FF6FB731A408280704721B182886C
:1058900042F00802828004E082884FF6F7731A40D3
:1058A0008280704721B1828842F00102828004E048
:1058B00082884FF6FE731A40828070470A460021A4
:1058C000018B4FF6F77319401143018370470A4665
:1058D0000021018B4FF2FF7319404FF6FF7303EA6B
:1058E00002231943018370470A460021818B4FF63A
:1058F000F77319401143818370470A460021818B59
:105900004FF2FF7319404FF6FF7303EA0223194366
:10591000818370470A460021018B4FF6FB731940C3
:105920001143018370470A460021018B4FF6FF3374
:1059300019404FF6FF7303EA0223194301837047AE
:105940000A460021818B4FF6FB7319401143818376
:1059500070470A460021818B4FF6FF3319404FF6FE
:10596000FF7303EA02231943818370470A4600212B
:10597000018B4FF67F7319401143018370470A462C
:105980000021018BC1F30E014FF6FF7303EA0223DE
:105990001943018370470A460021818B4FF67F73BC
:1059A00019401143818370470A460021818BC1F35E
:1059B0000E014FF6FF7303EA0223194381837047F8
:1059C0000A460021018C4FF6FD73194011430184F2
:1059D00070470A460021018C4FF6F77319401143B6
:1059E000018470470A460021018C4FF6DF7319408D
:1059F0004FF6FF7303EA02131943018470470A4606
:105A00000021018C4FF67F7319404FF6FF7303EAB4
:105A100002131943018470470A460021018C4FF696
:105A2000FF5319404FF6FF7303EA02231943018421
:105A300070470A460021018C4FF2FF7319404FF660
:105A4000FF7303EA02231943018470470A460021C9
:105A5000018C4DF6FF7319404FF6FF7303EA0233D2
:105A600019430184704710B5038C01248C40A34373
:105A70000384038C02FA01F4A4B22343038410BD0F
:105A800010B5038C04248C40A3430384038C02FAD6
:105A900001F4A4B22343038410BD30B5038C012468
:105AA0008C40A343038409B1082918D100F11803DD
:105AB00003EB61031B684FF68F74234000F1180459
:105AC00004EB6104236000F1180303EB61031B681E
:105AD000134300F1180404EB610423601FE00B1F63
