:020000040800F2
:1000000020140020C10100085D2D0008F120000827
:10001000F9270008810A0008593D00080000000087
:10002000000000000000000000000000F5330008A0
:10003000590B0008000000002D320008313800087C
:10004000DB010008DB010008DB010008DB01000820
:10005000DB010008DB010008DB010008DB01000810
:10006000DB010008DB010008DB010008DB01000800
:10007000DB010008DB010008DB010008DB010008F0
:10008000DB010008DB010008DB010008DB010008E0
:10009000DB010008DB010008DB010008DB010008D0
:1000A000DB010008DB010008DB010008DB010008C0
:1000B000DB010008F53A0008DB010008DB0100085D
:1000C000DB010008DB010008DB010008DB010008A0
:1000D000DB010008DB010008DB010008693C0008C7
:1000E0006D0B0008DB010008DB010008DB010008E4
:1000F000DB010008DB010008DB010008DB01000870
:10010000DB010008DB010008DB010008DB0100085F
:10011000DB010008DB010008DB010008DB0100084F
:10012000DB010008DB010008BD0A0008DB01000854
:10013000DB010008DB010008DB010008DB0100082F
:10014000DB010008DB010008DB010008DB0100081F
:10015000DB010008DB010008D90A0008293D00087E
:10016000DB010008DB010008DB010008DB010008FF
:10017000DB010008DB010008DB01000800000000D3
:10018000DB010008DB010008DB010008DB010008DF
:10019000DB010008DB010008DB01000800000000B3
:1001A000DB010008DB010008DB010008DFF80CD0F0
:1001B00000F0C2FB00480047117000082014002026
:1001C0000648804706480047FEE7FEE7FEE7FEE7F1
:1001D000FEE7FEE7FEE7FEE7FEE7FEE77138000810
:1001E000AD01000840EA01039B0703D009E008C9FC
:1001F000121F08C0042AFAD203E011F8013B00F8EC
:10020000013B521EF9D27047D2B201E000F8012B37
:10021000491EFBD270470022F6E710B513460A4686
:1002200004461946FFF7F0FF204610BD421C10F8A7
:10023000011B0029FBD1801A7047034611F8012BDE
:1002400000F8012B002AF9D11846704770B5064610
:1002500003F0A8FD046805460A220021304600F09C
:1002600087FA2C6070BD2DE9FE4F804681EA0300BD
:10027000C00F0C46009021F0004123F00045B8EB80
:100280000200A94105D24046214690461C460B4635
:10029000024623F00040104347D0270DC7F30A0061
:1002A000C3F30A510290401A019040286BDAC3F35D
:1002B000130040F4801B0098924620B10023D2EB3B
:1002C000030A63EB0B0B01985946C0F140025046FC
:1002D00000F01DFA06460D4650465946019A00F0B8
:1002E00035FA10EB08006141002487EA115284EAD4
:1002F000E7731A4340D0009A62B3019A012A4FEA89
:10030000075215DC001B61EB02014FF0004202EACC
:100310000752CDE90042001C41F5801132462B46C0
:1003200000F0A4FA03B0BDE8F08F40462146F9E79B
:10033000001B61EB0201001C41F5801300185B41BA
:100340002018A2F5001747EB030140EAD570B61953
:100350006D4111E06D084FEA360645EAC0754FEA77
:100360000752001B61EB0201001C41F58011490896
:100370004FEA30000019514132462B4603B0BDE828
:10038000F04F00F064BA0098012240000023D0EB47
:10039000020263EBE073009821464FEAE074B8EB89
:1003A000000061EB0401E9E783F000435BE781F0C3
:1003B000004158E72DE9FE4F81EA030404F00044B0
:1003C00021F0004100944FF0000B23F0004350EA6D
:1003D00001045ED052EA03045BD0C3F30A54C1F3B4
:1003E0000A552C44A4F2F3340194A0FB0254C1F347
:1003F000130141F48011C3F3130343F4801301FB91
:10040000024400FB034E840A970A44EA815447EAF7
:100410008357A4FB076802958D0A05FB07854FEA01
:10042000932C04FB0C542705029D4FEA065847EA1B
:100430001637B5EB08056EEB070C870E920E47EAF0
:10044000811742EA8312A7FB0201B6EB0B0164EBB2
:1004500000042B0D43EA0C335E1844EB1C50DA46C3
:100460005146E7FB0201C5F313044FEA0B3343EA9D
:1004700014534FEA0432019C43EA0603A4F10C042E
:100480000294009CCDE900B400F0F0F903B0BDE89F
:10049000F08F00200146F9E72DE9F04D81EA0304D1
:1004A00004F0004B21F0004514464FF0000A23F001
:1004B000004150EA050220D054EA01021DD0C5F3E4
:1004C0000A570246C5F31303C1F31300C1F30A56DA
:1004D00040F4801543F48013A7EB0608101BD646A2
:1004E00008F2FD3873EB050002D308F1010801E0C2
:1004F00092185B41B8F1000F03DA00200146BDE815
:10050000F08D00204FF48011064684460EE0171B44
:1005100073EB050705D3121B63EB050306434CEA97
:10052000010C49084FEA300092185B4150EA01077C
:10053000EDD152EA030012D082EA040083EA0501F9
:10054000084305D0101BAB4106D20122002306E070
:1005500000224FF0004302E06FF0010253101AEB4B
:1005600006004CEB085110EB0A0041EB0B01BDE813
:10057000F04D00F06CB90EB540F23341029100210C
:10058000CDE900110A460B4600F070F903B000BD3A
:10059000C1F30A5210B5C1F3130140F2FF3341F425
:1005A00080119A4201DA002010BD40F233439A4292
:1005B000A2F2334203DC524200F0B8F810BD904082
:1005C00010BD00F0004230F000400AD0C10D01F52E
:1005D0006071C0F3160042EA0151C208400711439E
:1005E000704700200146704730B5041E71F10004C9
:1005F00004DB4FF00044404264EB0101141E73F130
:10060000000405DB1C464FF00043524263EB040339
:100610008B4208BF824230BD30B5041E71F1000428
:1006200004DB4FF00044404264EB0101141E73F1FF
:10063000000405DB1C464FF00043524263EB040309
:10064000994208BF904230BD01F0004330B421F020
:10065000004150EA010206D00A0DA2F56072C1F312
:100660001301002A02DC30BC00207047440F44EA2A
:10067000C104C100E01830BC00EBC25000F0B0B8BB
:1006800030B50B46014600202022012409E021FA62
:1006900002F59D4205D303FA02F5491B04FA02F55F
:1006A0002844151EA2F10102F1DC30BD2DE9F05FF6
:1006B0000546002092469B468846064681464024D1
:1006C0001BE0284641464746224600F02FF8534695
:1006D0005A46C01A914110D311461846224600F0DE
:1006E00016F82D1A67EB01084F462246012000211B
:1006F00000F00DF817EB00094E41201EA4F1010493
:10070000DFDC484631462A464346BDE8F09F202AB2
:1007100004DB203A00FA02F1002070479140C2F158
:10072000200320FA03F3194390407047202A04DB8A
:10073000203A21FA02F00021704721FA02F3D0405A
:10074000C2F120029140084319467047202A06DB77
:10075000CB17203A41FA02F043EAE07306E041FA8F
:1007600002F3D040C2F1200291400843194670477D
:100770002DE9F04791460F4680460446002614F8BE
:10078000015B2DB100F0EAF80068405DC007F6D1CA
:100790002B2D02D02D2D18D0641E4A4639462046F6
:1007A00000F0E0F827B13968A14201D1C7F8008014
:1007B00071054FF002040BD54042002803DD03F021
:1007C000F1FA0460A007BDE8F08746F48066E4E72C
:1007D0000028F8DA03F0E6FA04606FF00040F2E770
:1007E0000029A8BF7047401C490008BF20F0010045
:1007F000704710B4B0FA80FC00FA0CF050EA010423
:1008000004BF10BC704749B1CCF1200421FA04F4B4
:1008100011FA0CF118BF012121430843A3EB0C018D
:10082000CB1D4FEA00614FEA102042BF002010BCF0
:10083000704700EBC35010440029A4BF10BC7047A0
:10084000401C490008BF20F0010010BC704710B5E3
:10085000141E73F1000408DA401C41F100019218E3
:100860005B411A4301D120F0010010BD2DE9F04D8C
:1008700092469B4611B1B1FA81F202E0B0FA80F2E1
:1008800020329046FFF743FF04460F4640EA0A0035
:1008900041EA0B0153465A46084313D0114653EA26
:1008A000010019D0C8F140025046FFF73FFF05464E
:1008B0000E46504659464246FFF729FF084305D0E9
:1008C000012004E020463946BDE8F08D00200543B4
:1008D00046EAE0762C4337430A986305E40AA0EB26
:1008E00008000022FD0A44EA47540A3002D50020DD
:1008F0000146E9E7010510196941DDE908450019DC
:100900006941BDE8F04DA2E7C1F30A52C1F31301FA
:1009100040F2FF3341F480119A4202DA002001468E
:10092000704740F233439A42A2F2334202DC524211
:10093000FFF7FCBEFFF7EBBE064C074D06E0E06894
:1009400040F0010394E8070098471034AC42F6D316
:10095000FFF730FCA0950008C095000800487047DC
:100960009C9500082DE9F05F824600780027154627
:100970008B460AF10104B946302801D09DB113E03D
:1009800014F8010B0127782803D0582801D045B16D
:100990000AE00DB1102D07D10027102514F8010B26
:1009A00002E0082500E00A250026B0460EE005FB1F
:1009B000080005FB06F1012701EB10461FFA80F83D
:1009C000B6F5803F00D3B94614F8010B294600F074
:1009D00018F80028EBDABBF1000F05D00FB1641E48
:1009E00000E05446CBF80040B9F1000F06D003F008
:1009F000D9F902210160C81EBDE8F09F48EA06400F
:100A0000FAE73A2800D2303820F02002412A01D3F8
:100A1000A2F13700884201D34FF0FF307047000049
:100A20002DE9F04106460D4617461C463DB90E48D5
:100A30002246C168042004F027FABDE8F0810A4884
:100A4000C66045808780C4800020074908814881AE
:100A5000487001200870A2000846C168042004F014
:100A600013FA00BFE9E700004801002010B500209C
:100A700002490870AA2002F0AFFC10BD7C000020E3
:100A800000BFFEE770B502460C46FF25FF2309E0D4
:100A900012F8010B80EA05010648405C80EA030574
:100AA0000548435C201EA4F10104F1D143EA05206E
:100AB00070BD0000199300081994000810B5202299
:100AC0000221044804F073FE20220221014804F0B0
:100AD0008DFE10BD0064024010B52022072105489C
:100AE00004F084FE20B120220721024804F05FFEBA
:100AF00010BD00000064024070B505460C46012D93
:100B000004D0022D08D0032D12D10BE02246002183
:100B1000104807F060FE1BE0224601210D4807F057
:100B20005AFE15E0224602210A4807F054FE0FE063
:100B300022460021074807F04EFE224601210548C3
:100B400007F049FE22460221024807F044FE00BF9A
:100B500000BF70BD000800407047000010B502489B
:100B6000007802F049FC10BD7C00002010B54FF465
:100B7000005005F0E5FA38B14FF4005005F0DAFA0C
:100B800005F082FD0121C17010BD000070B5044662
:100B90000E460EB9012500E00025062C24D2DFE820
:100BA00004F02303090F151C2A4640211D4805F0B7
:100BB000A2FD35E02A4604211B4805F09CFD2FE0EC
:100BC0002A460821184805F096FD29E02A464FF4E8
:100BD0000071144805F08FFD22E02A464FF40061B1
:100BE000104805F088FD1BE02A4640210D4805F01D
:100BF00082FD2A4604210C4805F07DFD2A46082185
:100C0000094805F078FD2A464FF40071054805F0C3
:100C100072FD2A464FF40061024805F06CFD00BFEA
:100C200000BF70BD001002400000024010B5044635
:100C30000248204405F02EFB10BD0000000004080F
:100C400010B500F04BFE90ED020A10EE104A20465F
:100C5000FFF7B7FC0D4A03C20023012264211220D2
:100C600007F0ACFA094890ED000B07F0E3F80849EB
:100C70000860012300221146122007F09FFA044861
:100C800001680220FFF738FF10BD0000A800002017
:100C90008C00002010B52DED0A8B00F01FFE90EDAA
:100CA000040BB0EE408AF0EE608A9FEDBF0B53EC70
:100CB000102B51EC180BFFF797FC31D80020BC49E2
:100CC0000870012300221146112007F077FA042052
:100CD000012806D002280AD003280ED0042818D1F3
:100CE00011E09FEDB40AB44880ED000A17E09FEDD3
:100CF000B10AB14880ED000A11E09FEDB00AAE489C
:100D000080ED000A0BE09FEDAE0AAB4880ED000AD3
:100D100005E09FEDAC0AA84880ED000A00BF32E173
:100D20000023012241F28831112007F047FA1120F7
:100D300001F036F901287CD100F0D0FD90ED040BD4
:100D4000B0EE408AF0EE608A9FED9F0B53EC102BC3
:100D500051EC180BFFF748FC05D89FED960A964812
:100D600080ED000AD9E000F0B9FD90ED040BB0EE83
:100D7000408AF0EE608A9FED960B53EC102B51ECFD
:100D8000180BFFF731FC3CD800F0A8FD90ED040BE8
:100D9000B0EE40CAF0EE60CA9FED8B0B53EC102B07
:100DA00051EC1C0BFFF700FB41EC1B0B9FED8A0B7A
:100DB00053EC102BFFF7FEFA41EC1A0B9FED880B5A
:100DC00053EC102BFFF74FFA41EC190B9FED860BFC
:100DD00053EC102BFFF7E8FA41EC180BFFF734FC4B
:100DE00075490860084690ED000ADFED720AB4EE1E
:100DF000E00AF1EE10FA03D29FED6E0A80ED000AD0
:100E00008BE000F06BFD90ED040BB0EE408AF0EE4D
:100E1000608A9FED770B53EC102B51EC180BFFF70A
:100E2000E3FB3ED800F05AFD90ED040BB0EE40CA53
:100E300000E079E0F0EE60CA9FED650B53EC102BFB
:100E400051EC1C0BFFF7B0FA41EC1B0B9FED6A0B4A
:100E500053EC102BFFF7AEFA41EC1A0B9FED680B29
:100E600053EC102BFFF7FFF941EC190B9FED660BCC
:100E700053EC102BFFF798FA41EC180BFFF7E4FB4B
:100E80004D490860084690ED000ADFED4C0AB4EECB
:100E9000E00AF1EE10FA40D29FED480A80ED000A18
:100EA0003BE000F01BFD90ED040BB0EE40CAF0EE0D
:100EB00060CA9FED4F0B53EC102B51EC1C0BFFF74E
:100EC00073FA41EC1B0B9FED520B53EC102BFFF709
:100ED00071FA41EC1A0B9FED4A0B53EC102BFFF704
:100EE000C2F941EC190B9FED4C0B53EC102BFFF7A3
:100EF0005BFA41EC180BFFF7A7FB2F490860084687
:100F000090ED000ADFED2F0AB4EEE00AF1EE10FAE0
:100F100003DB9FED2C0A80ED000A0123002211461D
:100F2000112007F04BF92EE02148007858BB012032
:100F30001F4908700420012806D002280AD003287F
:100F40000ED0042818D111E09FED1A0A1A4880ED3E
:100F5000000A17E09FED170A174880ED000A11E01C
:100F60009FED160A144880ED000A0BE09FED140A6D
:100F7000114880ED000A05E09FED120A0E4880ED51
:100F8000000A00BF00BF0C4890ED000ABCEEC00A8A
:100F9000234880ED000A90ED000AB8EE400A06F002
:100FA0003DFFBDEC0A8B10BD0000000000000000FA
:100FB000A50000200000E143880000200000EB4372
:100FC00000001B4400007A440000000000000440C0
:100FD0000000000000000840000000000000594030
:100FE0000000000000407F40000000000000494079
:100FF0000000000000000C400000000000C0724033
:1010000000000000005084400000000000806640A6
:101010000000000000C082400000000000003E40D0
:101020008000002000487047700000200048704792
:101030006C00002010B52DED088BFFF7F3FF90ED4D
:10104000000AFFEE000AB4EE600AF1EE10FA4BD08F
:101050000120D749087008460078E0BBD5480068F1
:10106000FFF789FA41EC1B0B9FEDD30B53EC102BD0
:10107000FFF712FA41EC190BD14890ED070A10EE78
:10108000101A0846FFF79DFA41EC1A0B53EC192B86
:10109000FFF7E9F841EC180BFFF7D6FAC8494862A8
:1010A000C8480068FFF767FA41EC1B0B9FEDC60BC1
:1010B00053EC102BFFF7F0F941EC190BC04890ED01
:1010C000060A10EE101A0846FFF77BFA41EC1A0BDD
:1010D00053EC192B00E007E0FFF7C5F841EC180BC3
:1010E000FFF7B2FAB6490862B1480078012826D164
:1010F000B4480068401CB349086008460068FFF720
:101100003AFA41EC1B0B9FEDB00B53EC102BFFF7A1
:10111000C3F941EC190BAA4890ED060A10EE101A1B
:101120000846FFF74EFA41EC1A0B53EC192BFFF768
:101130009AF841EC180BFFF787FAA1490862FFF70C
:1011400071FF90ED000AFFEE000AB4EE600AF1EEC6
:1011500010FA7BD09E480068002879D1FFF766FF1F
:101160000068944908600120994908609FED990A38
:10117000994880ED000A8F480068FFF7FCF941ECC0
:101180001B0B9FED8D0B53EC102BFFF785F941ECFA
:10119000190B8B4890ED070A10EE101A0846FFF75E
:1011A00010FA41EC1A0B53EC192BFFF75CF841ECE9
:1011B000180BFFF749FA824948627E4890ED000A11
:1011C000B8EE400A8448D0ED000A60EE200A7D485F
:1011D00090ED000AB8EE400A80EE801A7E4880ED5D
:1011E000001A90ED000AF2EE040A80EE201A11EEC9
:1011F000104A2046FFF7E5F941EC180B704890EDD6
:10120000041BB0EE410AF0EE610A9FED741B53EC33
:10121000112B51EC100BFFF73FF941EC1A0B68480A
:1012200090ED041BB0EE410AF0EE610A53EC102B76
:1012300051EC1A0BFFF7BBF841EC190B53EC182BD0
:10124000FFF711F85E4AC2E904017BE07FE0FFE7A7
:10125000FFF7ECFE0068574908609FED5E0A5E48A4
:1012600080ED000A08460068FFF785F941EC1B0B8A
:101270009FED510B53EC102BFFF70EF941EC190BBE
:101280004F4890ED070A10EE101A0846FFF799F93B
:1012900041EC1A0B53EC192BFEF7E5FF41EC180B50
:1012A000FFF7D2F946494862424890ED000AB8EE8D
:1012B000400A4948D0ED000A60EE200A414890ED0E
:1012C000000AB8EE400A80EE801A434880ED001A0A
:1012D00090ED000AF2EE040A80EE201A11EE104A98
:1012E0002046FFF76EF941EC180B354890ED041BD2
:1012F000B0EE410AF0EE610A9FED381B53EC112B62
:1013000051EC100BFFF7C8F841EC1A0B2C4890ED8C
:10131000041BB0EE410AF0EE610A53EC102B51ECC5
:101320001A0BFFF744F841EC190B53EC182BFEF79E
:101330009AFF234AC2E90401FFF774FEBFEE000AD8
:1013400080ED000A00F0CAFE2649086018E000F0AF
:10135000C5FE24490968401AB0F5FA6F10D3002081
:1013600013490870FFF762FE002101600020154953
:101370000860104908609FED1C0B114880ED040BBC
:101380000F4890ED041BB0EE410AF0EE610A9FEDAC
:10139000161B53EC112B51EC100BFFF725F904D859
:1013A0009FED110B064880ED040BBDEC088B10BDC2
:1013B000500000204C00002000000000005084403D
:1013C0005801002024000020000000000094F1409B
:1013D00044000020C54EEC3F40000020000000000B
:1013E0000000244048000020000000000000000031
:1013F000004870479C0200200048704714020020FB
:101400002DE9F0438BB005460C4616461F46DDE934
:10141000129839480570447046608760C0F80C80A7
:101420004068072843D03448406808283FD03248F5
:10143000406816283BD030484068192837D02E48DD
:1014400040681A2833D02C4840681B282FD02A48DF
:10145000406834282BD028484068362827D02648B2
:101460004068382823D0244840683E281FD02248AE
:1014700040683F281BD020484068662817D01E4887
:101480004068402813D01C48406841280FD01A48B3
:10149000406842280BD018484068432807D01648B7
:1014A0004068442803D014484068452803D10020F0
:1014B0001149087502E001200F490875102C01D070
:1014C000062C05D1424649460B481A30FEF78AFEE3
:1014D0002C22094910316846FEF784FE06480FC8E1
:1014E00001F0DEF92022002103481A30FEF78CFEBD
:1014F0000BB0BDE8F08300001402002010B52DED04
:10150000028B84B000230122FA21072006F056FE48
:10151000072000F045FD01287ED1E9480078062823
:1015200015D2DFE800F003152739ABF50120E549B6
:101530000870002000900223032211460190012030
:10154000FFF75EFFDE480078401CDD490870A3E12C
:101550000120DC49087000200090022301220321B1
:1015600001901046FFF74CFFD5480078401CD44945
:10157000087091E10120D3490870002000900223F7
:101580000122032101901846FFF73AFFCC4800786A
:10159000401CCB4908707FE100F0A0F97830CA49BF
:1015A0000978C91E405C032810DB00F097F9683009
:1015B000C5490978C91E00EB81009FEDC40A80ED82
:1015C000000A00F08BF90C2180F8A810002410E02C
:1015D00000F084F9683000EB840090ED000AF7EE2B
:1015E000000AB4EE600AF1EE10FA00D009E0601CC7
:1015F000C4B2042CECDB00F071F9002180F8A810D3
:1016000000BF00F06BF96830AF490978C91E00EBE4
:10161000810090ED000A00E045E1F7EE000AB4EE2B
:10162000600AF1EE10FA16D0A7480078C01E042810
:1016300011DA0120A349087000200090A24901900E
:1016400008780978491CA04B197002234222032113
:10165000FFF7D6FE07E000209A4908709A48007804
:10166000401C9949087098480078062805DD042038
:10167000934908700320944908700DE100F02EF999
:1016800090F89800032842DC00F028F990F89C00BC
:10169000142805D000F022F990F8A200062853D1B2
:1016A00000F01CF990ED040BB0EE408AF0EE608A79
:1016B0009FED870B53EC102B51EC180BFEF7ACFF92
:1016C00042D2FFF795FE90F8230090BB00208DF8E2
:1016D0000C0001208DF80D007B480078062818DCEE
:1016E00079480078C01E042813DA01207549087073
:1016F000022003A9CDE90010734908780978491C34
:10170000714B1970022340220621FFF779FE88E011
:1017100088E000206B4908706F480078032809DAD8
:101720000420674908706C480078401C6A490870BA
:1017300006E009E00520624908700020664908704B
:101740000320614908706CE000F0C8F890F8A4002C
:1017500090B300F0C3F890ED040BB0EE408AF0EEC9
:10176000608A9FED5B0B53EC102B51EC180BFEF7CE
:1017700053FF2CD200208DF80C0001208DF80D00B5
:1017800051480078062818DC4F480078C01E04280D
:1017900013DA01204B490870022003A9CDE900109B
:1017A000494908780978491C474B1970022345229A
:1017B0000621FFF725FE34E009E0002041490870CA
:1017C00005203F49087003203F49087029E00020A8
:1017D0008DF80C008DF80D003B480078062817DCCA
:1017E00039480078C01E042812DA012035490870F3
:1017F000022003A9CDE90010334908780978491C73
:10180000314B1970022340220621FFF7F9FD08E051
:1018100000202C49087005202949087003202A4916
:10182000087039E000F05AF8783027490978C91E65
:10183000405C032809DC00F051F87830224A127825
:10184000D21E81180878401C08701F480078C01EFE
:10185000042811DA01201B490870002000901A4961
:10186000019008780978491C174B1970022343220C
:101870000321FFF7C5FD04E013480078401C12491E
:10188000087011480078062805DD03200E4908700D
:1018900000200B49087000BF00BF01230022114641
:1018A000072006F08BFC06480078042802D00020B0
:1018B000094908700348007804B0BDEC028B10BDE4
:1018C0002800002051000020290000200000000016
:1018D0000000000000000000520000200048704797
:1018E000580100200146002002E0491C421CD0B2F1
:1018F0000A78002AF9D1704770B52DED088B0023C6
:10190000012246210B2006F059FC0B2000F048FB79
:1019100001287CD1FE490870FE48808800EE100A3C
:10192000B8EE400AFC4880ED000A0068FEF749FE68
:1019300041EC1A0B53EC1A2B9FEDF80B51EC100BEA
:10194000FEF7AAFD41EC190BFEF77EFEF249086096
:10195000F448007838B908460068FEF732FEF24ACB
:10196000C2E9100134E0EC4890ED000AF3EE040AFD
:1019700080EE201A11EE105A2846FEF722FE41ECA6
:10198000190BE94890ED101BB0EE410AF0EE610A28
:101990009FEDE61B53EC112B51EC100BFEF77CFD79
:1019A00041EC1B0BE04890ED101BB0EE410AF0EE4D
:1019B000610A53EC102B51EC1B0BFEF7F8FC41ECC9
:1019C0001A0B53EC192BFEF74EFCD74AC2E9100153
:1019D0009FEDD80BD44880ED100B00BF0122802171
:1019E000D64804F088FE00BF00BF00220221D44880
:1019F00004F081FE00BF00BF01222021D14804F085
:101A00007AFE00BF00BF00221021CE4800E0AEE207
:101A100004F071FE00BF072003F0FCFC042003F07B
:101A200077F8BC494881072003F0F4FC062003F056
:101A30006FF8B8494880072003F0ECFC0E2003F053
:101A400067F8B44908800846008800EE100AB8EE2E
:101A5000400AB14880ED000AB248007890B90846C3
:101A6000408900EE100AB8EE400AB74880ED000A3F
:101A70000846408800EE100AB8EE400AB34880EDF0
:101A8000000A30E0B14890ED000AB3EE041AC0EE4F
:101A9000010A90ED000A70EE600A9E484088142109
:101AA00090FBF1F000EE100AB8EEC00A30EE800AAA
:101AB000A64880ED000AA44890ED000AF3EE040A5F
:101AC00080EE201A90ED000A70EE410A914840899C
:101AD00090FBF1F000EE100AB8EEC00A30EE800A7A
:101AE000994880ED000A00BF00228021934804F04D
:101AF00002FE00BF00BF00220221914804F0FBFD5E
:101B000000BF00BF002220218E4804F0F4FD00BF7A
:101B100000BF002210218B4804F0EDFD00BF0A2019
:101B200003F078FC00BF00228021844804F0E3FD2C
:101B300000BF00BF01220221814804F0DCFD00BF8C
:101B400000BF002220217F4804F0D5FD00BF00BF68
:101B5000012210217B4804F0CEFD00BF072003F0D6
:101B600059FC00BF00228021744804F0C4FD00BF6E
:101B700000BF00220221724804F0BDFD00BF00BF7B
:101B8000002220216F4804F0B6FD00BF00BF0022F4
:101B900010216C4804F0AFFD00BF6D48008800EED6
:101BA000100AB8EE400A6848D0ED000AB4EEE00A28
:101BB000F1EE10FA09D86648008800EE100AB8EE77
:101BC000400A614880ED000A1EE06148B0F8C40098
:101BD00000EE100AB8EE400A5B48D0ED000AB4EE01
:101BE000E00AF1EE10FA0ADB5948B0F8C40000EE42
:101BF000100AB8EE400A544880ED000A04E052484A
:101C000090ED000A80ED000A002420E05049601C9D
:101C100031F8100000EE100AB8EE400A4A48D0ED44
:101C2000000AB4EEE00AF1EE10FA0FD8084630F8D8
:101C3000140000EE100AB8EE400A4348D0ED000A46
:101C4000B4EEE00AF1EE10FA00DD02E0641C622C52
:101C5000DCD300BF632C00D361243D48008800EE34
:101C6000100AB8EE400A3848D0ED000AB4EE600A17
:101C7000F1EE10FA00D10024354830F81410024675
:101C8000601C32F81000081A00EE100AB8EEC01AF4
:101C90001146601C31F8100000EE100AB8EE400A40
:101CA0002948D0ED000A30EEC00AC0EE010A2949E9
:101CB000601C31F8100031F81410401A00EE100AC0
:101CC000B8EEC01A234830F8140000EE100AB8EE3F
:101CD000400AB0EE408A01EE208A1E48B0F8C400E7
:101CE00000EE100AB8EE400AB4EEC80AF1EE10FA9F
:101CF00008D81848B0F8C40000EE100AB8EE400A40
:101D0000B0EE408AB5EEC08AF1EE10FA2CD823E08E
:101D100020000020080200202C000020000000000D
:101D20000032B3403C0000205801002000000000B9
:101D3000000034406666666666660A40000002403F
:101D40000004024000100240380000203000002053
:101D50005A910008209200088648008800EE100A78
:101D6000B8EE400AB0EE408A834890ED010ADFEDFC
:101D7000830A80EE201A90ED010A30EE410ADFED71
:101D80007F0A88EE201A30EE010A80ED010A7C48B5
:101D9000008800EE100AB8EE400A7A48D0ED000A3A
:101DA000B4EEE00AF1EE10FA09D87548008800EEAA
:101DB000100AB8EE400A744880ED000A1FE070482F
:101DC000B0F8C40000EE100AB8EE400A6D48D0ED3D
:101DD000000AB4EEE00AF1EE10FA0ADB6848B0F847
:101DE000C40000EE100AB8EE400A674880ED000A11
:101DF00005E0644890ED000A634880ED000A002485
:101E000020E05F49601C31F8100000EE100AB8EEC7
:101E1000400A5D48D0ED000AB4EEE00AF1EE10FA97
:101E20000FD8084630F8140000EE100AB8EE400A49
:101E30005548D0ED000AB4EEE00AF1EE10FA00DDEC
:101E400002E0641C622CDCD300BF632C00D361244D
:101E50004B48008800EE100AB8EE400A4A48D0ED20
:101E6000000AB4EE600AF1EE10FA00D100244448F2
:101E700030F814100246601C32F81000081A00EE08
:101E8000100AB8EEC01A1146601C31F8100000EEBE
:101E9000100AB8EE400A3C48D0ED000A30EEC00A05
:101EA000C0EE010A3349601C31F8100031F81410FB
:101EB000401A00EE100AB8EEC01A2E4830F814008E
:101EC00000EE100AB8EE400A01EE200AB0EE408A99
:101ED0002848B0F8C40000EE100AB8EE400AB4EE8C
:101EE000C80AF1EE10FA08D82248B0F8C40000EE93
:101EF000100AB8EE400AB0EE408AB5EEC08AF1EEA4
:101F000010FA07D81B48008800EE100AB8EE400A05
:101F1000B0EE408A184890ED020ADFED180A80EE14
:101F2000201A90ED020A30EE410ADFED140A88EE25
:101F3000201A30EE010A80ED020A90ED020ADFED70
:101F4000130AB4EEE00AF1EE10FA07DD90ED020A92
:101F5000DFED0A0A30EE600A80ED030A01200C4929
:101F600008700123002211460B2006F027F9BDEC72
:101F7000088B70BD20920008580100200000C84264
:101F80005A91000830000020340000200000164361
:101F90003C00002001460148405C7047800400205E
:101FA00001460148405C7047000500200146014899
:101FB000405C70478005002070B504460D46FEF772
:101FC00055FD052001F008FA7C2001F005FAE8B281
:101FD00001F002FAE0B201F0FFF9FEF7BFFD70BDBB
:101FE00000487047C802002010B52021364804F090
:101FF000C7FB012803D100203449087002E001200A
:10200000324908704FF40051314804F0B9FB58B917
:102010003048007800F002002E4908700846007829
:1020200040F00100087005E02A48007800F0FE004A
:10203000284908702021284804F0A2FB58B92548F7
:10204000007800F00100234908700846007840F04D
:102050000200087005E01F48007800F0FD001D49EF
:102060000870FFF73BFC90F89B0001280CD1194841
:102070000078022803D001201649087004E0FFF719
:102080002DFC0220134908701248007830B1012855
:1020900008D002280AD0032810D10BE002200B49F7
:1020A00048700FE00120094948700BE00020074903
:1020B000487007E003200549487003E00220034907
:1020C000487000BF00BF10BD000002405801002052
:1020D000001002402A000020000802400148006869
:1020E000704700000000002010B501F091FC10BD09
:1020F00000BFFEE710B54FF4406006F00BF840F665
:10210000014006F007F840F6024006F003F840F6FA
:10211000034005F0FFFF40F6044005F0FBFF40F6EA
:10212000074005F0F7FF0C21664804F0E0FA4FF491
:102130002461644804F0DBFA0C21634804F0D7FA08
:102140008021614804F0D3FA49F202015F4804F0AB
:10215000CEFA4FF4C8615E4804F0C9FA01221103B7
:10216000594804F0C8FA0C2300220121554804F014
:102170000FFB0C2300221146524804F030FB4FF4B1
:102180002463002201214F4804F002FB4FF4246332
:10219000002211464B4804F022FB0C2300220121AF
:1021A000494804F0F5FA0C2300221146464804F091
:1021B00016FB202300220121434804F0E9FA2023E2
:1021C00000221146404804F00AFB4FF484530022D9
:1021D00001213D4804F0DCFA4FF4845300221146FB
:1021E000394804F0FCFA4FF4845300221146394870
:1021F00004F0CEFA49F2020300220121334804F030
:10220000C7FA49F2020300221146304804F0E7FA07
:102210004FF40053002211462A4804F0B9FA202353
:1022200000221146284804F0B3FA4FF4005300226C
:102230001146244804F0ACFA202300221146254818
:1022400004F0A6FA4FF4C86300220121204804F0EC
:102250009FFA4FF4C863002211461D4804F0BFFAEC
:102260004FF4805300221146194804F091FA3023AC
:1022700000220121134804F08BFA3023002211467A
:10228000104804F0ACFA41F20E1005F043FF4FF491
:102290000053012200210D4804F07AFA00220221A5
:1022A000282005F03DFC0D21012005F0F9FF012259
:1022B0000021500303F0E0FE4FF4005003F03AFF1A
:1022C00010BD000000100240000002400004024067
:1022D000000C02400008024000B587B04FF488505F
:1022E00005F018FF4FF0807005F04AFF224806F015
:1022F000B3FAC720ADF800000020ADF80200ADF839
:10230000040043F67F6002900020ADF806008DF8CF
:102310000C006946184806F067FB0020ADF8140071
:102320000120ADF810000020ADF81600ADF8120045
:10233000ADF81800ADF81A0004AA03210E4806F003
:1023400027F9002203210C4806F045FA60220321F8
:10235000094806F013FA00220321074806F04EFA56
:102360000121054806F042FC034806F0C9F802487E
:1023700006F034FB07B000BD0000014000B587B097
:1023800041F2010005F0C6FE4FF0807005F0F8FE46
:102390001B4806F061FAC720ADF804000020ADF834
:1023A0000600ADF808004FF6FF7003900020ADF86E
:1023B0000A008DF8100001A9114806F015FB022053
:1023C000ADF814000120ADF816000020ADF818009B
:1023D0006420ADF81A0005AA0221094806F050FB56
:1023E000074806F08DF80821054806F0F0FB0821A3
:1023F000034806F0E8FB024806F0F0FA07B000BD1B
:102400000004004000B587B040F6014005F082FEB0
:102410004FF4807300220221514804F0B9F94FF4BF
:102420008073022200214E4804F0D9F94023002293
:1024300002214B4804F0ACF9402302220021484815
:1024400004F0CDF9802300220221454804F0A0F9D0
:10245000802302220021424804F0C1F94FF4807227
:1024600002213F4804F014F9402202213C4804F0C4
:102470000FF9802202213A4804F00AF941F20200E1
:1024800005F048FE4FF0807005F07AFE354806F002
:10249000E3F90020ADF80000ADF80200ADF804004B
:1024A0004FF6FF7002900020ADF806008DF80C008A
:1024B00069462C4806F098FA0020ADF81400012077
:1024C000ADF810000020ADF81600ADF81200ADF820
:1024D0001800ADF81A0004AA0021224806F058F8A6
:1024E00004AA01211F4806F053F804AA02211D483E
:1024F00006F04EF8002211461A4806F06CF96022E8
:102500000021184806F03AF900221146154806F055
:1025100075F900220121134806F05DF960220121BE
:10252000104806F02BF9002201210E4806F066F94A
:10253000002202210B4806F04EF9602202210948D0
:1025400006F01CF900220221064806F057F905485A
:1025500005F0D6FF034806F041FA07B000BD0000C1
:10256000000402400008004010B541F2140005F0DC
:10257000D1FD012207211A4804F08AF8022207211E
:10258000174804F085F801231A460221144804F084
:10259000FFF8012302220021114804F020F9022350
:1025A000012219460E4804F0F3F802231A460021CE
:1025B0000B4804F014F90B4806F0CCFC4FF4E13161
:1025C000084806F049FC0421064806F08BFD082166
:1025D000044806F08FFD034806F03AFD10BD0000E8
:1025E000000002400050004010B541F2041005F018
:1025F00091FD4FF4007207211C4804F049F84FF494
:1026000080620721194804F043F84FF40073012257
:102610000221164804F0BCF84FF400730222002196
:10262000124804F0DCF84FF48063012202210F48C5
:1026300004F0AEF84FF48063022200210B4804F04E
:10264000CEF80B4806F086FC4FF4E131084806F05E
:1026500003FC0421064806F045FD0821044806F065
:1026600049FD034806F0F4FC10BD000000000240E4
:102670000010014010B541F2120005F04BFD0C486E
:1026800006F068FC4FF41651094806F0E5FB0421FA
:10269000074806F027FD0821054806F02BFD0448F1
:1026A00006F0D6FC40F20531014806F0E5FC10BD0D
:1026B0000044004010B541F2120005F02BFD4FF42C
:1026C00080620721214803F0E3FF4FF400620721F5
:1026D0001E4803F0DDFF4FF48063012202211B48F6
:1026E00004F056F84FF4806302220021174804F0EA
:1026F00076F84FF4006301220221144804F048F8F0
:102700004FF4006302220021104804F068F81048DA
:1027100006F020FC4FF416510D4806F09DFB0421F5
:102720000B4806F0DFFC0821094806F0E3FC0848E6
:1027300006F08EFC00221146272005F0F1F940F248
:102740000531034806F098FC10BD0000000402406B
:102750000048004010B541F2051005F0DBFC4022B6
:102760000821234803F094FF80220821204803F029
:102770008FFF4023012202211D4804F009F8402365
:10278000022200211A4804F02AF8802301220221A3
:10279000174803F0FDFF802302220021144804F0B3
:1027A0001EF8144806F0D6FB4FF41651114806F0F7
:1027B00053FB04210F4806F095FC08210D4806F054
:1027C00099FC0C4806F044FC00221146472005F015
:1027D000A7F94FF44171074806F04EFC4021054827
:1027E00006F026FC8021034806F02AFC10BD0000FC
:1027F000000802400014014000BFFEE710B51D486C
:10280000C07B042819D1FEF7F7FD01210175FEF701
:10281000F3FD1849497C8175FEF7EEFD1549097CE9
:10282000C175FEF7E9FD1349C97C0176FEF7E4FDA9
:102830001049897C4176002414E00E48C07B0228B0
:102840000FD1FEF7D9FD00210175FEF7D5FD09492D
:10285000097C8175FEF7D0FD0649497CC1750224CB
:1028600000E00124FEF7C8FD0249497B01702046C3
:1028700010BD0000E802002010B5FEF7BDFD0249C2
:10288000497B0170012010BDE802002010B5FEF761
:10289000B3FD0249497B0170012010BDE802002010
:1028A0000FB470B500249DF8110003282CD19DF8B9
:1028B00010202046611CCCB25B490A549DF81120BF
:1028C0002046611CCCB258490A540598C0F307222F
:1028D0002046611CCCB254490A540598C2B2204625
:1028E000611CCCB250490A540698C0F30722204616
:1028F000611CCCB24C490A540698C2B22046611CF5
:10290000CCB249490A544DE09DF8240001282CD14D
:102910009DF810202046611CCCB243490A549DF812
:1029200011202046611CCCB23F490A540598C0F3DF
:1029300007222046611CCCB23B490A540598C2B21A
:102940002046611CCCB238490A540698C0F30722CD
:102950002046611CCCB234490A540698C2B22046C3
:10296000611CCCB230490A541CE09DF8102020466E
:10297000611CCCB22C490A549DF811202046611CE0
:10298000CCB229490A540598C0F307222046611C9D
:10299000CCB225490A540598C2B22046611CCCB27B
:1029A00021490A542546079800B31F4908190DF11B
:1029B0002A01079AFDF716FC07982844C5B2294654
:1029C0001948FEF75FF81949086008460088C0F307
:1029D00007222846691CCDB213490A5413480278CD
:1029E0002846691CCDB210490A5415E029460E4804
:1029F000FEF748F80D49086008460088C0F3072232
:102A00002846691CCDB208490A540848027828466D
:102A1000691CCDB204490A5400222946024800F03C
:102A200045FC70BC5DF814FB7D030020E80000202D
:102A30000FB470B500249DF8110003282CD19DF827
:102A400010202046611CCCB254490A549DF8112034
:102A50002046611CCCB251490A540598C0F30722A4
:102A60002046611CCCB24D490A540598C2B220469A
:102A7000611CCCB249490A540698C0F3072220468B
:102A8000611CCCB245490A540698C2B22046611C6A
:102A9000CCB242490A543EE09DF8240001281DD1E1
:102AA0009DF810202146601CC4B23C4842549DF859
:102AB00011202046611CCCB238490A540598C0F355
:102AC00007222046611CCCB234490A540598C2B290
:102AD0002046611CCCB231490A541CE09DF81020FC
:102AE0002046611CCCB22D490A549DF81120204685
:102AF000611CCCB229490A540598C0F3072220462C
:102B0000611CCCB225490A540598C2B22046611C0A
:102B1000CCB222490A542546079800B31F49081928
:102B20000DF12A01079AFDF75DFB07982844C5B20D
:102B300029461A48FDF7A6FF19490860084600888B
:102B4000C0F307222846691CCDB214490A54144820
:102B500002782846691CCDB210490A5415E029466E
:102B60000E48FDF78FFF0E49086008460088C0F345
:102B700007222846691CCDB208490A540848027841
:102B80002946681CC5B2054842540022294603481C
:102B900000F08CFB70BC5DF814FB00007D0300208E
:102BA000E800002038B500BF54480078401C534965
:102BB0000870534800780F280CDAFEF78FFE9C301F
:102BC0004F490A780978491C4D4B1970805C4D4972
:102BD000087002E000204A490870FEF77FFE90F876
:102BE0009C0038B94748007838B9454800780F2824
:102BF00003DAD9E70020424908701A2004F042FAAB
:102C00000446002503E000206055681CC5B21A2D5B
:102C1000F9DB0020394908703A4800780A2822D0A8
:102C200008DC092821D2DFE800F0200F1114202051
:102C3000162018000B2812D00C2812D00D2806D010
:102C4000142812D130A412E031A410E000BF33A444
:102C50000DE034A40BE036A409E039A407E03AA45F
:102C600005E03BA403E028A401E027A400BF00BFC7
:102C700024480078E8B32348007814280FD021486E
:102C8000007808280BD01F480078062807D01D4878
:102C90000078092803D01B480078042809D14FF494
:102CA000FC6343F619523B210320009400F00DFC15
:102CB00022E0144800780C2813D01248007803282A
:102CC0000FD01048007802280BD00E480078012859
:102CD00007D00C4800780D2803D00A4800780B284C
:102CE0000AD14FF4784343F619523B210320009454
:102CF00000E001E000F0E9FB38BD0000B600002074
:102D0000B5000020B4000020D5FDB3A300000000F2
:102D1000D4ADCBAE544453D2ECB3A300C8B1D1CEA2
:102D200000000000C1F7C1BFD2ECB3A30000000057
:102D3000D1CECBAECFE4D7A2CBAED6D00000000030
:102D4000C7E5CFB4D6D00000C8B1CBAE00000000BC
:102D5000CFB5CDB3B9CAD5CF000000007047000091
:102D600010B5002807DA0A07140E054A00F00F0311
:102D70001B1FD45403E00A07130E024A135410BD5C
:102D800018ED00E000E400E010B52DED108B0446D6
:102D9000B0EE409AF0EE609A94ED021BB0EE410A5C
:102DA000F0EE610A53EC192B51EC100BFDF7FCFA15
:102DB00041EC1B0BFDF748FC08EE100A94ED0A1BD2
:102DC000B0EE410AF0EE610A9FEDFE1B53EC112BB1
:102DD00051EC100BFDF708FC05D118EE100AFDF7B9
:102DE000F0FBC4E90A0184ED009B94ED021BB0EEF8
:102DF000410AF0EE610A9FEDF51B53EC112B51ECEB
:102E0000100BFDF730FA41EC1B0B53EC192BFDF7BF
:102E1000EBFB37D218EE100AFDF7D3FB41EC1C0B8D
:102E2000B0EE4C0AF0EE6C0A00F0C0FFB0EE40BA13
:102E3000F0EE60BA51EC1B0BFDF706FCE5490860AB
:102E4000084690ED000ADFEDE40AB4EEE00AF1EE88
:102E500010FA16DCB5EEC08AF1EE10FA11D218EEB7
:102E6000100AFDF7AEFB41EC1B0B94ED181BB0EE06
:102E7000410AF0EE610A53EC102BFDF7F4F9C4E9B6
:102E800018017EE094ED021BB0EE410AF0EE610AFB
:102E90009FEDCE1B53EC112B51EC100BFDF784FA78
:102EA00041EC1B0B53EC192BFDF7B6FB37D218EE98
:102EB000100AFDF786FB41EC1C0BB0EE4C0AF0EE5D
:102EC0006C0A00F073FFB0EE40BAF0EE60BA51EC5D
:102ED0001B0BFDF7B9FBBF490860084690ED000ADF
:102EE000DFEDBD0AB4EEE00AF1EE10FA49DCB5EE12
:102EF000C08AF1EE10FA44DD18EE100AFDF761FB0E
:102F000041EC1B0B94ED181BB0EE410AF0EE610A88
:102F100053EC102BFDF7A7F9C4E9180131E018EEC6
:102F2000100AFDF74EFB41EC1C0BB0EE4C0AF0EE24
:102F30006C0A00F03BFFB0EE40BAF0EE60BA51EC24
:102F40001B0BFDF781FBA3490860084690ED000AC2
:102F5000DFEDA10AB4EEE00AF1EE10FA11DC18EE92
:102F6000100AFDF72EFB41EC1B0B94ED181BB0EE85
:102F7000410AF0EE610A53EC102BFDF774F9C4E935
:102F80001801B5EEC08AF1EE10FA2ED218EE100A32
:102F9000FDF717FB41EC1B0B94ED0A1BB0EE410A49
:102FA000F0EE610A53EC102BFDF71EFB07D214F86C
:102FB000700F401C207000206070703C06E0703480
:102FC0006078401C6070002004F8700994F871006B
:102FD000FF2802DDFF2084F8710094F87000FF28BC
:102FE00008DDFF2084F8700004E0002084F8700001
:102FF00084F8710094ED162BB0EE420AF0EE620AEE
:1030000094ED0A2BB0EE421AF0EE621A53EC102B3C
:1030100051EC110BFDF7C8F941EC1A0B94ED0A0BBA
:1030200084ED160B18EE100AFDF7CBFAC4E90E0179
:1030300018EE100AFDF7C5FAC4E90A0194F8710008
:1030400003285FDB9FED650AB4EEC08AF1EE10FA4B
:1030500017D29FED630AB4EEC08AF1EE10FA10DBCE
:1030600094ED0C1BB0EE410AF0EE610A9FED5D1B82
:1030700053EC112B51EC100BFDF7F5F8C4E90C01E2
:103080008CE094ED081BB0EE410AF0EE610A53ECBF
:103090001A2B51EC100BFDF78DF941EC1B0B94ED45
:1030A000182BB0EE420AF0EE620A94ED062BB0EE59
:1030B000421AF0EE621A53EC102B51EC110BFDF793
:1030C00079F941EC1D0B18EE100AFDF77AFA41EC84
:1030D0001F0B94ED041BB0EE410AF0EE610A53ECB5
:1030E000102BFDF767F941EC1E0B53EC1D2BFDF780
:1030F000BAF841EC1C0B53EC1B2BFDF7B4F8C4E9F8
:103100000C014BE09FED340AB4EEC08AF1EE10FAE8
:1031100004DB9FED360B84ED0C0B3FE094ED081BB8
:10312000B0EE410AF0EE610A53EC1A2B51EC100B91
:10313000FDF740F941EC1B0B94ED182BB0EE420A61
:10314000F0EE620A94ED062BB0EE421AF0EE621A2F
:1031500053EC102B51EC110BFDF72CF941EC1D0B2E
:1031600018EE100AFDF72DFA41EC1F0B94ED041B2D
:10317000B0EE410AF0EE610A53EC102BFDF71AF99C
:1031800041EC1E0B53EC1D2BFDF76DF841EC1C0BB5
:1031900053EC1B2BFDF767F8C4E90C0194ED0C1BF5
:1031A000B0EE410AF0EE610A9FED121B53EC112BB9
:1031B00051EC100BFDF718FA03D89FED0E0B84EDC0
:1031C0000C0B1BE0000000000000000000000000ED
:1031D000000059400001002000009643000016C383
:1031E0000000C8C2000000000000244000000000F1
:1031F000E0FFEF40000000000088C34094ED0C1B8E
:10320000B0EE410AF0EE610A1FED081B53EC112BE2
:1032100051EC100BFDF700FA03D81FED0C0B84EDF9
:103220000C0B94ED0C0BBDEC108B10BD7047000027
:1032300000B589B002201A4981F8940081F8940001
:103240000221184802F042FA0020069014480D307E
:1032500002900020039080200790134800900120E6
:103260000190002004904FF4403008906A460221FB
:103270000C4802F0BDFB02210A4802F086F9052243
:103280000221084802F06EF910220221054802F0DE
:103290006FFA0221034802F055F909B000BD0000A1
:1032A000E802002000640240041401402DE9F041CE
:1032B00005460E46174627B94FF40071114803F032
:1032C00018FA642002F0A6F801200F4908730024C0
:1032D0000CE02046641C295C0C4805F036FE00BF5B
:1032E00007210A4805F0B9FE0028F9D0B442F0D908
:1032F000642002F08FF84FF40071024803F0F7F9F0
:10330000BDE8F081000C0240E802002000140140FA
:1033100070B501252D4890F89400022854D1002260
:1033200001022B4803F0E7F92848407B012847DBDE
:103330002648407B062843DC2448807B032807D0AE
:103340002248807B062803D02048807B102837D174
:103350001E48C07B401D1D49C1F890000846D0F8AA
:103360009000811E19480D30FDF78CFB194908604B
:103370001648D0F89000401E14490D310A5C1348DD
:10338000D0F89000801E085C42EA002411480068D2
:10339000A04215D10D48807B032804D0062806D012
:1033A00010280CD107E0FFF729FA054607E0FFF7E0
:1033B00063FA054603E0FFF769FA054600BF00BF60
:1033C0000020024981F89400284670BDE8020020E0
:1033D000000C0240E800002010B5044604480078C4
:1033E000204403490870204600F006F810BD000094
:1033F0007C0000207047000010B5044621460548B7
:1034000005F0A3FD00BF0721024805F026FE0028B5
:10341000F9D010BD0048004010B5044603E0207804
:10342000FFF7DAFF641C20780028F8D110BD10B532
:103430000446FDF71BFB0420FFF7CEFF4220FFF7F9
:10344000CBFFE0B2FFF7C8FFFDF788FB10BD2DE909
:10345000F04104460D4616463046FEF743FA07464D
:10346000FDF704FB791DC8B2FFF7B6FF6520FFF733
:10347000B3FFE8B2FFF7B0FFE0B2FFF7ADFF3046B1
:10348000FFF7CAFFFDF76AFBBDE8F0812DE9F041C7
:1034900004460D4616463046FEF724FA0746FDF769
:1034A000E5FA791DC8B2FFF797FF7420FFF794FF84
:1034B000E8B2FFF791FFE0B2FFF78EFF3046FFF76B
:1034C000ABFFFDF74BFBBDE8F0812DE9F047064669
:1034D0000F4614461D46DDF820804046FEF702FAEE
:1034E0008146FDF7C3FA09F10901C8B2FFF774FF7D
:1034F0007D20FFF771FFF8B2FFF76EFFF0B2FFF724
:103500006BFF280AFFF768FFE8B2FFF765FF200AA4
:10351000FFF762FFE0B2FFF75FFF4046FFF77CFF77
:10352000FDF71CFBBDE8F08710B50446FDF79EFAD9
:103530000420FFF751FF7020FFF74EFFE0B2FFF7C6
:103540004BFFFDF70BFB10BD70B504460D4616464C
:10355000FDF78CFA0620FFF73FFF6F20FFF73CFFD7
:10356000E8B2FFF739FFE0B2FFF736FFF0B2FFF73E
:1035700033FFFDF7F3FA70BD10B5FDF777FA0820B9
:10358000FFF72AFF4A20FFF727FF5220FFF724FF0B
:103590006520FFF721FF7320FFF71EFF6520FFF76F
:1035A0001BFF7420FFF718FFFDF7D8FA10BD0000CD
:1035B000012080F3138800BF00BFBFF34F8F07487F
:1035C000006800F4E06006490843001D03490860F4
:1035D000BFF34F8F00BF00BFFEE700000CED00E01F
:1035E0000000FA0510B589480078072871D2DFE895
:1035F00000F0040F3B648EB7E0000023012219465F
:1036000083480088FDF70CFA002082490870FAE030
:1036100080480078032807DB00207C4908707D493A
:1036200008707B4908801EE07B487A49097830F8A9
:10363000110077490988884210D077487549097880
:1036400030F8110072490880098801EB81014800B7
:103650006F490B8801220521FDF7E2F96D480078DA
:10366000401C6C490870CEE06A480078032807DBEC
:1036700000206649087067490870654908801BE0AA
:1036800066486449097830F8110061490988884220
:103690000DD062485F49097830F811005C49088014
:1036A00008460388012205210088FDF7B9F9594829
:1036B0000078401C57490870A5E056480078052856
:1036C00008DB0020514908705249087050490880B1
:1036D0001CE097E052484F49097830F811004C49F6
:1036E000098888420DD04E484A49097830F81100BF
:1036F0004749088008460388012205210088FDF714
:103700008FF944480078401C424908707BE04148EA
:103710000078072807DD00203C4908703D49087003
:103720003B4908801BE03F483A49097830F81100CE
:103730003749098888420DD03A483649097830F827
:1037400011003349088008460388012205210088BA
:10375000FDF766F92F480078401C2E49087052E0AA
:103760002C480078052807DB0020284908702949E3
:103770000870274908801BE02B482649097830F853
:1037800011002349098888420DD02748214909782A
:1037900030F811001E4908800846038801220521DF
:1037A0000088FDF73DF91B480078401C1949087056
:1037B00029E018480078052807DB00201349087025
:1037C00014490870124908801BE01848114909780B
:1037D00030F811000E49098888420DD013480D4970
:1037E000097830F811000A49088008460388012248
:1037F00005210088FDF714F906480078401C0549AA
:10380000087000E000BF00BF10BD000014000020E1
:1038100016000020150000202291000828910008C1
:103820002E91000838910008469100085091000838
:1038300010B500F06BF90D480068401C0B4908609A
:10384000084600683221B0FBF1F201FB120008B912
:10385000FDF7F0FB05480068C821B0FBF1F201FB61
:10386000120008B9FFF7BEFE10BD000000000020E6
:1038700008B52948006840F47000274908602748C7
:10388000006840F0010025490860244808300068BD
:1038900040F080002149083108600020009002E0DB
:1038A0000098401C00904CF2503100988842F7D3A9
:1038B0001A480830006840F0900018490831086044
:1038C0000020009002E00098401C00904CF2503123
:1038D00000988842F7D3002010490831086000BFE3
:1038E0000E480830006800200028F9D10B48006815
:1038F0000B490840094908600A48091D0860081F6B
:10390000006820F48020091F0860002003490C3162
:10391000086004F099FD08BD88ED00E00038024021
:10392000FFFFF6FE1030002438B50024012269465E
:10393000204601F08FFA00985A2802D000985B28A0
:1039400014D1241DFDF7CAFF00F11C0501222946F0
:10395000204601F07FFA241DFDF7C0FF00F1180595
:1039600001222946204601F075FA01E000F002F834
:1039700038BD000030B52DED048B81B00020FDF77F
:1039800055F900245A20009001226946204601F092
:1039900005FB241DFDF7A2FF00F1240501222946A5
:1039A000204601F0FBFA241DFDF798FF90ED080A70
:1039B000F2EE040A20EE200ABCEEC00A114880EDA7
:1039C000000A0068FCF7D7FD41EC190B9FED0E0BC8
:1039D00053EC102BFCF760FD41EC180BFCF734FEA8
:1039E0000546FDF77BFF0562FDF778FF00F1200536
:1039F00001222946204601F0D1FA01B0BDEC048B2A
:103A000030BD00009C0000200000000000002440A9
:103A100010B508212E4805F0DDF8012856D10821FF
:103A20002B4805F0D4F82B48007878B902212848B3
:103A300004F06BFD401C2849086028480068401CC1
:103A4000264908600120234908703FE0214800789A
:103A500001283BD12249087000201E49087002212C
:103A60001B4804F052FD401C1E49086008460068CF
:103A700019490968884207D91A480068164909682F
:103A8000401A1949086009E0134800684FF6FF71B1
:103A9000081A144909680844134908601248006864
:103AA00060B1114800681149B1FBF0F000EE100A56
:103AB000B8EE400A0E4880ED000A04E0BFEE000AAE
:103AC0000B4880ED000A00200249087010BD00007C
:103AD0000004004074000020600000206C00002002
:103AE00075000020680000206400002040420F00A4
:103AF0007000002010B5FEF7F7FA03480068401C7C
:103B00000149086010BD00000800002000B5002138
:103B100016E00D48405C012810D1FEF7DFFA0A4A92
:103B20009C3252F82120821A07481C3050F821009C
:103B3000824203D30122044880304254481CC1B25F
:103B40001929E6DB00BD00008004002070B50646A0
:103B50000C4615463046FEF729FA012811D03046AA
:103B6000FEF718FA01280CD1012300221146304635
:103B700004F024FB002301222946304604F01EFBFA
:103B800014E03046FEF706FA20B13046FEF70EFA92
:103B900002280BD1012300221146304604F00EFB0F
:103BA000002301222946304604F008FB3046FEF788
:103BB000F7F901280CD13046FEF7F8F9012807D1B2
:103BC000012300221146304604F0F8FA204670BD69
:103BD0000020FCE770B506460C4615463046FEF759
:103BE000E5F9012816D13046FEF7DAF9012811D19E
:103BF000012300221146304604F0E0FA002302229D
:103C00002946304604F0DAFA3046FEF7CFF9B0B96B
:103C1000204670BD3046FEF7BDF920B13046FEF7B4
:103C2000C5F901280BD1012300221146304604F0CA
:103C3000C5FA002302222946304604F0BFFA304676
:103C4000FEF7AEF901280CD13046FEF7AFF9022895
:103C500007D1012300221146304604F0AFFA204676
:103C6000D7E7FF20D5E7000010B52849284805F020
:103C70001DFA002848D02549254805F00AFA2448AD
:103C800005F05EF9234908702348C07890B90846CA
:103C90000078AA2804D10020204908702049088013
:103CA0001C4801781D4802780078401C1B4B187096
:103CB0001C48815419480078202802DB002017494D
:103CC000087018480078AA2810D116488078622811
:103CD00007D0144880787C2803D0124880787B284D
:103CE00004D110484078401C0D4908800B480078EA
:103CF0000B490988884207D101200749C87003F0A1
:103D000047F800200449C87010BD000005030500F5
:103D1000004800400D000020D00000200C000020D2
:103D20000E0000202801002010B50849084805F0C1
:103D3000BDF950B10549064805F0ABF9044805F056
:103D4000FFF804490870FFF773FA10BD040304007C
:103D5000001401400400002000BFFEE70FB4054B33
:103D600010B503A9044A029800F0FCF810BC5DF8F5
:103D700014FB000045660008100100200FB4084B3A
:103D800010B504A902AA039800F0ECF8044602A9B1
:103D9000002000F07EFC204610BC5DF814FB000003
:103DA0009346000800487047240100202DED020BC7
:103DB000019820F0004001909DED000B02B070478B
:103DC00002E008C8121F08C1002AFAD170477047E4
:103DD000002001E001C1121F002AFBD17047000042
:103DE0002DE9FF5F82B00021DDE90430020DDDF82E
:103DF00040B0034318D044F61050A2F2FF324243C1
:103E00001514119801281FD0A5EB0B00401C5FEA88
:103E1000000A4FF000064E4FDFF83891B04650468A
:103E200015D5CAF1000413E0119801244AA3012812
:103E300001D16FEA0B010298119AC0E90031C0E983
:103E4000024206B0BDE8F09FCBF10000DFE7044678
:103E50000021404A491842EB0450CDE9001012E01D
:103E6000E00707D032463B4640464946FCF7A2FAF7
:103E70008046894632463B4610461946FCF79AFA78
:103E800006460F466410002CEAD1DDE90401DDE9A5
:103E90000023BAF1000F06DAFCF78CFA42464B46D3
:103EA000FCF788FA05E0FCF7F7FA42464B46FCF7C8
:103EB000F3FA04460E460022284BFCF7ADFB03D86C
:103EC0004FF0FF30014607E00022254B20463146E7
:103ED000FCF7C9F9FCF718FD102409E0002C0ADBF7
:103EE0000A220023FCF7E2FB039B30321A55641EC2
:103EF00050EA0102F2D1641C039AC4F11103144484
:103F0000119A012A03D0012208430DD10AE0084387
:103F100004D000204FF0110B119072E7A3EB0B05BA
:103F20006D1E0DE05B4504DD4FF0000205F101055B
:103F300004E003DA4FF00002A5F10105002AECD0FD
:103F400002981199C0E90231C0E9004579E7000003
:103F5000000014400000F03F300000000000F0437B
:103F60000000E03F2DE9FF4F95B09B46894606468D
:103F700000250FE2252877D100242746F84A0121A1
:103F8000059400E0044316F8013F203B01FA03F0DA
:103F90001042F7D130782A2811D06FF02F033078F3
:103FA000A0F13002092A16D8059A44F0020402EB67
:103FB000820203EB42021044761C0590EFE759F8A9
:103FC000042B0592002A03DA504244F40054059071
:103FD00044F00204761C30782E2816D116F8010F12
:103FE00044F004042A280DD06FF02F023078A0F19D
:103FF0003003092B09D807EB870302EB4303C718EB
:10400000761CF3E759F8047B761C30786C280FD0C7
:1040100006DC4C2817D068280DD06A2814D104E09B
:10402000742810D07A280FD10DE044F400140AE06F
:1040300044F4801401E044F440147278824202D1C6
:1040400004F58014761C761C307866280BD013DCBF
:10405000582877D009DC002875D04528F6D04628A6
:10406000F4D047281AD19DE118E0632835D06428A0
:1040700079D0652812D195E1702873D008DC6728C3
:10408000F1D069286FD06E280DD06F2806D1B5E029
:1040900073282CD0752875D0782874D05A46179973
:1040A00090476D1C75E1C4F30250022809D0032823
:1040B0000DD0D9F8001004280DD00D6009F10409C5
:1040C00067E1D9F80010EA17C1E90052F6E7D9F81C
:1040D00000100D80F2E70D70F0E719F8041B8DF861
:1040E000001000208DF80100EA46012003E059F895
:1040F00004AB4FF0FF3061074FF0000102D40DE038
:1041000008F101018846B9420FDA8045F8DB1AF858
:1041100008100029F4D108E008F101018846814225
:10412000FADB1AF808100029F6D105985B46A0EBD7
:10413000080721463846179A00F094FA284400EB05
:10414000080507E04DE029E10DE01AF8010B5A4699
:1041500017999047B8F10108F7D25B4621463846D7
:10416000179A13E142E00A220092C4F302524FF080
:10417000000A022A08D059F804CB032A4FEAEC714E
:104180000AD00DE029E02AE009F1070121F0070239
:10419000F2E802C1914609E00FFA8CFC4FEAEC719B
:1041A000042A03D14FFA8CFC4FEAEC71002907DA9C
:1041B0000A460021DCF1000C61EB02012D2202E035
:1041C000220504D52B228DF80420012203E0E2070A
:1041D00001D02022F7E7904659E00A2102E01022A0
:1041E0000DE010214FF0000A00910BE010224FF07B
:1041F000000A44F004040827009203E008224FF06C
:10420000000A0092C4F30252022A05D059F804CBE6
:104210000021032A08D009E009F1070121F0070273
:10422000F2E802C1914605E01FFA8CFC042A01D194
:104230000CF0FF0C4FF00008220728D5702806D09C
:10424000009B83F0100353EA0A0305D00EE04022DE
:104250008DF80420012208E05CEA010206D0302239
:104260008DF804208DF8050002229046009B83F013
:10427000080353EA0A030AD15CEA010201D162078A
:1042800005D530228DF804204FF001087F1E5828F4
:1042900004D034A003900EA802900DE036A0F9E7F8
:1042A00053466046009AFCF701FA84460398825C04
:1042B0000298401E029002705CEA0100F0D1029860
:1042C00006A9081A00F1200A600702D524F48034F8
:1042D00000E00127574502DDA7EB0A0000E00020BF
:1042E00000EB0A01009005984144401A0590E00354
:1042F00006D45B462146179A059800F0B3F90544A9
:10430000002706E001A85A46C05D179990476D1C2A
:104310007F1C4745F6DBE0030CD55B462146179A28
:10432000059800F09FF9054404E030205A4617999B
:1043300090476D1C0099481E00900029F5DC08E0AC
:10434000029802995A460078491C029117999047A1
:104350006D1CBAF10001AAF1010AF1DC65E100006F
:10436000092801003031323334353637383961624B
:10437000636465660000000030313233343536370F
:1043800038394142434445460000000000F058F9E6
:104390000544761C307800287FF4ECAD19B028462F
:1043A000BDE8F08F620700D4062709F1070222F06A
:1043B000070CFCE80223E14603F000485FEA080C22
:1043C00002D00FF2702C0DE05FEA045C02D50FF210
:1043D000682C07E05FEAC47C02D00FF2602C01E099
:1043E000AFF2700C4FF0FF3823F00043CDF850C00F
:1043F00065280CD006DC452809D046281DD0472862
:104400003DD13DE0662818D067287ED138E00021F4
:10441000112F01DB112000E0781CCDE9000106A975
:104420000EA8FFF7DDFCDDE90F010E9A03910021D4
:10443000009207F1010A04914DE04FF0004000970F
:10444000CDE9011006A90EA8FFF7CAFCDDE90F02AD
:1044500003920E9B11990022DDF80CA000930492A8
:1044600011B9791C00EB010AB7EB0A0004D4C0F1C2
:10447000FF3007F1010A0490AAEB0700019044E025
:10448000012F00DA01270021112F01DD112000E0AA
:104490003846CDE9000106A90EA8FFF7A1FCDDE929
:1044A0000F010E9A0391002104910092BA46210750
:1044B0000CD40399514500DA8A46BAF1010F05DDA3
:1044C000009AAAF10101515C302908D0B84202DA01
:1044D00010F1040F06DA0121CDE9011015E0AAF16F
:1044E0000101E9E7002805DC049901440491AAEBE5
:1044F000000102E0411C514500DD8A460499401A42
:10450000401C01904FF000400290200704D4019815
:10451000504501DBCDF8048000208DF84F00029853
:104520000DF14F07B0F1004F25D02B200E900298CF
:104530004FF0020800280CDA404202902D200E9025
:1045400007E00A210298FCF79BF83031029007F847
:10455000011DB8F10001A8F10108F2DC0298002861
:10456000EFD1791E0E980870307800F0200040F0EE
:10457000450007F8020D12A8C01B00F107081498A7
:10458000007800B1012000EB0A01019801EBE07115
:1045900005984144401A401E0590E00306D45B464E
:1045A0002146179A059800F05DF8054414980078A4
:1045B00018B15A46179990476D1CE00324D55B4605
:1045C0002146179A059800F04DF805441CE0049820
:1045D000002807DBDDE90301884203DD0098405C29
:1045E000179901E0179930205A469047049805F131
:1045F0000105401C04900198401E019004D12E201A
:104600005A46179990476D1CBAF10001AAF1010AA8
:10461000DDDC05E017F8010B5A46179990476D1C31
:10462000B8F10001A8F10108F4DC5B462146179AB5
:104630000598ABE62D0000002B00000020000000D4
:104640002DE9F041044600251E461746880404D48F
:1046500005E039462020B0476D1C641EF9D5284678
:10466000BDE8F0812DE9F041044600251E46904644
:10467000C80301D5302700E02027880404D505E0D1
:1046800041463846B0476D1C641EF9D52846BDE842
:10469000F0810A68531C0B601070704710B52DED47
:1046A000028BEC48407830B90023012243F6982170
:1046B000062003F083FD0620FDF772FC012807D1D8
:1046C000E4494870012300221146062003F076FDDC
:1046D000FDF704F990ED040BB0EE408AF0EE608A2D
:1046E0009FEDDD0B53EC102B51EC180BFBF794FFF7
:1046F00010D9FDF7F3F890ED040BB0EE408AF0EE20
:10470000608A9FEDD70B53EC102B51EC180BFBF785
:104710006BFF1CD8FDF7E2F890F8A10080B9FCF718
:1047200067FE90F8230058B947F23052012100206B
:10473000FFF70CFACC4909780843CB49087011E01F
:10474000C948007800F0FE00C74908700AE04FF43D
:104750007A72FE210020FFF73DFAC349097808402C
:10476000C1490870FDF7BAF890ED010ADFEDBF0A04
:10477000B4EEE00AF1EE10FA08DAFDF7AFF890EDCA
:10478000010AB5EEC00AF1EE10FA0BD847F230522A
:1047900040210E20FFF7DAF9B34909780843B249FE
:1047A00008700AE041F28832BF210E20FFF712FAAA
:1047B000AD4909780840AC490870AD4800689628B2
:1047C00002D29620AA490860FDF788F890ED020A07
:1047D000DFEDA80AB4EEE00AF1EE10FA0FD9FDF70A
:1047E0007DF8D0ED020AA2480068963800EE100A63
:1047F000B8EE400AF4EEC00AF1EE10FA41D849F6DC
:10480000404202210120FFF7A1F9974909780843A6
:10481000954908700846007800F0020048B1FDF79D
:104820005DF890F89A0040F00104FDF757F880F821
:104830009A40FDF753F890F89A0000F00100F8B1A3
:10484000FDF74CFC0446FDF749F8D0F89000201A1B
:1048500047F23051884230D3FDF740F890F89A0083
:1048600000F0FE04FDF73AF880F89A40FDF736F8BC
:1048700090F89A0040F01004FDF730F880F89A4064
:104880001BE0FDF72BF8002180F89A1041F28832E6
:10489000FD210120FFF79EF973490978084072490C
:1048A00008700846007800F0020030B9FDF716FCE9
:1048B0000446FDF713F8C0F89040FDF70FF890EDAF
:1048C0000C0BB0EE408AF0EE608A9FED6B0B53EC60
:1048D000102B51EC180BFBF79FFE10D9FCF7FEFFD5
:1048E00090ED0C0BB0EE408AF0EE608A9FED5C0B11
:1048F00053EC102B51EC180BFBF776FE0BD849F656
:10490000404204210320FFF721F957490978084361
:10491000554908700AE041F28832FB210320FFF775
:1049200059F95149097808404F490870FCF7D6FFFA
:1049300090ED0E0BB0EE408AF0EE608A9FED500BCA
:1049400053EC102B51EC180BFBF766FE10D9FCF75B
:10495000C5FF90ED0E0BB0EE408AF0EE608A9FED41
:104960004A0B53EC102B51EC180BFBF73DFE0BD808
:1049700049F6404208210220FFF7E8F83A49097851
:104980000843394908700AE041F28832F7210220D1
:10499000FFF720F934490978084033490870FCF7DB
:1049A0009DFF4078032809D0FCF798FF4078012844
:1049B00004D0FCF793FF407802281DD1FCF78EFF4E
:1049C0004078022806D02848007840F02000264988
:1049D000087009E02E4A20210420FFF7B7F8224989
:1049E0000978084320490870FCF778FF00F1940427
:1049F0002068401C20600AE0FCF770FF0021C0F82E
:104A000094101948007800F0DF0017490870FCF78F
:104A100065FF007830B91448007840F01000124962
:104A2000087005E01048007800F0EF000E490870AB
:104A3000FCF754FFD0F89400401C28B90A480078CD
:104A400000F0DF000849087007480078BDEC028BD1
:104A500010BD0000840000200000000000001C4089
:104A60000000000000000000A40000200000164329
:104A70008000002000009643000000000000144069
:104A8000000000000038984000000000000059C0FD
:104A900020BF0200816841F00801816000BF816889
:104AA00001F008010029FAD1816841F00401816018
:104AB00000BF816801F004010029FAD1704730B5C8
:104AC000012902D0022920D10FE06AB1102A0BD8A7
:104AD000C36A23F47003C362C36A541E4FF47005A3
:104AE00005EA04542343C36210E06AB1042A0BD8D8
:104AF000836B23F440138363836B541E4FF4401580
:104B000005EA04542343836300E000BF00BF30BDC7
:104B100010B504460423224600210B4800F0B1F8EA
:104B20000121094800F007F900BF0221064800F002
:104B3000A1F80028F9D00221034800F097F80248B4
:104B400000F0F5F810BD000000200140064909689A
:104B500021F4E021054AC2F804131146D1F80413E8
:104B60000143C2F8041370470423014000200140B0
:104B700010B500F036F8002000F01CF900220221E8
:104B8000114800F0EAF800224FF480710E4800F05E
:104B9000E4F800210C4800F019F8012211460A48F7
:104BA000FFF78DFF00220121074800F047F800229F
:104BB0000121054800F028F8034800F01CF80248DD
:104BC000FFF768FF10BD00000020014021B182689E
:104BD00042F40062826003E0826822F40062826034
:104BE000704710B540F6081003F0B8FA40F6081008
:104BF00003F0A2FA10BD816801F0010119B98168C2
:104C000041F0010181607047012902D0022912D1CF
:104C100008E0836823F040538360836843EA0273AB
:104C2000836009E0836823F440138360836843EA68
:104C30000253836000E000BF00BF7047012902D02B
:104C4000022910D107E0836823F0706383608368D2
:104C50001343836008E0836823F4702383608368D0
:104C60001343836000E000BF00BF704702688A43BF
:104C7000026070470246002013680B4003B1012018
:104C80007047F0B51D4606290CDA436B01EB81072E
:104C90001F26BE40B34301EB810602FA06F63343FA
:104CA000436322E00C290EDA036B8E1F06EB8607A6
:104CB0001F26BE40B3438E1F06EB860602FA06F699
:104CC0003343036311E010290FDAC36AA1F10C0624
:104CD00006EB86071F26BE40B343A1F10C0606EB88
:104CE000860602FA06F63343C3620A2A0CDA04691E
:104CF00002EB42070726BE40B44302EB420605FA28
:104D000006F63443046111E0122A0FDCC468A2F1F4
:104D10000A0606EB46070726BE40B443A2F10A0680
:104D200006EB460605FA06F63443C460F0BD0146BC
:104D3000C86C80B27047012902D002290AD104E070
:104D4000826842F08042826005E0826842F480021C
:104D5000826000E000BF00BF7047AAB101F4807319
:104D60001BB1436843F48073436001F480631BB15B
:104D7000436843F48063436001F00203CBB183686E
:104D800043F00203836014E001F480731BB14368B5
:104D900023F48073436001F480631BB1436823F400
:104DA0008063436001F002031BB1836823F00203B8
:104DB000836070470649096821F01F01054AC2F85F
:104DC00004131146D1F804130143C2F804137047C9
:104DD000042301400020014010B50B48007840B981
:104DE000FCF77CFD9FED090B80ED0A0B01200649C5
:104DF000087003F039FA01F0B5F9012801D100F08B
:104E0000ABFF01F05DFE10BDC900002000000000F6
:104E10000000184070B504460D460023012240F6FC
:104E2000B831142003F0CAF9012D02D108480470EA
:104E30000CE01420FDF7B4F8012807D1012300226B
:104E40001146142003F0BAF90148047070BD000047
:104E50001400002070B505460E461446281908496E
:104E6000884201D9012070BD0CB90120FBE7A1B235
:104E700032460448284401F03FFA0020F3E70000DE
:104E800000000C08000004082DE9F04387B08146BB
:104E90000C469046B8F1000F07D1002203213D488F
:104EA00003F099FC07B0BDE8F0834EF66020804522
:104EB00005D100220321374803F08DFCF2E7364884
:104EC0000768642C09D242F20F76701CB7FBF0F031
:104ED000B0FBF4F0401E85B211E040F6B8308442D9
:104EE00008D263266420B7FBF0F0B0FBF4F0401E5C
:104EF00085B204E00026B7FBF4F0401E85B24FF403
:104F0000885003F007F94FF0807003F039F9214819
:104F100003F0A2FCADF800600020ADF80200ADF88F
:104F200004000295ADF806008DF80C00694619489A
:104F300003F05AFD0020ADF814000120ADF8100078
:104F40000020ADF81600ADF81200ADF81800ADF86D
:104F50001A0004AA03210F4803F01AFB2A46032172
:104F60000C4803F038FC602203210A4803F006FCD9
:104F700000220321074803F041FC0121054803F00A
:104F800035FE044803F0BCFA024803F027FD00BFD9
:104F900088E70000000001401000002070B50546C1
:104FA0000E46144628190849884201D9012070BDCF
:104FB0000CB90120FBE7A1B232460448284401F0B5
:104FC0000FFB0020F3E7000000000C0800000408BD
:104FD0002DE9F04190B004460027012C08D1FE488D
:104FE000007818B1FC480078032801DDFA48047005
:104FF000042C0CD1F848007838B1F7480078032821
:1050000003DDF5480078062801DDF3480470072C1D
:1050100019D1F148007838B1EF480078092803DC4D
:10502000ED480078062801DCEB480470FCF7E0F955
:1050300090F82700012806D1FCF7DAF9002180F862
:105040002710E5480470002301224FF448710A201C
:1050500003F0B4F80A20FCF7A3FF01287AD1012756
:10506000012C01D0032C77D1032C06D1DA4800782B
:10507000022802D10320D8490870D74800780128B7
:1050800004D0022825D0032863D13AE00220D34976
:105090000870062048703620486000208860022092
:1050A000C86000208DF8300001208DF831000846DE
:1050B000BDF8301041832C2200F110016846FBF747
:1050C00091F8C6480FC8FDF7EBFB0220C2490870F3
:1050D0003FE00220C1490870032048706620486004
:1050E000012088600020C8602C2210316846FBF740
:1050F00079F8BA480FC8FDF7D3FB0220B64908700B
:1051000027E00220B5490870062048703E2048601C
:10511000002088600220C86000208DF83000FF2049
:105120008DF831000846BDF8301041832C2200F183
:1051300010016846FBF756F8A8480FC8FDF778FC41
:105140000020A5490870FCF753F9002180F82510CC
:1051500000BF49E14EE1FFE7042C01D0062C76D1D7
:10516000062C06D19C480078052802D106209A49D1
:10517000087099480078042804D0052825D006280E
:1051800063D13AE002209549087006204870382023
:105190004860002088600220C86000208DF8300040
:1051A00001208DF831000846BDF8301041832C22D3
:1051B00000F110016846FBF715F888480FC8FDF7A5
:1051C0006FFB0520844908703FE002208349087086
:1051D0000320487066204860012088600020C86075
:1051E0002C2210316846FAF7FDFF7C480FC8FDF706
:1051F00057FB05207849087027E00220774908709E
:10520000062048703F204860002088600220C86067
:1052100000208DF83000FF208DF831000846BDF8E1
:10522000301041832C2200F110016846FAF7DAFFB2
:105230006A480FC8FDF7FCFB002067490870FCF7BF
:10524000D7F8002180F8251000BFCDE0FFE7072C3C
:1052500001D0092CF9D1092C06D15F480078082823
:1052600002D109205C4908705B480078072804D007
:10527000082872D009286ED187E020210120FCF790
:105280009BFE01F0F7F9C078012864D1FCF7B0F873
:105290009FED530A80ED0A0A01F0ECF900F10908CC
:1052A0004046FAF7C3FFE0B301F0E4F9807934280F
:1052B00051D10120494908701020487030204860C1
:1052C0000220886001F0D6F900F109084046FAF79B
:1052D000BDFF064600EE106AB8EE400A8DED0B0ADF
:1052E00005203E49C860012008750BAD04208DF8EB
:1052F000300068788DF8310028788DF83200E87831
:105300008DF83300A8788DF8340008460C99C0F861
:105310001A109DF8341081772C2200F11001684694
:1053200000E018E0FAF75EFF2C480FC8FDF7B8FA66
:10533000C82000F063F801F09DF90021417201F0EE
:1053400099F98078212803D001F094F92121817006
:1053500008202149087046E0FFE701201F49087036
:105360000320487066204860012088600020C860E3
:105370002C2210316846FAF735FF18480FC8FDF7A0
:105380008FFA0820144908702DE001201349087095
:10539000062048703F204860002088608DF830006B
:1053A000FF208DF831000220C8600846BDF830109B
:1053B00041832C2200F110016846FAF713FF0748D9
:1053C0000FC8FDF735FB002003490870FCF710F803
:1053D000002180F8251005E0530000205002002035
:1053E0000000000000BF00BF0123002211460A2078
:1053F00002F0E4FE384610B0BDE8F081044A1168BE
:1054000000BF034A1268521A8242FAD37047000062
:1054100000000020002106E0002201E000BF521C35
:105420000A2AFBD3491C8142F6D3704710B5FFF717
:1054300035F900F0010020B1FCF750FA032180F8A3
:105440009F1000210120FBF7A1FB01210320FBF7A6
:105450009DFB01210420FBF799FB00210520FBF7B0
:1054600095FB01210220FBF747FB10BD10B5002181
:105470000120FBF78BFB01210420FBF787FB0021B8
:105480000520FBF783FB10BD10B5FCF727FA0021C0
:1054900080F89F10FCF722FA142180F89C1000215C
:1054A0000120FBF773FB00210320FBF76FFB0121B9
:1054B0000420FBF76BFB00210520FBF767FB10BD09
:1054C00010B5FCF70BFA032180F89810FCF706FAE8
:1054D000002180F89A100120FBF758FB01210320DE
:1054E000FBF754FB01210420FBF750FB00210520B2
:1054F000FBF74CFBFCF7F2F9032180F8981001232D
:1055000000221146092002F059FE01230022114613
:10551000184602F053FEFFF7C1F800F0080028B16A
:10552000012300221146022002F048FEFFF7B6F8E0
:1055300000F0040028B1012300221146032002F0EC
:105540003DFE10BD10B501EB4102D30000F1100289
:10555000D25842F0010301EB4102D40000F11002E5
:10556000135110BD30B5134601EB4104E50000F1C5
:105570001004625922F0606242EA436201EB410486
:10558000E50000F11004625130BD10B501EB41029D
:10559000D30000F11002D25822F4807301EB4102D3
:1055A000D40000F11002135110BD000000B589B005
:1055B00040F6154002F0AEFD40F6164002F0AAFD9E
:1055C00000213C4800F082F804213A4800F07EF8BF
:1055D0000121384800F07AF80521374800F076F8C4
:1055E00000221146382002F09BFA002211463C208E
:1055F00002F096FA00221146442002F091FA0221AC
:105600002D4800F063F8002006902C4802900020FE
:105610000390202007902A4800900120019000204C
:1056200004904FF4403008906A460221224800F06E
:10563000DFF902212048FFF7A8FF052202211E48BA
:10564000FFF790FF102202211B4800F091F8022181
:105650001948FFF777FF0121164800F037F80020BE
:10566000069018480290002003908020079016486A
:10567000009001200190002004904FF440300890E9
:105680006A4601210B4800F0B3F901210948FFF7F0
:105690007CFF042201210748FFF764FF102201214B
:1056A000044800F065F801210248FFF74BFF09B0FC
:1056B00000BD00000060024000640240F5020020CE
:1056C00004140140280100200448004010B501EBFB
:1056D0004102D30000F11002D25822F0010301EB85
:1056E0004102D40000F110021351002301EB4102EA
:1056F000D40000F11002135101EB4102D40000F17B
:105700001402135101EB4102D40000F118021351AD
:1057100001EB4102D40000F11C02135101EB4102E4
:10572000D40000F12002135101EB4102D40000F13A
:105730002402135104290CDA01EB41025300C1F396
:10574000400203EB82033D229A4083681A43826041
:105750000DE00A1FD1B201EB41025300C1F3400238
:1057600003EB82033D229A40C3681A43C26010BD16
:1057700030B5802A0DD001EB4103DC0000F11003AD
:105780001B59134301EB4104E50000F11004635180
:105790000CE001EB4103DC0000F124031B5913432F
:1057A00001EB4104E50000F12404635130BD10B564
:1057B00004290CDA01EB41035C00C1F3400304EB64
:1057C000830302FA03F38468234383600DE00B1F15
:1057D000D9B201EB41035C00C1F3400304EB830346
:1057E00002FA03F3C4682343C36010BDF0B5034657
:1057F000002500260C46042979DA082A34D004DC76
:10580000012A07D0042A70D119E0102A41D0202A99
:105810006BD153E001EB41004700C1F3400007EBBF
:10582000800702FA07F01F6800EA070601EB410053
:10583000C70003F12400C05900F0800556E001EBD9
:1058400041004700C1F3400007EB800702FA07F070
:105850001F6800EA070601EB4100C70003F11000D2
:10586000C05900F0020541E001EB41004700C1F3DF
:10587000400007EB800702FA07F01F6800EA0706FE
:1058800001EB4100C70003F11000C05900F004050E
:105890002CE001EB41004700C1F3400007EB80071B
:1058A00002FA07F01F6800EA070601EB4100C70093
:1058B00003F11000C05900F0080517E001EB4100AA
:1058C0004700C1F3400007EB800702FA07F01F68AA
:1058D00000EA070601EB4100C70003F11000C059C0
:1058E00000F0100502E002E0FFE700BF7AE0201FB1
:1058F000C4B2082A34D004DC012A07D0042A6FD1AC
:1059000019E0102A41D0202A6AD153E004EB440068
:105910004700C4F3400007EB800702FA07F05F6816
:1059200000EA070601EB4100C70003F12400C0595B
:1059300000F0800555E004EB44004700C4F340004C
:1059400007EB800702FA07F05F6800EA070601EB41
:105950004100C70003F11000C05900F0020540E00B
:1059600004EB44004700C4F3400007EB800702FA51
:1059700007F05F6800EA070601EB4100C70003F18A
:105980001000C05900F004052BE004EB4400470070
:10599000C4F3400007EB800702FA07F05F6800EAF3
:1059A000070601EB4100C70003F11000C05900F0E9
:1059B000080516E004EB44004700C4F3400007EB81
:1059C000800702FA07F05F6800EA070601EB410072
:1059D000C70003F11000C05900F0100501E0FFE717
:1059E00000BF00BF16B10DB10120F0BD0020FCE7E3
:1059F00070B501EB4104E50000F12404645924F082
:105A0000040501EB4104E60000F12404A55101EB7B
:105A10004104E60000F118041568A55101EB4104AA
:105A2000E60000F11C049568A55101EB4104E60075
:105A300000F11404D569A55101EB4104E50000F122
:105A4000100463593F4C2340146944EA8404156AE6
:105A50002C4395692C43234301EB4104E50000F1FD
:105A600010046351546874B901EB4104E50000F17E
:105A70001004645944F4007501EB4104E60000F1A0
:105A80001004A5511FE05468012C0ED101EB410414
:105A9000E50000F11004645924F4007501EB4104A1
:105AA000E60000F11004A5510DE001EB4104E50012
:105AB00000F11004645944F4004501EB4104E60090
:105AC00000F11004A551D46874B901EB4104E5005C
:105AD00000F11004645944F4806501EB4104E600D0
