:020000040800F2
:10000000D8210020650100085902000851020008AB
:1000100055020008F901000825050008000000004D
:100020000000000000000000000000009103000834
:100030001D0200080000000093020008950300085C
:100040007F0100087F0100087F0100087F01000890
:100050007F0100087F0100087F0100087F01000880
:100060007F0100087F0100087F0100087F01000870
:100070007F0100087F0100087F010008FD010008E2
:100080007F0100087F0100087F0100087F01000850
:100090007F0100087F0100087F0100087F01000840
:1000A0007F0100087F0100087F0100087F01000830
:1000B0007F0100087F0100087F0100087F01000820
:1000C0007F0100087F0100087F0100087F01000810
:1000D0007F010008FD0400087F0100087F0100087F
:1000E0007F0100087F0100087F0100087F010008F0
:1000F0007F0100087F0100087F0100080000000068
:100100007F010008000000007F0100087F01000857
:100110007F0100087F0100087F0100087F010008BF
:100120007F0100087F0100087F0100087F010008AF
:100130007F0100087F0100087F0100087F0100089F
:100140007F0100087F0100087F0100087F0100088F
:10015000DFF80CD000F03EF8004800478D1300088F
:10016000D82100200648804706480047FEE7FEE702
:10017000FEE7FEE7FEE7FEE7FEE7FEE7FEE7FEE757
:10018000AD03000851010008D2B201E000F8012BD4
:10019000491EFBD270470022F6E710B513460A4607
:1001A00004461946FFF7F0FF204610BD00F000425C
:1001B00030F000400AD0C10D01F56071C0F31600A7
:1001C00042EA0151C208400711437047002001462E
:1001D00070470000064C074D06E0E06840F0010360
:1001E00094E8070098471034AC42F6D3FFF7B4FF09
:1001F000402000086020000800BFFEE710B5022282
:100200000421054800F01BFD20B101220421024811
:1002100000F00DFD10BD000000000240704710B559
:100220000446204600F0D0FD10BD00000048704795
:10023000A4010020004870471001002000487047CA
:100240004800002001480068704700000C000020B2
:1002500000BFFEE700BFFEE77047000010B50028B2
:1002600007DA0A07140E054A00F00F031B1FD454C7
:1002700003E00A07130E024A135410BD18ED00E004
:1002800000E400E010B5044640212046FFF783FF5C
:1002900010BD7047062001494871704710010020C9
:1002A00010B500201B4981F84C0004211A4800F0C9
:1002B00026FDC0F120001749A1F84A000421164884
:1002C00000F082FB134890F82900124949798842CE
:1002D00015D1104890F82A00032804D00D4890F852
:1002E0002A0006280BD10B48093000F120010A68CA
:1002F0000260496841600220064981F84C002022D2
:100300000421054800F0E8FC0421034800F075FBD7
:1003100010BD0000100100200000024010B504468E
:1003200084B901220421194800F096FF0A2000F048
:100330003FFB00220221154800F08EFF0A2000F04A
:1003400037FB22E0012C10D1002204210F4800F0DD
:1003500083FF0A2000F02CFB012202210B4800F051
:100360007BFF0A2000F024FB0FE000220421074855
:1003700000F072FF0A2000F01BFB0022022103485C
:1003800000F06AFF0A2000F013FB10BD000C0140D2
:100390007047000010B500F091F803480068401C59
:1003A0000149086010BD00000C00002010B51C4879
:1003B000006840F001001A4908600846406820F0D3
:1003C0000300486008460068164908401449086060
:1003D00008464068144908401149486008460068CA
:1003E000104908400E4908600846006820F4802043
:1003F0000860084640680D490840094948600846B9
:10040000006808490840064908604FF41F008860EA
:1004100001F040FA00214FF0006001F0A3F810BD98
:1004200000100240FFFFF6FE0C00FFE8FFFF00F7A0
:1004300058B5002401226946204600F07DFA9DF857
:1004400000005A2803D09DF800005B2816D1FFF762
:10045000EDFE064660190122314600F06DFAFFF705
:10046000E9FE4079032804DBFFF7E4FE4079062823
:1004700006DDFFF7DFFEFF21417101E000F001F82A
:1004800058BD58B572B6002400BF2046FFF7C7FE1E
:1004900000BF00BF5A20009001226946204600F0AC
:1004A00067FA0124FFF7C6FE461D012231462046A9
:1004B00000F05EFA2C4462B658BD000000B5002181
:1004C00016E00D48405C012810D1FFF7BBFE0A4A38
:1004D0003C3252F82120821A07480C3050F8210093
:1004E000824203D30122044830304254481CC1B236
:1004F0000929E6DB00BD00006400002010B50749B3
:10050000074801F058FD40B10449054801F046FD97
:10051000034801F0CBFCFFF7C3FE10BD0403040049
:100520000038014000BFFEE702E008C8121F08C102
:10053000002AFAD170477047002001E001C1121F64
:10054000002AFBD17047816841F00801816000BF3B
:10055000816801F008010029FAD1816841F00401A5
:10056000816000BF816801F004010029FAD1704761
:1005700030B5012902D002291AD10CE0C36A23F454
:100580007003C362C36A541E4FF4700505EA045435
:100590002343C3620DE0836B23F440138363836BB7
:1005A000541E4FF4401505EA04542343836300E0CE
:1005B00000BF00BF30BD000010B52C4800F064F84B
:1005C000002000F00FF901220221284800F07DF9F7
:1005D00001221102254800F078F90021234800F09B
:1005E00047F800F09FF9022211462048FFF7C0FFAC
:1005F0000723102200211D4800F0B7F8072311221D
:1006000001211A4800F0B1F84FF4E04202211748E6
:1006100000F093F8012211461448FFF7A9FF0523C3
:1006200000221146114800F0EBF84FF4602201213E
:100630000E4800F082F8012211460C4800F05EF8E6
:1006400001220221094800F059F8084800F04DF84D
:10065000012000F0ADF90548FFF775FF034800F0F1
:100660003FF80121014800F021F910BD00240140AC
:1006700021B1826842F40062826003E0826822F461
:10068000006282607047000010B5044613482044A1
:1006900030B1B0F5806F0CD0B0F5C05F1BD111E068
:1006A00040F2093001F090F840F2093001F07CF896
:1006B00012E040F20A3001F087F840F20A3001F00F
:1006C00073F809E040F20F3001F07EF840F20F308D
:1006D00001F06AF800E000BF00BF10BD00DCFEBF03
:1006E000816841F4807181607047816801F0010187
:1006F00019B9816841F001018160704772B101F060
:1007000001031BB1836843F48013836001F002038B
:1007100093B1836843F4004383600DE001F001036B
:100720001BB1836823F48013836001F002031BB1C3
:10073000836823F4004383607047012902D00229B3
:1007400010D107E0836823F4602383608368134338
:10075000836008E0836823F4E04383608368134385
:10076000836000E000BF00BF7047F0B50C46876BA8
:10077000C7F30156856B371B07EB8707C7F10F0CD3
:100780001F2707FA0CF7BD43371B07EB8707C7F195
:100790000F0702FA07F73D4385630A2A0DDA01695C
:1007A00002EB420C072707FA0CF7B94302EB4207AA
:1007B00003FA07F73943016112E0122A10DAC1681F
:1007C000A2F10A0707EB470C072707FA0CF7B94312
:1007D000A2F10A0707EB470703FA07F73943C1609D
:1007E000F0BD00000549096821F47021034A116039
:1007F000114609680143116070470000042401405C
:10080000F0B51D4606290CDA436B01EB81071F2664
:10081000BE40B34301EB810602FA06F6334343635D
:1008200022E00C290EDA036B8E1F06EB86071F26CB
:10083000BE40B3438E1F06EB860602FA06F633432C
:10084000036311E010290FDAC36AA1F10C0606EB6D
:1008500086071F26BE40B343A1F10C0606EB8606B1
:1008600002FA06F63343C3620A2A0CDA046902EB81
:1008700042070726BE40B44302EB420605FA06F6DD
:100880003443046111E0122A0FDAC468A2F10A06A7
:1008900006EB46070726BE40B443A2F10A0606EB64
:1008A000460605FA06F63443C460F0BD01F00102C5
:1008B0001AB1826842F48002826001F002021AB129
:1008C000826842F4001282607047AAB101F480731A
:1008D0001BB1436843F48073436001F480631BB130
:1008E000436843F48063436001F00203CBB1836843
:1008F00043F00203836014E001F480731BB143688A
:1009000023F48073436001F480631BB1436823F4D4
:100910008063436001F002031BB1836823F002038C
:10092000836070470348006840F400000149086094
:10093000704700000824014070B5034698180A4E1D
:10094000B04201D9012070BD0AB90120FBE7074878
:100950001D18002404E015F8010B01F8010B641CBC
:100960009442F8D30020EEE7004008080040000859
:100970002DE9F04106460F46144630190B498842CE
:1009800002D90120BDE8F0810CB90120FAE700F09E
:1009900067FB002504E0795D304600F043FB6D1CE9
:1009A000A542F8D300F0B2FA0020EBE700400808B7
:1009B000044A116800BF034A1268521A8242FAD3ED
:1009C000704700000C00002070B505460C4621461B
:1009D000284600F075F908B900BFFEE704EB840073
:1009E000810005F10800405820F0010104EB84006B
:1009F000820005F10800815070BD70B505460C46B7
:100A00002146284600F05CF908B900BFFEE704EB78
:100A10008400810005F10800405840F0010104EB1A
:100A20008400820005F10800815070BD70B5054654
:100A30000C462146284600F043F908B900BFFEE7FE
:100A400004EB8400810005F10800405820F02001EB
:100A500004EB8400820005F10800815070BD70B580
:100A600005460C462146284600F02AF908B900BF81
:100A7000FEE704EB8400810005F10800405840F0D7
:100A8000200104EB8400820005F10800815070BD54
:100A900070B504460D462946204600F011F908B904
:100AA00000BFFEE705EB8500810004F10800405817
:100AB00020F0010105EB8500820004F1080081505F
:100AC000002105EB8500820004F10800815005EB50
:100AD0008500820004F10C00815005EB8500820046
:100AE00004F11000815005EB8500820004F1140030
:100AF00081506068AA000F2191400843606070BD7A
:100B00002DE9F04104460D4616462946204600F0E0
:100B1000D7F808B900BFFEE705EB8500820004F1B5
:100B200010003168815005EB8500820004F114004B
:100B3000B1688150308A81B205EB8500820004F1F2
:100B40000C00815005EB8500810004F10800475836
:100B500027F47C57F16870680843716908430743BC
:100B600005EB8500810004F108004750307E012824
:100B70000ED105EB8500810004F10800405840F0DB
:100B8000400105EB8500820004F1080081500DE072
:100B900005EB8500810004F10800405820F0400179
:100BA00005EB8500820004F108008150707E012869
:100BB0000ED105EB8500810004F10800405840F09B
:100BC000800105EB8500820004F1080081500DE0F2
:100BD00005EB8500810004F10800405820F08001F9
:100BE00005EB8500820004F108008150B07E70B9E9
:100BF00005EB8500810004F10800405820F0100149
:100C000005EB8500820004F1080081500DE005EB42
:100C10008500810004F10800405840F0100105EB08
:100C20008500820004F108008150BDE8F08110B514
:100C300043688C0002FA04F42343436010BD70B58E
:100C4000034600BF00BF022A04D0042A11D0082A9C
:100C50002DD11DE018688E0002FA06F600EA06059E
:100C600001EB8100860003F10800805900F00204C6
:100C70001FE018688E0002FA06F600EA060501EB8E
:100C80008100860003F10800805900F0040410E0A0
:100C900018688E0002FA06F600EA060501EB8100EC
:100CA000860003F10800805900F0080401E000BF4D
:100CB000FEE700BF15B10CB1012070BD0020FCE7BC
:100CC00002460120034B9A4202D1042900DD002094
:100CD000704700000004024070B506460C461546F9
:100CE00021463046FFF7ECFF08B900BFFEE7A9B286
:100CF00004EB8400820006F10C00815070BD70B5D9
:100D000005460C4621462846FFF7DAFF08B900BF22
:100D1000FEE704EB8400810005F10C00405870BD33
:100D200000B50346012200BF00F00CF802465B1E2E
:100D3000012A01D1002BF7D1012A00D1042210464B
:100D400000BD000000200A49C96801F0010109B195
:100D500001200CE00649C96801F0100109B1032027
:100D600005E00349C96801F0040101B102207047A0
:100D70000020024000B50346012200BF00F00CF83D
:100D800002465B1E012A01D1002BF7D1012A00D1B6
:100D90000422104600BD000000200A49C96C01F081
:100DA000010109B101200CE00649C96C01F01001F4
:100DB00009B1032005E00349C96C01F0040101B148
:100DC000022070470020024070B5044600F048F948
:100DD00040F2053000F02AF84FF4417000F026F898
:100DE00040F2023000F022F80E480444002512E0E0
:100DF0004FF4806101FB054000F09EF840F20530A1
:100E000000F014F84FF4417000F010F840F2023096
:100E100000F00CF86D1C044800688542E8D300F02F
:100E200075F870BD0040000844000020064A02EB3F
:100E30009011096800F01F0301229A401143024BF0
:100E400003EB9012116070470020024070B5044619
:100E50000D4600262A480088B0F5007F35D929487C
:100E6000844219D24FF47020FFF75AFF0646002E35
:100E700043D12548006940F00100234908612580DD
:100E80004FF47020FFF74CFF06461F48006920F022
:100E900001001D49086130E04FF47020FFF76AFF40
:100EA000064656BB1848006D40F00100164908651B
:100EB00025804FF47020FFF75DFF06461248006D55
:100EC00020F001001049086517E04FF47020FFF78B
:100ED00027FF06468EB90C48006940F001000A4918
:100EE000086125804FF47020FFF71AFF0646064878
:100EF000006920F0010004490861304670BD00001F
:100F0000E0F7FF1FFFFF07080020024008480069C4
:100F100040F080000649086106480088B0F5007F6F
:100F200004D90846006D40F0800008657047000055
:100F300000200240E0F7FF1F30B505463648008824
:100F4000B0F5007F48D9354885421ED24FF4702055
:100F5000FFF7E6FE0446002C5BD13148006940F003
:100F600002002F49086108464561006940F04000D1
:100F700008614FF47020FFF7D3FE0446284800694B
:100F800020F002002649086143E04FF47020FFF78B
:100F9000F1FE0446002C3CD12148006D40F00200D7
:100FA0001F49086508464565C06900F0020008B1A0
:100FB000084645611A48006D40F040001849086530
:100FC0004FF47020FFF7D6FE04461548006D20F060
:100FD0000200134908651CE04FF47020FFF7A0FEE3
:100FE0000446B4B90E48006940F002000C4908619B
:100FF00008464561006940F0400008614FF47020E8
:10100000FFF78EFE04460648006920F002000449FE
:101010000861204630BD0000E0F7FF1FFFFF070812
:101020000020024070B504460D460B4800EB44001A
:101030000A490860294609480068FFF707FF40F29F
:101040000530FFF7F3FE4FF44170FFF7EFFE40F27B
:101050000230FFF7EBFE70BD0040000840000020AA
:101060000C48006900F0800020B10B480949486035
:101070000A4848600A480088B0F5007F09D9054849
:10108000006D00F0800020B1034802494864034825
:10109000486470470020024023016745AB89EFCDCB
:1010A000E0F7FF1F00B58FB04FF4A06000F06CFBBD
:1010B00000212648FFF7ECFC2548089000208DF819
:1010C000380024480A9001208DF839000002099068
:1010D00080000B9000208DF83A0001200C90400316
:1010E0000D9008AA00211948FFF70AFD00211748B2
:1010F000FFF7B5FC00211548FFF77FFC04211348DA
:10110000FFF7C6FC00208DF81E0013480390012055
:101110008DF81D0000200490202005900F480190BC
:1011200000208DF81C0004904FF44050069001AA56
:1011300004210648FFF7E4FC04210448FFF776FC8D
:1011400004210248FFF759FC0FB000BD0000024027
:101150004C240140140000203901002004380140D3
:1011600010B540F2026000F00FFB40F20E6000F09C
:101170000BFB4FF4007303221821344800F0B0F841
:101180004FF4806303220421304800F0A9F830486E
:1011900000F092FE4FF416512D4800F03FFE002162
:1011A0002B4800F044FF0021294800F030FF0021C7
:1011B000274800F01CFF0021254800F0DAFE00213E
:1011C000234800F0CEFE0421214800F018FF08213A
:1011D0001F4800F024FF00221146252000F062F98C
:1011E0004FF441711A4800F0CCFE194800F0B4FEEB
:1011F0000021184800F01BFF0021164800F007FFEF
:101200000021144800F0F3FE0021124800F0B1FE66
:101210000021104800F0A5FE04210E4800F0EFFE6A
:1012200008210C4800F0FBFE4021094800F08CFE2C
:1012300000221146262000F035F94FF4417105488F
:1012400000F09FFE034800F087FE10BD000801403B
:1012500000380140004400400AB1016100E04161F2
:101260007047000010B5012303220021194800F047
:1012700037F8012251031848FFF7EEFF0022022140
:101280001648FFF7E9FF002204211448FFF7E4FFA6
:1012900000224FF400610F48FFF7DEFF4FF40053C8
:1012A000032210210C4800F01BF806230322102112
:1012B0000A4800F015F84FF4006303221021054896
:1012C00000F00EF8012303221821044800F008F86A
:1012D00010BD00000008014000100140000C01405A
:1012E000F0B5044616460025002201F00F0501F076
:1012F000100707B1354300201EE0012787401F403B
:10130000C7B122684FEA800C0F2707FA0CF7BA43DF
:10131000870005FA07F73A43282904D101278740B7
:101320001F40676105E0482903D1012787401F401E
:1013300027612260471CB8B20828DED3082022E0CB
:10134000012787401F40E7B16268A0F108074FEA14
:10135000870C0F2707FA0CF7BA43A0F10807BF0064
:1013600005FA07F73A43282904D1012787401F408F
:10137000676105E0482903D1012787401F402761A5
:101380006260471CB8B21028DAD3F0BD00F0DEF975
:1013900000F084FAFFF766FF00F012FCFFF70CF98B
:1013A000FFF7DEFEFFF77EFE00F07AF800F0E4F8CB
:1013B00000224FF400513448FFF74EFF62E0002254
:1013C0000221324800F0BBFB0020FEF7A7FF41F2EC
:1013D0008830FFF7EDFA0120FEF7A0FF4CF2503203
:1013E00002212A4800F0ABFB41F28830FFF7E0FA17
:1013F000FEF724FF0068012804D14FF496702449B9
:10140000086017E0FEF71AFF007D022804D14FF4B0
:101410007A701F4908600DE0FEF710FF007D01287B
:1014200004D14FF4FA601A49086003E04FF0FF302E
:1014300017490860FEF706FF16490968401A144963
:101440000968884218D3FEF7FDFE12490860124869
:10145000007840B9012010490870012241030A4870
:10146000FFF7FAFE08E000200B49087000224FF455
:1014700000510548FFF7F0FE00224FF400610748D5
:10148000FFF7EAFE9BE70000001001400004004067
:101490000400002000000020080000200008014097
:1014A000704700002DE9F04103460D461646002422
:1014B0000027A0462448006800F4E060B0F5A06F63
:1014C00015D006DCB0F5407F18D0B0F5806F19D18B
:1014D00010E0B0F5C06F06D0B0F5E06F12D1002774
:1014E0004FF0040815E001274FF0030811E0022730
:1014F000B8460EE003274FF001080AE004274FF03A
:10150000000806E04FF4A06000F022F80227B84679
:1015100000BF00BFC7F1040005FA00F4C8F10401E0
:101520000F20C8403040044324010848C45403F04D
:101530001F01012088405911890001F1E021C1F803
:101540000001BDE8F08100000CED00E000E400E0E7
:1015500002490143024A1160704700000000FA0589
:101560000CED00E0024A0A400243024B1A60704749
:1015700080FFFF1F08ED00E010B5FEF78BFEFEF7C1
:1015800057FF024800F004F810BD000000401C4660
:1015900010B504460E48FEF775FE00210D480C4AB2
:1015A000C2E902100C490D48C2E904100021916102
:1015B000D1612046FEF7FAFD054A03C20021083A30
:1015C000116251620020106350639163D16310BDBA
:1015D000D00000200000344048AFBC9AF2D76A3EE9
:1015E0000F4A51680F4A1140082814D2DFE800F072
:1015F00004050607130A130B00BF00BF00BF41EA32
:10160000803109E000BF20F004004FF0805242EA30
:101610008032114300E000BF00BF014A51607047B3
:1016200000100240FF3FFFEF2DE9F04F8BB007465F
:10163000002009903EA090E8004CC068CDE905BEAE
:10164000CDF810A007900FF2EC0ADAE9000ACDE914
:10165000020A0FF2E00ADAE9000ACDE9000A384886
:101660004068C0F381000A900A9820B1012804D094
:10167000022829D103E0334928E0324926E03048E6
:10168000406800F48038B8F5803F09D12D4C2C48D3
:10169000406800F40039B9F5003F02D1641000E061
:1016A000294C27484068C0F383422548406800F031
:1016B000006008B142F010020F2A01D2921C00E033
:1016C000521C04FB02F101E01E4900BF00BF1C4890
:1016D0004068C0F3031504A8465D21FA06F31848D4
:1016E0004068C0F3022502A8465D23FA06FC1448B0
:1016F0004068C0F3C2251DF8056023FA06F0089083
:1017000037B1012F06D0022F06D0032F0AD106E0F1
:10171000099108E0099306E0CDF824C003E0089899
:10172000099000E000BF00BF09980BB0BDE8F08F42
:101730000000000000000000010203040607080981
:101740000010024000127A0000093D0010B540F27E
:10175000026000F019F840F2036000F015F840F262
:10176000046000F011F84FF4C06000F00DF840F292
:10177000096000F009F84FF4A06000F005F80320BC
:10178000FFF72EFF10BD0000064A02EB901109681A
:1017900000F01F0301229A401143024B03EB901209
:1017A0001160704700100240064A02EB9011096870
:1017B00000F01F0301229A409143024B03EB901269
:1017C0001160704700100240064A02EB9011096850
:1017D00000F01F0301229A401143024B03EB9012C9
:1017E000116070470010024000200021264A126854
:1017F00042F00102244B1A6000BF401C224A1268CA
:1018000002F0020111B9B0F5A06FF6D11E4A1268BC
:1018100002F002020AB900BFFEE71B4A52681A4BE7
:101820005A601A4652685A601A46526842F48062F8
:101830005A601A465268154B1A40134B5A601A46A2
:101840005268134B1A43104B5A601A46126842F002
:1018500080721A6000BF0C4A126802F00072002AFF
:10186000F9D0094A526822F00302074B5A601A461F
:10187000526842F002025A6000BF034A526802F006
:101880000802002AF9D0704700100240FFFFC3F79A
:101890000000280810B5FFF7A7FF10BD10B51248CB
:1018A00000684FF47A71B0FBF1F4601EB0F1807FF4
:1018B00001D301200FE0601E4FF0E02148610F21AD
:1018C0004FF0FF30FEF7CAFC00204FF0E0218861A6
:1018D00007200861002008B100BFFEE70021481E74
:1018E000FEF7BCFC10BD000010000020016841F0B4
:1018F000800101607047000010B531B101293FD06F
:1019000002297DD003297CD1BFE0036A23F00103C3
:101910000362836923F003038361036A148823430A
:101920000362036A23F002030362036A9488234379
:1019300003626A4B984202D0694B98421FD1036AF6
:1019400023F004030362036A548823430362036A97
:1019500023F008030362036AD488234303624368C5
:1019600023F48073436043681489234343604368CE
:1019700023F4007343604368548923434360ABE01E
:10198000036A23F010030362836923F440738361C5
:10199000036A148843EA04130362036A23F02003F2
:1019A0000362036A948843EA041303624B4B984230
:1019B00002D04B4B984226D1036A23F040030362C6
:1019C000036A548843EA04130362036A23F0800322
:1019D0000362036AD48843EA04130362436823F46E
:1019E000806343604368148943EA84034360436827
:1019F00023F4006343604368548943EA840301E0AD
:101A000002E068E0436067E0036A23F480730362E6
:101A1000C36923F00303C361036A148843EA042300
:101A20000362036A23F400730362036A948843EA3F
:101A300004230362294B984202D0294B984223D1B8
:101A4000036A23F480630362036A548843EA04232D
:101A50000362036A23F400630362036AD48843EADF
:101A600004230362436823F480534360436814896A
:101A700043EA04134360436823F40053436043681C
:101A8000548943EA0413436026E0036A23F4805335
:101A90000362C36923F44073C361036A148843EA91
:101AA00004330362036A23F400530362036A9488D5
:101AB00043EA04330362094B984202D0084B984230
:101AC00008D1436823F4804343604368148943EAA0
:101AD0008413436000E000BF00BF10BD002C014034
:101AE0000034014031B101290CD0022913D003295F
:101AF00022D118E0836923F0700383618369134363
:101B000083611AE0836923F4E0438361836943EAD4
:101B10000223836111E0C36923F07003C361C369C9
:101B20001343C36109E0C36923F4E043C361C3699C
:101B300043EA0223C36100E000BF00BF704731B138
:101B4000012906D0022906D0032908D105E0426305
:101B500006E0826304E0C26302E0026400E000BFCA
:101B600000BF704731B101290CD0022913D00329DD
:101B700022D118E0836923F008038361836913434A
:101B800083611AE0836923F400638361836943EA14
:101B90000223836111E0C36923F00803C361C369B1
:101BA0001343C36109E0C36923F40063C361C369DC
:101BB00043EA0223C36100E000BF00BF704700009A
:101BC00000B587B040F20170FFF7DEFD204800F05D
:101BD00041F82320ADF800000020ADF80200ADF878
:101BE00004004FF6FF7002900020ADF80C008DF855
:101BF0000E006946164800F0A1F80020ADF8140068
:101C00000120ADF810000020ADF81600ADF812006C
:101C1000ADF81800ADF81A0004AA02210C48FFF72D
:101C20006BFE002202210A48FFF789FF6022022191
:101C30000748FFF757FF002202210548FFF792FFF0
:101C40000348FFF753FE024800F072F807B000BDEA
:101C50000004004010B504463349601A8C4244D059
:101C60000CDCB4F1804F1CD03048204410B3B0F5E8
:101C7000806F28D0B0F5006F52D12DE0B0F5806FA5
:101C80003CD0B0F58E3F03D0B0F5923F48D13EE056
:101C900040F20B30FFF798FD40F20B30FFF784FD68
:101CA0003FE04FF48060FFF78FFD4FF48060FFF757
:101CB0007BFD36E040F20140FFF786FD40F2014037
:101CC000FFF772FD2DE040F20240FFF77DFD40F28C
:101CD0000240FFF769FD24E040F20340FFF774FD86
:101CE00040F20340FFF760FD1BE040F20440FFF7C5
:101CF0006BFD40F20440FFF757FD12E040F2054053
:101D0000FFF762FD40F20540FFF74EFD09E040F2AB
:101D10000D30FFF759FD40F20D30FFF745FD00E0B3
:101D200000BF00BF10BD00000010004000FCFFBF5E
:101D3000016841F001010160704700000A88826279
:101D4000294A904220D0B0F1804F1DD0274A9042BE
:101D50001AD0274A904217D0264A904214D0264AD9
:101D6000904211D0254A90420ED0254A90420BD085
:101D7000244A904208D0244A904205D0234A9042F7
:101D800002D0234A90420FD1026822F07002026012
:101D900002688B7803F060031A43026002680B79D3
:101DA00003F010031A4302608A68C262194A904223
:101DB0000CD0194A904209D0026822F440720260A5
:101DC00002688B8903F440731A430260064A90420A
:101DD00002D0094A904201D18A7B0263426942F0F3
:101DE0000102426170470000002C014000040040E5
:101DF00000080040000C004000340140004C01404D
:101E0000005001400054014000180040001C0040F8
:101E10000020004000100040001400402DE9F04771
:101E200004460D460027B846B94600261D49601AEB
:101E30008C421CD006DC1C48204470B1B0F5806F89
:101E40001FD10FE0B0F5806F16D0B0F56C4F18D1F0
:101E50000320FFF7E9FB074614E00220FFF7E4FB4D
:101E600007460FE00220FFF7DFFB07460AE00220EB
:101E7000FFF7DAFB074605E00220FFF7D5FB074630
:101E800000E000BF00BF07EB5500B0FBF5F64FF6D2
:101E9000F07006EA000806F00F0948EA0900A060A1
:101EA000BDE8F087004C004000BCFFBF0146486819
:101EB000C0F308007047000010B504462049601ABE
:101EC0008C4228D006DC1F48204490B1B0F5806FCA
:101ED00033D117E0B0F5806F26D0B0F56C4F2CD120
:101EE00040F20E30FFF770FC40F20E30FFF75CFC62
:101EF00024E040F21140FFF767FC40F21140FFF789
:101F000053FC1BE040F21240FFF75EFC40F212402F
:101F1000FFF74AFC12E040F21340FFF755FC40F295
:101F20001340FFF741FC09E040F21440FFF74CFC7E
:101F300040F21440FFF738FC00E000BF00BF10BDC6
:101F4000004C004000BCFFBF0A460021416921F05F
:101F50004001114341617047C16841F40051C160C3
:101F600070470A460021416921F400711143416123
:101F700070470A460021416921F480711143416193
:101F8000704710B5C1F38912825801F01F04012374
:101F9000A3401A43C1F38913C25010BD10B500EB22
:101FA00091521268C1F304440123A3409A4300EB09
:101FB00091531A6010BD70B5024600230024C1F38E
:101FC0008910105801F01F060125B54000EA0503ED
:101FD00002EB91500068C1F304460125B54000EAC8
:101FE000050414B10BB1012070BD0020FCE7C268EC
:101FF00022F4C062C260C2680A43C26070470A46E7
:102000000021C16821F004011143C16070470269D9
:1020100022F44052026102690A43026170470A4693
:102020000021C16821F008011143C1607047C268F6
:1020300022F48052C260C2680A43C2607047000046
:10204000602000080000002048000000280500086B
:10205000A820000848000020902100003805000852
:102060000000000000000000000000000000000070
:1020700000F36F06000000000000000000000000F8
:102080000000000000000000000000000000000050
:102090000000000000000000C83200000000000046
:0820A000000000000200000036
:04000005080001519D
:00000001FF
