:020000040800F2
:1000000008090020C10100086D210008E51700085B
:10001000691F0008E9090008D93100080000000044
:10002000000000000000000000000000A1280008FF
:10003000C10A00080000000097250008892C00086C
:10004000DB010008DB010008DB010008DB01000820
:10005000DB010008DB010008DB010008DB01000810
:10006000DB010008DB010008DB010008DB01000800
:10007000DB010008DB010008DB010008DB010008F0
:10008000DB010008DB010008DB010008DB010008E0
:10009000DB010008DB010008DB010008DB010008D0
:1000A000DB010008DB010008DB010008DB010008C0
:1000B000DB010008292E0008DB010008DB01000835
:1000C000DB010008DB010008DB010008DB010008A0
:1000D000DB010008DB010008DB010008DB01000890
:1000E000910B0008DB010008DB010008DB010008C0
:1000F000DB010008DB010008DB010008DB01000870
:10010000DB010008DB010008DB010008DB0100085F
:10011000DB010008DB010008DB010008DB0100084F
:10012000DB010008DB010008250A0008DB010008EC
:10013000DB010008DB010008DB010008DB0100082F
:10014000DB010008DB010008DB010008DB0100081F
:10015000DB010008DB010008410A0008312F00081C
:10016000DB010008DB010008DB010008DB010008FF
:10017000DB010008DB010008DB01000800000000D3
:10018000DB010008DB010008DB010008DB010008DF
:10019000DB010008DB010008DB01000800000000B3
:1001A000DB010008DB010008DB010008DFF80CD0F0
:1001B00000F0A4FB00480047616300080809002024
:1001C0000648804706480047FEE7FEE7FEE7FEE7F1
:1001D000FEE7FEE7FEE7FEE7FEE7FEE7A12C0008EC
:1001E000AD01000840EA01039B0703D009E008C9FC
:1001F000121F08C0042AFAD203E011F8013B00F8EC
:10020000013B521EF9D27047D2B201E000F8012B37
:10021000491EFBD270470022F6E710B513460A4686
:1002200004461946FFF7F0FF204610BD421C10F8A7
:10023000011B0029FBD1801A70472DE9FE4F804633
:1002400081EA0300C00F0C46009021F0004123F02A
:100250000045B8EB0200A94105D240462146904630
:100260001C460B46024623F00040104347D0270DA2
:10027000C7F30A00C3F30A510290401A01904028C4
:100280006BDAC3F3130040F4801B0098924620B150
:100290000023D2EB030A63EB0B0B01985946C0F124
:1002A0004002504600F04DFA06460D46504659466B
:1002B000019A00F065FA10EB08006141002487EA1A
:1002C000115284EAE7731A4340D0009A62B3019A4C
:1002D000012A4FEA075215DC001B61EB02014FF0C7
:1002E000004202EA0752CDE90042001C41F58011AC
:1002F00032462B4600F09CFA03B0BDE8F08F404632
:100300002146F9E7001B61EB0201001C41F5801357
:1003100000185B412018A2F5001747EB030140EAE3
:10032000D570B6196D4111E06D084FEA360645EA01
:10033000C0754FEA0752001B61EB0201001C41F53A
:10034000801149084FEA30000019514132462B46CE
:1003500003B0BDE8F04F00F05CBA00980122400005
:100360000023D0EB020263EBE073009821464FEAD2
:10037000E074B8EB000061EB0401E9E783F00043AF
:100380005BE781F0004158E72DE9FE4F81EA030465
:1003900004F0004421F0004100944FF0000B23F0E2
:1003A000004350EA01045ED052EA03045BD0C3F379
:1003B0000A54C1F30A552C44A4F2F3340194A0FB6F
:1003C0000254C1F3130141F48011C3F3130343F446
:1003D000801301FB024400FB034E840A970A44EA9F
:1003E000815447EA8357A4FB076802958D0A05FBF1
:1003F00007854FEA932C04FB0C542705029D4FEA16
:10040000065847EA1637B5EB08056EEB070C870E62
:10041000920E47EA811742EA8312A7FB0201B6EB6C
:100420000B0164EB00042B0D43EA0C335E1844EB24
:100430001C50DA465146E7FB0201C5F313044FEAAC
:100440000B3343EA14534FEA0432019C43EA060398
:10045000A4F10C040294009CCDE900B400F0E8F98A
:1004600003B0BDE8F08F00200146F9E72DE9F04D1B
:1004700081EA030404F0004B21F0004514464FF0DC
:10048000000A23F0004150EA050220D054EA01029C
:100490001DD0C5F30A570246C5F31303C1F3130079
:1004A000C1F30A5640F4801543F48013A7EB060805
:1004B000101BD64608F2FD3873EB050002D308F195
:1004C000010801E092185B41B8F1000F03DA002047
:1004D0000146BDE8F08D00204FF4801106468446A9
:1004E0000EE0171B73EB050705D3121B63EB050327
:1004F00006434CEA010C49084FEA300092185B4170
:1005000050EA0107EDD152EA030012D082EA04005A
:1005100083EA0501084305D0101BAB4106D2012236
:10052000002306E000224FF0004302E06FF00102DA
:1005300053101AEB06004CEB085110EB0A0041EB8C
:100540000B01BDE8F04D00F064B90EB5C10F80EAB3
:10055000E0700844CA07002140F233438DE80E00E2
:100560000A460B4600F064F903B000BD0EB540F238
:10057000334102910021CDE900110A460B4600F0FB
:1005800057F903B000BD70B5C1F30A5201F0004540
:100590000024C1F3130140F2FF3341F480119A4269
:1005A00001DA002070BD40F233439A42A2F2334296
:1005B00003DC524200F0D4F800E090402C43F1D02C
:1005C000404270BDC1F30A5210B5C1F3130140F2AD
:1005D000FF3341F480119A4201DA002010BD40F24D
:1005E00033439A42A2F2334203DC524200F0B8F89D
:1005F00010BD904010BD00F0004230F000400AD025
:10060000C10D01F56071C0F3160042EA0151C20844
:1006100040071143704700200146704730B5041E63
:1006200071F1000404DB4FF00044404264EB01012F
:10063000141E73F1000405DB1C464FF000435242C8
:1006400063EB04038B4208BF824230BD30B5041E09
:1006500071F1000404DB4FF00044404264EB0101FF
:10066000141E73F1000405DB1C464FF00043524298
:1006700063EB0403994208BF904230BD01F0004390
:1006800030B421F0004150EA010206D00A0DA2F573
:100690006072C1F31301002A02DC30BC00207047F5
:1006A000440F44EAC104C100E01830BC00EBC25062
:1006B00000F078B830B50B46014600202022012416
:1006C00009E021FA02F59D4205D303FA02F5491B20
:1006D00004FA02F52844151EA2F10102F1DC30BD36
:1006E0002DE9F05F0546002092469B468846064667
:1006F000814640241BE0284641464746224600F0FA
:100700002FF853465A46C01A914110D31146184645
:10071000224600F016F82D1A67EB01084F462246D4
:100720000120002100F00DF817EB00094E41201EBA
:10073000A4F10104DFDC484631462A464346BDE8C1
:10074000F09F202A04DB203A00FA02F100207047D3
:100750009140C2F1200320FA03F3194390407047FF
:10076000202A04DB203A21FA02F00021704721FA06
:1007700002F3D040C2F1200291400843194670476D
:10078000202A06DBCB17203A41FA02F043EAE07355
:1007900006E041FA02F3D040C2F120029140084342
:1007A000194670470029A8BF7047401C490008BF80
:1007B00020F00100704710B4B0FA80FC00FA0CF091
:1007C00050EA010404BF10BC704749B1CCF12004C9
:1007D00021FA04F411FA0CF118BF01212143084356
:1007E000A3EB0C01CB1D4FEA00614FEA102042BF82
:1007F000002010BC704700EBC35010440029A4BF78
:1008000010BC7047401C490008BF20F0010010BC1C
:10081000704710B5141E73F1000408DA401C41F152
:10082000000192185B411A4301D120F0010010BD74
:100830002DE9F04D92469B4611B1B1FA81F202E0EA
:10084000B0FA80F220329046FFF77BFF04460F4655
:1008500040EA0A0041EA0B0153465A46084313D0C6
:10086000114653EA010019D0C8F140025046FFF783
:1008700077FF05460E46504659464246FFF761FF50
:10088000084305D0012004E020463946BDE8F08D3C
:100890000020054346EAE0762C4337430A98630577
:1008A000E40AA0EB08000022FD0A44EA47540A309B
:1008B00002D500200146E9E7010510196941DDE98B
:1008C000084500196941BDE8F04DA2E7C1F30A529D
:1008D000C1F3130140F2FF3341F480119A4202DA6E
:1008E00000200146704740F233439A42A2F233425D
:1008F00002DC5242FFF734BFFFF723BF064C074D1F
:1009000006E0E06840F0010394E8070098471034DF
:10091000AC42F6D3FFF74EFC0080000820800008B0
:1009200004490A780978491C024B19700249885415
:10093000704700000C000020D400002010B50446D1
:1009400034B900224FF40041144805F07AF804E06D
:100950000122D103114805F074F802F03FFC02F0C7
:100960003DFC02F03BFC012211030C4805F069F844
:1009700002F034FC02F032FC02F030FC02F02EFCFB
:1009800002F02CFC00224FF48051044805F059F885
:1009900002F024FC02F022FC10BD00000004024022
:1009A0002DE9F04105460C4616461F460CB9BDE838
:1009B000F0810948C56044808680C78000200649D0
:1009C00008814881487001200870C86841F2883168
:1009D00004F000F900BFEAE7C4000020002001494C
:1009E000087070470C00002000BFFEE770B502469B
:1009F0000C46FF25FF2309E012F8010B80EA0501F0
:100A00000648405C80EA03050548435C201EA4F1CB
:100A10000104F1D143EA052070BD0000E07C00082C
:100A2000E07D000810B520220221044804F01FFCDC
:100A300020220221014804F039FC10BD006402406C
:100A400010B520220721054804F030FC20B12022F7
:100A50000721024804F00BFC10BD000000640240B6
:100A600070B505460C46012D04D0022D08D0032D8B
:100A700012D10BE022460021104806F016FC1BE0C4
:100A8000224601210D4806F010FC15E02246022105
:100A90000A4806F00AFC0FE022460021074806F04B
:100AA00004FC22460121054806F0FFFB22460221F4
:100AB000024806F0FAFB00BF00BF70BD000800400E
:100AC00070472DE9F04104460D461646304600F0C9
:100AD0003BFB0746FFF782FF4D20FFF721FFE0B207
:100AE000FFF71EFFE8B2FFF71BFF304601F03EFFA5
:100AF00000F042F8BDE8F0812DE9F84F04460D46BC
:100B000016461F46DDE90C9BDDE90AA8584600F0B1
:100B10001BFB0090FFF762FF5320FFF701FF200A45
:100B2000FFF7FEFEE0B2FFF7FBFE280AFFF7F8FE34
:100B3000E8B2FFF7F5FEF0B2FFF7F2FEF8B2FFF70A
:100B4000EFFE0AF0FF00FFF7EBFE4FEA1820FFF779
:100B5000E7FE08F0FF00FFF7E3FE4FEA1920FFF77A
:100B6000DFFE09F0FF00FFF7DBFE584601F0FEFE56
:100B700000F002F8BDE8F88F10B503480278034989
:100B8000EE2000F04BFE10BD0C000020D400002031
:100B900010B54FF4005004F0CFFE38B14FF40050C0
:100BA00004F0C4FE04F016FF0121C17010BD000066
:100BB00070B504460E460EB9012500E00025062C4E
:100BC00022D2DFE804F02103090F151B2A46012178
:100BD0001B4804F036FF31E02A460221184804F091
:100BE00030FF2BE02A460421154804F02AFF25E0B7
:100BF0002A460821124804F024FF1FE02A46042157
:100C0000104804F01EFF19E02A4601210C4804F0A8
:100C100018FF2A4602210A4804F013FF2A4604213D
:100C2000074804F00EFF2A460821054804F009FF92
:100C30002A460421034804F004FF00BF00BF70BD32
:100C4000000802400004024010B52DED028B40F276
:100C50004C400E49086000F073FA90ED020A10EE65
:100C6000104A2046FFF7C7FC41EC180BB0EE480ACB
:100C7000F0EE680A05F06EFE054908600846016856
:100C80000220FFF7EDFEBDEC028B10BD5C000020E2
:100C90006400002010B540F24C4005490860084649
:100CA00090ED000AB8EE400A05F016FE10BD0000F7
:100CB0005C0000202DE9F04104460D4616461F4613
:100CC000DDF81880FFF78AFE4620FFF729FE200A8C
:100CD000FFF726FEE0B2FFF723FE280AFFF720FE0B
:100CE000E8B2FFF71DFE300AFFF71AFEF0B2FFF779
:100CF00017FE380AFFF714FEF8B2FFF711FE4FEAAD
:100D00001820FFF70DFE08F0FF00FFF709FEFFF7C0
:100D100033FFBDE8F081000000487047500000201C
:100D200070B504460D46FFF759FE7520FFF7F8FD34
:100D3000E8B2FFF7F5FDE0B2FFF7F2FDFFF71CFFA9
:100D400070BD000010B52DED028BFFF7E5FF90EDB3
:100D5000000AFFEE000AB4EE600AF1EE10FA3DD090
:100D60003848006850B9FFF7D7FF90ED000A3648C1
:100D700080ED000A0120334908602AE0324890EDF6
:100D8000000AF3EE040A80EE201A90ED000A30EE1D
:100D9000418AFFF7C1FF90ED000AF3EE040A80EEEE
:100DA000201A38EE010A284880ED000A90ED000A6A
:100DB000F1EE040A30EE200AF3EE080A80EE201A63
:100DC000224880ED031AFFF7A7FFBFEE000A80ED6F
:100DD000000A00F0FDFC1E4908602FE000F0F8FC5E
:100DE0001B490968401AB0F5FA6F27D3164890EDF1
:100DF000000AF0EE000A80EE201A90ED000A30EEB4
:100E0000410A80ED000A90ED000AB5EEC00AF1EE4D
:100E100010FA05D89FED0F0A0C4880ED030A0DE08B
:100E2000094890ED000AF1EE040A30EE200AF3EED4
:100E3000080A80EE201A054880ED031ABDEC028BEB
:100E400010BD00002C00002028000020140100200C
:100E5000300000200000000000487047DC02002045
:100E6000004870478C0100202DE9F0438BB0054607
:100E70000C4616461F46DDE912983448057044704A
:100E800046608760C0F80C80406807283FD02F4834
:100E9000406808283BD02D484068162837D02B489A
:100EA0004068192833D0294840681A282FD027488D
:100EB00040681B282BD025484068342827D0234879
:100EC0004068362823D02148406838281FD01F4862
:100ED00040683E281BD01D4840683F2817D01B485B
:100EE0004068662813D01948406840280FD017483A
:100EF000406841280BD015484068422807D0134865
:100F00004068432803D011484068442803D100209A
:100F10000E49087502E001200C490875102C01D01B
:100F2000062C05D14246494608481A30FFF75AF9BF
:100F30002C22064910316846FFF754F903480FC8C0
:100F400001F050F80BB0BDE8F08300008C010020E8
:100F50000EB5002301224FF47A71072005F0FAFE46
:100F6000072000F09DFB01287DD1734800780628FA
:100F700012D2DFE800F00312213056AA00200090C0
:100F800002230322114601900120FFF76DFF6A48FA
:100F90000078401C68490870A6E0002000900223F9
:100FA0000122032101901046FFF75EFF624800789E
:100FB000401C6149087097E0002000900223012244
:100FC000032101901846FFF74FFF5B480078401C53
:100FD0005949087088E000F0B3F83830574909786B
:100FE000C91E00EB810090ED000AF7EE000AB4EE96
:100FF000600AF1EE10FA0ED0002000904F490190E7
:1010000008780978491C4D4B1970022342220321AC
:10101000FFF72AFF04E049480078401C4749087060
:1010200062E000F08DF890F8670050BB00F088F89F
:1010300090F8680028BB00208DF8080001208DF88A
:10104000090013E0022002A9CDE900103B4908780D
:101050000978491C394B1970022340220621FFF7F9
:1010600003FF642000E065E003F0E8FF3348007808
:101070000628E7DB05203049087003202F49087057
:1010800022E000208DF808008DF8090011E0022010
:1010900002A9CDE90010294908780978491C274B95
:1010A0001970022340220621FFF7DEFE642003F0C0
:1010B000C5FF224800780628E9DB05201E49087094
:1010C00003201E49087000BF0EE0002000901B495D
:1010D000019008780978491C184B197002234322A3
:1010E0000321FFF7C1FE00BF00BF144800780628A7
:1010F00009DD11480078032805D104200E49087045
:1011000003200E4908700C480078052809D10B48C7
:101110000078062805DD03200849087000200649EC
:101120000870012300221146072005F013FE6420F9
:1011300003F084FF0EBD00003500002034000020C5
:1011400000487047140100200146002002E0491CBD
:10115000421CD0B20A78002AF9D1704730B52DED83
:101160000C8B83B00021FE4803F06DFCFD498880A4
:101170000121FB4803F067FCFA49C8800221F848C6
:1011800003F061FCF74908810221F54803F0CCFC2B
:10119000F448808800EE100AB8EE400AF24880ED6C
:1011A000000A0068FFF727FA41EC1A0B53EC1A2BE0
:1011B0009FEDEE0B51EC100BFFF758F941EC190BBA
:1011C000FFF75CFAE8490860EA48007830B9084659
:1011D00090ED000AE84880ED070A16E0E648D0EDF9
:1011E000070AB3EE041A80EE810AD0ED070A30EE4A
:1011F000C00ADD48D0ED000AB3EE041AC0EE811A31
:1012000030EE210ADC4880ED070AD648008900EE5E
:10121000100AB8EE400AD848D0ED070A20EE200A9E
:10122000DFEDD60A80EE201A11EE105A2846FFF79D
:10123000E2F941EC1D0B9FEDD20B53EC102BFFF7A5
:10124000A0F841EC1C0B9FEDD00B53EC102BFFF7DB
:101250009BF841EC1B0B9FEDCE0B53EC102BFFF7D3
:1012600005F941EC1A0B9FEDCC0B53EC102BFEF75C
:10127000E4FF41EC190BFFF701FABF49086100BF19
:1012800001228021C64804F0DCFB00BF00BF002221
:101290000221C44804F0D5FB00BF072003F0DAFEAA
:1012A000062003F0A1FAAF494880072003F0D2FEE0
:1012B0000E2003F099FAAB4908800846008800EE3A
:1012C000100AB8EE400AA84880ED000A90ED000A26
:1012D000BCEEC00AB44880ED000AA648007830B9D8
:1012E000A14890ED000AB14880ED000A16E0AF4831
:1012F00090ED000AB3EE041AC0EE010A90ED000A68
:1013000030EE600A9848D0ED000AB3EE041AC0EE41
:10131000811A30EE210AA54880ED000A00BF0022A4
:1013200080219F4804F08DFB00BF00BF00220221F6
:101330009C4804F086FB00BF0A2003F08BFE00BF30
:1013400000228021964804F07CFB00BF00BF0122F0
:101350000221944804F075FB00BF072003F07AFED9
:1013600000BF002280218E4804F06BFB00BF00BF4D
:10137000002202218B4804F064FB00BF7E4890ED00
:10138000070A7948D0ED000A20EE200ADFED880A2E
:1013900080EE201A80ED001A7648007830B9724845
:1013A00090ED000A744880ED090A16E07248D0ED0D
:1013B000090AB3EE041A80EE810AD0ED090A30EE74
:1013C000C00A6948D0ED000AB3EE041AC0EE811AD3
:1013D00030EE210A684880ED090A674890ED090A55
:1013E000F3EE0E0A20EE200A10EE101A0846FFF760
:1013F00002F941EC1A0B9FED6F0B53EC102BFEF72B
:10140000BDFF41EC190BFFF739F95B49486208460B
:1014100090ED090AB5EEC00AF1EE10FA03D29FED85
:10142000670A80ED090A6648008800EE100AB8EEE7
:10143000400A5E48D0ED000AB4EEE00AF1EE10FA80
:1014400009D85F48008800EE100AB8EE400A5D48EF
:1014500080ED000A1FE05A48B0F8DE0000EE100AE6
:10146000B8EE400A5148D0ED000AB4EEE00AF1EEC1
:1014700010FA0ADB5248B0F8DE0000EE100AB8EEAF
:10148000400A504880ED000A05E0484890ED000A07
:101490004C4880ED000A002420E04949601C31F8E6
:1014A000100000EE100AB8EE400A4648D0ED000ADF
:1014B000B4EEE00AF1EE10FA0FD8084630F8140046
:1014C00000EE100AB8EE400A3E48D0ED000AB4EE35
:1014D000E00AF1EE10FA00DD02E0641C6F2CDCD3B0
:1014E00000BF702C00D36E24354830F8141002462B
:1014F000601C32F81000081A00EE100AB8EEC01A8C
:101500001146601C31F8100000EE100AB8EE400AD7
:101510002C48D0ED000A30EEC00AC0EE010A2A497C
:10152000601C31F8100031F81410401A00EE100A57
:10153000B8EEC01A244830F8140000EE100AB8EED5
:10154000400AB0EE408A01EE208A1F48B0F8DE0063
:1015500000EE100AB8EE400AB4EEC80A36E0000009
:101560000020014080010020180000200000000041
:101570000032B34024000020140100200000804508
:10158000E17A14AE47E1F63F0000000000408F40D2
:10159000333333333333114000000000000039404F
:1015A0000000024000040240100000201C00002047
:1015B00000F07F450000000000C042400000000035
:1015C000D87A000820000020B87B0008F1EE10FA5D
:1015D00008D82448B0F8DE0000EE100AB8EE400A41
:1015E000B0EE408AB5EEC08AF1EE10FA07D81D4879
:1015F000008800EE100AB8EE400AB0EE408A1A48A1
:10160000D0ED020A9FED191A80EE810AD0ED020A90
:1016100030EEC00ADFED150A88EE201A30EE010A1E
:1016200080ED020A90ED020A10EE101A0846FEF74D
:10163000E2FF41EC190B0E480068FEF7DCFF41ECBD
:101640001A0B8DED009B0B48018853EC1A2B0AA056
:1016500001F0CCFD01201149087003B0BDEC0C8BEA
:1016600030BD0000B87B0008140100200000484293
:101670001C00002080010020202020202020202588
:1016800064202020202020202025302E326620209B
:10169000202020202025302E32660A002400002041
:1016A00001460148405C7047AC04002001460148F7
:1016B000405C7047F804002070B504460D46FFF703
:1016C0008DF97C20FFF72CF9E8B2FFF729F9E0B299
:1016D000FFF726F9FFF750FA70BD000010B5202182
:1016E000364804F0EDF9012803D100203449087090
:1016F00002E00120324908704FF40051314804F0F3
:10170000DFF958B93048007800F002002E4908701F
:101710000846007840F00100087005E02A4800788B
:1017200000F0FE00284908702021284804F0C8F97C
:1017300058B92548007800F0010023490870084690
:10174000007840F00200087005E01F48007800F0C3
:10175000FD001D490870FFF7F3FC90F861000128B7
:101760000CD119480078022803D0012016490870CE
:1017700004E0FFF7E5FC02201349087012480078E6
:1017800030B1012808D002280AD0032810D10BE07C
:1017900002200B4948700FE00120094948700BE016
:1017A00000200749487007E003200549487003E01E
:1017B00002200349487000BF00BF10BD0000024076
:1017C0001401002000100240140000200008024014
:1017D00001480068704700000000002010B501F0CB
:1017E000BBFA10BD00BFFEE770B5044601F0F0F98A
:1017F000611CC8B201F056F80748007808B900200B
:1018000070BD01F009F805460120FFF797F801F0D7
:1018100013FA2846F4E700000D0000202DE9F041FE
:1018200007460C46164601F0D3F9384601F03AF85F
:101830000C48007810B90020BDE8F081002505E0D3
:10184000207801F02FF8641C681CC5B2B542F7DBA4
:101850000448007808B90020EEE701F0EDF9012016
:10186000EAE700000D00002010B54FF4406005F0DD
:101870001DFA40F6014005F019FA40F6024005F065
:1018800015FA40F6034005F011FA40F6044005F061
:101890000DFA40F6074005F009FA44F60C015848E5
:1018A00004F0CBF80F21574804F0C7F880215648C0
:1018B00004F0C3F849F20601544804F0BEF84FF4AE
:1018C000C861534804F0B9F8012211034E4804F0EE
:1018D000B8F844F60C0300220121494804F0F8F856
:1018E00044F60C0300221146454804F018F90F2372
:1018F00000220121434804F0EBF80F230022114697
:10190000404804F00CF92023002201213E4804F055
:10191000DFF82023002211463B4804F000F94FF481
:10192000845300220121384804F0D2F84FF4845344
:1019300000221146344804F0F2F84FF48453002298
:101940001146304804F0C4F849F206030022012190
:101950002E4804F0BDF849F20603002211462B4838
:1019600004F0DDF84FF4304300221146244804F01F
:10197000AFF8202300221146234804F0A9F84FF4C1
:101980000053002211461E4804F0A2F82023002232
:1019900011461C4804F09CF84FF4C8630022012152
:1019A0001B4804F095F84FF4C8630022114618480C
:1019B00004F0B5F84FF4805300221146144804F0A7
:1019C00087F841F20E1005F071F94FF4005301222F
:1019D00000210E4804F07CF800220221282004F0A7
:1019E00087FE0D21012005F0F5F9012200215003A9
:1019F00003F03EFF4FF4005003F098FF10BD0000CD
:101A000000100240000802400000024000040240B2
:101A1000000C024000B587B04FF4885005F046F93D
:101A20004FF0807005F078F9224805F07FFCC72060
:101A3000ADF800000020ADF80200ADF8040043F658
:101A40007F6002900020ADF806008DF80C0069461A
:101A5000184805F033FD0020ADF814000120ADF862
:101A600010000020ADF81600ADF81200ADF8180017
:101A7000ADF81A0004AA03210E4805F0F3FA00227B
:101A800003210C4805F011FC60220321094805F0F0
:101A9000DFFB00220321074805F01AFC012105485D
:101AA00005F00EFE034805F095FA024805F000FD2A
:101AB00007B000BD0000014000B587B041F2010051
:101AC00005F0F4F84FF0807005F026F91B4805F09A
:101AD0002DFCC720ADF804000020ADF80600ADF8DD
:101AE00008004FF6FF7003900020ADF80A008DF853
:101AF000100001A9114805F0E1FC0220ADF8140026
:101B00000120ADF816000020ADF818006420ADF8F3
:101B10001A0005AA0221094805F01CFD074805F036
:101B200059FA0821054805F0BCFD0821034805F0D5
:101B3000B4FD024805F0BCFC07B000BD0004004045
:101B400000B587B040F6014005F0B0F84FF480735F
:101B500000220221514803F0BBFF4FF480730222A0
:101B600000214E4803F0DBFF4023002202214B48B6
:101B700003F0AEFF402302220021484803F0CFFFCC
:101B8000802300220221454803F0A2FF8023022285
:101B90000021424803F0C3FF4FF4807202213F4806
:101BA00003F01CFF402202213C4803F017FF802273
:101BB00002213A4803F012FF41F2020005F076F8E4
:101BC0004FF0807005F0A8F8354805F0AFFB002015
:101BD000ADF80000ADF80200ADF804004FF6FF705C
:101BE00002900020ADF806008DF80C0069462C48E4
:101BF00005F064FC0020ADF814000120ADF81000E1
:101C00000020ADF81600ADF81200ADF81800ADF8E0
:101C10001A0004AA0021224805F024FA04AA01218E
:101C20001F4805F01FFA04AA02211D4805F01AFA00
:101C3000002211461A4805F038FB6022002118489E
:101C400005F006FB00221146154805F041FB002275
:101C50000121134805F029FB60220121104805F0FD
:101C6000F7FA002201210E4805F032FB0022022182
:101C70000B4805F01AFB60220221094805F0E8FA3A
:101C800000220221064805F023FB054805F0A2F9D1
:101C9000034805F00DFC07B000BD00000004024041
:101CA0000008004010B541F2140004F0FFFF0122CB
:101CB00007211A4803F092FE02220721174803F079
:101CC0008DFE01231A460221144803F001FF01236F
:101CD00002220021114803F022FF022301221946AB
:101CE0000E4803F0F5FE02231A4600210B4803F0CC
:101CF00016FF0B4805F006FE4FF4E131084805F0E9
:101D000083FD0421064805F0C5FE0821044805F0BE
:101D1000C9FE034805F074FE10BD0000000002403B
:101D20000050004010B541F2041004F0BFFF4FF422
:101D3000007207211C4803F051FE4FF48062072116
:101D4000194803F04BFE4FF400730122022116489C
:101D500003F0BEFE4FF4007302220021124803F08C
:101D6000DEFE4FF48063012202210F4803F0B0FE33
:101D70004FF48063022200210B4803F0D0FE0B4891
:101D800005F0C0FD4FF4E131084805F03DFD0421A8
:101D9000064805F07FFE0821044805F083FE03484D
:101DA00005F02EFE10BD00000000024000100140B2
:101DB00010B541F2120004F079FF042207211C48FB
:101DC00003F00CFE08220721194803F007FE042344
:101DD00001220221164803F07BFE04230222002187
:101DE000134803F09CFE082301220221104803F04F
:101DF0006FFE0823022200210D4803F090FE0D48DB
:101E000005F080FD4FF416510A4805F0FDFC042151
:101E1000084805F03FFE0821064805F043FE054846
:101E200005F0EEFD40F20531024805F0FDFD10BD64
:101E3000000002400048004010B541F2130004F0D9
:101E400035FF4FF4806207211C4803F0C7FD4FF4B3
:101E500000620721194803F0C1FD4FF4806301229D
:101E60000221164803F034FE4FF480630222002161
:101E7000124803F054FE4FF40063012202210F4880
:101E800003F026FE4FF40063022200210B4803F00A
:101E900046FE0B4805F036FD4FF41651084805F094
:101EA000B3FC0421064805F0F5FD0821044805F0BF
:101EB000F9FD034805F0A4FD10BD00000004024038
:101EC0000048004010B541F2051004F0EFFE40223A
:101ED0000821234803F082FD80220821204803F0D6
:101EE0007DFD4023012202211D4803F0F1FD402326
:101EF000022200211A4803F012FE8023012202214F
:101F0000174803F0E5FD802302220021144803F066
:101F100006FE144805F0F6FC4FF41651114805F082
:101F200073FC04210F4805F0B5FD08210D4805F0AC
:101F3000B9FD0C4805F064FD00221146472004F06D
:101F4000D7FB4FF44171074805F06EFD402105486D
:101F500005F046FD8021034805F04AFD10BD000054
:101F6000000802400014014000BFFEE710B51A4807
:101F7000C07B042819D1FEF773FF01210175FEF71C
:101F80006FFF1549497C8175FEF76AFF1249097C8C
:101F9000C175FEF765FF1049C97C0176FEF760FF49
:101FA0000D49897C4176002414E00B48C07B02284F
:101FB0000FD1FEF755FF00210175FEF751FF0649CD
:101FC000097C8175FEF74CFF0349497CC1750224E9
:101FD00000E00124204610BD0803002001207047C6
:101FE000012070470FB470B500249DF8110003283C
:101FF0002CD19DF810202046611CCCB259490A54BE
:102000009DF811202046611CCCB256490A5405980F
:10201000C0F307222046611CCCB252490A540598ED
:10202000C2B22046611CCCB24E490A540698C0F395
:1020300007222046611CCCB24A490A540698C2B213
:102040002046611CCCB247490A544DE09DF824005B
:1020500001282CD19DF810202046611CCCB24149AA
:102060000A549DF811202046611CCCB23D490A5407
:102070000598C0F307222046611CCCB239490A54A6
:102080000598C2B22046611CCCB236490A54069863
:10209000C0F307222046611CCCB232490A5406988C
:1020A000C2B22046611CCCB22E490A541CE09DF8F5
:1020B00010202046611CCCB22A490A549DF81120F8
:1020C0002046611CCCB227490A540598C0F3072268
:1020D0002046611CCCB223490A540598C2B220465E
:1020E000611CCCB21F490A5425460798E8B11D4926
:1020F00008190DF12A01079AFEF774F80798284489
:10210000C5B229461748FEF771FC17490860084612
:102110000088C0F307222846691CCDB211490A5431
:10212000114801780F48415512E029460D48FEF745
:102130005DFC0D49086008460088C0F30722284668
:10214000691CCDB207490A54074801780548415532
:10215000A81CC1B20022034800F0CEFA70BC5DF8A2
:1021600014FB00009D030020980000207047000031
:1021700010B5002807DA0A07140E054A00F00F030D
:102180001B1FD45403E00A07130E024A135410BD58
:1021900018ED00E000E400E070B5049C532A02D181
:1021A0000125014E357070BD740000202DE9F04707
:1021B0000446894625786678A77894F803802079C4
:1021C00031280ED1607932280BD1A079332808D17B
:1021D000E079342805D1064A02211820FEF771FC67
:1021E00004E0044A02211820FEF76BFCBDE8F087EA
:1021F000987C0008A67C00086F2901D1014A107064
:10220000704700007600002070B5049C0125014E47
:10221000357070BD740000202DE9F04704468946F2
:1022200025786678A77894F80380207931280ED134
:10223000607932280BD1A079332808D1E07934288D
:1022400005D1064A02211820FEF73BFC04E0044AAF
:1022500002211820FEF735FCBDE8F087C47C000899
:10226000D27C00086F2803D102490978024A117014
:102270007047000075000020760000202DE9F04135
:102280000746884615461C46069E352C07D1552D17
:1022900005D10C48067001200B49087010E0342C61
:1022A00009D1552D07D109480670017805480078F5
:1022B000FEF736FD04E0302C02D0362C00D000BFF3
:1022C000BDE8F08176000020740000207700002037
:1022D00070B5049C532A02D10125014E357070BDA2
:1022E000740000202DE9F04106460C46174698463A
:1022F000069D05480078012804D02146034800784F
:10230000FFF7DAF9BDE8F0817400002076000020C4
:102310002DE9F04105460E4617469846069C0648AC
:102320000078012805D022461C210448007800F0DE
:1023300098FBBDE8F08100007400002076000020CA
:1023400010B52DED108B82B00446B0EE40BAF0EE21
:1023500060BA94ED001BB0EE410AF0EE610A53EC56
:102360001B2B51EC100BFEF709F841EC190B94ED07
:10237000081BB0EE410AF0EE610A53EC102B9FED02
:10238000771B51EC110BFDF7FFFF41EC1F0B53ECDA
:10239000192BFDF7F6FF41EC1E0B94ED0A1BB0EE76
:1023A000410AF0EE610A53EC102BFDF746FF41ECB9
:1023B0001D0B94ED061BB0EE410AF0EE610A53ECE2
:1023C000102BFDF7E1FF41EC1C0B94ED041BB0EE6C
:1023D000410AF0EE610A53EC192B51EC100BFDF79A
:1023E000D3FF41EC1D0B94ED081BB0EE410AF0EE5B
:1023F000610A53EC102B51EC190BFDF7BFFF41ECB8
:102400001F0B94ED021BB0EE410AF0EE610A53EC93
:10241000102BFDF7B9FF41EC1E0B53EC1D2BFDF704
:102420000CFF53EC1C2BCDE900019DED000B51EC92
:10243000100BFDF702FF41EC180B94ED080B84ED37
:102440000A0B84ED089B474890ED000B53EC102BD2
:1024500051EC180BFEF7FAF831D2424890ED000B20
:1024600053EC102B51EC180BFDF788FF41EC1A0BC5
:102470009FED3D0B53EC102B51EC1A0BFEF7E6F8D9
:1024800045D29FED3B0B53EC102B51EC1A0BFEF792
:10249000DDF83CD89FED380B53EC102B314890ED14
:1024A000000B51EC100BFDF7C8FE2E4A03C22D485D
:1024B00090ED000BB0EE408AF0EE608A27E053EC1E
:1024C000182B284890ED000B51EC100BFDF756FF30
:1024D00041EC1A0B9FED260B53EC102B51EC1A0B11
:1024E000FEF7B4F813D89FED240B53EC102B1D48C6
:1024F00090ED000B51EC100BFDF740FF194A03C2A1
:10250000184890ED000BB0EE408AF0EE608A9FED27
:10251000160B53EC102B51EC180BFEF77FF805D27D
:102520009FED110BB0EE408AF0EE608A9FED140B28
:1025300053EC102B51EC180BFEF788F805D89FEDE3
:10254000100BB0EE408AF0EE608AB0EE480AF0EE72
:10255000680A02B0BDEC108B10BD00000000000046
:1025600000000040B000002000000000000000005B
:10257000000000000088C340000000000070A74079
:1025800000000000E0FFEF4010B50446382120466F
:10259000FDF741FE10BD70472DE9F84F04460E4689
:1025A00094F80090677894F802A094F8038094F867
:1025B00004B065794846B9F1700F14D00ADCA0F177
:1025C0006000092854D2DFE800F01A531253435335
:1025D00053224B00712836D0752828D07B281ED076
:1025E0007C2845D129E03846FFF73CFE41E05B46B8
:1025F0004246394650460095FFF740FE39E05B46BB
:102600004246394650460095FFF762FE31E05B4690
:102610004246394650460095FFF77AFE29E05B4670
:102620004246394650460095FFF75CFE21E0301FD8
:1026300081B21148FFF7BAFD1BE0301F81B20E488E
:10264000FFF7EAFD15E041465046FFF7D5FD10E0E3
:102650005B464246394650460095FFF79DFD08E02F
:102660005B464246394650460095FFF7CDFD00E0F7
:1026700000BF00BFBDE8F88F0402002000B589B09C
:1026800002201A4981F8940081F894000221184828
:1026900002F07CFD0020069014480D3002900020CE
:1026A00003908020079013480090012001900020A3
:1026B00004904FF4403008906A4602210C4802F022
:1026C000F7FE02210A4802F0F4FC05220221084824
:1026D00002F0DCFC10220221054802F0A9FD0221D3
:1026E000034802F0C3FC09B000BD0000080300204D
:1026F00000640240041401402DE9F04105460E46F5
:10270000174627B94FF400710E4803F098F90120DD
:102710000D49087300240CE02046641C295C0B481A
:1027200005F0EBF800BF0721084805F06EF9002816
:10273000F9D0B442F0D34FF40071024803F07DF9B0
:10274000BDE8F081000C02400803002000140140A5
:1027500070B501252D4890F89400022854D100222C
:1027600001022B4803F06DF92848407B012847DB24
:102770002648407B062843DC2448807B032807D07A
:102780002248807B062803D02048807B102837D140
:102790001E48C07B401D1D49C1F890000846D0F876
:1027A0009000811E19480D30FEF720F91949086084
:1027B0001648D0F89000401E14490D310A5C1348A9
:1027C000D0F89000801E085C42EA0024114800689E
:1027D000A04215D10D48807B032804D0062806D0DE
:1027E00010280CD107E0FFF7C1FB054607E0FFF713
:1027F000F5FB054603E0FFF7F3FB054600BF00BF0E
:102800000020024981F89400284670BD080300208A
:10281000000C02409800002070B500240122D10372
:102820001E4803F00EF900252AE000F0D7FC002234
:102830004FF48051194803F004F900F0CFFC00F088
:10284000CDFC00F0CBFC00F0C9FC00F0C7FC01227D
:102850001103124803F0F5F800F0C0FC00F0BEFCD4
:102860006006040E4FF400410C4803F029F908B14A
:10287000601CC4B200F0B2FC00F0B0FC681CC5B231
:10288000082DD2DB00224FF48051044803F0D9F820
:1028900000F0A4FC00F0A2FC204670BD0004024041
:1028A0007047000070B50546002429E005FA04F0E1
:1028B00000F0800028B10122D1032A4803F0C1F8BA
:1028C00005E000224FF40041264803F0BAF800F07A
:1028D00085FC01221103234803F0B3F800F07EFCCD
:1028E00000F07CFC00F07AFC00F078FC00F076FC54
:1028F00000224FF480511B4803F0A3F8601CC4B2BF
:10290000082CD3DB00F06AFC00F068FC0122D10344
:10291000144803F096F800F061FC00F05FFC01221F
:102920001103104803F08DF800F058FC00F056FC3D
:1029300000F054FC4FF400410A4803F0C1F818B10C
:1029400000200949087002E00120074908700022B0
:102950004FF48051034803F074F800F03FFC00F09E
:102960003DFC70BD000402400D00002010B504467F
:1029700003E02078FDF7D4FF641C20780028F8D10C
:1029800010BD10B50446FEF729F84220FDF7C8FF38
:10299000E0B2FDF7C5FFFEF7EFF810BD70B50546D4
:1029A0000E461446FEF71AF86120FDF7B9FFF0B2A3
:1029B000FDF7B6FFE8B2FDF7B3FF200AFDF7B0FF61
:1029C000E0B2FDF7ADFFFEF7D7F870BD70B5054674
:1029D0000E461446FEF702F87920FDF7A1FFF0B28B
:1029E000FDF79EFFE8B2FDF79BFF200AFDF798FF79
:1029F000E0B2FDF795FFFEF7BFF870BD70B5054674
:102A00000E461446FDF7EAFF7A20FDF789FFF0B283
:102A1000FDF786FFE8B2FDF783FF200AFDF780FF90
:102A2000E0B2FDF77DFFFEF7A7F870BD2DE9F0419C
:102A300004460D4616463046FEF786FB0746FDF770
:102A4000CDFF7420FDF76CFFE8B2FDF769FFE0B23F
:102A5000FDF766FF3046FFF789FFFEF78DF8BDE80A
:102A6000F08170B505460E461446FDF7B7FF6E209F
:102A7000FDF756FFF0B2FDF753FFE8B2FDF750FF48
:102A8000200AFDF74DFFE0B2FDF74AFFFEF774F8AC
:102A900070BD10B50446FDF7A1FF7020FDF740FFA3
:102AA000E0B2FDF73DFFFEF767F810BD70B50446D4
:102AB0000D461646FDF792FF6F20FDF731FFE8B295
:102AC000FDF72EFFE0B2FDF72BFFF0B2FDF728FF78
:102AD000FEF752F870BD10B5FDF780FF4A20FDF7F4
:102AE0001FFF5220FDF71CFF6520FDF719FF732023
:102AF000FDF716FF6520FDF713FF7420FDF710FFAB
:102B0000FEF73AF810BD70B505460E461446FDF7BF
:102B100065FF6D20FDF704FFF0B2FDF701FFE8B29D
:102B2000FDF7FEFE200AFDF7FBFEE0B2FDF7F8FE22
:102B3000FEF722F870BD70B505460E461446FDF747
:102B40004DFF7720FDF7ECFEF0B2FDF7E9FEE8B2AD
:102B5000FDF7E6FE200AFDF7E3FEE0B2FDF7E0FE3A
:102B6000FEF70AF870BD2DE9F04104460D46164601
:102B70001F46FDF733FF6620FDF7D2FEE8B2FDF7F2
:102B8000CFFEE0B2FDF7CCFEF0B2FDF7C9FEF8B221
:102B9000FDF7C6FEFDF7F0FFBDE8F081012080F3F0
:102BA000138800BF00BFBFF34F8F0748006800F4D1
:102BB000E06006490843001D03490860BFF34F8FDA
:102BC00000BF00BFFEE700000CED00E00000FA05CA
:102BD00010B50122D103174802F033FF00F0FEFACE
:102BE00001221103134802F02CFF00F0F7FA00F065
:102BF000F5FA00F0F3FA00F0F1FA00F0EFFA002233
:102C00004FF400410B4802F01CFF00F0E7FA00F01F
:102C1000E5FA00F0E3FA00F0E1FA00F0DFFA002252
:102C20004FF48051034802F00CFF00F0D7FA00F097
:102C3000D5FA10BD0004024010B500224FF4004147
:102C4000104802F0FEFE00F0C9FA012211030D48FF
:102C500002F0F7FE00F0C2FA00F0C0FA00F0BEFA8F
:102C600000F0BCFA00F0BAFA0122D103054802F0E4
:102C7000E8FE00F0B3FA00F0B1FA00F0AFFA00F0AD
:102C8000ADFA10BD0004024010B500F0D9F80348B9
:102C90000068401C0149086010BD000000000020D1
:102CA00008B52948006840F47000274908602748A3
:102CB000006840F001002549086024480830006899
:102CC00040F080002149083108600020009002E0B7
:102CD0000098401C00904CF2503100988842F7D385
:102CE0001A480830006840F0900018490831086020
:102CF0000020009002E00098401C00904CF25031FF
:102D000000988842F7D3002010490831086000BFBE
:102D10000E480830006800200028F9D10B480068F0
:102D20000B490840094908600A48091D0860081F46
:102D3000006820F48020091F0860002003490C313E
:102D4000086004F01BF908BD88ED00E0003802407F
:102D5000FFFFF6FE1030002410B508212A4804F0C9
:102D6000A3FC01284FD10821274804F09AFC2748EA
:102D7000007850B90221244804F031F9401C24495C
:102D800008600120214908703DE0204800780128B2
:102D900039D12049087000201C49087002211A48C6
:102DA00004F01DF9401C1C490860084600681849D9
:102DB0000968884207D91848006815490968401A07
:102DC0001649086009E0124800684FF6FF71081ABA
:102DD0001149096808441149086064B10F48006846
:102DE0000F49B1FBF0F000EE100AB8EE400A0D48B2
:102DF00080ED000A04E0BFEE000A0A4880ED000AF8
:102E000000200249087010BD00040040540000205A
:102E100044000020550000204C0000204800002005
:102E200040420F005000002010B5FEF7D7FC0348C9
:102E30000068401C0149086010BD0000040000202B
:102E400000B5002116E00D48405C012810D1FEF7C6
:102E5000BFFC0A4A5C3252F82120821A074810301F
:102E600050F82100824203D3012204484C304254DE
:102E7000481CC1B20F29E6DB00BD00006004002041
:102E800070B506460C4615463046FEF70FFC012885
:102E900005D0002301222946304603F05BFF30466F
:102EA000FEF7FEFB01280CD13046FEF7FFFB0128A0
:102EB00007D1012300221146304603F04BFF204684
:102EC00070BD0020FCE770B506460C46154630463E
:102ED000FEF7ECFB012816D13046FEF7E1FB012896
:102EE00011D1012300221146304603F033FF0023A5
:102EF00002222946304603F02DFF3046FEF7D6FB6E
:102F000008B9204670BD3046FEF7CAFB01280CD137
:102F10003046FEF7CBFB022807D1012300221146E1
:102F2000304603F017FF2046ECE7FF20EAE70000F9
:102F300010B50749074804F091FD40B10449054820
:102F400004F07FFD034804F0D3FCFFF797FB10BDAE
:102F5000040304000014014070B52DED088B98485F
:102F60000078082836D11422132195480078FFF7FD
:102F700078FD1522142192480078FFF772FD1C227B
:102F800015218F480078FFF76CFD232216218C480D
:102F90000078FFF766FD2E22172189480078FFF799
:102FA00060FD3A22182186480078FFF75AFD854ACD
:102FB000102183480078FFF739FD824A11218048AB
:102FC0000078FFF733FD7F4A12217D480078FFF734
:102FD0002DFDF1E07A48007809283CD16FF07C059E
:102FE00036E02846FDF7B1FA41EC1B0B9FED760B5E
:102FF00053EC102BFDF7C8F941EC1A0BB0EE4A0A5E
:10300000F0EE6A0A00F030F9B0EE409AF0EE609A05
:103010009FED6F0B53EC102B51EC190BFDF7B4F92E
:1030200041EC180BFDF7AFFA044604F17700C3B288
:103030000222092162480078FFF795FD04F13B0068
:10304000C3B2012209215E480078FFF78CFD6D1C98
:103050007D2DC6DBB0E05A480078072830D1142413
:10306000002512E0A2B2092155480078FFF74BFD78
:10307000A4F1140082B20B2151480078FFF7F1FC53
:103080000A34C82001F0DAFF6D1C0A2DEADD78242D
:10309000002512E0A2B2092149480078FFF733FD6C
:1030A000A4F1140082B20B2145480078FFF7D9FC47
:1030B0000A3CC82001F0C2FF6D1C0A2DEADD7BE04E
:1030C0003F480078062816D10024002510E0E2B21F
:1030D00012213B480078FFF7E9FCE2B2142138489E
:1030E0000078FFF7E3FC0A34C82001F0A7FF6D1C4D
:1030F0000A2DECDB60E03248007802282CD1002455
:10310000002510E0A2B225212D480078FFF776FCBB
:10311000A2B228212A480078FFF740FC0A34C820D0
:1031200001F08CFF6D1C0A2DECDD6424002510E0FD
:10313000A2B2252122480078FFF760FCA2B2282124
:103140001F480078FFF72AFC0A3CC82001F076FFF0
:103150006D1C0A2DECDD2FE01948007805282BD1D5
:103160000024002510E0A2B22C2115480078FFF7BA
:103170002DFCA2B22A2112480078FFF7DCFC0A34A9
:10318000642001F05BFF6D1C0A2DECDD642400253A
:1031900010E0A2B22C210A480078FFF717FCA2B277
:1031A0002A2107480078FFF7C6FC0A3C642001F09A
:1031B00045FF6D1C0A2DECDDBDEC088B70BD0000D9
:1031C00076000020B47C00083355302AA913B03FA4
:1031D000000000000000344000BFFEE74FF4FA702A
:1031E00000BF411E081EFCD1704700000FB4054B04
:1031F00010B503A9044A029800F086FD10BC5DF8E2
:1032000014FB000099590008B80000200FB4084BC7
:1032100010B504A902AA039800F076FD044602A99D
:10322000002001F008F9204610BC5DF814FB0000F6
:103230003744000803B401984100009850EAC120C7
:1032400018BF04204A0D18BF40F0010040F2FF7281
:10325000B2EB515F08BF40F00200012808BF052013
:1032600002B070470000000010B52F499FED2C1BE5
:103270002DED020B84B0059820F000408842DCBFA1
:1032800000209DED040B32DD2849884209D10498C5
:1032900040B94FF0010000F06FFC00F03DFC06B0BB
:1032A00010BD05DB9DED040B00F02AFC06B010BD3F
:1032B00068469DED040B00F03BF810F0030011D0C0
:1032C000012818D09DED021B9DED000B02281AD09D
:1032D00000F04AFA51EC100B81F0004106B041ECCD
:1032E000100B10BD9DED021B9DED000B012000F0A9
:1032F0006FFB06B010BD9DED021B9DED000B00F0B5
:1033000033FA06B010BD012000F062FB51EC100B47
:1033100081F0004106B041EC100B10BD0000000030
:103320000000000000000000FB21E93F0000F07FEA
:103330002DE9F14F04462DED020B2DED088B8AB0DF
:103340009FEDE70B80ED020B139EE74826F000454A
:1033500085420ADC9DED120B002084ED000B0AB0C3
:10336000BDEC088B03B0BDE8F08FE0489FEDE0AB0B
:103370009FEDE1BBA84247DDE14F9FEDE39B9FED51
:10338000E48B9DED120B53EC1A2B51EC100B002E1D
:103390001CDDFCF7F3FF41EC100BBD4208D053ECF1
:1033A0001B2B51EC100BFCF7E9FFC4E900010BE00B
:1033B00053EC192B51EC100BFCF7E0FF53EC182BDE
:1033C000FCF7DCFFC4E900010120C8E7FCF735FF8A
:1033D00041EC100BBD4208D053EC1B2B51EC100BF1
:1033E000FCF72BFFC4E900010BE053EC192B51EC67
:1033F000100BFCF722FF53EC182BFCF71EFFC4E95F
:1034000000014FF0FF30AAE7C348A84279DB9DEDE9
:10341000120B51EC100B02F0A1FA41EC180B9FEDCE
:10342000C00B53EC102BFCF7AFFF9FEDBF1B53EC11
:10343000112BFCF702FFFDF7A6F80746FDF785F80C
:1034400041EC190B53EC1A2BFCF79EFF53EC182B95
:10345000FCF797FF41EC180B53EC1B2B51EC190BAD
:10346000FCF792FFDFF8C8A241EC100B4FEA1558A9
:103470000125FA4453EC102B51EC180BFCF77EFF9E
:10348000032DC4E900013DD0C1F30A5005EB4511FD
:10349000A8EB00001139814234DA0AEB051BB0EECB
:1034A00048AA9BED000BF0EE68AA53EC102B51ECF0
:1034B000190BFCF769FF41EC1B0B51EC1A0B53EC99
:1034C0001B2BFCF75BFF41EC180B51EC1A0B53EC78
:1034D000182BFCF753FF53EC1B2BFCF74FFF9BED16
:1034E000020B41EC1A0B53EC102B51EC190BFCF7AF
:1034F0004BFF53EC1A2BFCF741FF41EC100B6D1CFA
:10350000B8E70EE0002EA8BF3846BFF628AF94ED0E
:10351000000B51EC100B81F00041C4E9000178422E
:103520001DE7C6F3130040F4801EC6F30A50A0F254
:10353000F530471100F01F05C5F12000DDF848B057
:1035400008900020069007900520EC467949002D50
:1035500007EB0002794408BF51F8221009D051F856
:10356000223001EB8201AB404A68089922FA01F14E
:103570001943A1FB0E26A1FB0B131A449A4234BF38
:103580000123002303EB06080CEB8003D3E901A61B
:103590000E448E4234BF0121002192448A4411B16D
:1035A000924502D903E0924501D2012100E00021B9
:1035B000C3E901A641444CF82010011EA0F101000E
:1035C000C4DC029800F10050850F0298DDE9036722
:1035D0008000DDF81480FCF7B8FF41EC1A0B304690
:1035E000FCF7C4FF9FED541B53EC112BFCF7CCFEF2
:1035F00041EC1B0B3846FCF7B9FF9FED511B53EC18
:10360000112BFCF7C1FE41EC180B4046FCF7AEFF56
:103610009FED4D1B53EC112BFCF7B6FE41EC190B43
:1036200051EC180B53EC192BFCF707FE53EC1B2B3A
:10363000FCF703FE53EC1A2BFCF7FFFDCDE9080164
:10364000002008909DED080B53EC1A2B51EC100B49
:10365000FCF794FE53EC1B2BFCF790FE53EC182B5D
:10366000FCF78CFE53EC192BFCF78BFE9FED381BFF
:1036700053EC112BFCF788FE9FED370B41EC180B38
:1036800053EC102B9DED080B51EC100BFCF77CFE5E
:1036900053EC182BFCF7D1FD9FED310B41EC180BCF
:1036A00053EC102B9DED080B51EC100BFCF76CFE4E
:1036B00053EC182BFCF7C1FD41EC100B139810F0E4
:1036C000004F06D06D4251EC100B81F0004141ECEF
:1036D000100B284684ED000B41E6000000000000BE
:1036E0000000000000000000FB21E93F7CD90240FF
:1036F00000004054FB21F93F3163621A61B4D03DB0
:10370000FB21F93F000000000000601A61B4D03DC9
:103710007370032E8A19A33BFB213941000000007E
:1037200083C8C96D305FE43F000000000000E03F47
:103730009A4A0000E8490000000000000000103E26
:10374000000000000000103C000000000000103AE3
:10375000182D4454FB21F93D3326A611460B113C8C
:1037600000000054FB21F93D10B52DED040B2DEDAB
:10377000088B82B0B0EE419AF0EE619A0B9820F07F
:1037800000449FED4BABB4F1795F11DA9DED0A0B6C
:1037900051EC100BFCF7F7FE002801BFB0EE4A0A0F
:1037A000F0EE6A0A02B0BDEC088B04BF04B010BD95
:1037B0009DED0A0B53EC102B51EC100BFCF7E4FDC4
:1037C00041EC180B3C480621B0EE480AF0EE680ABE
:1037D000784400F081F853EC182B51EC100BFCF7F7
:1037E000D3FD9DED0A0B41EC1B0B53EC192B51EC57
:1037F000100BFCF7C9FD41EC190B53EC1B2B51ECE2
:10380000180BFCF7C1FD53EC192BFCF7B7FD9FED2E
:103810002C0B41EC190B53EC102B51EC180BFCF753
:10382000B3FD41EC100B2848844210DA53EC192BFD
:1038300051EC100BFCF7A2FD53EC1A2BFCF7A1FD89
:1038400041EC100B02B0BDEC088B04B010BD1F485A
:10385000A042BCBF9FED1E1B8DED001B06DBA4F537
:1038600000100190002000909DED001B51EC100B0A
:1038700053EC112BFCF782FD9DED000B41EC180B76
:1038800053EC102B51EC1A0BFCF778FD41EC1A0BA2
:1038900053EC192B51EC180BFCF770FD53EC1A2B61
:1038A000FCF76FFD41EC100BCCE7000000000000BE
:1038B000000000000000F03F0C4700000000000086
:1038C000000000000000E03F3333D33F0000E93F39
:1038D000000000000000D23F70B504462DED028BC1
:1038E0004D1E00EBC500B0EE408AF0EE608A90ED10
:1038F000000B35F0060017D053EC182B51EC100BD1
:10390000FCF742FD41EC100B6D1E04EBC50090ED81
:10391000001B51EC100B53EC112BFCF78EFC41EC0F
:10392000100B35F00600E7D1022D36D0042D1CD047
:10393000062D1CBFBDEC028B70BD53EC182B51EC57
:10394000100BFCF721FD94ED0A1B53EC112BFCF737
:1039500074FC53EC182BFCF717FD94ED081B53EC8B
:10396000112BFCF76AFC41EC100B53EC182B51ECBB
:10397000100BFCF709FD94ED061B53EC112BFCF723
:103980005CFC53EC182BFCF7FFFC94ED040B53ECA0
:10399000102BFCF752FC41EC100B53EC182B51ECA4
:1039A000100BFCF7F1FC94ED021B53EC112BFCF710
:1039B00044FC53EC182BFCF7E7FC94ED001B53EC94
:1039C000112BFCF73AFCBDEC028B41EC100B70BDE7
:1039D00031B504462DED040B2DED0A8BB0EE41BA46
:1039E000F0EE61BA0B989DED0A0B20F00040B0F1AB
:1039F000795F0DDA51EC100BFFF71CFC042808BFAF
:103A000000F09AF89DED0A0BBDEC0A8B05B030BDB5
:103A100053EC102B51EC100BFCF7B6FC41EC180BDF
:103A20009DED0A0B53EC182B51EC100BFCF7ACFC82
:103A300041EC190B2C48B0EE480AF0EE680A05215B
:103A40007844FFF749FF9FED2ACBB0EE40AAF0EE95
:103A500060AA9CB353EC1C2B51EC190BFCF794FCA3
:103A600041EC1C0B53EC1A2B51EC190BFCF78CFCA2
:103A70009FED210B41EC190B53EC102B51EC1B0B60
:103A8000FCF782FC53EC192BFCF778FC53EC182B59
:103A9000FCF77AFC53EC1B2BFCF770FC53EC1C2B53
:103AA000FCF76CFC9DED0A1B53EC112BFCF769FC39
:103AB000BDEC0A8B05B041EC100B30BDFFE753ECB9
:103AC0001A2B51EC180BFCF75FFC53EC1C2BFCF78A
:103AD000B4FB53EC192BFCF757FC9DED0A1B53EC80
:103AE000112BFCF7AAFBE3E794450000000000005F
:103AF000495555555555C5BF000000000000E03F31
:103B000010B553EC102B51EC100BFCF796FB41EC6D
:103B1000100B10BD000000009FED050B10B553EC1D
:103B2000102B51EC100BFCF7A1FC41EC100B10BD5D
:103B300000000000000000009FED050B10B553ECE5
:103B4000102B51EC100BFCF71FFC41EC100B10BDBF
:103B5000000000000000001002E008C8121F08C1A9
:103B6000002AFAD170477047002001E001C1121FFE
:103B7000002AFBD17047000001490860704700002F
:103B8000C00000202DE9FF5F82B00021DDE9043094
:103B9000020DDDF840B0034318D044F61050A2F2F5
:103BA000FF3242431514119801281FD0A5EB0B00DA
:103BB000401C5FEA000A4FF000064E4FDFF83891D4
:103BC000B046504615D5CAF1000413E011980124FF
:103BD0004AA3012801D16FEA0B010298119AC0E9AA
:103BE0000031C0E9024206B0BDE8F09FCBF1000011
:103BF000DFE704460021404A491842EB0450CDE972
:103C0000001012E0E00707D032463B4640464946E6
:103C1000FCF7BAFB8046894632463B4610461946B9
:103C2000FCF7B2FB06460F466410002CEAD1DDE932
:103C30000401DDE90023BAF1000F06DAFCF7A4FB6A
:103C400042464B46FCF7A0FB05E0FCF70FFC424662
:103C50004B46FCF70BFC04460E460022284BFCF7B3
:103C6000F5FC03D84FF0FF30014607E00022254B5A
:103C700020463146FCF7E1FAFCF728FE102409E063
:103C8000002C0ADB0A220023FCF72AFD039B3032BA
:103C90001A55641E50EA0102F2D1641C039AC4F161
:103CA00011031444119A012A03D0012208430DD1B3
:103CB0000AE0084304D000204FF0110B119072E786
:103CC000A3EB0B056D1E0DE05B4504DD4FF000021C
:103CD00005F1010504E003DA4FF00002A5F101054A
:103CE000002AECD002981199C0E90231C0E90045E0
:103CF00079E70000000014400000F03F30000000B1
:103D00000000F0430000E03F2DE9FF4F95B09B46D7
:103D10008946064600250FE2252877D1002427464C
:103D2000F84A0121059400E0044316F8013F203BC6
:103D300001FA03F01042F7D130782A2811D06FF041
:103D40002F033078A0F13002092A16D8059A44F0E2
:103D5000020402EB820203EB42021044761C05903F
:103D6000EFE759F8042B0592002A03DA504244F495
:103D70000054059044F00204761C30782E2816D1A9
:103D800016F8010F44F004042A280DD06FF02F021A
:103D90003078A0F13003092B09D807EB870302EB39
:103DA0004303C718761CF3E759F8047B761C307878
:103DB0006C280FD006DC4C2817D068280DD06A2854
:103DC00014D104E0742810D07A280FD10DE044F407
:103DD00000140AE044F4801401E044F440147278C2
:103DE000824202D104F58014761C761C3078662855
:103DF0000BD013DC582877D009DC002875D0452873
:103E0000F6D04628F4D047281AD19DE118E063285F
:103E100035D0642879D0652812D195E1702873D007
:103E200008DC6728F1D069286FD06E280DD06F2884
:103E300006D1B5E073282CD0752875D0782874D0B9
:103E40005A46179990476D1C75E1C4F30250022839
:103E500009D003280DD0D9F8001004280DD00D602A
:103E600009F1040967E1D9F80010EA17C1E9005225
:103E7000F6E7D9F800100D80F2E70D70F0E719F8B9
:103E8000041B8DF8001000208DF80100EA46012087
:103E900003E059F804AB4FF0FF3061074FF0000129
:103EA00002D40DE008F101018846B9420FDA8045DD
:103EB000F8DB1AF808100029F4D108E008F1010134
:103EC00088468142FADB1AF808100029F6D10598D5
:103ED0005B46A0EB080721463846179A00F094FA93
:103EE000284400EB080507E04DE029E10DE01AF851
:103EF000010B5A4617999047B8F10108F7D25B4673
:103F000021463846179A13E142E00A220092C4F390
:103F100002524FF0000A022A08D059F804CB032AB3
:103F20004FEAEC710AD00DE029E02AE009F107011F
:103F300021F00702F2E802C1914609E00FFA8CFC79
:103F40004FEAEC71042A03D14FFA8CFC4FEAEC7172
:103F5000002907DA0A460021DCF1000C61EB0201BE
:103F60002D2202E0220504D52B228DF80420012207
:103F700003E0E20701D02022F7E7904659E00A214A
:103F800002E010220DE010214FF0000A00910BE03A
:103F900010224FF0000A44F004040827009203E0C6
:103FA00008224FF0000A0092C4F30252022A05D000
:103FB00059F804CB0021032A08D009E009F10701D0
:103FC00021F00702F2E802C1914605E01FFA8CFCDD
:103FD000042A01D10CF0FF0C4FF00008220728D56D
:103FE000702806D0009B83F0100353EA0A0305D023
:103FF0000EE040228DF80420012208E05CEA010274
:1040000006D030228DF804208DF80500022290465B
:10401000009B83F0080353EA0A030AD15CEA010219
:1040200001D1620705D530228DF804204FF0010838
:104030007F1E582804D034A003900EA802900DE0F3
:1040400036A0F9E753466046009AFCF749FB8446E0
:104050000398825C0298401E029002705CEA0100A4
:10406000F0D1029806A9081A00F1200A600702D5CB
:1040700024F4803400E00127574502DDA7EB0A0055
:1040800000E0002000EB0A01009005984144401A2E
:104090000590E00306D45B462146179A059800F088
:1040A000B3F90544002706E001A85A46C05D1799F8
:1040B00090476D1C7F1C4745F6DBE0030CD55B4643
:1040C0002146179A059800F09FF9054404E0302036
:1040D0005A46179990476D1C0099481E0090002978
:1040E000F5DC08E0029802995A460078491C0291D2
:1040F000179990476D1CBAF10001AAF1010AF1DC91
:1041000065E100000928010030313233343536379B
:104110003839616263646566000000003031323313
:1041200034353637383941424344454600000000B3
:1041300000F058F90544761C307800287FF4ECAD87
:1041400019B02846BDE8F08F620700D4062709F1B0
:10415000070222F0070CFCE80223E14603F00048C6
:104160005FEA080C02D00FF2702C0DE05FEA045CED
:1041700002D50FF2682C07E05FEAC47C02D00FF290
:10418000602C01E0AFF2700C4FF0FF3823F00043D9
:10419000CDF850C065280CD006DC452809D046284B
:1041A0001DD047283DD13DE0662818D067287ED134
:1041B00038E00021112F01DB112000E0781CCDE94F
:1041C000000106A90EA8FFF7DDFCDDE90F010E9A3C
:1041D00003910021009207F1010A04914DE04FF094
:1041E00000400097CDE9011006A90EA8FFF7CAFC10
:1041F000DDE90F0203920E9B11990022DDF80CA05D
:104200000093049211B9791C00EB010AB7EB0A0084
:1042100004D4C0F1FF3007F1010A0490AAEB0700B3
:10422000019044E0012F00DA01270021112F01DD68
:10423000112000E03846CDE9000106A90EA8FFF7DD
:10424000A1FCDDE90F010E9A039100210491009277
:10425000BA4621070CD40399514500DA8A46BAF1CF
:10426000010F05DD009AAAF10101515C302908D047
:10427000B84202DA10F1040F06DA0121CDE901108B
:1042800015E0AAF10101E9E7002805DC04990144E1
:104290000491AAEB000102E0411C514500DD8A4671
:1042A0000499401A401C01904FF0004002902007F2
:1042B00004D40198504501DBCDF8048000208DF82E
:1042C0004F0002980DF14F07B0F1004F25D02B2081
:1042D0000E9002984FF0020800280CDA404202903B
:1042E0002D200E9007E00A210298FCF7E3F9303107
:1042F000029007F8011DB8F10001A8F10108F2DCF5
:1043000002980028EFD1791E0E980870307800F0DE
:10431000200040F0450007F8020D12A8C01B00F174
:1043200007081498007800B1012000EB0A010198F9
:1043300001EBE07105984144401A401E0590E003EE
:1043400006D45B462146179A059800F05DF80544AF
:104350001498007818B15A46179990476D1CE003DD
:1043600024D55B462146179A059800F04DF8054480
:104370001CE00498002807DBDDE90301884203DD27
:104380000098405C179901E0179930205A469047F1
:10439000049805F10105401C04900198401E01900D
:1043A00004D12E205A46179990476D1CBAF100018E
:1043B000AAF1010ADDDC05E017F8010B5A4617994E
:1043C00090476D1CB8F10001A8F10108F4DC5B46D0
:1043D0002146179A0598ABE62D0000002B0000003F
:1043E000200000002DE9F041044600251E46174636
:1043F000880404D405E039462020B0476D1C641EB3
:10440000F9D52846BDE8F0812DE9F04104460025A4
:104410001E469046C80301D5302700E020278804B7
:1044200004D505E041463846B0476D1C641EF9D5F9
:104430002846BDE8F0810A68531C0B601070704775
:1044400010B52DED028BA848407830B90023012229
:1044500041F28831062002F07DFC0620FDF720F9AC
:10446000012807D1A04948700123002211460620E7
:1044700002F070FCFCF764FE90ED030AF2EE040A11
:10448000B4EEE00AF1EE10FA11DAFCF759FE90ED05
:10449000030A10EE104A2046FCF7ADF841EC180B69
:1044A0009FED920B53EC102BFCF7B8F80BD247F2B0
:1044B000305201210020FEF7E3FC8E4909780843C1
:1044C0008C4908700AE041F28832FE210020FEF794
:1044D000FAFC88490978084086490870FCF730FEE4
:1044E00090ED020ADFED840AB4EEE00AF1EE10FA74
:1044F0000ADAFCF725FE90ED020AF3EE0E0AB4EE9E
:10450000E00AF1EE10FA3FD247F2305202210120C8
:10451000FEF7B6FC774909780843764908700846E3
:10452000007800F0020048B1FCF70AFE90F8600045
:1045300040F00104FCF704FE80F86040FCF700FE48
:1045400090F8600000F00100A0B3FDF741F90446C7
:10455000FCF7F6FDC06D201A684988422AD3FCF7A3
:10456000EFFD90F8600000F0FE04FCF7E9FD80F834
:104570006040FCF7E5FD90F8600040F01004FCF7A7
:10458000DFFD80F8604015E041F28832FD21002017
:10459000FEF799FC574909780840564908700846C3
:1045A000007800F0020028B9FDF712F90446FCF784
:1045B000C7FDC465FCF7C4FD90ED050AF1EE0C0AD9
:1045C000B4EEE00AF1EE10FA08DAFCF7B9FD90ED6E
:1045D000050AB5EEC00AF1EE10FA0BD247F23052DE
:1045E00004210320FEF74CFC424909780843414965
:1045F00008700AE041F28832FB210320FEF763FCD9
:104600003C49097808403B490870FCF799FD90ED5A
:10461000060ADFED3B0AB4EEE00AF1EE10FA0ADA20
:10462000FCF78EFD90ED060ADFED360AB4EEE00AE7
:10463000F1EE10FA0BD247F2305208210220FEF7B9
:104640001FFC2C49097808432A4908700AE041F206
:104650008832F7210220FEF736FC26490978084007
:1046600024490870FCF76CFD4078032804D0FCF75F
:1046700067FD407801280BD14FF47A722021042085
:10468000FEF7FEFB1B49097808431A4908700AE047
:104690004FF47A72DF210420FEF715FC15490978E2
:1046A000084014490870FCF74BFD007858B941F2F6
:1046B000883210210520FEF7E3FB0E4909780843F4
:1046C0000C4908700AE041F28832EF210520FEF71C
:1046D000FAFB08490978084006490870054800783F
:1046E000BDEC028B10BD0000580000209A999999EA
:1046F0009999B93F680000200000FA4420BF0200E9
:1047000000409C4400004842816841F008018160FB
:1047100000BF816801F008010029FAD1816841F0E9
:104720000401816000BF816801F004010029FAD111
:1047300070470000A1B100F4800232B1134A126840
:1047400042F48002124BC3F8042300F40002DAB1F1
:104750000E4A126842F400020D4BC3F8042313E022
:1047600000F4800232B1094A126822F48002084B38
:10477000C3F8042300F4000232B1044A126822F4A0
:104780000002034BC3F804237047000004230140D8
:104790000020014030B5012902D0022920D10FE0CC
:1047A0006AB1102A0BD8C36A23F47003C362C36AC8
:1047B000541E4FF4700505EA04542343C36210E00D
:1047C0006AB1042A0BD8836B23F440138363836B91
:1047D000541E4FF4401505EA04542343836300E05C
:1047E00000BF00BF30BD000010B5044604232246C0
:1047F00000210B4800F03EF90121094800F094F92E
:1048000000BF0221064800F0D9F80028F9D00221A3
:10481000034800F0CFF8024800F082F910BD000014
:10482000002001400649096821F4E021054AC2F848
:1048300004131146D1F804130143C2F8041370475E
:10484000042301400020014010B500F06EF8002064
:1048500000F0AAF9032202212D48FFF79BFF06234F
:10486000102200212A4800F0B0F80623112201216D
:10487000274800F0AAF8062312220221244800F05B
:10488000A4F800220221224800F062F8002120480A
:1048900000F040F8012211021D4800F057F90121F3
:1048A0008805FFF747FF0121C805FFF743FF0022F6
:1048B0000221174800F066F800220221144800F097
:1048C00047F800220221124800F040F90021104868
:1048D00000F020F8012211460D48FFF75BFF00228F
:1048E00001210B4800F04EF800220121084800F099
:1048F0002FF8074800F023F8012000F09FFB044840
:10490000FFF702FF0221024800F00EF910BD00007F
:104910000020014021B1826842F40062826003E01D
:10492000826822F400628260704710B540F6081079
:1049300002F0E0F940F6081002F0CAF910BD8168F3
:1049400001F0010119B9816841F0010181607047EE
:10495000012902D0022912D108E0836823F04053D4
:104960008360836843EA0273836009E0836823F409
:1049700040138360836843EA0253836000E000BF12
:1049800000BF7047012902D0022910D107E08368D7
:1049900023F07063836083681343836008E0836857
:1049A00023F47023836083681343836000E000BFB7
:1049B00000BF704702688A430260704702460020C9
:1049C00013680B4003B101207047F0B50C46876BAC
:1049D000C7F30156042C12D2856B371B07EB8707F0
:1049E000C7F10F0C1F2707FA0CF7BD43371B07EB66
:1049F0008707C7F10F0702FA07F73D4385630A2AC5
:104A00000DDA016902EB420C072707FA0CF7B943EC
:104A100002EB420703FA07F73943016112E0122A59
:104A200010DCC168A2F10A0707EB470C072707FA59
:104A30000CF7B943A2F10A0707EB470703FA07F798
:104A40003943C160F0BD02460B4633B1012B06D09D
:104A5000022B06D0032B08D105E0D16B07E0116CC7
:104A600005E0516C03E0916C01E0002100BF00BF44
:104A700088B27047F0B51D4606290CDA436B01EB8E
:104A800081071F26BE40B34301EB810602FA06F6FA
:104A90003343436322E00C290EDA036B8E1F06EBCF
:104AA00086071F26BE40B3438E1F06EB860602FA1A
:104AB00006F63343036311E010290FDAC36AA1F14C
:104AC0000C0606EB86071F26BE40B343A1F10C0679
:104AD00006EB860602FA06F63343C3620A2A0CDAAC
:104AE000046902EB42070726BE40B44302EB4206CC
:104AF00005FA06F63443046111E0122A0FDCC4689B
:104B0000A2F10A0606EB46070726BE40B443A2F10F
:104B10000A0606EB460605FA06F63443C460F0BD05
:104B20000146C86C80B27047012902D002290AD11F
:104B300004E0826842F08042826005E0826842F4CC
:104B40008002826000E000BF00BF7047AAB101F49C
:104B500080731BB1436843F48073436001F4806346
:104B60001BB1436843F48063436001F00203CBB19F
:104B7000836843F00203836014E001F480731BB187
:104B8000436823F48073436001F480631BB143687E
:104B900023F48063436001F002031BB1836823F0B8
:104BA00002038360704700000649096821F01F0175
:104BB000054AC2F804131146D1F804130143C2F8A0
:104BC00004137047042301400020014010B502F097
:104BD00071FF10BD2DE9F04387B004460D463DB985
:104BE00000220321534802F060FB07B0BDE8F083C8
:104BF00042F21070854206D14FF6FF7203214D48F4
:104C000002F053FBF1E705FB06F042F21071B0FB36
:104C1000F1F94A460321474802F047FB4648076836
:104C2000642C0AD242F20F7842F21070B7FBF0F017
:104C3000B0FBF4F0401E86B213E040F6B830844278
:104C400009D24FF063086420B7FBF0F0B0FBF4F03A
:104C5000401E86B205E04FF00008B7FBF4F0401E9E
:104C600086B24FF4406002F021F84FF40063002256
:104C70000221324800F02CFF4FF400630222002191
:104C80002E4800F04CFF4FF4006201212B4800F049
:104C9000A5FE4FF4805002F009F84FF0807002F04A
:104CA0003BF84FF0804002F041FB0020ADF80000DF
:104CB000ADF80200ADF804004FF6FF70029000203E
:104CC000ADF806008DF80C0069464FF0804002F008
:104CD000F5FB0020ADF814000120ADF81000002015
:104CE000ADF81600ADF81200ADF81800ADF81A00D6
:104CF00004AA0121880702F0B5F947F6FF720321E3
:104D00004FF0804002F0D1FA602203214FF0804042
:104D100002F09EFA002203214FF0804002F0D8FA00
:104D20004FF0804002F056F94FF0804002F0C0FB97
:104D300000BF5AE7000001400800002000000240C8
:104D400030B58FB00446BA48007828B1032C03D0A0
:104D5000062C01D0092C01D1B54804700023012292
:104D60004FF4FA710A2001F0F5FF0A20FCF798FCD5
:104D7000012873D1AF48407D002870D1AC4800783D
:104D80000A2825D2DFE800F0240525456C8CACD13B
:104D9000FDFC0220A84908700620487036204860B3
:104DA000002088608DF82C0001208DF82D00084629
:104DB000BDF82C1041832C2200F110016846FBF74E
:104DC00011FA9D480FC8FDF70DF9022098490870A7
:104DD00024E102209849087003204870662048604A
:104DE000002088608DF82C0001208DF82D000846E9
:104DF000BDF82C1041832C2200F110016846FBF70E
:104E0000F1F98D480FC8FDF7EDF8022088490870C8
:104E100004E1022088490870062048703E2048605E
:104E2000002088608DF82C00FF208DF82D000846AA
:104E3000BDF82C1041832C2200F110016846FBF7CD
:104E4000D1F97D480FC8FDF7CDF8002078490870EA
:104E5000FCF702F8002180F82510DFE0E5E0DEE055
:104E600002207549087006204870382048600020EC
:104E700088608DF82C0001208DF82D000846BDF8C3
:104E80002C1041832C2200F110016846FBF7AAF98F
:104E900069480FC8FDF7A6F8052065490870BDE010
:104EA0000220654908700320487066204860002091
:104EB00088608DF82C0001208DF82D000846BDF883
:104EC0002C1041832C2200F110016846FBF78AF96F
:104ED00059480FC8FDF786F80520554908709DE030
:104EE000022055490870062048703F204860002085
:104EF00088608DF82C00FF208DF82D000846BDF845
:104F00002C1041832C2200F110016846FBF76AF94E
:104F100049480FC8FDF766F8002045490870FBF7BF
:104F20009BFF002180F8251078E00120424908709D
:104F3000102048703020486002208860FBF78CFF0A
:104F400000F1280504208DF82C00E8788DF82D005C
:104F5000A8788DF82E0028788DF82F0068788DF8C5
:104F6000300035480B99C0F81A109DF83010817741
:104F70002C2200F110016846FBF734F92E4801E0BD
:104F800027E006E00FC8FDF72DF808202849087033
:104F900044E00120284908700320487066204860DA
:104FA000002088608DF82C0001208DF82D00084627
:104FB000BDF82C1041832C2200F110016846FBF74C
:104FC00011F91D480FC8FDF70DF8082018490870A1
:104FD00024E0012018490870062048703F204860EE
:104FE000002088608DF82C00FF208DF82D000846E9
:104FF000BDF82C1041832C2200F110016846FBF70C
:10500000F1F80D480FC8FCF7EDFF002008490870C3
:10501000FBF722FF002180F8251000BF00BF01230D
:10502000002211460A2001F095FE0FB030BD0000AD
:10503000360000208C010020C8010020044A1168BD
:1050400000BF034A1268521A8242FAD37047000026
:1050500000000020002106E0002201E000BF521CF9
:105060000A2AFBD3491C8142F6D3704710B501EBE5
:105070004102D30000F11002D25842F0010301EBCB
:105080004102D40000F11002135110BD30B5134697
:1050900001EB4104E50000F11004625922F0606266
:1050A00042EA436201EB4104E50000F11004625161
:1050B00030BD10B501EB4102D30000F11002D2580F
:1050C00022F4807301EB4102D40000F1100213516D
:1050D00010BD000000B589B040F6154001F0E6FDB6
:1050E00040F6164001F0E2FD0021244800F04EF8A1
:1050F0000421224800F04AF80521214800F046F832
:1051000000221146382001F0F3FA002211463C201B
:1051100001F0EEFA00221146442001F0E9FA0221E2
:10512000174800F033F8002006901648029000203F
:1051300003908020079014480090012001900020E7
:1051400004904FF4403008906A4602210C4800F069
:10515000AFF902210A48FFF7ACFF052202210848F7
:10516000FFF794FF10220221054800F061F80221A8
:105170000348FFF77BFF09B000BD0000006002405C
:1051800000640240150300200414014010B501EB37
:105190004102D30000F11002D25822F0010301EBCA
:1051A0004102D40000F110021351002301EB41022F
:1051B000D40000F11002135101EB4102D40000F1C0
:1051C0001402135101EB4102D40000F118021351F3
:1051D00001EB4102D40000F11C02135101EB41022A
:1051E000D40000F12002135101EB4102D40000F180
:1051F0002402135104290CDA01EB41025300C1F3DC
:10520000400203EB82033D229A4083681A43826086
:105210000DE00A1FD1B201EB41025300C1F340027D
:1052200003EB82033D229A40C3681A43C26010BD5B
:1052300030B5802A0DD001EB4103DC0000F11003F2
:105240001B59134301EB4104E50000F110046351C5
:105250000CE001EB4103DC0000F124031B59134374
:1052600001EB4104E50000F12404635130BD10B5A9
:1052700004290CDA01EB41035C00C1F3400304EBA9
:10528000830302FA03F38468234383600DE00B1F5A
:10529000D9B201EB41035C00C1F3400304EB83038B
:1052A00002FA03F3C4682343C36010BDF0B503469C
:1052B000002500260C46042979DA082A34D004DCBB
:1052C000012A07D0042A70D119E0102A41D0202ADF
:1052D0006BD153E001EB41004700C1F3400007EB05
:1052E000800702FA07F01F6800EA070601EB410099
:1052F000C70003F12400C05900F0800556E001EB1F
:1053000041004700C1F3400007EB800702FA07F0B5
:105310001F6800EA070601EB4100C70003F1100017
:10532000C05900F0020541E001EB41004700C1F324
:10533000400007EB800702FA07F01F6800EA070643
:1053400001EB4100C70003F11000C05900F0040553
:105350002CE001EB41004700C1F3400007EB800760
:1053600002FA07F01F6800EA070601EB4100C700D8
:1053700003F11000C05900F0080517E001EB4100EF
:105380004700C1F3400007EB800702FA07F01F68EF
:1053900000EA070601EB4100C70003F11000C05905
:1053A00000F0100502E002E0FFE700BF7AE0201FF6
:1053B000C4B2082A34D004DC012A07D0042A6FD1F1
:1053C00019E0102A41D0202A6AD153E004EB4400AE
:1053D0004700C4F3400007EB800702FA07F05F685C
:1053E00000EA070601EB4100C70003F12400C059A1
:1053F00000F0800555E004EB44004700C4F3400092
:1054000007EB800702FA07F05F6800EA070601EB86
:105410004100C70003F11000C05900F0020540E050
:1054200004EB44004700C4F3400007EB800702FA96
:1054300007F05F6800EA070601EB4100C70003F1CF
:105440001000C05900F004052BE004EB44004700B5
:10545000C4F3400007EB800702FA07F05F6800EA38
:10546000070601EB4100C70003F11000C05900F02E
:10547000080516E004EB44004700C4F3400007EBC6
:10548000800702FA07F05F6800EA070601EB4100B7
:10549000C70003F11000C05900F0100501E0FFE75C
:1054A00000BF00BF16B10DB10120F0BD0020FCE728
:1054B00070B501EB4104E50000F12404645924F0C7
:1054C000040501EB4104E60000F12404A55101EBC1
:1054D0004104E60000F118041568A55101EB4104F0
:1054E000E60000F11C049568A55101EB4104E600BB
:1054F00000F11404D569A55101EB4104E50000F168
:10550000100463593F4C2340146944EA8404156A2B
:105510002C4395692C43234301EB4104E50000F142
:1055200010046351546874B901EB4104E50000F1C3
:105530001004645944F4007501EB4104E60000F1E5
:105540001004A5511FE05468012C0ED101EB410459
:10555000E50000F11004645924F4007501EB4104E6
:10556000E60000F11004A5510DE001EB4104E50057
:1055700000F11004645944F4004501EB4104E600D5
:1055800000F11004A551D46874B901EB4104E500A1
:1055900000F11004645944F4806501EB4104E60015
:1055A00000F11004A5510DE001EB4104E50000F10C
:1055B0001004645924F4806501EB4104E60000F115
:1055C0001004A551546974B901EB4104E50000F1E0
:1055D0001004645944F4807501EB4104E60000F1C5
:1055E0001004A5510DE001EB4104E50000F11004A9
:1055F000645924F4807501EB4104E60000F11004C5
:10560000A55170BD3F87FCFF10B5FBF799FD90EDEC
:10561000040AF1EE040AB4EEE00AF1EE10FA0DD835
:1056200001210620FBF7C4FA01210720FBF718FA35
:10563000FBF786FD052180F86710CAE0FBF780FDC7
:10564000002180F86710FEF7FBFE00F0200058B341
:10565000FBF776FD062180F86810FBF771FD4078B6
:1056600001281CD10021FBF7A3FA00210220FBF73F
:105670009FFA01210320FBF79BFA01210420FBF78D
:1056800097FA01210520FBF793FA00210220FBF78E
:10569000E7F9FBF755FD012180F8611099E0012140
:1056A0000220FBF785FA94E001210220FBF780FA43
:1056B000FBF746FD002180F86110FBF741FD00215A
:1056C00080F86810FEF7BCFE00F00C0010B94148ED
:1056D0004078E8B9FBF734FD90F8600000F0100066
:1056E00080BB00210120FBF763FA01210220FBF7B8
:1056F0005FFA00210320FBF75BFA00210420FBF78F
:1057000057FA01210520FBF753FAFBF79DFA19E040
:10571000FBF716FD002180F862100120FBF748FA24
:1057200001210220FBF744FA00210320FBF740FA95
:1057300001210420FBF73CFA00210520FBF738FA91
:10574000FBF782FAFEF77CFE00F0020058B1FBF78F
:10575000F7FC002060B1FBF7F3FC022180F8641035
:10576000FBF772FA04E0FBF7EBFC002180F8641011
:10577000FBF7E6FC90F8600000F0100048B300234F
:1057800001221549092001F0E5FA0920FBF788FFFD
:1057900001280AD1FBF7D4FC002180F86010012316
:1057A00000221146092001F0D5FA00210120FBF763
:1057B000FFF900210320FBF7FBF900210420FBF790
:1057C000F7F901210520FBF7F3F900210220FBF78F
:1057D00047F910BD5800002020BF020010B5FBF7AC
:1057E0003BFB90F8210018B100F03CFFFDF7D6F923
:1057F000FBF732FB90F8200070B300210120FBF78B
:10580000D7F901210220FBF7D3F900210320FBF790
:10581000CFF901210420FBF7CBF901210520FBF78B
:10582000C7F900210220FBF71BF9002301220F49D1
:10583000092001F08FFA0920FBF732FF012813D16C
:10584000FBF70AFB002180F82010012300221146FB
:10585000092001F07FFA07E0FBF7FEFA90F8230039
:10586000012801D0FFF7D0FE10BD000020BF0200CC
:1058700010B52D4B1B6883432B4C2360231D1B68E5
:105880008343241D2360231D1B688343241D236041
:10589000231D1B688343241D236011B101290ED1F0
:1058A00005E0214B1B6803431F4C236008E01E4B9F
:1058B0001B1D1B6803431C4C241D236000E000BF1C
:1058C00000BF32B1012A11D0022A1CD0032A27D1ED
:1058D00027E0154B08331B680343134C083423603F
:1058E000231D1B688343241D23601BE00E4B0833DC
:1058F0001B6883430C4C08342360231D1B6803433F
:10590000241D23600EE0084B08331B680343064C3C
:1059100008342360231D1B680343241D236001E01A
:1059200000BF00BF00BF10BD003C0140014908603E
:1059300070470000143C014001460748006800EA37
:10594000010205481438006800EA010312B10BB1E6
:10595000012070470020FCE7143C014082B0CDE9F3
:10596000000121F0004001909DED000B02B051ECD0
:10597000100B7047F8B506460F4614461D46A8455D
:1059800009DA4FF2BE70291B8AB200903019102339
:105990003946FBF78FF9F8BD2DE9F04104460F4673
:1059A000E5B200262946064801F0A7FF00BF0721FF
:1059B000034802F02AF80028F9D02046BDE8F0811B
:1059C0000010014000487047460200200048704720
:1059D000880000200048704770000020F0B50346A2
:1059E0001C6A5D6A00200DE00126864016403EB12B
:1059F00087000F26BE40B443860001FA06F6344302
:105A0000461CB0B20828EFD3082011E001268640DA
:105A100016405EB1A0F10806B7000F26BE40B543A0
:105A2000A0F10806B60001FA06F63543461CB0B2EE
:105A30001028EBD31C625D62F0BD8162704781610A
:105A400070470AB1816100E08162704710B5402360
:105A500000220321174800F03BF810230022032105
:105A6000154800F035F8012300220221134800F008
:105A70002FF8012302220021104800F050F80122E3
:105A800002210E48FFF7AAFF4FF400630022022113
:105A9000084800F01DF84FF4006302220021054879
:105AA00000F03DF84FF4006201210248FFF796FF35
:105AB00010BD000000000240000802400004024047
:105AC00002461069084008B1012070470020FCE739
:105AD000F0B504460D4616462168E268002019E03C
