:020000040800F2
:100000006813002055020008D56A00084F650008F3
:10001000D16A0008252500081D8E00080000000098
:1000200000000000000000000000000089740008CB
:10003000DD28000800000000D76A0008DD7A00080B
:100040006F0200086F0200086F0200086F020008CC
:100050006F0200086F0200086F0200086F020008BC
:100060006F0200086F0200086F02000855280008A0
:1000700065280008752800088528000895280008CC
:100080006F0200086F020008B91C00086F02000828
:100090006F0200086F0200086F0200086F0200087C
:1000A0006F0200086F0200086F0200086F0200086C
:1000B0006F0200086F020008818100086F020008CB
:1000C0006F0200086F0200086F0200086F0200084C
:1000D0006F020008558D00086F020008698D000846
:1000E0006F0200086F0200086F02000800F002F8BB
:1000F00000F0A0F80AA090E8000C82448344AAF122
:100100000107DA4501D100F095F8AFF2090EBAE81F
:100110000F0013F0010F18BFFB1A43F0010318473B
:1001200060A9000080A900000A4410F8014B14F0F7
:100130000F0508BF10F8015B240908BF10F8014B38
:100140006D1E05D010F8013B6D1E01F8013BF9D181
:10015000641E03D0641E01F8015BFBD19142E4D31D
:10016000704700000023002400250026103A28BF15
:1001700078C1FBD8520728BF30C148BF0B60704719
:100180006E2900F0FF81702900F0498366290AF08A
:100190002E8265290AF02B8267290AF028826129BC
:1001A0000AF0278203681B0A28BF41F080016929F1
:1001B00000F0AC81642900F0A981752900F0A681C6
:1001C0006F2900F0D682782900F01583E92900F024
:1001D0007182E42900F06E82F52900F06B82EF292C
:1001E00000F0D382F82900F014830368DB0928BFEC
:1001F00041F08001632901F01B80732901F0208008
:10020000E32901F02B80F32901F0308000207047B2
:100210001FB501F081F804000020002109F05CF90D
:10022000401C60600020002109F040F9E0601FBD23
:1002300010B510BD01F042F81146FFF7E9FF09F0D3
:10024000A5F801F01FF903B4FFF7F2FF03BC01F0BA
:1002500063F900000948804709480047FEE7FEE7C8
:10026000FEE7FEE7FEE7FEE7FEE7FEE7FEE7FEE766
:1002700004480549054A064B70470000297D0008DF
:10028000ED000008680D002068130020680F0020B2
:10029000680F0020B2F120030AD5C2F1200320FA32
:1002A00002F001FA03F321FA02F140EA0300704779
:1002B00021FA03F04FF00001704700007CB51D46A5
:1002C00016460C00009001D02044401E074B7B4492
:1002D0002A4669460190304600F06DF905461CB18A
:1002E0000020694600F07AF928467CBD150300001D
:1002F000032A40F2308010F0030C00F0158011F852
:10030000013BBCF1020F624498BF11F801CB00F829
:10031000013B38BF11F8013BA2F1040298BF00F87D
:1003200001CB38BF00F8013B11F0030300F025803A
:10033000083AC0F0088051F8043B083A51F804CB61
:10034000A0E80810F5E7121D5CBF51F8043B40F827
:10035000043BAFF30080D20724BF11F8013B11F832
:1003600001CB48BF11F8012B24BF00F8013B00F876
:1003700001CB48BF00F8012B704710B5203AC0F000
:100380000B80B1E81850203AA0E81850B1E8185096
:10039000A0E81850BFF4F5AF5FEA027C24BFB1E8D3
:1003A0001850A0E8185044BF18C918C0BDE8104044
:1003B0005FEA827C24BF51F8043B40F8043B08BF4D
:1003C0007047D20728BF31F8023B48BF11F8012B14
:1003D00028BF20F8023B48BF00F8012B70474FF0C0
:1003E000000200B5134694469646203922BFA0E885
:1003F0000C50A0E80C50B1F12001BFF4F7AF090791
:1004000028BFA0E80C5048BF0CC05DF804EB890081
:1004100028BF40F8042B08BF704748BF20F8022BC4
:1004200011F0804F18BF00F8012B704770477047DC
:10043000704710B500F0C2FA006810BD10B5044650
:1004400000F0BCFA046010BD70B504468569006810
:10045000C10601D5302600E02026C00707D070BDB8
:10046000D4E9012130469047206A401C20626D1E6D
:10047000F6D570BD70B5044685690078C00707D110
:1004800070BDD4E9012120209047206A401C2062E1
:100490006D1EF6D570BD09684A0501D540B270479A
:1004A000C905FCD500B2704709684A0501D5C0B23C
:1004B0007047C905FCD580B2704770B50C4605463B
:1004C000012A05D02878800600D5EA69002302E0D9
:1004D000012305E05B1C934202D2E05C0028F9D1C5
:1004E000A869E618C01AA861286A18442862284634
:1004F000FFF7AAFF04E0D5E9012114F8010B9047AA
:10050000B442F8D32846FFF7B5FF70BD2DE9F0419E
:100510000646002410687529314616A510D0FFF74D
:10052000BAFF002802DA404213A507E031688A07C3
:1005300001D512A502E0490704D511A5012401E067
:10054000FFF7B2FF00210A2206F1240709E0B0FB01
:10055000F2FCB0FBF2F302FB1C003030785418467A
:10056000491C0028F3D123462A463046BDE8F04115
:1005700000F06DBA000000002D0000002B0000000C
:100580002000000011680268006A530501D5087058
:100590000AE0D30501D5088006E0130603D5C2178B
:1005A000C1E9000200E008600120704701694A1CAF
:1005B00002610878704700B58FB0CDE901310021A4
:1005C000059105497944CDE903101146684600F0CC
:1005D00031F90FB000BD0000E5FFFFFF0A6802F827
:1005E000010B0A607047D1E900239A4202D2531CE2
:1005F0000B601070704700002DE9FF5F15468A46BA
:100600000446DFF8AC80F8440027D8E900103E46E5
:10061000CDE9001010E03AF816106A4602A800F082
:1006200029FE411C07D02178890603D5E2693918D3
:1006300091420DD80744761C2078800602D5E069E7
:10064000B84205DDAE42E6DB3AF816000028E2D1FA
:10065000A069C01BA0612046FFF7F6FED8E9001094
:10066000CDE90010002017E03AF818106A4602A8F9
:1006700000F000FEB0F1FF3F81460BD000250DF1E8
:10068000080B05E0D4E901211BF8050090476D1C1B
:100690004D45F7D308F10100B0428046E4DB206A03
:1006A000384420622046FFF7E5FEBDE8FF9F0000CA
:1006B0003EA200002DE9F0418046D21D22F0070243
:1006C0000025D2E90002F52915A614D0011E72F109
:1006D000000106DA0023D0EB030063EB020211A64F
:1006E00008E0D8F800108B0701D50FA602E04907F3
:1006F00001D50EA601251146002408F1240704E0C7
:1007000000F060F930323A55641C50EA0102F7D12A
:100710002B46324621464046BDE8F04100F097B9ED
:10072000000000002D0000002B0000002000000051
:1007300030B4002100F1240408E002F00705D208DB
:10074000303542EA4372DB086554491C52EA03051E
:10075000F3D10468002310A2250707D5A40600D40E
:1007600021B1C46901230DA2641EC46130BC00F034
:100770006EB910B5044621461068FFF795FE024693
:100780002046BDE810400023D2E7D21D22F0070129
:10079000D1E90023CCE70000000000003000000099
:1007A000F0B40D460188090502D5214C7C4402E0D5
:1007B0001F4C7C440E34002100F1240608E002F0B6
:1007C0000F071209E75D42EA03721B097754491CBF
:1007D00052EA0307F3D102780023120704D5702DE3
:1007E00006D009B1022311342246F0BC00F02FB923
:1007F00001231034F8E770B504460D462146106811
:10080000FFF752FE024629462046BDE8704000230D
:10081000C6E7D21D22F00703D3E90023C0E703682F
:10082000126843F0200303600823C3610023B7E785
:10083000A0A000002DE9F05F894604464FF0000AB1
:10084000DFF874B1FB44C0F820A02046E168884777
:10085000002874D0252806D0D4E901219047206AC9
:10086000401C2062F1E700265F462046E168884789
:100870002028054607DB312D05D2781910F8200C09
:1008800008B10643F1E7B00701D526F00406C4F825
:100890001CA00027C4F818A02A2D09D0284608F06B
:1008A00013FC38B304EB8708303DC8F8185019E042
:1008B00059F8041B204604EB87029161E1688847E0
:1008C000012F054618D1E069002820DA26F020061D
:1008D0001DE0D8F8180000EB800005EB4000303830
:1008E000C8F818002046E1688847054608F0ECFB88
:1008F0000028EED1012F0AD02E2D08D12046E16824
:1009000088477F1C0546022F46F02006C4DBA069FD
:10091000002803DA404246F00106A061F00701D04A
:1009200026F010066C2D0BD0682D09D04C2D39D037
:100930006A2D35D0742D35D07A2D33D016E038E0BD
:10094000E1682F4620468847B842054609D16C2FFA
:1009500026D04FF48060E16806432046884705466C
:1009600004E06C2F1AD04FF4807006430DB3A5F14C
:100970004100192802D8203546F400664A46294627
:10098000204626604E46FFF7FBFB80B101280BD0C6
:10099000F61D26F0070000F1080956E74020E4E7BD
:1009A0008020D8E70020D6E706F104094DE7284665
:1009B00052E7206ABDE8F09F30A000000048704771
:1009C000080D002030B5B0F10A024FEA900E71F127
:1009D00000034EEA817EB0EB0E0061EB91014FEA1D
:1009E000101E4EEA017E10EB0E0041EB11114FEA92
:1009F000102E4EEA016E10EB0E0041EB11214FEA72
:100A0000104E4EEA014E10EB0E0041EB1141401822
:100A100041F100014FEAD00040EA41704FEAD101B4
:100A200010EB80054FEA810444EA907444EB010422
:100A30006D1944EB0404521BA3414FF0000348BF5F
:100A40000A3200D530BD401C41F1000130BD2DE916
:100A5000F0470D4699469246044600F12408016885
:100A6000880604D5E06921F01001216000E0012032
:100A7000A84201DD471B00E00027A1697A1902EBBB
:100A80000900081AA0612078C00602D42046FFF7AA
:100A9000DBFC002608E0D4E901211AF806009047A3
:100AA000206A401C761C20624E45F4DB2078C0068C
:100AB0000AD52046FFF7C8FC06E0D4E90121302022
:100AC0009047206A401C2062381EA7F10107F4DC21
:100AD00007E0D4E9012118F805009047206A401C7E
:100AE0002062281EA5F10105F3DC2046FFF7C2FCB9
:100AF0002078000602D50220BDE8F0870120FBE740
:100B000070472DE9FF4F0C461E464FF0FF378BB064
:100B1000D2E90001DDF860800A908A46C1F30A55E7
:100B200005B93D46002108464FF00000BAF1000F1C
:100B300000F4400005DA00EB80004FF4400101EAC8
:100B400050004FEA9059B9F1010F00DDB9460A98FB
:100B500050EA4A000ED044F61050A5F2FF35454346
:100B60002F14B8F1000F1ED07542291E1EDDC9F1E9
:100B700000021CE0B8F1010F4FF0000001D030215D
:100B800003E0F24305E02154401CB042FBDB304659
:100B90000022002121540B99C1F80880C1E90020EE
:100BA0000FB0BDE8F08FBD1B6D1CDEE74A4600DAD2
:100BB000694206A800F0F4FB06AB93E8070003AB1C
:100BC00083E8070050460A9900F0ADFC8DE8070065
:100BD000A0F500501F3800900398002D0ADD42F266
:100BE0001F014A460844002303A90390684600F009
:100BF00016FF09E0A0F500504A461F38002303A95C
:100C00000390684600F020FF8DE807000004000C08
:100C100003D04FF0FF30410800E01046B8F1000F5C
:100C200003D00022009215461EE0751E05D4FFF782
:100C3000C9FE303262556D1EF9D5B3460122084314
:100C400002D000227F1C04E02078302801D100224D
:100C50007F1E002A099784D01DE0112D07DAFFF7C7
:100C6000B1FE303262556D1C50EA0102F5D10843E5
:100C700002D00098C8B10EE00021681E05E0235C98
:100C8000625C63542254401E491C8142F7DBAB4630
:100C9000A81B401E0990002004F80B000B98099A2D
:100CA000C0F80880C0E9002B7AE711264FF0000851
:100CB00057E72DE9F04F88460446D21D22F0070180
:100CC00091B0D1E90001CDE90A0108F081F90246AD
:100CD0000B98C00F01D02D2007E02068810701D5B7
:100CE0002B2002E0202101EAC000032A099001D054
:100CF000072A05DB03464146204600F011FB0BE1C5
:100D00002078800601D5E06900E00620B8F1650F83
:100D1000814606D0B8F1660F18D0B8F1670F70D1D0
:100D200031E00020B9F1110F009001DB112301E047
:100D300009F101030AAA01A90CA8FFF7E2FEDDE907
:100D40000C70002609F10105834647E001204B465F
:100D500000904FF000470AAA01A90CA8FFF7D1FEA6
:100D6000DDE90DB00C995D46002610B909F10100CE
:100D70000D18B9EB050003D4C0F1FF3609F10105E8
:100D8000A5EB09002BE0B9F1010F01DA4FF00109E1
:100D90000020B9F1110F0090484601DD112300E059
:100DA00003460AAA01A90CA8FFF7ABFEDDE90C7007
:100DB0004D4600268346207800070AD4AB4500DA6A
:100DC0005D4601A8012D04DD411911F8011C3029EF
:100DD00007D04F4502DA17F1040F04DA01208246EA
:100DE0000FE06D1EEEE7002F02DCED1B3E4403E03A
:100DF000781CA84200DD7D1CB81B00F1010A4FF0F1
:100E000000472078000703D4AA4501DB4FF0FF3AE2
:100E10000021B7F1004F0DF143088DF8431024D0A5
:100E200002202B23002F01DA7F422D230A21021EEC
:100E3000A0F1010000DC5FB197FBF1FC97FBF1F240
:100E400001FB1C7C17460CF1300C08F801CDEEE7D5
:100E5000A8F1010003702188090501D5452100E0B2
:100E60006521A0F1010800F8011C09980FA9A1EB68
:100E70000807FF1D00B10120411901EBEA70A169CB
:100E80003844081A401EA0612078C00602D42046CB
:100E9000FFF7DAFA099828B1D4E901219047206ACE
:100EA000401C20622078C00622D52046FFF7CCFAED
:100EB0001EE0002E04DBB34502DD01A8805D00E0EA
:100EC0003020D4E901219047206A401C2062761C22
:100ED000AAF101005FEA000A0AD100F01DFAC06819
:100EE0000168405CD4E901219047206A401C2062DF
:100EF000281EA5F10105DCDC07E0D4E9012118F882
:100F0000010B9047206A401C2062381EA7F10107A0
:100F1000F3DC2046FFF7AEFA032011B041E60000F3
:100F20002DE9F04F04460D46D21D22F0070089B08E
:100F3000D0E900974846394608F04AF80246F80FCB
:100F400001D02D2307E02068810701D52B2302E083
:100F5000202101EAC0038DF820300BB1012000E010
:100F60000020032A824601D0072A04DB29462046B6
:100F700000F0D6F93FE12078800601D40D2500E08D
:100F8000E569C7F30A560D2D49DA00214FEA175BD0
:100F900008464FF00000002F00F4400007DA00EB95
:100FA00080004FF4400100EBD07001EA6000811531
:100FB000012901DD4FF0FF3100224FEA850CBCF121
:100FC000180F06D31346ACF118004FF08052C24000
:100FD00003E04FF4801323FA0CF30CF10C0CBCF17A
:100FE000200F04D3ACF1200C09FA0CF001E007FA51
:100FF0000CF000294FF0004801DD18B90FE00ED1C8
:1010000040450CD319EB02095F4121B9404502D19B
:101010009F4329EA0209BBEB175F00D0761C2088AA
:10102000000502D57B48784402E07A4878441938B4
:1010300008AA302302F80A30037C0AF10101002ECD
:101040000AF1020A53546A4602DC4FF0300101E013
:101050004FF031014FF001088DF8001002D0A6F2D8
:10106000FF3603E059EA470100D06B4E002D02DC49
:101070002178090704D54FF002082E218DF80110C0
:10108000C44600210BE0C7F303433F01C35C491C86
:101090006D1E02F80830052908F1010801DA002D5B
:1010A000F1DC00210CE000EB1973491C1B786D1E6C
:1010B000082902F808304FEA091908F1010801DA95
:1010C000002DF0DC21688B0602D516E0A8F101089E
:1010D000E04505DD02EB080313F8013C302BF5D0A9
:1010E000B8F1000F09DD02EB080313F8013C2E2BC9
:1010F00003D1090701D4A8F10108002D05DD3E2127
:1011000002F808106D1E08F10108407C002E02F85C
:10111000080008F1010804DA2D20764202F80800E0
:1011200002E02B2002F808000A214FF47A70864270
:1011300008F101080BDB96FBF0F3303302F80830BE
:1011400096FBF0F308F1010800FB136601E0642E42
:101150000CDB642096FBF0F3303302F8083096FB8A
:10116000F0F308F1010800FB136601E00A2E06DB2C
:1011700096FBF1F0303002F8080008F1010896FB08
:10118000F1F001FB1060303002F80800A16908F1AD
:10119000010808EB050202EB0A00081AA06120789A
:1011A000C00602D42046FFF74FF9216A08AE01EBD2
:1011B0000A00206204E0D4E9012116F8010B9047EF
:1011C000BAF1010AF7D22078C00602D52046FFF70F
:1011D0003BF96E4609E016F8010B3E280FD0D4E922
:1011E00001219047206A401C2062B8F10108F2D228
:1011F0002046FFF73FF909B00320BDE8F08F206AD1
:101200002844206203E0D4E90121302090476D1E7C
:10121000EBD3F8E77298000002FCFFFF10B54369BA
:1012200013B1AFF3008001E0FFF747F9012010BDD3
:10123000127800F124010A7000224A700122EDE7C1
:1012400011684FF0FF32E9E710B5436913B1AFF30E
:10125000008001E0FFF7D0F9012010BD128800F1F5
:10126000240182840022C2840122EDE711684FF03C
:10127000FF32E9E770B516460C46054600F044F823
:10128000036893F80101012806D0FF2C0FD8185DE0
:1012900068B101202C7070BDD3F807013246214699
:1012A00003F2071303442846BDE8704018474FF087
:1012B000FF3070BD00487047080D00207546FFF7ED
:1012C000F9FFAE4605006946534620F00700854603
:1012D00018B020B5FEF7CCFFBDE820404FF0000667
:1012E0004FF000074FF000084FF0000B21F007010E
:1012F000AC46ACE8C009ACE8C009ACE8C009ACE851
:10130000C0098D467047000010B500F005F8001DBB
:1013100010BD00BFC581000000487047280D0020A7
:101320002DE9F0411F46044603260168072A01F40F
:10133000006004DB08B116A505E016A503E008B1BE
:1013400015A500E015A521F010002060A069C01EC1
:10135000A0610FB1401EA0612046FFF775F84FB1A4
:10136000D4E9012138469047206A401C2062C01C05
:10137000206206E0206AFAE7D4E9012115F8010BA2
:101380009047761EF8D22046FFF774F8BDE8F0814A
:101390004E414E006E616E00494E4600696E660019
:1013A0002DE9F047814616468AB0354878440DC885
:1013B0008DE80D0032487844801C03AC0DC884E8E9
:1013C0000D0041F69B300844372190FBF1F290FB71
:1013D000F1F5A5F1800501FB12041B3C02D5644226
:1013E000012000E00020DFF898A080460027FA44A2
:1013F000AAF1BE0A0EE0E0070AD03246684607EBC3
:10140000470101230AEB810100F01EFB8DE8070074
:1014100064107F1C002CEED1194F7F44AE3F19E0C1
:10142000E80715D007EB04100DF1180A90E80E003C
:101430008AE80E00C068F04201D19819089032463F
:10144000012306A903A800F0FFFA03AB83E8070015
:101450006D10641C002DE3D14FF001033246694644
:10146000B8F1000F03A802D000F0D9FA01E000F0B3
:10147000EBFAC9E90001C9F808200AB0BDE8F08715
:101480007C95000010B50446AFF300802046BDE80F
:101490001040FEF7D8BE00004FF0013C50F8042B7E
:1014A00051F8043B9A4221D1A2EB0C03934313EA77
:1014B000CC1317D150F8042B51F8043B9A4215D1A4
:1014C000A2EB0C03934313EACC130BD150F8042B7B
:1014D00051F8043B9A4209D1A2EB0C03934313EA5F
:1014E000CC13DBD04FF00000704700BFD01A01BA18
:1014F000B1FA81F101F0180122FA01F0CB40C1F1FB
:101500002001DBB2C0B2C01A2CFA01F3D11A914308
:1015100011EAC311E6D1704701491820ABBEFEE7BE
:101520002600020070475FEA400C08BF91F0000FF0
:101530004FEA8C234FEAC12243EA51514FEA1C5033
:1015400018BF00F5F0404FEA300018BF41F00041ED
:101550005FEA6C5C00F02980BCF1FF3F08BF40F0FF
:1015600080407047130C06BF12044FF0100C4FF070
:10157000000C130E04BF12020CF1080C130F04BF71
:1015800012010CF1040C930F04BF92000CF1020C39
:10159000D30F04BF52000CF1010C11464FF00002B2
:1015A000A0F11F00A0EB0C00704711F0004F08BF26
:1015B000704731F000413FF4D5AF0B0C06BF090472
:1015C0004FF0100C4FF0000C0B0E04BF09020CF191
:1015D000080C0B0F04BF09010CF1040C8B0F04BFA6
:1015E00089000CF1020CCB0F04BF49000CF1010C77
:1015F000CCF12003A0EB0C0022FA03F302FA0CF268
:1016000041EA030100F10100704720F07F4C80EABD
:10161000030023F07F47ACEB070303F57C5300F096
:10162000004003F1FF032DE980494FEA154B09B44F
:101630004FEA144325EA0B4E24EA03480FF204262E
:1016400006EB132749083E785FEA320203FB066780
:10165000C7F5000707FB06F64FEA54374FEAD646B0
:1016600006F1020607FB066CCCF1005C4FEA1C4752
:101670002CEA074C07FB06F40CFB06F504EB1546B9
:101680004FEA961634BF00204FF000404FEAD137A2
:1016900006FB07FC4FEA1C4C0CFB0BF7D21B03FBB1
:1016A0000CF761EB07010CFB0EF7B0EB074072EB98
:1016B00017420CFB08F734BFA2EB0742B2EB07421C
:1016C00061EB17414FEA0C444FEA910706FB07FC18
:1016D0004FEA1C4C0CFB0BF7B0EBC74072EB5732D8
:1016E00003FB0CF734BFA2EBC742B2EBC74261EB7E
:1016F00057310CFB0EF7B0EBC70072EB57720CFBC7
:1017000008F734BFA2EBC702B2EBC70261EB577117
:10171000039F4FEA816141EA921104EBCC044FEA46
:10172000D1374FEA826206FB07FC42EA90124FEA89
:1017300080604FEA1C4C0CFB0BF7D21B03FB0CF731
:1017400061EB07010CFB0EF7B0EB074072EB1742A1
:101750000CFB08F734BFA2EB0742B2EB074261EB88
:1017600017414FEA8C554FEA910704EB9C2406FB86
:1017700007FC4FEA1C4C0CFB0BF7B0EBC74072EBBD
:10178000573203FB0CF734BFA2EBC742B2EBC742A0
:1017900061EB57310CFB0EF7B0EBC70072EB5772E1
:1017A0000CFB08F734BFA2EBC702B2EBC70261EB38
:1017B000577115EB4C254FEA816141EA92114FEACE
:1017C00082624FEAD13742EA901206FB07FC44F1ED
:1017D00000044FEA80604FEA1C4C0CFB0BF7D21B55
:1017E00003FB0CF761EB07010CFB0EF7B0EB0740B6
:1017F00072EB17420CFB08F734BFA2EB0742B2EBC7
:10180000074261EB174115EB1C154FEA813141EAA4
:1018100092414FEA823242EA90424FEA80304FEAE8
:101820000C7644F1000448EA03434EEA0B484FF0BB
:10183000000EB2EB080C71EB030724BF6246394679
:101840004EEB0E0E4FF0000B0018524149414BEB8E
:101850000B0BB2EB080C71EB03077BF1000B24BF01
:10186000624639464EEB0E0E4FF0000B0018524107
:1018700049414BEB0B0BB2EB080C71EB03077BF10F
:10188000000B24BF624639464EEB0E0E51EA0207AA
:1018900018BF46F0010616EB0E7655F1000254F122
:1018A000000103D5BDE88901BDE80088BDE88901D4
:1018B000BDE80048B619524141EB0101A3F1010313
:1018C000704780807F7E7D7C7B7A797877767675AD
:1018D0007473727171706F6E6E6D6C6C6B6A6A6925
:1018E0006868676666656464636362616160605FBF
:1018F0005F5E5E5D5D5C5C5B5B5A5A595958585738
:10190000575656555555545453535252525151509F
:1019100050504F4F4F4E4E4D4D4D4C4C4C4B4B4BF2
:101920004A4A4A4949494848484747474746464638
:101930004545454444444443434343424242424173
:101940004141002B9C4630D477002BD01CB54FEA88
:10195000370703B44FF010004FF01001BAF1000F39
:1019600006D0BCF1000FDCBF40F0080040F00801D9
:101970004FF000000FBCBDE810400BF1010BBBF1B4
:10198000010F08BF5FEA170722BF12F1010211F130
:1019900001014FF0004143F1000300F0004043EA31
:1019A00000007047F9D35708D0E746EA064613F11E
:1019B000400F4FEA16461FDD13F1200FDFBF16431D
:1019C0000A46002120335B42BED0C3F1200746EA1D
:1019D000064602FA07F74FEA164646EA0706C3F13B
:1019E000200722FA03F201FA07F721FA03F14FF078
:1019F000000342EA0702A7E746EA020646EA06466D
:101A00004FEA164646EA0106BCBF46EA0646360CD1
:101A10004FF000034FF000024FF0000194E72DE972
:101A2000804C9A46934670B491E8380007C831EA72
:101A3000400C48BF34EA430C03D5FFF7E6FDFFF73F
:101A400080FFF0BCBDE8008C2DE9804C9A4693469F
:101A500070B491E8380007C810F0804F08BF13F049
:101A6000804F03D100F005F8FFF76BFFF0BCBDE835
:101A7000008C20F07F4780EA030023F07F4C07EBC7
:101A80000C03A3F57C5300F00040A3F1FE0392F099
:101A9000000F00F0B38095F0000F00F077802DE983
:101AA00001494FEA11404FEA144621EA004800FB81
:101AB00006FC24EA064708FB06F607FB08F800FBCD
:101AC00007F718EB06484CEB164C4FEA124B18EB95
:101AD00007484FEA15464CEB174022EA0B4E0BFB2A
:101AE00006FC25EA06470EFB06F607FB0EFE0BFB7F
:101AF00007F71EEB064E4CEB164C4FF000061EEBA4
:101B0000074E4CEB174B18EB0B0840F1000018EB9D
:101B10000E0B58EB000840F100008F1A4FF0000147
:101B20003CBFC943661B14BFB5EB040C00213CBF8E
:101B3000C943F61B4FEA17444EEA8E0E27EA0445C6
:101B40004FEA1C4704FB07622CEA074C05FB07F72A
:101B50000CFB05F604FB0CFC16EB074642EB1742A8
:101B600016EB0C4642EB1C421BEB060658EB02023E
:101B7000414146EA9E0601D5BDE80189B6195241A8
:101B800041EB0101A3F10103BDE801894FEA1445CE
:101B90004FEA114724EA054621EA074C05FB07F402
:101BA00006FB07F70CFB06F105FB0CFC11EB0741EC
:101BB00044EB17444FEA124711EB0C4144EB1C4431
:101BC00022EA074C05FB07F206FB07F70CFB06F6BB
:101BD00005FB0CFC16EB074642EB174216EB0C46D6
:101BE00042EB1C456A1854F1000148BF7047B61912
:101BF000524141EB0101A3F10103704795F0000F41
:101C000037D04FEA11424FEA144721EA024624EA4C
:101C1000074C02FB07F106FB07F70CFB06F402FB7F
:101C20000CFC14EB074441EB17414FEA154714EB4A
:101C30000C4441EB1C4125EA074C02FB07F506FB6F
:101C400007F70CFB06F602FB0CFC16EB074645EB10
:101C5000174516EB0C4645EB1C42121951F10001D9
:101C600048BF7047B619524141EB0101A3F101038E
:101C700070474FEA14454FEA114724EA054621EA26
:101C8000074C05FB07F106FB07F70CFB06F24FF0CC
:101C9000000605FB0CFC12EB074241EB174112EB6F
:101CA0000C4251EB1C4148BF7047921841EB0101B7
:101CB000A3F101037047000010B5034801F086FD51
:101CC000024801F083FD10BD74020020A402002030
:101CD00070B504462068816811F0010F24D0816836
:101CE00021F00101816002F041FD05462068806815
:101CF00010F0010F18D002F039FD401B02280ED958
:101D00002068806810F0010F09D0A06A40F0100030
:101D1000A062E06A40F00100E062012070BD20682E
:101D2000806810F0010FE6D1002070BD10B50246AA
:101D3000506A816A11F0500F05D0006A016BBDE84E
:101D4000104010460847816A41F4007181620168C1
:101D500089684FF4602232EA01010DD1017B59B943
:101D6000816A21F480718162816A11F4805F03D1FC
:101D7000816A41F00101816201F022FD10BD10B5C0
:101D8000406A816A41F040018162C16A41F0040108
:101D9000C16201F017FD10BD10B5406A01F011FDE0
:101DA00010BD0000F8B50446002600962068816842
:101DB00011F0010F28D1816841F0010181601948BB
:101DC00019490068B0FBF1F00090009828B1009824
:101DD000401E009000980028F9D102F0C7FC05468B
:101DE0002068806810F0010F0ED102F0BFFC401B8C
:101DF000022804D92068806810F0010F06D02068FE
:101E0000806810F0010FF0D00020F8BDA06A40F00B
:101E10001000A062E06A40F00100E06284F82460F3
:101E20000120F8BD4801002040420F002DE9F04F8D
:101E30008BB00021884689460C460D4608910991D1
:101E40008A4632E00AEB4A01D74A32F8110007F01D
:101E500013FE22462B46CDE9060107F085FB04461A
:101E60000D460AEB4A01D04A02EB4101488807F0CF
:101E700003FE42464B46CDE9060107F075FB80465E
:101E800089460AEB4A01C84A02EB4101888807F0FB
:101E9000F3FDCDE90601DDE9082307F065FBCDE997
:101EA00008010AF1010000F0FF0ABAF11E0FC9DBB8
:101EB0000022BE4B2046294607F012FC04460D4680
:101EC0000022BA4B4046494607F00AFC8046894644
:101ED0000022B64BDDE9080107F002FCCDE908015C
:101EE000B348007864287DDAB1480078401CB049D6
:101EF0000870B048006808F039F822462B46CDE952
:101F0000040107F031FBCDE9060107F0FBFAA9490E
:101F10000860A948006808F029F842464B46CDE918
:101F2000040107F021FBCDE9060107F0EBFAA24915
:101F30000860A248006808F019F8CDE90401DDE95D
:101F4000082307F011FBCDE9060107F0DBFA9B49F6
:101F500008609748007864284BD1994995480068F3
:101F600008F09EF89349086095499348006808F086
:101F700097F89149086092499048006808F090F8F5
:101F80008E4908608B48006807F0F0FF8D4A03C255
:101F90008948006807F0EAFF8B4A8C4BCDE90201C3
:101FA00007F0BAFD8A4A8B4BCDE9040107F098FB94
:101FB000CDE9060107F0A6FA7F49086000207D49B7
:101FC00008607E48006807F0D1FF7F4A7F4BCDE96B
:101FD000020107F0A1FD7E4A7E4BCDE9040107F026
:101FE0007FFB00E008E0CDE9060107F08BFA7349BA
:101FF00008600BB0BDE8F08F734A744B4046494609
:1020000007F08AFD724A734BCDE9060107F068FBC1
:1020100006460F460022704B3046394607F060FBFB
:10202000CDE9040166496448006808F039F8019078
:1020300061480168019808F05AFA834607F096FF54
:10204000CDE90201DDE9042307F08EFACDE90601AE
:1020500007F058FA58490860084600685F49086068
:102060005F48007810BB5F480078F8B95E48007898
:10207000E0B90022584B2046294607F031FB0022E8
:10208000554BCDE906014F4903C907F029FBCDE9BE
:1020900002014C480CC8029807F072FECDE9040119
:1020A000DDE9062307F060FA464A03C245480CC83A
:1020B0002046294607F0F4FC08D222462B46414927
:1020C00003C907F069FE04460D4601E000242546D9
:1020D0003D4A3E4B2046294607F01EFD06460F4668
:1020E000424A434B3046394607F0FAFA06460F4655
:1020F0000022394B3046394607F0F2FACDE90401A7
:102100002F492C48006807F0CBFF0190294801684F
:10211000019808F0ECF9834607F028FFCDE90201A9
:10212000DDE9042307F020FACDE9060107F0EAF91A
:1021300020490860084600682E490860224A234B5F
:10214000DDE9080107F0E8FC214A224BCDE9060150
:1021500007F0C6FA06460F4600221F4B30463946A6
:1021600007F0BEFACDE9040115491448006807F0EC
:1021700097FF019011480168019808F0B8F983466B
:1021800007F0F4FECDE90201DDE9042307F0ECF9E4
:10219000CDE9060107F0B6F908490860084600686D
:1021A0001549086000BF24E7C001002000003E4040
:1021B0007A000020800000207C00002084000020A5
:1021C0000000C84288000020B4D934E70C684A3FB8
:1021D000DCB66DDBB66DBB3F000059401801002036
:1021E0002B0000206000002006000020AE47E17AAE
:1021F00014AEC73F140100201C01002070B5032459
:10220000B148008807F038FC0546B0480CC828469D
:1022100007F046FC09D2AE48007830B90021AB4A3D
:10222000116051600120AB490870AB480078062866
:1022300076D2DFE800F00347768DC5FCA54800782C
:1022400001281ED1A5480088D8B90320A4490880D8
:102250000120A449087000209E490870A249087016
:1022600001209D49087000BF012280219F4802F093
:1022700076FA00BF00BF012204219C4802F06FFAE9
:1022800000BF9948007801281BD103209449088099
:1022900001209449087000208E4908709249087006
:1022A00001208D49087000BF012280218F4802F073
:1022B00056FA00BF00BF012204218C4802F04FFAF9
:1022C00000BFFEE08A480078E0B18A480078C8B1D3
:1022D00089480078B0B18948007898B100BF0022E1
:1022E0001021874802F03BFA00BF00BF01222021E5
:1022F000834802F034FA00BF322006F0ECFE0120E1
:102300008049087001208049087000BF0122010245
:10231000764802F024FA00BF02206F490870D0E02E
:10232000CEE00021794803F0E1FC7148007858B113
:102330007048007840B17048007828B16F48007844
:1023400010B1204605F0AEFA032063490870B8E0EA
:102350006F48007801280ED105F0A0FB00216B48E2
:1023600003F01CFD322006F0B6FE02206949088009
:102370000420594908705A48008870B905F08EFB4E
:102380000021624803F00AFD322006F0A4FE02207C
:10239000604908800420504908705248007870B99C
:1023A00005F07CFB0021594803F0F8FC322006F0D0
:1023B00092FE02205749088004204749087080E0B7
:1023C00000BF002210214E4802F0C9F900BF00BF33
:1023D000002220214A4802F0C2F900BF00204949EA
:1023E00008704B480078012809D100BF00228021E5
:1023F0003E4802F0B4F900BF05203749087045484F
:10240000008860B900BF00228021384802F0A7F997
:1024100000BF322006F05FFE05202F4908703148CA
:10242000007870B900BF00228021304800E009E048
:1024300002F095F900BF322006F04DFE0520264936
:1024400008703EE034480088401C33490880002171
:102450001E4A1160516001F0C9FF304988882E4939
:10246000098800F0D5FC01F06DFF00BF00221021AB
:10247000234802F074F900BF00BF00222021204849
:1024800002F06DF900BF00BF00224FF480711748C1
:1024900002F065F900BF00BF00228021134802F05E
:1024A0005EF900BF00200F4908701D4908701549EA
:1024B000087015490870084908700A49087000E05A
:1024C00000BF00BF70BD0000700000204000002071
:1024D0006100002057000020600000205A0000200A
:1024E0005C0000205800002056000020000C014035
:1024F000BD000020BE000020BF000020C000002062
:102500000008014001000020020000207C030020A0
:10251000510000205E0000206400002064010020C3
:102520000000002000BFFEE710B54FF48041604876
:1025300002F006F920BB5F480078032802D15D490C
:10254000087023E05B48007802280BD15A480188C4
:102550000088401C584A1080C82917DD03205549BF
:10256000087013E0544801880088401C524A1080CB
:1025700005290BDD02204F4908705049087005E01D
:1025800001204C49087000204B4908804FF400415D
:102590004B4802F0D5F828BB46484078062802D1BF
:1025A0004449487024E04348407805280BD1454809
:1025B00001880088401C434A1080C82918DD062085
:1025C0003C49487014E03F4801880088401C3D4A5F
:1025D000108005290CDD0520364948700220374956
:1025E000087005E004203349487000203549088010
:1025F0004FF40051344802F0A3F830BB00203349B7
:1026000008802C488078082808D12A49887000BFA3
:1026100001220421264802F0A2F847E02C48018854
:102620000088401C2A4A1080B1F5967F09DD0820F9
:102630002049887000BF012204211D4802F08FF854
:1026400034E007201B49887030E0002020490880D2
:102650001848807809280ED1164988701D480078DE
:1026600000BB1D480078E8B900BF002204211048D3
:1026700002F075F81AE0154801880088401C134ADA
:1026800010800A290FDD09200A4988701148007856
:1026900040B91148007828B900BF0022042104483D
:1026A00002F05DF802E007200249887010BD0000CA
:1026B000000C0140180000207200002032010020B0
:1026C0000008014074000020001001407800002044
:1026D000760000202B000020600000202DE9F0474C
:1026E0004F480078012879D14E4801684E4800686B
:1026F00007F008FF4D490860086807F037FC0746F7
:102700004B4A4C4B07F0CCF904D84849086807F00D
:102710002DFC01E046484749054606F0F3FE4349D3
:102720000860086807F022FC0746414A424B07F060
:10273000F1FA04D83D49086807F018FC01E03C486C
:102740003D49054606F0DEFE384908600A469168B4
:10275000506807F0D7FE8146344A5168106807F088
:10276000D1FE8246494607F0CDFE804633480168D7
:10277000404607F0BFFD06462C4801683048006817
:1027800007F0B8FD8146294A5168106807F0BAFE83
:1027900082462C480168504607F0ACFD8046494609
:1027A00007F010FC0746314607F00CFC05462648AA
:1027B0000168284607F006FC234908601B4840686A
:1027C0001A49886008460068486020491E48006829
:1027D00007F05CFD03D81C48006801E01BE01B48C3
:1027E000194908604FF07E511748006807F04EFE07
:1027F00002D81548006801E04FF07E501249086089
:102800000846006807F00EFDC4B2204604F0EAFE58
:102810000F48047002E0FA2004F0E4FEBDE8F087FF
:10282000F0000020F40000201401002058010020D6
:102830009A9999999999B93F9999B9BF000100203E
:10284000FC000020F80000200401002000007F436D
:102850002E00002010B5024801F0CEFB10BD000094
:10286000D402002010B5024801F0C6FB10BD0000E4
:10287000A40C002010B5024801F0BEFB10BD000002
:10288000600C002010B5024801F0B6FB10BD00003E
:102890001C0C002010B5024801F0AEFB10BD00007A
:1028A000D80B002010B490F840C0012404FA0CFCAE
:1028B000C46BC4F804C0D0F800C0CCF8043043683E
:1028C000102B05D0036899600068C26010BC704787
:1028D00003689A600068C16010BC704770470000D0
:1028E0000346062106221248018812480288ABB12D
:1028F000012B1BD13AB94EF6EE60814201D1002086
:1029000070470120FCE739B94EF6EE60824201D1F2
:102910000120F5E70020F3E7AB20F1E709B900203B
:10292000EEE70AB90120EBE7AB20E9E70020E7E793
:1029300000F0000800F4000800B585B04FF0FF304B
:10294000049000200090154802900120039004A9F3
:10295000684601F09DFC0498401C10B1049805B035
:1029600000BD002213460D49012001F0F5FC049042
:102970000498401C08B10498F1E700200090084832
:1029800002900120039004A9684601F081FC04989C
:10299000401C08B10498E2E70498E0E700F0000862
:1029A00000F400082DE9F04385B04FF00609062534
:1029B0000024002600274FF0FF3803F0CBFD964897
:1029C000B0F8009095480588B9F1000078D0A0F5DE
:1029D0006E40EE38002840D0A0F58850113800280D
:1029E0006FD185B900908C4802900120039004A912
:1029F000684601F04DFC0498401C68B3049880B20E
:102A000005B0BDE8F0834EF6EE6085421BD1002094
:102A10000090814802900120039004A9684601F0CB
:102A200037FC0498401C10B1049880B2E8E70022FB
:102A300013467A49012001F08FFC0490049858B1A4
:102A4000049880B2DCE7FFF777FF04900498401CFD
:102A500010B1049880B2D3E7DBE0002D42D100240E
:102A600020E06D48C0886E4931F81410884201D1C9
:102A70000FFA84F8444513D0694931F814006949C4
:102A800000F052F90746012F0AD0654931F81400C9
:102A90006449098800F07CF986B20EB13046AFE790
:102AA000601C84B20F2CDCDB002213465A49012043
:102AB00001F052FC0490049820B1049880B29FE782
:102AC0003AE09CE0002000905448029001200390DE
:102AD00004A9684601F0DCFB0498401C58B3049834
:102AE00080B28DE74FF6FF7085421BD10020009029
:102AF0004A4802900120039004A9684601F0C8FBEF
:102B00000498401C10B1049880B279E70022134663
:102B10004149012001F020FC0490049858B1049828
:102B200080B26DE7FFF708FF04900498401C10B1D5
:102B3000049880B264E76CE04DB9FFF7FDFE0490A5
:102B40000498401C002859D0049880B258E74FF6EA
:102B5000FF7085420FD10020009030480290012084
:102B6000039004A9684601F093FB0498401CA0B3AD
:102B7000049880B244E7002421E02848801D0088A2
:102B8000274931F81410884201D10FFA84F84445DE
:102B900013D0234931F81400224900F0C5F8074644
:102BA000012F0AD01E4931F814001E49098800F08F
:102BB000EFF886B20EB1304622E7601C84B20F2CCB
:102BC000DBDB002213461549012001F0C5FB049010
:102BD000049818B1049880B212E70FE0002000902A
:102BE0000D4802900120039004A9684601F050FBB3
:102BF0000498401C10B1049880B201E709E0FFF787
:102C00009BFE04900498401C10B1049880B2F7E633
:102C100000BF00BF0020F3E600F0000800F4000849
:102C2000640100200A0100202DE9F04F85B006461E
:102C3000884600200490DFF8D890DFF8D8A000275D
:102C4000002400258346FFF74BFE87B2012F04D1F5
:102C5000DFF8C490DFF8C4A009E027B9DFF8BC9022
:102C6000DFF8B4A003E0AB2005B0BDE8F08F4EF66E
:102C7000EE6200234946012001F06EFB04900498A7
:102C800008B10498F0E74146304600F081F885B27B
:102C90000DB12846E8E700241BE0214830F8140075
:102CA000B04214D01E4931F814001E4900F03CF81F
:102CB0008346BBF1010F0AD0194931F814001949B4
:102CC000098800F065F885B20DB12846CCE7601C94
:102CD00084B20F2CE1DB00200090CDF808A0012089
:102CE000039004A9684601F0D3FA0498401C08B187
:102CF0000498B9E7002213464946012001F02CFB55
:102D00000490049808B10498AEE70498ACE700007A
:102D1000FF0301080000010800F0000800F40008AB
:102D2000640100200A0100202DE9F04706460F4605
:102D3000002445F255584FF00109134DAA460020D2
:102D4000FFF7CEFD84B2AB2C02D1AB20BDE8F087FB
:102D50000E4800EB842A601C0C49891E01EB80257B
:102D60000AE0B5F80080B04505D135F8020C38808E
:102D70004FF0000904E02D1F0AF102008542F0D84F
:102D800000BF4846E2E700000000010800F000082C
:102D90002DE9F04706460F464FF000080025194C74
:102DA000DFF864900120FFF79BFD85B2AB2D02D1C7
:102DB000AB20BDE8F087154800EB8524681C13495B
:102DC000891E01EB802918E02068401CA0B93A4612
:102DD00000232146012001F0BFFA8046B8F1000F20
:102DE00001D04046E5E732460023A11C012001F056
:102DF000B3FA80464046DCE7241D4C45E4D38020EE
:102E0000D7E7000000000108FF07010800F00008F4
:102E100070B505460E46002431462846FFF7B8FF38
:102E200084B2802C04D131462846FFF7FDFE84B2DF
:102E3000204670BD2DE9F84F05460026B146002416
:102E4000FEA000680090FE480078AA2802D000206A
:102E5000BDE8F88FFA4840780A2801D00020F7E74B
:102E6000F7488078001D00F0FF09F54810F80900C8
:102E7000BB2801D00020EBE7012404E0F048005D0E
:102E80004640601CC4B24C45F8DB0EB10020DFE7C1
:102E9000EB48C07808B10020DAE728780B2874D214
:102EA000DFE800F073066566828588FBFAF9F800B2
:102EB000E448007830B1012814D0022822D0032839
:102EC00040D12FE0002409E0201DDD49085CDE49E7
:102ED000095D884200D003E0601CC4B2042CF3DB1F
:102EE00000BF30E0002409E0201DD549085CD74927
:102EF000095D884200D003E0601CC4B2042CF3DBFF
:102F000000BF20E0002409E0201DCD49085CD04925
:102F1000095D884200D003E0601CC4B2042CF3DBDE
:102F200000BF10E0002409E0201DC549085CC94924
:102F3000095D884200D003E0601CC4B2042CF3DBBE
:102F400000BF00E000BF00BF042C0DDA002406E043
:102F5000201DBB49085CC0490855601CC4B2042C44
:102F6000F6DB0320287001E00820287057E256E2C3
:102F700000240DE0B848005D1DF804104840211DF4
:102F8000AF4A515C884201D004E045E2601CC4B203
:102F9000042CEFDB00BF042C03DA01202870EE20A4
:102FA00056E7062028703AE20520287037E206200E
:102FB000287034E2A348007830B1012821D00228DB
:102FC0003CD0032879D156E09D480079502813D190
:102FD0009B48407950280FD10820287001209F4934
:102FE0000870002405E09C48005D97490855601C66
:102FF000C4B2042CF7DB03E001202870EE2027E7A1
:103000005CE08F480079432813D18D4840793128FE
:103010000FD108202870012091490870002405E094
:103020008D48005D89490855601CC4B2042CF7DB4B
:1030300003E001202870EE200AE73FE08048007995
:10304000522813D17E4840794F280FD1082028708C
:10305000012084490870002405E07F48005D7C4918
:103060000855601CC4B2042CF7DB03E00120287073
:10307000EE20EDE622E072480079432818D170482E
:103080004079322814D10820287001207649087030
:1030900000240AE0BCE12EE015E011E00DE06E48EE
:1030A000005D6C490855601CC4B2042CF7DB03E0DA
:1030B00001202870EE20CBE600E000BF00BFAEE1AB
:1030C00008202870ABE15E4800795D498979484065
:1030D000FF280DD15A4840795949C9794840FF28FD
:1030E00006D157484179007901EB00205F490880FB
:1030F0000920287093E15248007951498979484064
:10310000FF2816D14E4840794D49C9794840FF28DB
:103110000FD14B484179007901EB002053490988D0
:10312000884206DC46484179007901EB00204F498E
:1031300008804F48007858B100204D4908700120A0
:103140004C4908704C4908704C4908704C4908704B
:103150003C48007830B101284AD002286CD00328BE
:103160006BD10CE101203D49087040480088454979
:1031700008800846008806F07FFC434A03C200210D
:103180004248434AC2E9001010463F490CC803C9EF
:1031900006F0A6FA3F4A03C23D480CC800203E494B
:1031A00006F09EFA07463B480CC8384606F078FC05
:1031B00010D20022394B374903C906F0ADFC8246D4
:1031C0000022354B06F0D0F9074606F011FC3449D1
:1031D000087002E00020324908702648007810B1DB
:1031E0000A20287003E001202870AA2030E60DE1B3
:1031F00001201B4908701D4800882A49088008469C
:10320000008806F039FC204A03C200212648204AE3
:10321000C2E9001010461C490CC803C906F060FA48
:103220001C4A03C21A480CC800201B4906F058FA71
:10323000074618480CC839E05BE0E6E055AA55AAF5
:1032400054040020BC000020A8000020AC00002096
:10325000B0000020B4000020CA000020BD00002003
:10326000BE000020BF000020C0000020E8000020B9
:1032700027000020B8000020B9000020BA0000207C
:10328000BB00002098000020D80000200020AC40A7
:10329000E0000020D00000200000F03F00001840B7
:1032A000C10000209A0000200020BC40384606F0F3
:1032B000F7FB10D200225B4B5B4903C906F02CFCE4
:1032C00007460022594B06F04FF9824606F090FB64
:1032D0005749087002E000205549087055480078A9
:1032E00010B10A20287003E001202870AA20AFE561
:1032F0008CE00120504908705048008850490880EF
:103300000846008806F0B8FB4E4A03C200214E482A
:103310004E4AC2E9001010464A490CC803C906F0DB
:10332000DFF9414A03C249480CC800203F4906F072
:10333000D7F907463C480CC8384606F0B1FB10D216
:103340000022384B384903C906F0E6FB0746002245
:10335000364B06F009F9824606F04AFB3C490870F4
:1033600002E000203A4908703A48007810B10A207B
:10337000287003E001202870AA2069E546E00120BA
:10338000354908702D48008834490880084600886F
:1033900006F072FB2B4A03C2002131482B4AC2E9D6
:1033A0000010104627490CC803C906F099F91E4AB7
:1033B00003C226480CC800201C4906F091F90746B4
:1033C00019480CC8384606F06BFB10D20022154B8A
:1033D000154903C906F0A0FB07460022134B06F06F
:1033E000C3F8824606F004FB1E49087002E0002084
:1033F0001C4908701C48007810B10A20287003E0AE
:1034000001202870AA2023E500E000BF00BF06E0ED
:1034100001202870CC201BE50120287000BF00BFD0
:10342000012015E500001840D00000200000F03F0A
:10343000C2000020B9000020BF000020E8000020EA
:103440009C000020D80000200018D540E00000209B
:10345000C3000020BA000020C00000209E00002011
:103460000020BC40C4000020BB000020FEB5054683
:1034700000270F2D00DD0025AA208DF800000A206E
:103480008DF8010002208DF8020085208DF80300E0
:103490008DF80450012404E01DF804004740601C2E
:1034A000C4B2052CF8DB8DF80570BB208DF8060042
:1034B00007226946064805F05FFC0646012E04D047
:1034C000034802F010FD03F0CBFA3046FEBD0000C9
:1034D000500B00202DE9FF4106460C464FF0000836
:1034E0000F2E00DD0026AA208DF800000A208DF89E
:1034F000010006208DF8020084208DF803008DF86D
:10350000046020788DF8050060788DF80600A078BA
:103510008DF80700E0788DF80800012505E01DF81A
:10352000050080EA0808681CC5B2092DF7DB8DF894
:103530000980BB208DF80A000B226946074805F078
:103540001BFC0746012F04D0044802F0CCFC03F01A
:1035500087FA384604B0BDE8F0810000500B002027
:103560007047000006490020C8610648016941F023
:1035700004010161016941F04001016170470000EF
:10358000E80C002000200240064A0021D1610649D3
:103590000A6942F002020A614861086940F040008D
:1035A00008617047E80C002000200240044B002214
:1035B000DA61044A136943F0010313610180704723
:1035C000E80C00200020024000201649CA6812F0D2
:1035D000100F154A04D0D06940F00200D0611020CD
:1035E000CB6813F0040F05D0D36943F00103D36116
:1035F00040F00400CB6913F0010F07D0D36943F00A
:103600000403D361CA6922F00102CA61A0F5807285
:10361000013A01D0C8607047C86920F00100C86154
:103620007047000000200240E80C002070B50446FE
:1036300001F09CF80646164DE86810F0010F0ED018
:10364000B4F1FF3F07D024B101F090F8801BA042F5
:1036500001D9032070BDE86810F0010FF0D1E868CF
:1036600010F0200F01D02020E860E86810F0100F63
:1036700007D1E86910F0010F03D1E86810F0040FDA
:1036800003D0FFF7A1FF012070BD002070BD000036
:10369000002002407047000078B44FF0000C002476
:1036A000009490F82420012A14D0012280F82420CC
:1036B0004A681F25072A10D203685E6B521E02EB70
:1036C0008202954026EA05050E6806FA02F22A43B0
:1036D0005A631FE078BC022070470D2A0DD20368A0
:1036E0001E6BD21F02EB8202954026EA05050E688A
:1036F00006FA02F22A431A630CE00368DE6A0D3A06
:1037000002EB8202954026EA05050E6806FA02F2EF
:103710002A43DA620A6807250A2A0DD30368DE689D
:103720000A3A02EB4202954026EA05058E6806FA3F
:1037300002F22A43DA600BE003681E6902EB4202E0
:10374000954026EA05058E6806FA02F22A431A61B8
:103750000A68102A01D0112A0BD10268A2F1804315
:10376000B3F592330AD0816A41F0200181624FF0B3
:10377000010C80F8244078BC60467047936813F4CD
:10378000000FF6D1936843F4000393600968102991
:10379000EFD10949094A0968B1FBF2F101EB810156
:1037A0004900009100990029E3D00099491E009139
:1037B00000990029F9D1DCE74801002040420F00C0
:1037C0007047704770470068C06C704770B504461A
:1037D000206841684FF4602511F0200F28D001685F
:1037E00011F0020F24D0A16A11F0100F03D1A16AC9
:1037F00041F40071A162816835EA010111D1217B98
:1038000079B9416821F020014160A06A20F48070FC
:10381000A062A06A10F4805F03D1A06A40F00100AA
:10382000A0622046FFF7CCFF21686FF0120008600D
:103830002068416811F0800F32D0016811F0040F48
:103840002ED0A16A11F0100F03D1A16A41F40051EA
:10385000A16281684FF4E04232EA010109D0416877
:1038600011F4806F15D1816835EA010111D1217BF6
:1038700079B9416821F080014160A06A20F480504C
:10388000A062A06A10F4807F03D1A06A40F001001A
:10389000A0622046FFF7FEFE21686FF00C00086072
:1038A0002068416811F0400F0ED0006810F0010F41
:1038B0000AD0A06A40F48030A062204600F096F85A
:1038C00021686FF00100086070BD00002DE9F04133
:1038D000044600270025002C03D0A06A002618B15A
:1038E00008E00120BDE8F081E66284F8246020460B
:1038F00000F07EF82046FEF7EBF90146A06A10F0D2
:10390000100F00D139B1A06A40F01000A06201216F
:103910000846BDE8F081A06A20F4885040F002001B
:10392000A062E2696068237B104347EA43020243D6
:10393000A068B0F5807F08D0012806D0002094F858
:1039400014C0BCF1010F03D00BE04FF48070F6E718
:10395000F3B1A36A43F02003A362E36A43F00103D7
:10396000E3622368D3F804C02CF4694C4CEA0000ED
:10397000586020688368DFF86CC003EA0C031343C7
:103980008360A068B0F5807F09D0012807D009E0E6
:10399000A3695B1E40EA433040F40060E1E7208AFF
:1039A000401E05052068C36A23F470032B43C362DD
:1039B000206880680C4B1840904207D1E662A06AEC
:1039C00020F0020040F00100A062A1E7A06A20F010
:1039D000020040F01000A062E06A40F00100E062E6
:1039E000012195E7FDF7E1FFFE0E1FFF7047000084
:1039F00010B586B004460020029003900490059014
:103A00003E492068884247D100BF3D48806940F464
:103A100000703B4988610846806900F4007001909D
:103A200000BF00BF00BF0846806940F00400886105
:103A30000846806900F00400019000BF00BF092023
:103A400002900320039002A92E4800F07BFD2E482F
:103A50002E4908600020486000212C4881608021A8
:103A6000C160490001618900416120218161090231
:103A7000C16100F079FB08B1FFF772FD00BF234878
:103A80002062446200BF00221146122000F034FF81
:103A9000122000F023FF2EE01D49206888422AD121
:103AA00000BF1748806940F4806015498861084666
:103AB000806900F48060019000BF00BF00BF08462D
:103AC000806940F0040088610846806900F00400C5
:103AD000019000BF00BF022002900320039002A9C2
:103AE000084800F02FFD00221146122000F004FFCC
:103AF000122000F0F3FE06B010BD000000240140CB
:103B0000001002400008014008000240D4020020DA
:103B1000002801402DE9F84304460D464FF0000807
:103B2000CDF8008000F022FE07462068816811F47D
:103B3000807F08D0A06A40F02000A06284F8248032
:103B40000120BDE8F883416811F4807F03D1C16A88
:103B500011F4700F1FD0022000F014FF48490968CB
:103B6000B1FBF0F320680169464A11424FEA620155
:103B70004FEAA11230D1D0F80CC04E111CEA060F4A
:103B80002AD1D0F810C01CEA010F36D1C06810420B
:103B900033D1142034E0006810F0020F50D1B5F199
:103BA000FF3F0AD025B100F0E1FDC01BA84204D9B7
:103BB0002068006810F0020F05D02068006810F03F
:103BC000020FECD03CE0A06A40F00400A06284F850
:103BD00024800320BDE8F883D0F810C01CEA010F50
:103BE00002D1C168114206D0026927490A4206D1B2
:103BF000C068084203D1542002E0292000E0FC20E4
:103C000003FB00F60098B0421AD2B5F1FF3F11D085
:103C100025B100F0ABFDC01BA8420BD90098B04203
:103C200008D2A06A40F00400A06284F82480032037
:103C3000BDE8F8830098401C00900098B042E4D39F
:103C400021686FF012000860A06A40F40070A06262
:103C5000206880684FF4602131EA00000DD1207B9C
:103C600058B9A06A20F48070A062A06A10F4805F46
:103C700003D1A06A40F00100A0620020BDE8F883F3
:103C800048010020244992244992240070B504463A
:103C900094F8240001280DD0012084F82400204647
:103CA000FEF780F802464FF0000C2AB184F824C0D9
:103CB000104670BD022070BDA06A20F0010020F403
:103CC000007040F48070A062274B2068274998421A
:103CD0001AD10D6815F4702F16D0A56A45F4801519
:103CE000A5620D6815F4806F05D0A56A25F400550E
:103CF00045F48055A562A56A15F4805F13D0E56A86
:103D000025F00605E56210E0A56A25F48015A56298
:103D1000456815F4806FEED0A56A25F4005545F48A
:103D20008055A562E7E7C4F82CC084F824C06FF082
:103D3000020CC0F800C02068D0F808C04FF460241E
:103D400034EA0C0C05D1984208D1096811F4702F9F
:103D500004D0816841F480118160A9E7816841F451
:103D6000A0018160A4E70000002801400424014074
:103D70002DE9F0470446884691462068434F444E5B
:103D8000A0F1804ABAF5923A01D0B84207D1306822
:103D900010F4702F03D001252846BDE8F08794F871
:103DA000240001280BD0012084F824002046FDF7D0
:103DB000F9FF054600212DB184F82410ECE702201C
:103DC000BDE8F087A06A20F0010020F4606040F4B4
:103DD0008070A0622068B8421AD1326812F4702F45
:103DE00016D0A26A42F48012A262306810F4806F8A
:103DF00005D0A06A20F4005040F48050A062A06A70
:103E000010F4805F13D0E06A20F00600E0620FE05B
:103E1000A26A22F48012A262406810F4806FEED091
:103E2000A06A20F4005040F48050A062E7E7E1620D
:103E300084F82410216A17488862216A1648C862EB
:103E4000216A1648086321686FF002000860206844
:103E5000816841F48071816020684B4600F14C011B
:103E60004246206A00F0C2F9206881684FF460225F
:103E700032EA010104D0816841F4801181608BE74E
:103E8000816841F4A001816086E7000000280140BC
:103E9000042401402D1D0008991D00087F1D000805
:103EA00090F821100022022905D00421816380F8B6
:103EB00020200120704701680B6823F00E030B607F
:103EC00001680B6823F001030B6090F84030D0F8D4
:103ED0003CC0012101FA03F3CCF8043080F8211032
:103EE00080F820201046704710B5002490F821106B
:103EF000022903D004218163012437E001680A68A4
:103F000022F00E020A6001680A6822F001020A60CB
:103F1000174A0168914201D101211CE0154A9142E2
:103F200001D1102117E0144A914201D1891512E004
:103F3000124A914201D189140DE0114A914202D1F5
:103F40004FF4803107E00F4A914202D14FF48011C3
:103F500001E04FF080710C4A5160012180F821107E
:103F6000002180F82010416B01B18847204610BD28
:103F7000080002401C0002403000024044000240A1
:103F8000580002406C00024000000240002828D087
:103F900001680A6822F001020A60026800211160CB
:103FA00002685160026891600268D1600E4B02683D
:103FB0001A440E4BA3FB02321209920002640C4B0E
:103FC000C3634FF0010C0CFA02F25A608162C162C5
:103FD00001634163816380F8211080F82010002084
:103FE0007047012070470000F8FFFDBFCDCCCCCC5E
:103FF00000000240806B70472DE9F05FC16B0A68DA
:1040000001680B68D0F840C0042404FA0CF4144290
:104010004E4C4F4D4F4E504FDFF84081DFF84091EE
:1040200031D013F0040F2ED00A6812F0200F03D104
:104030000A6822F004020A600168A14201D1042149
:1040400019E0A94201D1402115E0B14202D14FF45B
:10405000806110E0B94202D14FF480410BE041454C
:1040600002D14FF4802106E0494502D14FF480018E
:1040700001E04FF080613B4A5160C16A002962D083
:10408000BDE8F05F08474FF0020A0AFA0CFA1AEA94
:10409000020F4FF0000A4FF0010B35D013F0020F62
:1040A00032D00A6812F0200F05D10A6822F00A0205
:1040B0000A6080F821B00168A14201D1022119E013
:1040C000A94201D1202115E0B14202D14FF4007183
:1040D00010E0B94202D14FF400510BE0414502D14A
:1040E0004FF4003106E0494502D14FF4001101E0E0
:1040F0004FF000711B4A516080F820A0816A0029AE
:1041000021D0BDE8F05F0847082404FA0CFC1CEA43
:10411000020F18D013F0080F15D00A6822F00E0213
:104120000A6090F84010C26B0BFA01F15160C0F8C0
:1041300038B080F821B080F820A0016B002902D0AF
:10414000BDE8F05F0847BDE8F09F000008000240AE
:104150001C0002403000024044000240580002406F
:104160006C0002400000024010B4002834D01C4A09
:1041700001688B181B4AA2FB0332120992000264E9
:10418000194AC263022280F821200A686FF30D12D7
:10419000D0F808C04368046943EA0C03D0F80CC0A7
:1041A0004CEA040C43EA0C03D0F814C043EA0C03B5
:1041B000D0F818C043EA0C03D0F81CC043EA0C0343
:1041C0001A430A6000218163012280F8212080F8CF
:1041D000201010BC0020704710BC01207047000068
:1041E000F8FFFDBFCDCCCCCC0000024070B504463A
:1041F000002594F8200001280DD0012084F820002B
:1042000094F821C00020BCF1010F06D084F82000F2
:104210000225284670BD022070BD4FF0020C84F8C4
:1042200021C0A0632068D0F800C02CF0010CC0F8B9
:1042300000C02046FEF736FBE06A28B1206801681E
:1042400041F00E01016009E02068016821F00401DD
:1042500001602068016841F00A010160206801687E
:1042600041F001010160D4E770B5044600F07EFA28
:104270000546B4F1FF3F02D004480078044400F042
:1042800075FA401BA042FAD370BD00004C0100201B
:104290002DE9F04705460F464FF00109DFF89C80F5
:1042A00098F8180001280CD0012088F81800286818
:1042B000234E022808D04CF25030FFF7B7F9A8B1CE
:1042C00036E00220BDE8F0874CF25030FFF7AEF93F
:1042D00028BB0120FFF746F94CF25030FFF7A6F952
:1042E0008146306920F00400306121E04FF0FF305A
:1042F0003860AC68E86804EB8020A04218D92046FA
:10430000FFF742F94CF25030FFF790F981463069DF
:1043100020F0020030615FEA090001D03C6007E054
:1043200004F58064E968A86800EB8120A042E6D823
:10433000002088F818004846BDE8F087E80C002007
:10434000002002400348016941F080010161002022
:1043500070470000002002402DE9F04707468846DC
:1043600015461E460024DFF87C9099F818000128B5
:1043700008D0012089F818004CF25030FFF756F9A8
:1043800018B129E00220BDE8F087012F1CD0022FD0
:104390001CD00427002F1FD9DFF84CA0220128468B
:1043A0003146FBF777FF81B208EB4400FFF7FEF8D8
:1043B0004CF25030FFF73AF9DAF8101021F0010111
:1043C000CAF8101040B903E00127E3E70227E1E74C
:1043D000611CCCB2BC42E1D3002189F81810BDE8C1
:1043E000F0870000E80C0020002002400020074970
:1043F0000A6912F0800F08D0054A4A60054A4A60EF
:10440000096911F0800F00D00120704700200240A0
:1044100023016745AB89EFCD2DE9F04F002200293C
:104420007DD0DFF81881DFF810E108F1040909F107
:10443000040A0F27012393400B40002B74D022F075
:10444000030C0CF1804404F58034D4F808C09507BF
:104450002E0F07FA06F505EA0C0B704502D14FF056
:10446000000C10E0A0F1804CBCF5863C33D0A0F1EC
:10447000804CBCF5883C31D0A0F1804CBCF58A3C26
:104480002FD04FF0040C0CFA06FCDC451ED1D4F8FA
:1044900008C02CEA050CC4F808C0D8F800C02CEA03
:1044A000030CC8F800C0D9F800C02CEA030CC9F806
:1044B00000C0DAF800C02CEA030CCAF800C0DFF82C
:1044C00080C0DCF800409C43CCF80040B3F5807F0E
:1044D0000AD284460AE04FF0010CD4E74FF0020CF8
:1044E000D1E74FF0030CCEE700F1040C02D24FEA03
:1044F000820403E0A2F108044FEA8404DCF80050CF
:1045000007FA04F625EA06064FF0040505FA04F456
:1045100046EA0404CCF80040D0F80CC001E008E002
:1045200002E02CEA0303C36002F1010231FA02F354
:1045300080D1BDE8F08F0000000801400004014078
:104540000C0401402DE9F84F4FF0000C00230A68DD
:10455000002A7DD0DFF8DC810F2708F1040909F17A
:10456000040A0AF1040B012202FA0CF60A6832402E
:10457000B2426ED1DFF8C0E14C68A4EB0E05744581
:104580002BD00DDC032C34D005DC34B3012C19D036
:10459000022C2FD11BE0112C16D0122C2AD119E09D
:1045A000B5F5881F19D006DCB5F5803F15D0B5F5F7
:1045B000801F1FD111E0B5F5001F0ED0B5F5041F07
:1045C00018D10AE0CB6815E0CB681B1D12E0CB6860
:1045D00008330FE0CB680C330CE08B6823B1012B60
:1045E00004D00823466105E0042303E008230661A4
:1045F00000E00023B2F5807F01D2054601E000F122
:10460000040502D24FEA8C0403E0ACF108044FEA3F
:1046100084042E6807FA04FE26EA0E0603FA04F460
:1046200046EA04042C604C6814F0805F79D0434C57
:10463000A56945F00105A561A46904F00104009491
:104640002CF0030404F1804404F58034A66801E0F2
:104650006EE066E04FEA8C754FEA157507FA05FEC5
:1046600026EA0E0EA0F18046B6F584361ED0A0F1E3
:104670008046B6F586361BD0A0F18046B6F5883662
:1046800018D0A0F18046B6F58A3615D0042606FA71
:1046900005F545EA0E05A5604C6814F4803F0DD081
:1046A000D8F800401443C8F800400CE00026EEE7BC
:1046B0000126ECE70226EAE70326E8E7D8F80040FF
:1046C0009443C8F800404C6814F4003F05D0D9F872
:1046D00000401443C9F8004004E0D9F80040944376
:1046E000C9F800404C6814F4801F05D0DAF8004087
:1046F0001443CAF8004004E0DAF800409443CAF8D2
:1047000000404C6814F4001F05D0DBF80040224341
:10471000CBF8002005E0DBF8004024EA0202CBF8E9
:1047200000200CF1010C0A6832FA0CF27FF41BAF86
:10473000BDE8F88F00040140000011100010024095
:104740008068084201D00120704700207047C2688D
:1047500021EA0203114043EA014101617047002A46
:1047600001D0016170470904016170470148806808
:10477000704700004C01002070B50446002C21D089
:1047800021684CF6CC400860216845F2555008601D
:104790002168606848602168A0688860FFF7E6FFCC
:1047A00005462068C06810F0030F12D0FFF7DEFF47
:1047B000401B272808D92068C06810F0030F03D0D9
:1047C000032070BD012070BD2068C06810F0030F89
:1047D000ECD121684AF6AA200860002070BD00686C
:1047E0004AF6AA2101600020704700000248816853
:1047F00002781144816070474C01002010B50748D1
:10480000016841F010010160032000F0A9F80020C8
:1048100000F006F800F026F8002010BD002002404D
:1048200070B504460D4D4FF47A712878B1FBF0F065
:104830000B490968B1FBF0F000F05AFE08B1012005
:1048400070BD102C07D200222146501E00F054F8F3
:104850006C60002070BD012070BD00004C01002084
:104860004801002008B500BF1148806940F00100F0
:104870000F4988610846806900F00100009000BF80
:1048800000BF00BF0846C06940F08050C8610846BC
:10489000C06900F08050009000BF00BF00BF054914
:1048A000486820F0E06040F00070486000BF08BD3C
:1048B000001002400000014000280EDB00F01F0144
:1048C000012202FA01F14009800000F1E020C0F865
:1048D0008011BFF34F8FBFF36F8F704700280ADB43
:1048E00000F01F01012202FA01F14009800000F1ED
:1048F000E020C0F80011704710B4184B1B68C3F3D8
:104900000223C3F1070CBCF1040F01D94FF0040CD2
:104910001C1D072C01D2002300E0DB1E012404FA39
:104920000CFCACF1010C0CEA0101994004FA03F310
:104930005B1E1A401143002806DB00F1E02009014C
:1049400080F8001410BC704700F00F0000F1E02068
:10495000090180F8141D10BC704700000CED00E048
:1049600000F00700064A11684FF6FF03194041EABC
:10497000002040F0FD7040F0806010607047000043
:104980000CED00E010B586B0014634A0D0F808C0A8
:1049900043680268C068CDF810C003930292059086
:1049A00032A0006801900020314C012926D0022954
:1049B00049D0102920D16168226812F0807F1BD075
:1049C00002A8C1F38342805C11F4803F09D0616882
:1049D00001AAC1F34041515C264AB2FBF1F14843C0
:1049E00001E025494843616811F4800F04D123494F
:1049F0004000A1FB0010400806B010BD216A01F480
:104A00004072B2F5807F06D111F0020F03D006B0DC
:104A10004FF4004010BDB2F5007F07D1626A12F07A
:104A2000020F03D049F6404006B010BD4FF440726B
:104A300032EA0101F8D1216811F4003FF4D006B048
:104A40004FF2244010BD00F08FF96168C1F381314D
:104A5000491C4900B0FBF1F006B010BD020304058B
:104A6000060708090A0B0C0D0E0F101001020000BA
:104A70000010024000127A0000093D00ABAAAAAA69
:104A80002DE9F8430446DFF81C81207810F0010F6F
:104A90006CD00027D8F81C0010F0805F0BD1D8F83C
:104AA0001C0040F08050C8F81C00D8F81C0000F032
:104AB0008050009001273C4D286810F4807F16D16B
:104AC000286840F480702860FFF750FE064628688A
:104AD00010F4807F0BD1FFF749FE801B642802D9B8
:104AE0000320BDE8F883286810F4807FF3D0D8F85D
:104AF000200000F4407048B3A18801F44071814265
:104B000024D0D8F8200020F44070284901220A60FF
:104B100000220A60C8F8200010F0010F16D0FFF73D
:104B200025FE0546D8F8200010F0020F0ED141F204
:104B30008836FFF71BFE401BB04202D90320BDE8B8
:104B4000F883D8F8200010F0020FF2D0D8F8200037
:104B5000616820F440700843C8F82000012F05D197
:104B6000D8F81C0020F08050C8F81C00207810F005
:104B7000020F07D0D8F80400A16820F44040084391
:104B8000C8F80400207810F0100F07D0D8F80400FF
:104B9000E16820F480000843C8F804000020BDE864
:104BA000F8830000001002400070004040044242C0
:104BB0002DE9F04704460D46002C17D0DFF85C8144
:104BC000D8F8000000F00700A84212D2D8F8000080
:104BD00020F007002843C8F80000D8F8000000F0D3
:104BE0000700A84205D00120BDE8F0870120BDE8FC
:104BF000F08720684A4E10F0020F14D010F0040F16
:104C000003D0706840F4E0607060207810F0080F06
:104C100003D0706840F460507060706820F0F0015C
:104C2000A06808437060207810F0010F3AD06068E7
:104C3000012806D002280BD0316811F0020F27D0CE
:104C40000AE0316811F4003F06D10120BDE8F08789
:104C5000316811F0007F18D0716821F0030108431A
:104C60007060FFF783FD07467068616800F00C0014
:104C7000B0EB810F16D041F28839FFF777FDC01BEA
:104C8000484508D90320BDE8F0870120BDE8F0873A
:104C90000120BDE8F0877068616800F00C00B0EB9F
:104CA000810FEAD1D8F8000000F00700A8420FD920
:104CB000D8F8000020F007002843C8F80000D8F812
:104CC000000000F00700A84202D00120BDE8F087F4
:104CD000207810F0040F05D07068E16820F4E060DF
:104CE00008437060207810F0080F06D070682169C2
:104CF00020F4605040EAC100706000F045F871682F
:104D0000084AC1F30311515CC840074908600748CD
:104D10000068FFF785FD0020BDE8F0870020024015
:104D200000100240D2A700084801002050010020D6
:104D300001490120C86470470000424201480068F0
:104D4000704700004801002000B5FFF7F7FF044955
:104D50004968044AC1F30221515CC84000BD00000B
:104D600000100240E2A7000800B5FFF7E7FF044982
:104D70004968044AC1F3C221515CC84000BD00002B
:104D800000100240E2A7000885B015A083684268C1
:104D90000168C068039302920191049014A0006816
:104DA0000090144B5968144801F00C02042A11D0E9
:104DB000082A0FD101A8C1F38342805C11F4803F1F
:104DC0000AD05968C1F340411DF801100A4A504306
:104DD000B0FBF1F005B07047084905B04843704793
:104DE00002030405060708090A0B0C0D0E0F10102C
:104DF000010200000010024000127A0000093D008C
:104E00002DE9F84F0446002C0FD02078F84D10F013
:104E1000010F6CD0686800F00C0004280CD06868A2
:104E200000F00C00082803D010E00120BDE8F88F46
:104E3000686810F4803F09D0286810F4003F56D00D
:104E40006068002853D10120BDE8F88F6068B0F594
:104E5000803F15D0C8B1B0F5A02F1FD0286820F42E
:104E600080302860286820F480202860606858B36B
:104E7000FFF77CFC0646286810F4003F17D036E0A8
:104E8000286840F480302860F0E7286820F48030FB
:104E90002860286820F480202860E7E7286840F42C
:104EA00080202860286840F480302860DEE7FFF723
:104EB0005DFC801B642802D90320BDE8F88F2868B8
:104EC00010F4003FF3D012E0FFF750FC06462868CC
:104ED00010F4003F0BD0FFF749FC801B642802D977
:104EE0000320BDE8F88F286810F4003FF3D1207844
:104EF000C04F10F0020F4FF0010B4FF0000854D0DC
:104F0000686810F00C0F14D0686800F00C000828D6
:104F100003D1686810F4803F0BD0206978B3C7F8DC
:104F200000B0FFF723FC0646286810F0020F12D0ED
:104F30001DE0286810F0020F05D02069012802D07A
:104F40000120BDE8F88F2868616920F0F80040EA88
:104F5000C100286029E0FFF709FC801B022802D964
:104F60000320BDE8F88F286810F0020FF3D02868FE
:104F7000616920F0F80040EAC100286015E0FFE711
:104F8000C7F80080FFF7F2FB0646286810F0020F12
:104F90000BD0FFF7EBFB801B022802D90320BDE8F2
:104FA000F88F286810F0020FF3D1207810F0080F66
:104FB00030D09148A169C1B1C0F800B0FFF7D6FB6D
:104FC0000646686A10F0020F0BD1FFF7CFFB801B7B
:104FD000022802D90320BDE8F88F686A10F0020F9A
:104FE000F3D0012001F078FD14E0C0F80080FFF755
:104FF000BDFB0646686A10F0020F0BD0FFF7B6FB48
:10500000801B022802D90320BDE8F88F686A10F0DF
:10501000020FF3D1207810F0040F6FD00026E8695A
:1050200010F0805F08D1E86940F08050E861E869DD
:1050300000F0805000900126DFF8C0A1DAF80000EF
:1050400010F4807F1BD1DAF8000040F48070CAF8B9
:105050000000FFF78BFB8146DAF8000010F4807F38
:105060000DD1FFF783FBA0EB0900642802D90320D0
:10507000BDE8F88FDAF8000010F4807FF1D0E06826
:10508000012816D0D0B1052821D0286A20F00100CF
:105090002862286A20F004002862E06841F2883A19
:1050A00068B3FFF763FB8146286A10F0020F17D040
:1050B0003AE0286A40F001002862EEE7286A20F012
:1050C00001002862286A20F004002862E5E7286AC7
:1050D00040F004002862286A40F001002862DCE702
:1050E000FFF744FBA0EB0900504502D90320BDE8BF
:1050F000F88F286A10F0020FF2D015E01AE0FFE7EF
:10510000FFF734FB8146286A10F0020F0CD0FFF73E
:105110002DFBA0EB0900504502D90320BDE8F88F14
:10512000286A10F0020FF2D1012E03D1E86920F0B5
:105130008050E861E069E8B3696801F00C01082972
:105140005ED0022810D0C7F86080FFF70FFB04463E
:10515000286810F0007F66D0FFF708FB001B0228CC
:1051600041D90320BDE8F88FC7F86080FFF7FEFA49
:105170000646286810F0007F0BD0FFF7F7FA801B77
:10518000022802D90320BDE8F88F286810F0007FBC
:10519000F3D1206AB0F5803F05D16868A16820F49A
:1051A000003008436860616A206A0843696821F436
:1051B000741100E037E008436860C7F860B0FFF79B
:1051C000D5FA0446286810F0007F2CD1FFF7CEFAFC
:1051D000001B022802D90320BDE8F88F286810F0D0
:1051E000007FF3D01FE0286810F0007FB4D11AE0F0
:1051F0000010024000004242800442420070004021
:1052000001280DD06868226A00F48031914204D1EF
:10521000616A00F47010884205D00120BDE8F88F63
:105220000120BDE8F88F0020BDE8F88F70B5044676
:10523000002C09D0606A002540B125616561A56236
:1052400094F8510040B10CE0012070BD6068B0F5E9
:10525000827FF4D0E561F2E784F85050204600F0F8
:105260003FF8022084F851002068016821F04001D5
:105270000160A088218900F4827001F40441084390
:10528000A18901F400610843217C01F00201084377
:10529000217D01F001010843218B01F400710843D5
:1052A000217F01F03801084394F8201001F08001BB
:1052B0000843218D01F40051084321680860A16969
:1052C000042000EA1140216848602068C16921F487
:1052D0000061C1616565012084F85100002070BD46
:1052E00010B586B00446002002900390049005900B
:1052F00015492068884225D100BF1448C06940F490
:1053000080401249C8610846C06900F4804001909D
:1053100000BF00BF00BF0846806940F008008861F8
:105320000846806900F00800019000BF00BF4FF4FC
:1053300020400290022003900320059002A9044817
:10534000FFF700F906B010BD003800400010024021
:10535000000C01402DE9F84F04468B4692461D464D
:10536000002694F8500001280DD04FF0010984F870
:105370005090FFF7FBF9074694F85100B04601281A
:1053800004D00226ADE00220BDE8F88FBBF1000F8B
:105390001CD05FEA0A0019D0032084F85100C4F839
:1053A0005480C4F830B0A4F834A0A4F836A0C4F8EF
:1053B0003880A4F83C80A4F83E80C4F84480C4F847
:1053C0004080A068B0F5004F02D00BE0012688E0D5
:1053D0002068016821F0400101602068016841F403
:1053E000804101602068016811F0400F03D101681D
:1053F00041F040010160E068B0F5006F05D06068E1
:1054000088B3BAF1010F31D03AE0606810B1BAF157
:10541000010F09D1206B21680088C860206B801CB7
:105420002063E08E401EE086E08E002845D0206894
:10543000816811F0020F09D0216B0988C160206BCF
:10544000801C2063E08E401EE08608E0FFF78EF9A6
:10545000C01BA84202D3B5F1FF3F05D125B1E08EB4
:105460000028E4D129E001E003263AE0206B21681E
:1054700000780873206B401C2063E08E401EE0869D
:10548000E08ED0B12068816811F0020F09D0216B45
:1054900009780173206B401C2063E08E401EE0867B
:1054A00008E0FFF763F9C01BA84202D3B5F1FF3F44
:1054B0000ED16DB1E08E0028E4D13A46294620464F
:1054C00001F064FF08B120206065A06810B105E01C
:1054D000032606E02068C16880680090606D00B116
:1054E000012684F8519084F850803046BDE8F88F4A
:1054F000401EB0F1807F01D3012070474FF0E021C2
:105500004861044AF020107000208861072008617B
:105510000020704723ED00E07047704790F83C2072
:10552000012A2CD0012280F83C20CA680023D1F83F
:1055300008C022F4407242EA0C02D1F804C022F4FE
:10554000806242EA0C02D1F800C022F4006242EA12
:105550000C02D1F810C022F4805242EA0C02D1F8B9
:1055600014C022F4005242EA0C02C96922F48042BB
:1055700011430268516480F83C30002070470220DB
:10558000704730B490F83C20012A30D0012480F8D4
:105590003C40022280F83D200268D2F804C09368A3
:1055A0002CF0700C0D6845EA0C0CC2F804C00268BF
:1055B000A2F1804CBCF5963C0CD0B2F1804F09D0E2
:1055C000A2F1804CBCF5806C04D0A2F1804CBCF5FB
:1055D000006C04D123F0800349681943916080F87E
:1055E0003D40002180F83C1030BC0020704730BCAA
:1055F0000220704710B50446207F082840D121487A
:1056000001880088401C1F4A10800A2905DD0120FE
:105610001D4908700A20114608801C48007848B9C6
:1056200000201B4908804FF6FF701A4908800020AF
:10563000144908806420154908700C21164800F0B0
:10564000E7FB134908800846008812490988884208
:1056500007DD0F4800880F490988401A0F49088064
:105660000AE00C4800884FF6FF71081A08490988BB
:105670000844401C094908800548008805490880FD
:1056800010BD000038010020510000205000002013
:1056900034010020360100200C04002054000020BA
:1056A00070B505460C4695F83C0001281CD0012039
:1056B00085F83C00D2B1042A29D0082A39D0E36801
:1056C00062682168286802F0E3FE2868C16921F455
:1056D0004061C1612868C169A26841EA0221C161D3
:1056E000002085F83C0070BD022070BDE368626850
:1056F0002168286802F05BFE2868816921F00C01AE
:10570000816128688169A26811438161E8E7E368E3
:1057100062682168286802F07DFE2868816921F4AA
:105720004061816128688169A26841EA0221816142
:10573000D6E7E36862682168286802F08BFE286873
:10574000C16921F00C01C1612868C169A2681143D7
:10575000C161C5E710B50446002C03D094F83D00A4
:1057600010B107E0012010BD002084F83C00204665
:1057700000F01EF8022084F83D00211D206802F090
:1057800007FD012084F8460084F83E0084F83F00BD
:1057900084F8400084F8410084F8420084F8430013
:1057A00084F8440084F8450084F83D00002010BDD2
:1057B00010B586B004460020029003900490059036
:1057C0001949206888422CD100BF1848C06940F0B0
:1057D00004001649C8610846C06900F00400019041
:1057E00000BF00BF00BF0846806940F00800886124
:1057F0000846806900F00800019000BF00BF48150E
:105800000290002003900120049002A90848FEF7AE
:1058100099FE002211461E20FFF76EF81E20FFF7AA
:105820005DF806B010BD0000000800400010024006
:10583000000C014010B5044600290FD0042910D0F7
:10584000082911D094F8410089B1042912D00829FF
:1058500013D094F84520012814D111E094F83E00AB
:10586000F2E794F83F00EFE794F84000ECE794F893
:105870004220F0E794F84320EDE794F84420EAE76B
:10588000012A01D0012010BD0220A1B1042915D0A8
:10589000082916D084F84100B1B1042917D008298D
:1058A00018D084F84500C1B104291CD0082920D0A3
:1058B0000C2929D123E084F83E00EDE784F83F006D
:1058C000EAE784F84000E7E784F84200EBE784F871
:1058D0004300E8E784F84400E5E72068C26842F046
:1058E0000202C26010E02068C26842F00402C26096
:1058F0000AE02068C26842F00802C26004E0206842
:10590000C26842F01002C2600122206802F07CFCF2
:105910002068A0F18041B1F5963112D0B0F1804FEE
:105920000FD0A0F18041B1F580610AD0A0F1804193
:10593000B1F5006105D0016841F00101016000206E
:1059400010BD816801F007010629F8D0016841F017
:1059500001010160F3E770B50446206801694FF06A
:10596000000511F0020F17D0C16811F0020F13D01B
:10597000E91E0161012020772068806910F0030F83
:1059800003D02046FFF736FE05E0204600F0E8F899
:10599000204600F0A9F925772068016911F0040F6D
:1059A00018D0C16811F0040F14D06FF00401016128
:1059B000022020772068806910F4407F03D02046C1
:1059C000FFF718FE05E0204600F0CAF8204600F078
:1059D0008BF925772068016911F0080F18D0C1688C
:1059E00011F0080F14D06FF0080101610420207736
:1059F0002068C06910F0030F03D02046FFF7FAFDBE
:105A000005E0204600F0ACF8204600F06DF925775F
:105A10002068016911F0100F18D0C16811F0100F43
:105A200014D06FF010010161082020772068C06950
:105A300010F4407F03D02046FFF7DCFD05E0204650
:105A400000F08EF8204600F04FF9257720680169B4
:105A500011F0010F09D0C16811F0010F05D06FF0EE
:105A600001010161204600F0D2F92068016911F0BE
:105A7000800F09D0C16811F0800F05D06FF0800150
:105A800001612046FFF748FD2068016911F0400FD1
:105A900009D0C16811F0400F05D06FF040010161DD
:105AA000204600F0CBF92068016911F0200F0BD0DF
:105AB000C16811F0200F07D06FF02001016120466E
:105AC000BDE87040FFF729BD70BD000010B586B07D
:105AD0000446002002900390049005901B49206822
