:020000040800F2
:10000000D80E0020010100080B4800081743000823
:10001000094800080D110008A16000080000000058
:10002000000000000000000000000000FB4E00087F
:1000300067130008000000002D48000895520008D2
:100040001B0100081B0100081B0100081B01000820
:100050001B0100081B0100081B0100081B01000810
:100060001B0100081B0100081B0100080113000808
:100070000D13000819130008251300083113000898
:100080001B0100081B010008810A00081B01000871
:100090001B0100081B0100081B0100081B010008D0
:1000A0001B0100081B0100081B0100081B010008C0
:1000B0001B0100081B010008895600081B010008ED
:1000C0001B0100081B0100081B0100081B010008A0
:1000D0001B010008016000081B01000819600008EE
:1000E0001B0100081B0100081B010008DFF80CD0F1
:1000F00000F096FC00480047C16E0008D80E0020B2
:100100000648804706480047FEE7FEE7FEE7FEE7B1
:10011000FEE7FEE7FEE7FEE7FEE7FEE755540008D0
:10012000ED000008202A04DB203A21FA02F0002129
:10013000704721FA02F3D040C2F1200291400843F7
:100140001946704740EA01039B0703D009E008C93C
:10015000121F08C0042AFAD203E011F8013B00F88C
:10016000013B521EF9D27047D2B201E000F8012BD8
:10017000491EFBD270470022F6E710B513460A4627
:1001800004461946FFF7F0FF204610BDF0B480EAA0
:100190000102D40F4200B2EB410F02D202460846E0
:1001A00011464A0042D0C30DDDB2C1F3C752AD1AA9
:1001B000202D35DAC1F3160141F4000204B1524298
:1001C000C5F1200602FA06F12A411044B3EBD05FD4
:1001D00023D0C4B1012DA0EBC35009DCF0BC4FF01B
:1001E000004202EAC352DBB200F5000000F015BB8A
:1001F000400000F1807000EBC350A0F1807040EA35
:10020000D170490009E0490841EAC071A0EBC35030
:1002100000F50000400800EBC350F0BC00F0F4BA59
:100220006142012202EB4101001BF6E7F0BC70477E
:1002300081F00041AAE780F00040A7E780EA0102D0
:1002400010B502F00043400022D04A001FD0010E3A
:1002500001EB1261C0F35600C2F3560240F40000F5
:1002600042F40002A0FB022000047F39140400D0F5
:10027000401C50EA124001D44000491EC2B20C0694
:1002800004EBD010401C4008802A02D003E000207C
:1002900010BD20F00100002900DA0020184310BD35
:1002A00030B480EA010202F0004530F0004221F053
:1002B000004013D090B1C30DD40DC2F31601C0F3AA
:1002C0001600E41A41F4000140F400027D3491422A
:1002D00001D3641C00E04900002C02DA30BC00208D
:1002E00070474FF400000023914201D3891A034361
:1002F00040084FEA4101F7D151B1914202D14FF08C
:10030000004105E002D24FF0010101E06FF0010170
:1003100003EBC450284430BC00F076BA2DE9FE4F00
:10032000804681EA0300C00F0C46009021F0004196
:1003300023F00045B8EB0200A94105D24046214612
:1003400090461C460B46024623F00040104347D01F
:10035000270DC7F30A00C3F30A510290401A019017
:1003600040286BDAC3F3130040F4801B00989246D8
:1003700020B10023D2EB030A63EB0B0B0198594623
:10038000C0F14002504600F01EFA06460D465046A7
:100390005946019A00F026FA10EB0800614100244A
:1003A00087EA115284EAE7731A4340D0009A62B395
:1003B000019A012A4FEA075215DC001B61EB02018A
:1003C0004FF0004202EA0752CDE90042001C41F51D
:1003D000801132462B4600F05DFA03B0BDE8F08F85
:1003E00040462146F9E7001B61EB0201001C41F584
:1003F000801300185B412018A2F5001747EB03019A
:1004000040EAD570B6196D4111E06D084FEA360625
:1004100045EAC0754FEA0752001B61EB0201001C60
:1004200041F5801149084FEA300000195141324628
:100430002B4603B0BDE8F04F00F01DBA0098012232
:1004400040000023D0EB020263EBE07300982146EA
:100450004FEAE074B8EB000061EB0401E9E783F0D8
:1004600000435BE781F0004158E72DE9FE4F81EA48
:10047000030404F0004421F0004100944FF0000B0D
:1004800023F0004350EA01045ED052EA03045BD03B
:10049000C3F30A54C1F30A552C44A4F2F334019473
:1004A000A0FB0254C1F3130141F48011C3F3130301
:1004B00043F4801301FB024400FB034E840A970AB5
:1004C00044EA815447EA8357A4FB076802958D0AE2
:1004D00005FB07854FEA932C04FB0C542705029D6E
:1004E0004FEA065847EA1637B5EB08056EEB070CDE
:1004F000870E920E47EA811742EA8312A7FB020198
:10050000B6EB0B0164EB00042B0D43EA0C335E18D1
:1005100044EB1C50DA465146E7FB0201C5F31304D5
:100520004FEA0B3343EA14534FEA0432019C43EA87
:100530000603A4F10C040294009CCDE900B400F081
:10054000A9F903B0BDE8F08F00200146F9E72DE9D5
:10055000F04D81EA030404F0004B21F000451446FD
:100560004FF0000A23F0004150EA050220D054EA7F
:1005700001021DD0C5F30A570246C5F31303C1F3A8
:100580001300C1F30A5640F4801543F48013A7EB1F
:100590000608101BD64608F2FD3873EB050002D39F
:1005A00008F1010801E092185B41B8F1000F03DA8D
:1005B00000200146BDE8F08D00204FF48011064672
:1005C00084460EE0171B73EB050705D3121B63EB84
:1005D000050306434CEA010C49084FEA3000921823
:1005E0005B4150EA0107EDD152EA030012D082EAE2
:1005F000040083EA0501084305D0101BAB4106D275
:100600000122002306E000224FF0004302E06FF0D9
:10061000010253101AEB06004CEB085110EB0A00D4
:1006200041EB0B01BDE8F04D00F025B99623002207
:10063000114600F0F2B80EB540F2334102910021AC
:10064000CDE900110A460B4600F024F903B000BDC5
:1006500020F00040C10DC0F3160040F400007F29D7
:1006600001DA00207047962903DCC1F19601C840E9
:100670007047963988407047C1F30A5210B5C1F3EC
:10068000130140F2FF3341F480119A4201DA002055
:1006900010BD40F233439A42A2F2334203DC52428D
:1006A000FFF740FD10BD904010BD00F0004230F05B
:1006B00000400AD0C10D01F56071C0F3160042EA96
:1006C0000151C2084007114370470020014670479E
:1006D00030B5041E71F1000404DB4FF000444042C9
:1006E00064EB0101141E73F1000405DB1C464FF09E
:1006F0000043524263EB04038B4208BF824230BD89
:1007000001F0004330B421F0004150EA010206D06C
:100710000A0DA2F56072C1F31301002A02DC30BC9D
:1007200000207047440F44EAC104C100E01830BC07
:1007300000EBC25000F068B830B50B46014600200F
:100740002022012409E021FA02F59D4205D303FA93
:1007500002F5491B04FA02F52844151EA2F1010214
:10076000F1DC30BD2DE9F05F0546002092469B4646
:1007700088460646814640241BE0284641464746B7
:100780002246FFF7CFFC53465A46C01A914110D378
:1007900011461846224600F016F82D1A67EB01089C
:1007A0004F4622460120002100F00DF817EB00090A
:1007B0004E41201EA4F10104DFDC484631462A46A2
:1007C0004346BDE8F09F202A04DB203A00FA02F1FC
:1007D000002070479140C2F1200320FA03F319432F
:1007E00090407047202A06DBCB17203A41FA02F0EE
:1007F00043EAE07306E041FA02F3D040C2F120027E
:1008000091400843194670470029A8BF7047401C13
:10081000490008BF20F00100704710B4B0FA80FC16
:1008200000FA0CF050EA010404BF10BC704749B153
:10083000CCF1200421FA04F411FA0CF118BF0121C3
:1008400021430843A3EB0C01CB1D4FEA00614FEAA3
:10085000102042BF002010BC704700EBC350104472
:100860000029A4BF10BC7047401C490008BF20F0FD
:10087000010010BC704710B5141E73F1000408DAB3
:10088000401C41F1000192185B411A4301D120F054
:10089000010010BD2DE9F04D92469B4611B1B1FA11
:1008A00081F202E0B0FA80F220329046FFF78BFF2F
:1008B00004460F4640EA0A0041EA0B0153465A46F5
:1008C000084313D0114653EA010019D0C8F1400281
:1008D0005046FFF727FC05460E465046594642460D
:1008E000FFF771FF084305D0012004E02046394698
:1008F000BDE8F08D0020054346EAE0762C433743FF
:100900000A986305E40AA0EB08000022FD0A44EA05
:1009100047540A3002D500200146E9E701051019C5
:100920006941DDE9084500196941BDE8F04DA2E7DC
:1009300070B521F0004303430CD0C1F30A550024E5
:10094000D5EB040564EB0403D617AD1AB34102DB03
:100950000020014670BD201841EB025170BD0EB55C
:10096000C10F80EAE0700844CA07002140F2334317
:100970008DE80E000A460B46FFF78CFF03B000BD62
:1009800070B5C1F30A5201F000450024C1F3130110
:1009900040F2FF3341F480119A4201DA002070BD29
:1009A00040F233439A42A2F2334203DC5242FFF751
:1009B000B9FB00E090402C43F1D0404270BDC1F340
:1009C0000A52C1F3130140F2FF3341F480119A42FD
:1009D00002DA00200146704740F233439A42A2F205
:1009E000334202DC5242FFF79DBBFFF7ECBE000032
:1009F00030B5041E71F1000404DB4FF000444042A6
:100A000064EB0101141E73F1000405DB1C464FF07A
:100A10000043524263EB0403994208BF904230BD49
:100A2000064C074D06E0E06840F0010394E807003B
:100A300098471034AC42F6D3FFF75CFB74720008A1
:100A40009472000830B58C1810F8012B12F00F03C7
:100A500001D110F8013B120906D110F8012B03E077
:100A600010F8015B01F8015B5B1EF9D101E001F8B0
:100A7000013B521EFBD1A142E6D3002030BD000055
:100A800010B5044801F0C2F9BDE81040024801F079
:100A9000BDB90000B0010020E001002070B504469F
:100AA00000688168C943C9071BD1816821F0010131
:100AB000816002F069F805460EE002F065F8401B1F
:100AC000022809D9A06A40F01000A062E06A40F054
:100AD0000100E062012070BD20688068C043C0074B
:100AE000EBD0002070BD10B50146406A826A12F05A
:100AF000500F05D0006A026BBDE810400846104751
:100B0000816A41F40071816201688968C1F34241E0
:100B100007290CD1C16851B9816A21F480718162C1
:100B2000816AC90403D4816A41F00101816201F044
:100B300067F910BD10B5406A816A41F040018162D9
:100B4000C16A41F00401C16201F05CF910BD10B549
:100B5000406A01F056F910BDF8B50026044600962B
:100B600000688168C943C90727D0816841F0010145
:100B70008160134813490068B0FBF1F000E0401EAB
:100B800000900028FBD101F0FFFF054610E001F0C6
:100B9000FBFF401B02280BD9A06A40F01000A062A6
:100BA000E06A40F00100E06284F824600120F8BDB2
:100BB00020688068C043C007E9D10020F8BD00006C
:100BC0004001002040420F002DE9F84F0026374633
:100BD0003546B046B146B2463446A44904EB440B10
:100BE00031F81B00FFF727FD2A464346FFF796FB27
:100BF00088469E49054601EB4B0BBBF80200FFF708
:100C00001AFD32463B46FFF789FB06460F46BBF806
:100C10000400FFF710FD4A465346FFF77FFB641CB4
:100C2000E4B281468A461E2CD7D30022904B284638
:100C30004146FFF78CFC04460D4600228C4B3046A3
:100C40003946FFF784FC07468B460022884B48460E
:100C50005146FFF77CFC874E894680463146307A04
:100C6000D1F830A0642863D2401CC0B2307200902A
:100C7000706BFFF71AFD22462B46FFF74FFBFFF77D
:100C80003FFD044670635046FFF70FFD3A465B4652
:100C9000FFF744FBFFF734FD05463063B06BFFF709
:100CA00004FD42464B46FFF739FBFFF729FD074697
:100CB000B0630098642839D1DFF8BC8120464146F2
:100CC000FFF7EEFA044641462846FFF7E9FA0546E3
:100CD00041463846FFF7E4FA07462046FFF7E5FCB1
:100CE000C6E914012846FFF7E0FCDFF89091DFF831
:100CF00090814A464346FFF7B8FB624C624D22465C
:100D00002B46FFF724FCFFF7FBFC306300207063E9
:100D10003846FFF7CAFC4A464346FFF7A6FB224681
:100D20002B46FFF714FCFFF7EBFCB063BDE8F88F30
:100D3000524A534B38465946FFF797FB514A524B9C
:100D4000FFF705FC0022514BFFF701FC07468B46DD
:100D500049495046FFF7A4FA5146FFF76CFAFFF7EE
:100D6000A4FC3A465B46FFF7D9FAFFF7C9FC4849AD
:100D7000306308603078B17908431DD14548007868
:100D8000D0B9424F00223B4620462946FFF7DFFB01
:100D90008B463B46D6E914718246002238460091C4
:100DA000FFF7D5FB3A46009BFFF75CFB52465B46DC
:100DB000FFF7B4FAC6E91401D6E914232046294600
:100DC000FFF786FC06D2D6E9140122462B46FFF730
:100DD00046FB01E000200146DFF8A4B0274A5B464D
:100DE000FFF743FB2C4A2D4BFFF7B1FBDFF89CA02C
:100DF00000225346FFF7ABFB04461F4F0D46706BB6
:100E000039460090FFF74CFA0099FFF714FAFFF704
:100E10004CFC22462B46FFF781FAFFF771FC204974
:100E20007063164A08605B4640464946FFF71DFB63
:100E3000144A154BFFF78BFB00225346FFF787FB45
:100E400004460D46B06B39460746FFF729FA394686
:100E5000FFF7F1F9FFF729FC22462B46FFF75EFA70
:100E6000FFF74EFC0F49B06308605FE754020020B3
:100E700000003E40200000200000C842B4D934E702
:100E80000C684A3FDCB66DDBB66DBB3F00005940D5
:100E90000401002006000020AE47E17A14AEC73FEF
:100EA00000010020080100202DE9F84F8B4C0320A1
:100EB0000090A08AFFF7BFFBD4E91023FFF708FCDE
:100EC00006D2E07920B90020C4E910000120207189
:100ED000A079834EDFF80CA200250227DFF80882F4
:100EE0004FF4005B4FF00309062856D2DFE800F00C
:100EF0000330576D97C62079012813D1A08988B98E
:100F00000120A4F80E9060712571E570A071024671
:100F100080214646404601F032FE0122042130463F
:100F200001F02DFEE078012837D1A4F80E90607111
:100F30002571E570A071024680214446404601F0CB
:100F40001EFE2046BDE8F84F0122042101F017BE25
:100F500066480078C0B166480078A8B16548007856
:100F600090B16548007878B100225946304601F0CA
:100F700006FE01229103304601F001FE322005F009
:100F800045FE01208AF800005C49012002460870F5
:100F90000102404601F0F3FDA771BDE8F88F002182
:100FA000574802F085FE5148007858B15048007803
:100FB00040B15048007828B14F48007810B10098EF
:100FC00004F0BAF884F80690E7E7A0780425012831
:100FD0000AD104F049F90021494802F081FE32208B
:100FE00005F014FE2782A571E08950B904F03CF9A0
:100FF0000021434802F074FE322005F007FE2782EC
:10100000A57160790028C8D104F02EF900213C4870
:1010100002F066FE322005F0F9FD27822CE0002266
:101020005946304601F0ABFD00224FF48041304676
:1010300001F0A5FD8AF80050A0780525012805D10A
:1010400000228021404601F09AFDA571208A40B916
:1010500000228021404601F092FD322005F0D6FDAD
:10106000A5716079002898D100228021404601F0C6
:1010700086FD322005F0CAFDA5718EE7608A401C0E
:1010800060820020C4E9100001F006FC1D48618A5E
:10109000808800F029FB01F0B3FB0022594630465E
:1010A00001F06DFD00224FF48041304601F067FDF4
:1010B00000224FF480714646404601F060FD002258
:1010C0008021304601F05BFD0F4805700B488AF81F
:1010D00000500570A57165715FE7000020000020D9
:1010E0000010014001000020000C0140950000208C
:1010F00096000020970000209800002002000020A9
:101100006C0300205401002000000020FEE70000D6
:101110002DE9F047DFF8E4901021484601F026FD64
:10112000384D0227DFF8D8800026A5F11E04E0B173
:1011300001202870E6820821484601F017FD48B3D7
:101140000420687026834FF400412F4801F00EFD03
:10115000072178B36683A8780922092842D0A08B9A
:10116000431CA3830A283DD839E0287803210328AB
:101170000ED00228E08A07D0411CE1820528DAD986
:101180002F7088F80070D6E7421CE282C828D2D9B6
:101190002970D0E768780621062810D00528208B12
:1011A00009D0411C21830528CDD90520687088F815
:1011B0000070C8E705E0421C2283C828C3D96970C3
:1011C000C1E7A683A8780823082805D0608B421CB5
:1011D0006283B0F5967F02D9AB70012208E0A97056
:1011E000BDE8F087AA702078A1790843F8D10022E1
:1011F0004846BDE8F047042101F0C1BC000C0140A5
:10120000200100203E000020000801402DE9F047A9
:10121000314C2078012804D0BDE8F047FA2003F0D3
:101220001DBF2E4861680068FFF702F82C4D2D495C
:101230002860884202DAFFF738FA01E02A482B4991
:10124000FFF75EFA2A492860884202D8FFF72DFA94
:1012500001E025482749FFF753FA2860D5E90171D5
:1012600006463846FEF7E4FF804639463046FEF72C
:10127000DFFF81464146FEF7DBFF2169FEF7DEFF17
:1012800080463146E068FEF7D9FF82464846A168AD
:10129000FEF7D4FF5146FEF779FF4146FEF776FF91
:1012A0006169FEF773FF14496061C5E9016788420F
:1012B00000DD08464FF07E516061884200DA084642
:1012C0006061FFF7C5F9C4B2204603F0C7FE0B48C2
:1012D0000470BDE8F0870000E40000200001002059
:1012E00048010020CDCCCC3D9A9999999999B93F64
:1012F000CDCCCCBD9999B9BF00007F4378000020C8
:10130000014801F005B9000010020020014801F079
:10131000FFB80000740A0020014801F0F9B800008D
:10132000300A0020014801F0F3B80000EC09002069
:10133000014801F0EDB80000A809002030B590F890
:1013400040500124AC40C56B6C6004686360436826
:10135000102B036803D099600068C26030BD9A60AA
:101360000068C16030BD70470C490A880C49098883
:1013700060B1012810D14EF6EE6009B11AB107E054
:10138000824209D006E0814204D005E022B109B1D1
:10139000AB207047012070470020704700F0000824
:1013A00000F4000870B586B00024114E4FF0FF30F5
:1013B000012502960094CDE9035004A9684601F086
:1013C000CBF90498411C11D100221346314601206B
:1013D00001F020FA0490411C08D10648CDE902052D
:1013E00004A90094684601F0B7F9049806B070BDEE
:1013F00000F0000800F400082DE9F04F002485B04B
:10140000651E02F089FFDFF86881B8F80010DFF888
:1014100064A1BAF80000002601272A0C564BDFF819
:101420005CC1002974D0A1F6EE61B1F5604121D014
:1014300001F6EF61B1F5005F69D170B1A0F56E41C1
:10144000EE3964D1CDE9028704A96846009601F01F
:1014500083F90498411C1AD105E0CDE9028704A95B
:101460006846009643E000221346514646E0411C80
:101470000DD149E078B1904275D1CDE902A704A918
:101480006846009601F068F90498411C33D080B298
:1014900005B0BDE8F08FC1469846E346B9F806208E
:1014A00038F81400824200D125B2AC420DD0334945
:1014B00000F0C8F8012808D038F81400BBF8001074
:1014C00000F0E4F80004000CE2D1641CA4B20F2C7C
:1014D000E4D3002213464946012001F09BF9049011
:1014E0000028D5D1CDE902A704A96846009601F0ED
:1014F00033F90498BBE7002213464146012001F06E
:1015000089F904900028C3D10020C1E700E02AE057
:1015100048B39042E6D09946E3461648801D0288BB
:1015200039F81400824200D125B2AC420DD01349E3
:1015300000F088F8012808D039F81400BBF8001032
:1015400000F0A4F80004000CA2D1641CA4B20F2C7B
:10155000E3D3002213465146012001F05BF90490C9
:10156000002895D179E7FFF71DFF04907FE7000081
:1015700000F0000800F4000854010020FC000020E6
:101580002DE9F0474FF0000986B080460E464C46E4
:101590004846CDF81090FFF7E7FE80B22549264D6A
:1015A000012804D028B1AB2006B0BDE8F0870F4673
:1015B00001E02F460D464EF6EE620023394601202B
:1015C00001F028F904900028EED13146404600F0A1
:1015D0005DF80004000CE7D1184EDFF864A036F87F
:1015E000140040450DD0164900F02CF8012808D011
:1015F00036F81400BAF8001000F048F80004000CA7
:10160000D2D1641CA4B20F2CE9D30120CDE9025041
:1016100004A9CDF80090684601F09EF80498411C9A
:10162000C2D1002213463946012001F0F3F804909C
:10163000BAE7000000F0000800F4000854010020A0
:10164000FC00002070B505460E4601240020FFF77F
:101650008BFE80B2AB2813D00A490B4A01EB8021E4
:1016600002EB8022891C08E01088A84204D132F8DD
:10167000020C3080002402E0121F8A42F4D8204677
:1016800070BD000000F00008FEF3000870B50646CB
:101690000D460120FFF768FE81B2AB2906D0104845
:1016A00000EB81240F4800EB812005E0AB2070BDEA
:1016B0002168491C04D0241D8442F9D3802070BDC8
:1016C0002A4600232146012001F0A4F80028F6D183
:1016D000A11C3246BDE870400023012001F09AB8F9
:1016E00000F00008FEF3000870B50C460546FFF751
:1016F000CDFF80B2802804D121462846FFF740FF65
:1017000080B270BD2DE9FE4F0446F1A0F14F006894
:10171000019038780021AA2813D178780A2810D1AE
:10172000B878001DC2B2B85CBB280AD1012003E022
:101730003B5C5940401CC0B29042F9D309B9F978DA
:1017400011B10020BDE8FE8FE24AE34D94F800C0DD
:10175000917916792B7B86EA010BD17952794FF07A
:10176000080A5140009102EB06211FFA81FE029106
:10177000012105F12609BCF10B0F71D2DFE80CF055
:10178000700651526663684FBCC6FE0033B1012B30
:1017900011D0022B1CD0032B34D126E0CE490020DF
:1017A0002A313A180B5C12799A422BD1401CC0B2F4
:1017B0000428F6D333E0C84900202E313A180B5CD8
:1017C00012799A421ED1401CC0B20428F6D326E0FA
:1017D000C149002032313A180B5C12799A4211D17A
:1017E000401CC0B20428F6D319E0BB4900203631B2
:1017F0003A180B5C12799A4204D1401CC0B20428FA
:10180000F6D30CE004280AD2002049463A1812798F
:101810000A54401CC0B20428F8D3032014E084F812
:1018200000A052E1002001AB4A461E5C155C7540E9
:101830003E183679B54204D1401CC0B20428F4D316
:1018400001E0042847D3062020703EE10520FBE795
:101850003BB1012B17D0022B27D0032BE1D136E06F
:1018600032E1502E37D1502A35D184F800A09A4A5F
:10187000697300202A3249460B5C1354401CC0B2E5
:101880000428F9D321E1432E25D1312A23D184F82C
:1018900000A0A973904900202E314A46135C0B54D6
:1018A000401CC0B20428F9D30FE1522E13D14F2AA5
:1018B00011D184F800A0884AE973002032324946E9
:1018C0000B5C1354401CC0B20428F9D3FDE0432E36
:1018D00001D1322A02D02170EE2033E784F800A033
:1018E00029747D49002036314A46135C0B54401C54
:1018F000C0B20428F9D3E8E0BBF1FF0F04D100988F
:10190000FF2801D1A5F824E009209DE7BBF1FF0FD6
:1019100008D10098FF2805D1AA8C0298904201D8DE
:10192000A5F824E06D484FF0000802782AB180F84D
:10193000008029726972A972E972694E0A2753B14F
:10194000DFF8A0A1DFF8A0B1012B33D0022B5CD0CF
:10195000032B2ED184E06973A88C8946A883FEF7F7
:101960006AFE624A0023C5E914321A465F4BC5E994
:101970001201FEF7ECFDC5E9100100E0A1E002460E
:101980000B465B485B49FEF7A3FE0DD2D5E910017B
:101990000022594BFEF769FD00223346FEF7BEFCDC
:1019A000FEF76AFE687401E085F81180287A81E00C
:1019B00027708AE0A973A88C8946E883FEF73BFE6E
:1019C000484A0023C5E914321A465346C5E91201B4
:1019D000FEF7BDFDC5E9100102460B4644485946D5
:1019E000FEF776FE0DD2D5E910010022424BFEF73C
:1019F0003CFD00223346FEF791FCFEF73DFEA87445
:101A000001E085F81280687A54E0E973A88C894671
:101A10002884FEF710FE394A0023C5E914321A461D
:101A2000364BC5E91201FEF792FDC5E910010246E9
:101A30000B4633483349FEF74BFE0DD2D5E9100172
:101A400000222D4BFEF711FD00223346FEF766FC07
:101A5000FEF712FEE87401E085F81380A87A29E009
:101A60002974A88C89466884FEF7E5FD1D4A002389
:101A7000C5E914321A465346C5E91201FEF767FD5F
:101A8000C5E9100102460B4619485946FEF720FEEB
:101A90000DD2D5E910010022174BFEF7E6FC00221B
:101AA0003346FEF73BFCFEF7E7FD287501E085F8BD
:101AB0001480E87A00287FF47BAF84F80090AA2095
:101AC00040E62170CC203DE6217001203AE600007E
:101AD00055AA55AA2C040020880000201D000020D3
:101AE0000000F03F0020BC405634223F0020AC40B4
:101AF000DFBC9A785634323F000018400018D540B9
:101B00002951CEA0C845083F3EB500210F2800D975
:101B10000020AA228DF800200A228DF8012002223E
:101B20008DF8022085228DF803208DF80400012015
:101B30006A46135C401C5940C0B20528F9D38DF8A1
:101B40000510BB208DF8060007226946064804F000
:101B500069FA0446012804D0034802F043F902F070
:101B60001BFE20463EBD0000280900201FB50022B4
:101B70000F2800D90020AA238DF800300A238DF801
:101B8000013006238DF8023084238DF803308DF860
:101B9000040008788DF8050048788DF806008878EC
:101BA0008DF80700C8788DF80800012069460B5CA5
:101BB000401C5A40C0B20928F9D38DF80920BB2037
:101BC0008DF80A000B22074804F02CFA044601287D
:101BD00004D0044802F006F902F0DEFD04B020460D
:101BE00010BD0000280900207047000006490020B1
:101BF000C8610648016941F004010161016941F0D1
:101C00004001016170470000B80A00200020024036
:101C1000064A0021D16106490A6942F002020A61BE
:101C20004861086940F0400008617047B80A002028
:101C300000200240044B0022DA61044A136943F099
:101C40000103136101807047B80A002000200240A0
:101C500014490020CA68D306134A04D5D06940F05D
:101C60000200D0611020CB685B0705D5D36943F033
:101C70000103D36140F00400CB69DB0707D0D369CF
:101C800043F00403D361CA6922F00102CA61A0F5DE
:101C90008072013A01D0C8607047C86920F0010025
:101CA000C861704700200240B80A002070B50446A1
:101CB00000F06AFF0546114E09E0601C07D024B110
:101CC00000F062FF401BA04201D9032070BDF06804
:101CD000C007F2D1F068800601D52020F060F068DE
:101CE000C00605D4F069C00702D1F068400703D5EB
:101CF000FFF7AEFF012070BD002070BD0020024044
:101D000070470000F8B50023009390F824201C468B
:101D1000012A12D0012280F824204A681F26072AAF
:101D20000DD205686F6B521E02EB82029640B743DC
:101D30000E68964037436F6319E00220F8BD0568CE
:101D40000D2A0AD22F6BD21F02EB82029640B743B4
:101D50000E68964037432F6309E0EF6A0D3A02EBB5
:101D600082029640B7430E6896403743EF620A6896
:101D7000072605680A2A0AD3EF680A3A02EB4202EC
:101D80009640B7438E6896403743EF6008E02F696E
:101D900002EB42029640B7438E68964037432F616C
:101DA0000A68102A01D0112A20D1124D0268AA42D5
:101DB00017D195682D0219D4956845F400059560F2
:101DC0000968102912D10C490C4A0968B1FBF2F1DB
:101DD00001EB8101490000E0491E00910029FBD17F
:101DE00004E0816A41F020018162012380F82440EF
:101DF0001846F8BD002401404001002040420F0079
:101E00007047704770470068C06C704710B5044653
:101E100000684168890626D50168890723D5A16A2B
:101E2000C90603D4A16A41F40071A1628168C1F3BB
:101E30004241072910D1E16871B9416821F02001C0
:101E40004160A06A20F48070A062A06AC00403D43C
:101E5000A06A40F00100A0622046FFF7D1FF216890
:101E60006FF0120008602068416809062ED50168ED
:101E700049072BD5A16AC90603D4A16A41F40051D0
:101E8000A1628168C1F30231072909D0416849057F
:101E900015D48168C1F34241072910D1E16871B9B5
:101EA000416821F080014160A06A20F48050A06266
:101EB000A06AC00503D4A06A40F00100A0622046D9
:101EC000FFF71EFF21686FF00C0008602068416872
:101ED00049060DD50068C0070AD0A06A40F48030DA
:101EE000A062204600F094F821686FF001000860BD
:101EF00010BD00002DE9F0414FF00006040035460A
:101F00007DD0A06A002728B9E76284F824702046B3
:101F100000F080F82046FEF7C1FDA16AC90600D492
:101F200020B1A06A40F01000A06268E0A16A21F42C
:101F3000885141F00201A1626268E169E3680A43E5
:101F400046EA43010A43A1684FF48076B14208D0C3
:101F5000012906D00021D4F814C0BCF1010F02D031
:101F60000AE03146F7E7F3B1A36A43F02003A36226
:101F7000E36A43F00103E3622368D3F804C02CF45E
:101F8000694C4CEA010CC3F804C021688B68DFF887
:101F900074C003EA0C0313438B60A168B1420BD0F9
:101FA000012909D00CE0DFF860C0A3690CEB4333D2
:101FB0000B4343F40061DFE7218A0D05A5F5801589
:101FC0002168CB6A23F470032B43CB6221688968B4
:101FD0000E4B1940914208D1E762A16A21F002013B
:101FE00041F00101A162BDE8F081A06A20F0020089
:101FF00040F01000A062E06A40F00100E0620120C1
:10200000F1E70000FDF7E1FF00E0FFFFFE0E1FFF1C
:102010007047000070B586B0002406460094019415
:102020000294039400682C4D2C4903232C4AA842A7
:102030002ED1886940F400708861886900F40070CE
:102040000490886940F0040088618869694600F05E
:10205000040004900D20CDE90003104600F0A2FC1E
:10206000214D2048C5E900048020C5E90240400018
:102070002861800068612020A8610002E86128468C
:1020800000F0F2FA08B1FFF7AFFD35626E6219E0B9
:10209000164CA0421ED1886940F48060886188692E
:1020A00000F480600490886940F0040088618869C9
:1020B000694600F0040004900220CDE900031046B8
:1020C00000F070FC00221146122000F0FFFD1220EB
:1020D00000F0F1FD06B070BD002401400010024088
:1020E00000080140080002401002002000280140C2
:1020F0002DE9F8434FF000080D460446CDF8008066
:1021000000F042FD064620688168C90508D5A06A2E
:1021100040F02000A06284F824800120BDE8F8830C
:102120004168C90503D4C06A10F4700F25D002209D
:1021300000F0FEFD37490968B1FBF0F7206801693E
:10214000354A11424FEA62024FEAA2131AD1C1681E
:102150004FEA621C11EA0C0F14D10169114220D11F
:10216000C06818421DD114201EE0681C05D035B38C
:1021700000F00AFD801BA84221D820680068800773
:10218000F3D529E00169114202D1C168194206D094
:10219000026922490A4206D1C068084203D154208C
:1021A00002E0292000E0FC204743009812E0681C70
:1021B0000DD025B100F0E8FC801BA84207D9A06A29
:1021C00040F00400A06284F824800320A6E7009871
:1021D000401C0090B842EAD321686FF012000860FA
:1021E000A06A40F40070A06220688068C0F342409A
:1021F00007280CD1E06850B9A06A20F48070A06272
:10220000A06AC00403D4A06A40F00100A0620020CC
:1022100084E70000400100202449922449922400D0
:1022200070B5044690F8240001280DD0012084F8F0
:1022300024002046FEF790FC01004FF0000205D07C
:1022400084F82420084670BD022070BDA06A40F2C8
:102250000123984340F48070A0621F4D20681F4BFB
:10226000A84218D11E6816F4702F14D0A66A46F43E
:102270008016A6621E68760505D5A66A26F4005665
:1022800046F48056A662A66AF6040AD5E66A26F0E7
:102290000606E66206E0A66A26F48016A66246688E
:1022A000E9E7E26284F824206FF00202026020680D
:1022B0008268C2F34242072A05D1A84208D11A68AF
:1022C00012F4702F04D0826842F480128260B9E761
:1022D000826842F4A002F9E700280140042401408A
:1022E0002DE9F047894604463B4900683B4F0E1DE7
:1022F0009046884201D0B84207D1306810F4702F60
:1023000003D001252846BDE8F08794F82400012871
:102310000CD0012084F824002046FEF71DFC0500A7
:102320004FF0000104D084F82410EBE70220EAE724
:10233000A06A40F60162904340F48070A062206879
:10234000B84218D1326812F4702F14D0A06A40F449
:102350008010A0623068400505D5A06A20F40050C6
:1023600040F48050A062A06AC0040AD5E06A20F060
:102370000600E06206E0A26A22F48012A2624068CF
:10238000E9E7E16284F82410216A15488862216A2D
:102390001448C862216A1448086321686FF002007B
:1023A00008602068816841F480718160216843463B
:1023B0004A464C31206A00F085F920688168C1F3F3
:1023C00042410729816803D041F48011816099E777
:1023D00041F4A001FAE70000002401400028014078
:1023E000E70A00084F0B0008350B000801680A686F
:1023F00022F00E020A6001680A6822F001020A60F7
:1024000090F84020012303FA02F1C26B516080F87A
:102410002130002180F820100846704710B590F850
:1024200021100024022903D00421816301243DE00E
:1024300001680A6822F00E020A6001680A6822F048
:1024400001020A601A4A0168914201D1012121E08A
:10245000174A1432914201D110211BE0144A28324C
:10246000914201D1891515E0114A3C32914201D1C6
:1024700089140FE00E4A5032914202D14FF480315C
:1024800008E00B4A6432914202D14FF4801101E01E
:102490004FF08071064A083A5160012180F82110FE
:1024A000002180F82010416B01B18847204610BD03
:1024B0000800024010B528B301680A6822F0010242
:1024C0000A60026800211160026851600268916030
:1024D0000268D1600C4B026801241A441423B2FB39
:1024E000F3F29200094BC0E90F3294405C608162C4
:1024F000C16201634163816380F8211080F820107C
:10250000002010BD012010BDF8FFFDBF00000240FB
:102510002DE9F05FC16B0B6801680A68046C4FF02D
:10252000040C0CFA04FC4A4DDFF828A14A4E4B4F2C
:10253000DFF82CB1DFF82CE11CEA030F2DD05FEAA5
:10254000427C2AD50A68920603D40A6822F0040263
:102550000A600168A94201D1042119E0514501D165
:10256000402115E0B14202D14FF4806110E0B94240
:1025700002D14FF480410BE0594502D14FF4802144
:1025800006E0714502D14FF4800101E04FF0806117
:102590002F4A083A5160C16A3BE04FF0020808FA3E
:1025A00004F818EA030F4FF000094FF0010C35D082
:1025B0005FEA827832D50A68920605D40A6822F06A
:1025C0000A020A6080F821C00168A94201D10221F3
:1025D00019E0514501D1202115E0B14202D14FF45B
:1025E000007110E0B94202D14FF400510BE059459F
:1025F00002D14FF4003106E0714502D14FF40011D1
:1026000001E04FF00071124A083A516080F82090C2
:10261000816A00291AD0BDE8F05F08470825A54067
:102620001D4213D0120711D50A6822F00E020A606B
:1026300090F84010C26B0CFA01F15160C0F838C03C
:1026400080F821C080F82090016BE2E7BDE8F09FA0
:10265000080002401C0002403000024044000240DA
:10266000580002406C00024030B528B302C8134A3B
:1026700014230A44B2FBF3F29200C263104A82634D
:10268000022242770B6843F6F0729343D0E90024AC
:102690002243D0E902452C43224304692243446982
:1026A0002243846922431A430A60002141630122C4
:1026B00042770177084630BD012030BDF8FFFDBFED
:1026C0000000024070B5044690F820000025012863
:1026D0000CD0012084F8200094F821600020012E05
:1026E00006D084F820000225284670BD022070BD67
:1026F000022684F82160A0632068066826F001069F
:1027000006602046FEF71AFEE06A0028206801688D
:1027100002D041F00E0106E021F0040101602068C2
:10272000016841F00A0101602068016841F001017F
:102730000160D9E770B5044600F026FA0546601C32
:1027400002D004480078044400F01EFA401BA04266
:10275000FAD370BD340100202DE9F0470546264824
:102760000F460126017E01290FD001218146017605
:102770002868DFF888804CF25034022808D0A2463E
:102780002046FFF793FAA8B131E00220BDE8F087B8
:102790002046FFF78BFA08BB0120FFF727FA2046F7
:1027A000FFF784FAD8F81010064621F00401C8F8A3
:1027B00010101CE04FF0FF303860AC6811E020468C
:1027C000FFF726FA5046FFF771FAD8F81010060006
:1027D00021F00201C8F8101001D03C6007E004F5B8
:1027E0008064D5E9020100EB8120A042E7D80021F6
:1027F00089F818103046C9E7B80A002000200240C6
:102800000348016941F08001016100207047000028
:10281000002002402DE9F05F05461D48884600244F
:10282000017E16461F46012909D001218146017605
:102830004CF2503A5046FFF739FA18B123E0022023
:10284000BDE8F09F012D02D0022D00D00425D34613
:10285000DFF840A015E0220130463946FDF762FC62
:1028600081B208EB4400FFF7E5F95846FFF71EFA7E
:10287000DAF8102022F00102CAF8102018B9641CFE
:10288000E4B2AC42E7D3002289F81820D8E7000070
:10289000B80A002000200240064900200A691206FA
:1028A00007D5054A4A60054A4A600969090600D504
:1028B000012070470020024023016745AB89EFCD1E
:1028C0002DE9F04300220F27DFF8C09059E00123E3
:1028D00093400B4054D0FF2B01D8054601E000F196
:1028E00004054FEA820401D9A4F12004D5F800C000
:1028F00007FA04F82CEA080C4FF0040808FA04F868
:102900004CEA080CC5F800C0C46824EA0304C4609B
:1029100022F003054D44AC684FEA827C4FEA1C7CF0
:1029200007FA0CF606EA0408194CA04201D100246B
:102930000FE0184CA04201D101240AE0164CA0423D
:1029400001D1022405E0154CA04201D1032400E08E
:10295000042404FA0CF4444512D1AC68B443AC60CE
:102960000F4C25689D432560241D25689D432560E7
:10297000241D25689D432560241D25689D432560F1
:10298000521C31FA02F3A2D1BDE8F08300000140ED
:1029900000080140000C01400010014000140140FB
:1029A000000401402DE9F84FDFF8A091002309F160
:1029B000040A0AF1040B1C464FF00F080BF1040E39
:1029C00001270A68A7403A40BA4272D1DFF880C1B5
:1029D0004D68A5EB0C0665452BD00DDC032D34D0DE
:1029E00005DC35B3012D19D0022D2FD11BE0112D9F
:1029F00016D0122D2AD119E0B6F5881F19D006DCA1
:102A0000B6F5803F15D0B6F5801F1FD111E0B6F5A1
:102A1000001F0ED0B6F5041F18D10AE0CB6815E0F0
:102A2000CB681B1D12E0CB6808330FE0CB680C337A
:102A30000CE08B682BB1012B4FF0080303D04761EA
:102A400004E0042302E0076100E00023FF2A01D82C
:102A5000064601E000F104064FEA840501D9A5F11C
:102A60002005376808FA05FC27EA0C0703FA05F584
:102A700047EA050737604D68ED0060D5354DAE6912
:102A800046F00106AE61AD6924F0030605F00105CC
:102A90000095314D7719BE68A5072D0F08FA05FC82
:102AA00026EA0C06DFF8B4C0604503D14FF0000CF5
:102AB00017E044E0DFF8A8C0604502D14FF0010CF8
:102AC0000FE0DFF8A0C0604502D14FF0020C08E033
:102AD000DFF894C0604502D14FF0030C01E04FF0E5
:102AE000040C0CFA05FC4CEA060CC7F808C04D684B
:102AF000D9F80060ED034D4601D5164300E096433A
:102B00002E604D68DAF80060AD03554601D51643D6
:102B100000E096432E604D68DBF80060ED025D46F4
:102B200001D5164300E096432E604D68DEF8006044
:102B3000AD02754601D5164300E096432E60641C35
:102B4000102CFFF43DAFBDE8F88F000000040140F9
:102B50000000111000100240000001400008014078
:102B6000000C014000100140001401408068084042
:102B700000D001207047C2684A40C26070470AB165
:102B8000016170470904FBE7014880687047000055
:102B90003401002070B5040011D021684CF6CC40FF
:102BA0000860216845F255500860D4E90001416091
:102BB0002168A0688860FFF7E7FF054608E001206C
:102BC00070BDFFF7E1FF401B302801D9032070BD25
:102BD0002068C0680028F4D121684AF6AA2008605D
:102BE000002070BD00684AF6AA21016000207047ED
:102BF00002488168027811448160704734010020E6
:102C0000074810B5016841F010010160032000F091
:102C10007DF8002000F006F800F024F8002010BD38
:102C20000020024070B50D4D04464FF47A712878AB
:102C3000B1FBF0F00A490968B1FBF0F000F0FEFCCE
:102C400048B9102C07D200222146501E00F03EF851
:102C500000206C6070BD012070BD000034010020B8
:102C6000400100200C4808B5816941F001018161F3
:102C7000816901F001010091C16941F08051C16198
:102C8000C069064900F080500090486820F0E0607C
:102C900040F00070486008BD001002400000014094
:102CA00000F01F02012191404009800000F1E02066
:102CB000C0F88011704700F01F02012191404009C7
:102CC000800000F1E020C0F800117047F0B40E4B16
:102CD0001B68C3F30223C3F10704042C00D90424A6
:102CE0001D1D072D01D2002300E0DB1E012606FA80
:102CF00004F56D1E0D409D409E40761E164045EA2F
:102D00000601F0BC01F082BD0CED00E0064A00F0C7
:102D1000070110684FF6FF03184040EA01200349FD
:102D200008431060704700000CED00E00000FA0559
:102D300010B5014627A086B01DC88DE81D0029A04A
:102D4000294C006804900020012922D0022939D0A2
:102D500010291CD161682268D20118D5C1F38342C1
:102D6000C9031DF8020009D5616804AAC1F34041F6
:102D7000515C1E4AB2FBF1F1484301E01C49484353
:102D80006168490203D440000321B0FBF1F006B0B2
:102D900010BD216AC1F30122012A03D1890701D59F
:102DA000D003F4E7022A05D1616A890702D549F602
:102DB0004040ECE7032AEAD121688903E7D54FF2C6
:102DC0002440E4E700F054F96168C1F38131491C03
:102DD0004900DAE702030405060708090A0B0C0D8F
:102DE0000E0F1010010200000010024000127A00C5
:102DF00000093D002DE9F84304460078344FC00730
:102E000052D0F8690025C00008D4F86940F080501D
:102E1000F861F869012500F0805000902D480168A4
:102E2000C90511D40168804641F480710160FFF743
:102E3000ABFE064604E0FFF7A7FE801B642822D8FD
:102E4000D8F80000C005F6D5386A10F4407020D0DC
:102E5000A18801F4407181421BD0386A1E490122C9
:102E600020F440700A6000220A603862C00710D067
:102E7000FFF78AFE064641F2883807E0FFF784FE36
:102E8000811B414502D90320BDE8F883386A8007D9
:102E9000F4D5386A616820F44070084338621DB187
:102EA000F86920F08050F8612078800705D57868AF
:102EB000A16820F44040084378602078C00605D51A
:102EC0007868E16820F48000084378600020DBE740
:102ED0000010024000700040400442422DE9F047DB
:102EE000DFF8508104460E46D8F8000000F00700D5
:102EF000B0420CD2D8F8001021F007013143C8F8D5
:102F00000010D8F8000000F00700B0426DD1206832
:102F1000494F810712D5400703D5786840F4E06037
:102F200078602078000703D5786840F460507860B6
:102F30007868A16820F0F000084378602078C00726
:102F400042D06068012816D03968022816D0890757
:102F500000294ADA796821F0030101437960FFF71B
:102F600013FE0546606841F2883101280ED0022820
:102F7000894617D024E039688903E9E78901E7E742
:102F8000FFF702FE411B494501D916E089467868E2
:102F9000C0F381000128F3D116E0FFF7F5FD411BD6
:102FA00049450AD87868C0F381000228F5D10BE0C2
:102FB000FFF7EAFD411B494502D90320BDE8F08730
:102FC000786810F00C0FF3D1D8F80010404601F0EB
:102FD0000701B1420BD9016821F0070131430160BB
:102FE000006800F00700B04201D00120E6E7207839
:102FF000400705D57868E16820F4E0600843786010
:103000002078000706D57868216920F4605040EAEE
:10301000C100786000F03CF87968084AC1F30311F8
:10302000515CC840064908600020FFF7FBFD002006
:10303000C4E700000020024000100240C2700008F7
:103040004001002001490120C8647047000042424D
:103050000448054900684968044AC1F30221515CEB
:10306000C84070474001002000100240D2700008A4
:103070000448054900684968044AC1F3C221515C0B
:10308000C84070474001002000100240D270000884
:1030900012A085B00FC88DE80F0014A0144B006873
:1030A00004905968134801F00C02042A10D0082A31
:1030B0000ED1C1F38342C9031DF802000AD5596835
:1030C00004AAC1F34041515C0A4A5043B0FBF1F0FD
:1030D00005B0704708494843FAE7000002030405B9
:1030E000060708090A0B0C0D0E0F10100102000054
:1030F0000010024000127A0000093D002DE9F84F4F
:1031000004460078B64DC00747D06868C0F3810018
:10311000012807D06868C0F38100022809D16868D7
:10312000C00306D52868800337D5606800286ED0B4
:1031300033E06068B0F5803F0BD010B1B0F5A02F40
:1031400011D0286820F480302860286820F480207E
:1031500002E0286840F480302860606888B1FFF79A
:1031600013FD064609E0286840F480202860F0E757
:10317000FFF70AFD801B642873D828688003F7D501
:103180000BE0FFF701FD064604E0FFF7FDFC801BA6
:103190006428F1D828688003F7D42078DFF84482C7
:1031A00080074FF0010A4FF0000939D5686810F028
:1031B0000C0F07D06868C0F38100022809D1686845
:1031C000C00306D42868800713D5206901281ED1C2
:1031D0000FE02069A8B1C8F800A0FFF7D5FC0646AB
:1031E00004E0FFF7D1FC801B0228C5D828688007BF
:1031F000F7D52868616920F0F80040EAC10028602E
:103200000EE0C8F80090FFF7BFFC064605E0E5E0D9
:10321000FFF7BAFC801B022823D828688007F7D460
:10322000207800072CD57049A069D8B1C1F800A05A
:10323000FFF7AAFC064604E0FFF7A6FC801B022865
:103240000FD8686A8007F7D568484FF4FA510068CC
:10325000B0FBF1F0009000BF0098411E0091FAD23F
:103260000EE07CE0C1F80090FFF78EFC064604E01B
:10327000FFF78AFC801B022871D8686A8007F7D4A0
:10328000207840075BD5E8690027C00008D4E869CA
:1032900040F08050E861E869012700F0805000901C
:1032A00053480168C90511D40168834641F480710F
:1032B0000160FFF769FC064604E0FFF765FC801B30
:1032C00064284CD8DBF80000C005F6D5E06801287A
:1032D0000AD008B1052813D0286A20F0010028621E
:1032E000286A20F0040002E0286A40F00100286209
:1032F000E06841F2883B88B1FFF746FC064609E0EA
:10330000286A40F004002862EEE7FFF73DFC811BCD
:1033100059455BD8286A8007F7D50BE0FFF734FCE6
:10332000064604E0FFF730FC811B59454ED8286A59
:103330008007F7D41FB1E86920F08050E861E069A8
:10334000A8B36968C1F38101022947D00228484621
:1033500006D0C8F86000FFF717FC044639E035E0F6
:103360004746C8F86000FFF70FFC064604E0FFF789
:103370000BFC801B022829D828688001F7D4206A1A
:10338000B0F5803F05D16868A16820F4003008439B
:103390006860D4E908010843696821F4741108439E
:1033A0006860C7F860A0FFF7EFFB044605E013E094
:1033B000FFF7EAFB001B022808D828688001F7D530
:1033C0000AE0FFF7E1FB001B022802D90320BDE859
:1033D000F88F28688001F4D40020F8E70120F6E790
:1033E000001002400000424280044242400100209E
:1033F0000070004070B5040005D00025A56294F867
:10340000510010B104E0012070BD204600F034F8F6
:10341000022084F851002068016821F04001016019
:10342000D4E901010843D4E9031211430843616957
:103430000843218B01F400710843E1690843216AC4
:103440000843A16A084321680860A069042101EAD1
:103450001040616A0843216848602168E06A086199
:103460002068C16921F40061C1616565012084F8AB
:103470005100002070BD000000B585B00021009112
:103480000191029103910068104988421BD11048B4
:10349000C16941F48041C161C16901F48041049175
:1034A000816941F0080181618069694600F0080086
:1034B00004904FF4204000900220019003200390DC
:1034C0000448FFF76FFA05B000BD00000038004067
:1034D00000100240000C01402DE9F84F044690F81E
:1034E000500000271E4691460D4601280DD04FF092
:1034F000010B84F850B0FFF747FB804694F8510069
:10350000BA46012804D0022792E00220BDE8F88FD5
:10351000002D79D0B9F1000F76D0032084F8510046
:10352000C4F854A02563A4F83490A4F83690C4F8E5
:1035300038A0A4F83CA0A4F83EA0C4F844A0C4F865
:1035400040A0A068B0F5004F04D12068016841F4A4
:103550008041016020680168490603D4016841F098
:1035600040010160E068B0F5006F606804D020B3EE
:10357000E08E012821D039E010B1E08E012818D169
:10358000216835F8020BC86006E020688168890769
:1035900006D535F8021BC160E08E401EE08608E0CB
:1035A00086B3701C05D0FFF7EFFAA0EB0800B0421D
:1035B00028D2E08E0028E8D11BE0216815F8010B25
:1035C000087306E020688168890706D515F8011B95
:1035D0000173E08E401EE08608E09EB1701C05D0AD
:1035E000FFF7D2FAA0EB0800B0420BD2E08E002821
:1035F000E8D13346012202212046CDF8008001F0B7
:1036000031FC10B1032713E011E042463146204659
:1036100001F018FC18B101272020606508E0A068BF
:1036200018B92068C16880680090606D00B10127FA
:1036300084F851B084F850A0384667E710B5401EB2
:10364000B0F1807F01D3012010BD4FF0E024606114
:103650000F21601701F0DAF80020A0610720206137
:10366000002010BD7047704710B590F83C20012A2B
:1036700025D0012280F83C20CA688C6822F4407270
:1036800022434C6822F4806222430C6822F40062D8
:1036900022430C6922F4805222434C6922F40052E6
:1036A0002243896922F480420A43002322F4004223
:1036B0000A4301684A6480F83C30002010BD0220B3
:1036C00010BD30B590F83C20012A20D0012380F8AD
:1036D0003C30022280F83D200268546824F07004D7
:1036E0005460026854680D682C4354600268946802
:1036F00024F0800494600268946849680C439460E4
:1037000080F83D30002180F83C10084630BD022092
:1037100030BD000070B5007F082826D1134CE0882A
:10372000411CE1800A2804D91149012008700A20AF
:10373000E080104801784FF6FF7519B900216180CB
:10374000A580E180642101700C210B4800F0F3FAA0
:1037500080B26080A188094A884201D9411A02E0FA
:10376000691A0144491C1180A08070BD200100200D
:103770002200002079000020EC0300202A00002015
:103780002DE9F041044690F83C000D4601283BD05D
:10379000012684F83C60022084F83D009AB3042A94
:1037A00044D02068082A53D0D5E90027E968036A85
:1037B00023F480530362D0F81CC0036A2CF4407CCD
:1037C0004CEA07274FF6FF7C27F470470CEA0131DB
:1037D0003943770323F4005307EA02321A43C161E5
:1037E00002622068C16921F44061C1612068C16939
:1037F000AA6841EA0221C16184F83D60002084F892
:103800003C00BDE8F08101E00220FAE7D5E90012B2
:10381000EB68206802F028F82068816921F00C012B
:10382000816120688169AA6811430FE0D5E900121F
:10383000EB68206802F044F82068816921F4406157
:10384000816120688169AA6841EA02218161D3E728
:10385000D5E9002C2F7B016A21F480710162C169D6
:10386000036A21F0030141EA0C0121F0F00C390751
:103870004FF400774CEA116123F4007307EA022247
:103880001A43C16102622068C16921F00C01C16163
:103890002068C169AA681143ADE710B5040003D0E0
:1038A00094F83D0010B107E0012010BD002084F81D
:1038B0003C00204600F00CF8022084F83D00211D59
:1038C000206801F0E7FE012084F83D00002010BDD3
:1038D00000B585B00021009101910291039100682B
:1038E0001349884221D11348C16941F00401C161E3
:1038F000C16901F004010491816941F0080181610D
:103900008069694600F0080004904FF40070009050
:10391000012002900848FFF745F8002211461E20BA
:10392000FFF7D4F91E20FFF7C6F905B000BD00006F
:103930000008004000100240000C014010B5026871
:10394000044631B1042908D0082915D00C2908D122
:1039500016E0D06840F0020002E0D06840F00400B9
:10396000D0600122206801F0CBFE2068016841F0A0
:1039700001010160002010BDD06840F00800EFE7B1
:10398000D06840F01000EBE770B5044600680169AC
:103990004FF00005C943890715D4C168C943890799
:1039A00011D4E91E01610120207720688069800719
:1039B000204602D0FFF7AEFE04E000F0D3F8204628
:1039C00000F074F9257720680169C943490717D4C5
:1039D000C168C943490713D46FF004010161022093
:1039E00020772068806910F4407F204602D0FFF7DE
:1039F00091FE04E000F0B6F8204600F057F9257774
:103A000020680169C943090716D4C168C943090779
:103A100012D46FF008010161042020772068C0698A
:103A20008007204602D0FFF775FE04E000F09AF808
:103A3000204600F03BF9257720680169C943C90693
:103A400017D4C168C943C90613D46FF010010161CE
:103A5000082020772068C06910F4407F204602D0FB
:103A6000FFF758FE04E000F07DF8204600F01EF954
:103A7000257720680169C943C90708D1C168C943CE
:103A8000C90704D1891E0161204600F053F920685E
:103A90000169C943090609D4C168C943090605D4A7
:103AA0006FF0800101612046FFF7DCFD20680169AD
:103AB000C943490609D4C168C943490605D46FF012
:103AC00040010161204600F058F920680169C943AE
:103AD00089060BD4C168C943890607D46FF0200159
:103AE00001612046BDE87040FFF7BDBD70BD00001C
:103AF00000B585B000210091019102910391006809
:103B0000134B144A022198420ED1906940F00400F0
:103B100090619069039100F004000490C801CDE920
:103B2000000169460C480FE00C4B98420ED1906999
:103B300040F0080090619069009100F00800019148
:103B4000CDE9031069460648FEF72CFF05B000BD1D
:103B5000002C014000100240000801400004004019
:103B6000000C0140704770B5044690F83C000D46CB
:103B700001280DD0012684F83C60022084F83D0025
:103B800042B1042A18D0082A2AD00C2A4DD139E093
:103B9000022070BD206801F0BFFD2068816941F0FE
:103BA000080181612068816921F004018161206838
:103BB00081692A69114311E0206801F0D9FD20686C
:103BC000816941F4006181612068816921F480612B
:103BD0008161206881692A6941EA0221816124E0CA
:103BE000206801F0F3FD2068C16941F00801C1615E
:103BF0002068C16921F00401C1612068C1692A6996
:103C0000114311E0206801F00DFE2068C16941F404
:103C10000061C1612068C16921F48061C1612068CF
:103C2000C1692A6941EA0221C16184F83D6000202E
:103C300084F83C0070BD10B5040003D094F83D003A
:103C400010B107E0012010BD002084F83C002046A0
:103C500000F00CF8022084F83D00211D206801F0DE
:103C600019FD012084F83D00002010BD08B5006852
:103C70000B4A0C49904207D1886940F40060886182
:103C8000886900F4006009E0074A904207D1C869DA
:103C900040F00200C861C86900F00200009008BD51
:103CA000002C01400010024000040040704700005A
:103CB00010B504460068012201F022FD0749206882
:103CC000884203D1416C41F400414164206801689D
:103CD00041F001010160002010BD0000002C0140F6
:103CE00010B504460068002201F00AFD104841F2B8
:103CF000111221689310814209D1086A104206D13D
:103D0000086A184203D1486C20F4004048642068D7
:103D1000016A114206D1016A194203D1016821F0FA
:103D200001010160012084F83D00002010BD000069
:103D3000002C0140704790F83C300022012B0AD043
:103D4000012380F83C3041B1042909D008290AD068
:103D50000C290DD10AE00220704701684A6B07E088
:103D600001688A6B04E00168CA6B01E001680A6CB3
:103D7000002180F83C1010467047704770B504462B
:103D80000068C16821F4F071C1602068416921F0C8
:103D900001014161206841694FF00005090609D51C
:103DA000416921F080014161206B18B14563206BAE
:103DB000FEF71CFB20684169490609D5416921F0DD
:103DC00040014161606B18B14563606BFEF70EFB0B
:103DD000E584E585E563202084F83A0084F839001D
:103DE000002070BD10B504000ED0242084F83900E6
:103DF000204600F0C7F80020E06384F8390084F81A
:103E00003A0084F8380010BD012010BD7047000052
:103E100070B5026804461068D168536910F00F0F3E
:103E200050D003F0010501F4907635435DD0C20710
:103E300005D0CA0503D5E26B42F00102E2634207F6
:103E400005D5DA0703D0E26B42F00202E263820793
:103E500005D5DA0703D0E26B42F00402E263020701
:103E600005D5DA0703D0E26B42F00802E263E26BA9
:103E7000002A33D0800604D5880602D5204601F0FA
:103E800089FF20684069E16BC0F38010090700D406
:103E900028B3204601F02CFF2068416949061AD555
:103EA000416921F040014161606BA0B11B49416350
:103EB000606BFEF7B3FA002810D0606B416BBDE871
:103EC00070400847830610D58B060ED52046BDE806
:103ED000704001F05FBF2046FFF798FF70BD20469D
:103EE000FFF794FF0020E06370BD030606D50B06C4
:103EF00004D52046BDE8704002F050B84006F3D526
:103F00004806F1D5D168204621F04001D16020213A
:103F100084F8391000F0E4F970BD0000195C000865
:103F200070B5040004D094F83900002510B106E003
:103F3000012070BD84F83850204600F05DF8242040
:103F400084F839002068C16821F40051C16020461E
:103F500001F06CFF2068016921F490410161206843
:103F6000416921F02A0141612068C16841F4005192
:103F7000C160E563202084F8390084F83A0000200D
:103F800070BD000010B504460068164A16499042FC
:103F900010D1886920F4804088614FF4C0611348D3
:103FA000FEF78EFC606BFEF785FA206BFEF782FA57
:103FB000252012E00E4A904213D1C86920F48020D7
:103FC000C8614FF440610B48FEF77AFC606BFEF766
:103FD00071FA206BFEF76EFA2720BDE81040FEF75D
:103FE0005FBE10BD003801400010024000080140D3
:103FF00000480040000C01402DE9F04786B0002544
:104000000095019502950395044601686548DFF81F
:1040100090C1022203230615DFF88CA180274FF000
:104020001009614564D1816941F4804181618169F0
:1040300001F480410491816941F00401816180694A
:10404000DFF8688100F0040004901002CDE900025E
:10405000694603934046FEF7A5FCCDE90065694635
:1040600040460295FEF79EFC524E51484FF40058D0
:10407000C6E90005C6E90257C6F81C802020356154
:10408000C6E905503046FEF7EFFA08B1FDF7ACFD82
:1040900066637462474E464844361438C6E9025790
:1040A00035617561C6E90009C6E906583046FEF774
:1040B000DBFA08B1FDF798FD2663002211462520A2
:1040C0007462FEF703FE2520FEF7F5FD39488038BF
:1040D0000068C16841F01001C1603749FF2201F159
:1040E000FF0000F06FF88AF8025006B0BDE8F087D4
:1040F000DFF8C8C06145F8D1C16941F48021C161D0
:10410000C16901F480210491816941F00801816154
:104110008069CDE9006200F00800CDE90330284E47
:1041200069463046FEF73EFCF014CDE900056946CD
:1041300030460295FEF736FC1E4E1D48883628385C
:10414000C6E90005C6E9025735617561B5613046BB
:10415000F561FEF789FA08B1FDF746FD6663746202
:10416000144E1348CC363C38C6E9025735617561A8
:10417000B561F561C6E900093046FEF775FA08B188
:10418000FDF732FD26630022114627207462FEF7F8
:104190009DFD2720FEF78FFD8AF80350A5E700005C
:1041A00000380140001002402A01002000080140B0
:1041B00058000240A80900202908002000480040BB
:1041C000000C014037B5044690F83A0082B013461F
:1041D00020283AD1039AAAB3A3B394F8380001284F
:1041E00033D0012084F83800A262A3850025E5635E
:1041F000222084F83A00616B15488862616B15488B
:10420000C862616B14480863606B45632168606B2A
:10421000091DFEF757FA206801684168009184F88B
:104220003850C16841F48071C1602068416941F033
:10423000010141612068416941F040014161002074
:1042400005B030BDFFE70120FAE70220F8E70000E3
:10425000735C0008AF5C0008295C00087047704779
:10426000F7B5044690F83900202831D1019969B397
:1042700062B394F8380001282AD0012084F838006D
:104280002162A284E2840025E563212084F83900BC
:10429000236B10489862236B0F48D862236B0F483A
:1042A0001863206B134645632668206B321DFEF7AA
:1042B00009FA21686FF04000086084F838502068DF
:1042C000416941F0800141610020FEBD0120FEBD39
:1042D0000220FEBDB95C0008E75C0008295C00080C
:1042E000016B09680A6822F001020A600749006848
:1042F00000220B680649984200D10A70034B4033F4
:104300001B68984200D14A707047000028090020BD
:104310002A0100207047FEE70449002021F8100020
:10432000401CC0B20F28F9D3704700005401002090
:10433000FEB500241B4800940194194902940160C1
:10434000891501264461C0E90216032505614FF471
:1043500060214460C161FDF7CDFD08B1FDF744FC6B
:10436000CDE9004669460F480294FDF7CBFC08B141
:10437000FDF73AFC02200090019069460948FDF7DC
:10438000C1FC08B1FDF730FC009569460548019570
:10439000FDF7B8FC002801D0FDF726FCFEBD0000AB
:1043A00000240140B00100203EB5002410480094D4
:1043B000019402948460C4600C4944610160012549
:1043C00005614FF460214460C161FDF793FD08B1C0
:1043D000FDF70AFC0095CDE9015469460448FDF754
:1043E00091FC002801D0FDF7FFFB3EBD00280140F5
:1043F000E0010020194808B5416941F0010141611F
:104400004069002200F00100009011460B20FEF7E9
:104410005DFC0B20FEF74FFC002211460C20FEF73E
:1044200055FC0C20FEF747FC002211460D20FEF73C
:104430004DFC0D20FEF73FFC002211460E20FEF73A
:1044400045FC0E20FEF737FC002211460F20FEF738
:104450003DFCBDE808400F20FEF72DBC00100240D7
:104460002DE9F04385B0002446480094019402945D
:104470000394816941F010018161816901F01001AB
:104480000491816941F020018161816901F020017D
:104490000491816941F004018161816901F00401A5
:1044A0000491816941F0080181618069364F00F013
:1044B00008004FF4C0450490002229463846FEF714
:1044C0005EFBDFF8C88000224FF4C6514046FEF77D
:1044D00056FBDFF8BC90002240F2E5114846FEF79B
:1044E0004EFB012211034846FEF749FB00950226C8
:1044F00001250396CDE9015469463846FEF752FA84
:10450000C020CDE90005CDE9024669464046FEF7E8
:1045100049FA03960095CDE9015469464846FEF7ED
:1045200041FA4FF4C270CDE9000569464846CDE92D
:104530000245FEF737FA4FF483500326CDE9000514
:10454000CDE9024669464846FEF72CFAF002009093
:1045500001AA112082E8510069464046FEF722FA7E
:10456000E8038DE8310069464046FEF71BFA182043
:104570008DE8310069464846FEF714FA05B0BDE8FB
:10458000F0830000001002400010014000080140CC
:10459000000C0140094810B5074901600021416045
:1045A00040F6FF718160FEF7F5FA002803D0BDE800
:1045B0001040FDF719BB10BD00300040080300207B
:1045C000104810B50E4901604FF48271416000211E
:1045D0008160C1604FF400720161C0E905122022C0
:1045E000C0E90721416281620A21C162FEF702FF30
:1045F000002803D0BDE81040FDF7F6BA10BD00005A
:10460000003800401403002010B590B000240E9430
:104610001C2168460F94FBF7AEFD1C2107A8FBF791
:10462000AAFD2248204901604721C0E9011440F257
:104630008F11C0E903148021C0E90541FFF7FBFA9F
:1046400008B1FDF7D1FA0E940EA918480F94FFF7A0
:1046500038F808B1FDF7C8FA602000904FF4AF7049
:10466000CDE90104039404940594002269460F489F
:104670000694FFF778FA08B1FDF7B6FA07940894A4
:1046800009944FF400500A94CDE90B4007A907485C
:104690000D94FEF7E9FF08B1FDF7A6FA0348FFF70E
:1046A00027FA10B010BD0000002C01406C03002060
:1046B00010B58AB0002407941C2168460894FBF7C3
:1046C0005AFD17481549016040F2CF21C0E9011495
:1046D0001421C0E903148461FFF7ADFA08B1FDF7B6
:1046E00083FA079407A90E480894FEF7EAFF08B179
:1046F000FDF77AFA6020CDE90004022002900C2236
:10470000694604940648FFF72EFA08B1FDF76CFAE3
:104710000348FFF7EDF90AB010BD000000040040A7
:10472000AC03002010B586B000241A480094019410
:1047300002940394049416490594016040F2CF2139
:10474000C0E901144FF6FF71C0E903148461FFF75B
:10475000A4F808B1FDF748FA009469460D480194A1
:10476000FEF7AFFF08B1FDF73FFA022002900120EB
:10477000CDE90304082005900C2202A90548FEF7A4
:10478000FFFF002801D0FDF72FFA06B010BD000092
:1047900000080040EC0300200C4810B50A490160F5
:1047A0004FF416514160002181600C22C160C0E9C4
:1047B00004128161C161FFF7B3FB002803D0BDE89B
:1047C0001040FDF711BA10BD003801402809002043
:1047D0000C4810B50A4901604FF4E13141600021F5
:1047E00081600C22C160C0E904128161C161FFF7E0
:1047F00097FB002803D0BDE81040FDF7F5B910BDC8
:104800000048004068090020FEE770470907090ECC
:10481000002806DA00F00F0000F1E02080F8141DF7
:10482000704700F1E02080F80014704770470000E6
:10483000F8B500240094017801250B297ED2DFE829
:1048400001F0A606080A0C0F111315171B00012012
:104850000FE0032102E003200BE005210170F8BD09
:10486000052006E0062004E0072002E0082000E022
:104870000920FDF749F9F8BD464E307B18B30128F1
:1048800041D0022861D00328F5D1708CC8B1411EF7
:10489000CA1701EB1262110A8DF80010401E8DF844
:1048A0000100C9438DF80210C0438DF80300307E2B
:1048B00069460830C0B2FDF759F9307E012864D04E
:1048C0003576F472F8BDB08BC8B1411ECA1701EB42
:1048D0001262110A8DF80010401E8DF80100C943C4
:1048E0008DF80210C0438DF80300707D69460830D2
:1048F000C0B2FDF73BF9707D012802D075753472A6
:10490000F8BD7475FBE7F08BD8B1411ECA1701EBF7
:104910001262110A8DF80010401E8DF80100C94383
:104920008DF80210C0438DF80300B07D6946083051
:10493000C0B2FDF71BF9B07D012800E027E002D0EE
:10494000B5757472F8BDB475FBE7308CC8B1411E03
:10495000CA1701EB1262110A8DF80010401E8DF883
:104960000100C9438DF80210C0438DF80300F07DAB
:1049700069460830C0B2FDF7F9F8F07D012802D091
:10498000F575B472F8BDF475FBE7347699E70570F8
:10499000F8BD0000880000202DE9FC410026214DD3
:1049A000ADF80060ADF8046028886946FCF74AFE5F
:1049B000BDF800004AF2A55101271B4C88421FD1C7
:1049C00068886946FCF73EFEBDF80000032801D95F
:1049D000ADF80070BDF800006070A88801A9FCF770
:1049E00031FEBDF804006082E88801A9FCF72AFEC8
:1049F000BDF80400FBF71FFEC4E91201BDE8FC810D
:104A0000677066822888FCF76FFE68886178FCF71B
:104A10006BFEA888618AFCF767FEE8880021FCF736
:104A200063FEEBE754010020200000202DE9F05F39
:104A30009F4D00242046A97900297DD007212971A6
:104A40002A7DC9B28A4200D029759A4FEA7939780D
:104A50008A4201D0E971012097492A7A09788A426D
:104A600001D02972012095496A7A09788A4201D0D9
:104A7000697201209249AA7A09788A4201D0A97202
:104A800001209049EA7A09788A4201D0E97201202E
:104A9000DFF834822A7B98F800108A4201D029730B
:104AA0000120DFF828926A7B99F800108A4201D031
:104AB00069730120DFF818B2AA7B9BF800108A42C4
:104AC00001D0A9730120DFF80CA2EA7B9AF800104C
:104AD0008A4201D0E97301202A7C29788A4201D0D8
:104AE000297401206A7C69788A4201D069740120A6
:104AF000AA7CA9788A4201D0A9740120EA7CE978CD
:104B00008A4201D0E97401206979012922D0002864
:104B10007ED000F0F1FE402000F036FF00F010FFE4
:104B200000F0EAFEC02000F02FFFFF2000F054FF4D
:104B3000FF2000F051FF00E00AE0FF2000F04CFFF2
:104B4000FF2000F049FF0020012698F800200AE02D
:104B5000022174E700206871DBE706FA00F12143C7
:104B6000401CCCB2C0B29042F7D353480078012821
:104B700008D004F03F0000F02FFF0021084699F80C
:104B8000003008E044F0C000F5E706FA00F20A43FE
:104B9000401CD1B2C0B29842F7D3484800780128EF
:104BA00008D001F03F0000F017FF002108469BF8F5
:104BB000003008E041F0C000F5E706FA00F20A43D1
:104BC000401CD1B2C0B29842F7D33D4800780128CA
:104BD00009D001F03F0000F0FFFE002108463346F7
:104BE0009AF8002008E041F0C000F4E703FA00F66C
:104BF0000E43401CF1B2C0B29042F7D33148007866
:104C000001280FD001F03F04204600F0E5FE00E04F
:104C10004CE0387848B1012809D0022809D003288F
:104C200009D009E041F0C004EEE7032404E00C24BD
:104C300002E0302400E0C024204600F0CDFE2978B8
:104C40000020012900D103206978012901D140F019
:104C50000C00A978012901D140F03000E978012940
:104C600001D140F0C00000F0B7FEFF2000F0B4FE1C
:104C7000FF2000F0B1FEFF2000F0AEFEFF2000F0AC
:104C8000ABFEFF2000F0A8FE00F05AFE00F034FE5C
:104C90002879072801D907202871C0B240F0880080
:104CA00000F072FEBDE8F05F00F04ABEBDE8F09F84
:104CB0000000002021000020950000209600002028
:104CC0009700002098000020990000209A00002002
:104CD0009B0000209C0000202DE9F05F4D4C012737
:104CE0004D4D2078DFF834814D4EDFF838B14FF06C
:104CF00004094FF0030A052812D2DFE800F003137D
:104D000045506000A07801280AD16079002807D1B9
:104D10002770012204212846FDF731FF88F8007032
:104D2000BDE8F09F4048DFF80481007838B3404880
:104D3000007820B33F48007808B33F480078F0B1CE
:104D40006078C8B1012251033046FDF718FF0022F8
:104D50004FF480413046FDF712FF002280212846A3
:104D6000FDF70DFF012211022846FDF708FF8BF821
:104D70000070322001F04AFF88F800A001E088F8B6
:104D8000009002202070CBE700212C48FEF790FF16
:104D9000607808B100F0D0F984F800A0C0E7A078EE
:104DA0000028BDD100F060FA00212448FEF798FFEA
:104DB00084F80090BDE8F05F322001F027BFD4E90D
:104DC0001201FBF759FC87B2FDF766FD1C48394616
:104DD000C088FCF789FCFDF713FD00224FF4005159
:104DE0003046FDF7CCFE00224FF480413046FDF7FF
:104DF000C6FE002280212846FDF7C1FE00224FF4A6
:104E000080712846FDF7BBFE002088F800008BF873
:104E10000000B7E720000020000C01400000002047
:104E20000010014001000020990000202001002016
:104E30009A0000209B0000209C0000206C030020B2
:104E40005401002038B50B46009204460022802110
:104E500000F008F8002804D0606D40F02000606584
:104E6000032038BD2DE9F0411D4617460E46044685
:104E7000DDF8188035E0681C33D02DB1FDF784FED5
:104E8000A0EB0800A8422CD32068416821F0E00183
:104E900041606068B0F5827F0BD1A068B0F5004F2B
:104EA00002D0B0F5806F04D12068016821F0400184
:104EB0000160A06AB0F5005F0AD1206801684DF674
:104EC000FF72114001602068016841F400510160E7
:104ED000012084F85100002084F850000320BDE830
:104EE000F0812068806836EA000004D00020B842D3
:104EF000C1D10020F3E70120F9E770472DE9F04F19
:104F00003D48A1B00068FBF7D0FB04903B488A46BF
:104F10000068FBF7CAFB074639488B460068FBF779
:104F2000C4FB0646374889460068FBF7BEFB0446CB
:104F300035480D460068FBF7B8FBCDE90001334862
:104F40000068FBF7B2FBCDE9020131480068FBF7CE
:104F5000ACFB0B4602462F492F48DFF8C4C0098836
:104F60000088CDE91E012D48DFF8B8800DF1600EF4
:104F7000D0E90010CDE91C102C482B49BCF800C02A
:104F80000078B8F8008009888EE803112B48DFF814
:104F9000A0C0DFF8A080284900880DF1500EBCF8B1
:104FA00000C0B8F8008009888EE803112448D0E9D1
:104FB0000010CDE912100498CDE9100A2148CDE97E
:104FC0000E7B008808A9CDE90B901F4881E870008E
:104FD00000780690DDE90001CDE904011B48CDE928
:104FE000002303781A4802781A4801881A4801F009
:104FF000D5FF21B0BDE8F08F4C0000201401002047
:10500000440000204800002000010020040100208E
:105010000801002032000020340000206000002041
:10502000300000202E0000202C0000202500002051
:10503000AA000020A8000020A6000020A400002054
:105040006800002074010020780000201800002073
:10505000190000201A0000203871000831B50D4DEC
:105060004FF48054002221462846FDF788FD322067
:1050700001F0D9FD4FF6FF73012269460648FEF79D
:105080002BFA322001F0CFFD012221462846FDF700
:1050900076FD38BD000C01401403002070B5224C91
:1050A0000022204625780189204B4078082D06D221
:1050B000DFE805F00406171C21262B0B627070BD7B
:1050C000032808D3227062702281BDE870400C2151
:1050D0001748FEF705BE174A1BE06078401C607059
:1050E00070BD0228EED2134A121F12E00328E9D243
:1050F000104A921D0DE00328E4D80E4A0C3208E055
:105100000328DFD20B4A123203E00328DAD2094A1D
:10511000183232F810008842DFD0B3FBF0F080B2D2
:10512000208100F0BFFFD8E720010020A086010009
:10513000AC030020A47000082DE9F0473C49044668
:105140000020086048603B4D8860012028703A4884
:10515000DFF8EC80394A01683A48B8F800603A4F05
:10516000A0F1A009914206DA005DFBF75FFA6861E1
:1051700059F824000DE0334B3248344AA03B204418
:1051800003EB8404914208DA0079FBF74FFA686177
:10519000206968603E80BDE8F0872D4A914208DAB8
:1051A000007AFBF743FA6861206A6860B8F8020089
:1051B0000AE0284A914209DA007BFBF737FA686176
:1051C000206B6860B8F804003880E4E7224A914216
:1051D00008DA007CFBF72AFA6861206C6860B8F88E
:1051E0000600F1E7164B1D4A1E89914205DA007D43
:1051F000FBF71CFA6861206DCBE7194A914205DA8A
:10520000007EFBF713FA6861206EC2E7154A9142EF
:1052100005DA007FFBF70AFA6861206FB9E790F8BA
:105220002000FBF703FA6861D4F88000B1E70000C2
:1052300048010020E4000020140100200000484341
:105240007C000020787000083400002000009643A5
:105250000000C8430000FA430000164400002F4439
:105260000000484400006144064A074900201070CD
:1052700008604860886005480549506164200870EE
:10528000FFF7ECBEE4000020480100200000C84207
:10529000780000202DE9F0413C49012500240888D0
:1052A000421C0A8040F2E732904231D338480C80E9
:1052B00001210570374805703748FDF75CFC374918
:1052C0000878421C0A703B281CD30C7034490888AB
:1052D00008B1401E08803349088808B1401E088084
:1052E0003149088808B1401E088030490878421CBE
:1052F0000A703B2806D32E480C7005702D48018893
:10530000491C01802C48017811B10178491E0170B7
:105310002A490878421C0A7009281ED928480C70AE
:1053200005702848027812B10278521E0270027885
:105330002548012A02D10470244A1480244A254EAB
:10534000264B9778244A082F04D1007810B92448B6
:10535000007880B134701C8014704878421C4A7008
:10536000952804D91F484C700570FFF797FEBDE8DB
:10537000F041FDF73DBC1888471C1F804FF4FA77B9
:10538000B842EAD91F8035701570E6E71600002094
:105390001E00002005000020000C01401800002025
:1053A0002C0000202E0000203000002019000020DA
:1053B0001D0000201A0000200600002030010020FF
:1053C0001C00002079000020220000202A0000207C
:1053D0003E00002003000020270000207A0000206B
:1053E00025000020E000002030B593B02821684659
:1053F000FAF7C1FE14210AA8FAF7BDFE00240F94A3
:105400000920012110940090119412944FF48030DF
:1054100004910691CDE901040225CDE907504FF42E
:10542000E01009906846FDF769FE0F20CDE90A05F6
:105430006802CDE90C4002210AA80E94FDF74EFD4A
:10544000A80311900F950FA8FDF7D4FCFDF7FAFD06
:1054500013B030BD0D48016841F0010101604168A1
:105460000B4A1140416001680A4A1140016001681D
:1054700021F480210160416821F4FE0141604FF474
:105480001F0181600449C00308607047001002409A
:105490000000FFF8FFFFF6FE08ED00E070B53848A9
:1054A0000178002918D000250570364C207B30B1DA
:1054B00001281BD0022832D003285ED147E03148B2
:1054C000FCF720F9012140B1EE280BD0CC2801D007
:1054D000AA2801D12173257170BD2079421C227147
:1054E0000A28F9D965736574A58316E02548401C20
:1054F000FCF708F9022140B1EE280BD0CC2801D0EE
:10550000AA28E9D12173657170BD6079421C62716E
:105510000A28F9D9A573A574E583217370BD1948CC
:10552000801CFCF7EFF8032140B1EE280BD0CC280B
:1055300001D0AA28F2D12173A57170BDA079421CB7
:10554000A2710A28F9D9E573E5742584E5E70D48C9
:10555000C01CFCF7D7F840B1EE280BD0CC2801D006
:10556000AA28EAD12573E57170BDE079411CE1718B
:105570000A28F9D9257425756584257370BD000046
:105580002A0100208800002070B53D490023087BD7
:1055900088764A7E824201D0487620E0CA7E541C3A
:1055A000CC76322A1CD930B1012809D002280DD07E
:1055B000032813D10FE04B734B748B83012003E05E
:1055C0008B738B74CB830220087308E0CB73CB748E
:1055D0000B840320F8E70B740B754B840B73CB76AD
:1055E0000A7B4FF40060274C45003AB1012A14D0E1
:1055F000022A22D0032A30D00B7370BD014601224B
:105600002046FDF7BCFA012229462046FDF7B7FAED
:105610006420FDF78FF81A482EE00146002220464C
:10562000FDF7ADFA012229462046FDF7A8FA6420CD
:10563000FDF780F81248401C1EE00146012220467A
:10564000FDF79DFA002229462046FDF798FA6420CE
:10565000FDF770F80A48801C0EE001460022204643
:10566000FDF78DFA002229462046FDF788FA6420CE
:10567000FDF760F80248C01CBDE87040FFF7D8B8DD
:1056800088000020000801400148FEF77DB90000B5
:10569000EC030020F0B50268164C174D174E4FF082
:1056A0008047A04205D0B84203D0A84201D0B04202
:1056B00003D122F070034A681A43A04205D0B842D1
:1056C00003D0A84201D0B04203D122F44073CA688B
:1056D0001A434B6922F08002134303608A68C26256
:1056E0000A688262A04201D1096901630121416116
:1056F000F0BD0000002C0140000400400008004004
:1057000010B50123046A8B409C430462036A8A40FB
:105710001343036210BD000030B5026A22F001029B
:105720000262036A4268846924F073050C682C43A2
:1057300023F002058B682B430C4DA84206D123F0C1
:105740000805CB6843EA050323F0040307D14D693C
:1057500022F4407245EA02058A6942EA0502426083
:10576000846149684163036230BD0000002C014040
:1057700030B5026A22F010020262026A436884694C
:105780000D6824F4E64444EA05248D6822F02002E2
:1057900042EA05120C4DA84206D1CD6822F08002E3
:1057A00042EA051222F0400207D14D6923F440631A
:1057B00043EA85038D6943EA850343608461496850
:1057C0008163026230BD0000002C014030B5026AE6
:1057D00022F480720262036A4268C46923F400738F
:1057E00024F073050C682C438D6843EA05230C4DA7
:1057F000A84206D1CD6823F4006343EA052323F4CD
:10580000806307D14D6922F4405242EA05128D6946
:1058100042EA05124260C4614968C163036230BD57
:10582000002C014030B5026A22F480520262036A01
:105830004268C4690D6824F4E64444EA05248D688E
:1058400023F4005343EA0533064DA84204D14D69C1
:1058500022F4804242EA85124260C46149680164D0
:10586000036230BD002C014070B5046A24F00104CD
:1058700004628469056A0F4EB04208D0B0F1804FCF
:1058800005D00D4EB04202D00C4EB04203D124F0F0
:105890000304144301E044F001041A0724F0F00467
:1058A00044EA126225F00A0301F00A0119438261F9
:1058B000016270BD002C014000040040000800405F
:1058C00030B5046A24F0100404628569046A25F482
:1058D000407545EA022222F470454FF6FF7202EA53
:1058E000033224F0A0032A43A02404EA011119433F
:1058F0008261016230BD000010B5104C01222021F0
:105900002046FDF73CF9012240212046FDF737F9FA
:105910000A2001F088F9002240212046FDF72FF9E6
:105920000A2001F080F9002220212046FDF727F906
:10593000BDE810400A2001F076B90000000C0140DB
:1059400010B5104C002220212046FDF718F9002246
:1059500040212046FDF713F90A2001F064F90122E5
:1059600020212046FDF70BF90A2001F05CF9012205
:1059700040212046FDF703F9BDE810400A2001F060
:1059800052B90000000C014070B5124E05460024CB
:10599000002220213046FDF7F2F80A2001F043F9F9
:1059A000E80701D0012200E0002240213046FDF747
:1059B000E6F80A2001F037F9012220213046FDF7F0
:1059C000DEF80A2001F02FF9641C6D08E4B2082CFF
:1059D000DED370BD000C014070B5114E05460024A9
:1059E000002220213046FDF7CAF8E80701D0012245
:1059F00000E0002240213046FDF7C1F80A2001F006
:105A000012F9012220213046FDF7B9F80A2001F0F1
:105A10000AF9641C6D08E4B2082CE1D370BD0000E3
:105A2000000C01402DE9F0414148007818B9414887
:105A3000007800287AD0404C012280212046FDF7D2
:105A40009EF8002240212046FDF799F8052001F03C
:105A5000EAF83A48FCF7E4FB64213848FCF748FBD5
:105A60000028F9D13548FCF7CEF9354E00228021C7
:105A700070802046FDF783F8002240212046FDF784
:105A80007EF80A2001F0CFF8002280212046FDF7A1
:105A900076F8012240212046FDF771F8072001F039
:105AA000C2F8002280212046FDF769F8002240213B
:105AB0002046FDF764F8307830B9012030707088E6
:105AC000FAF7B9FDC6E902017088FAF7B4FD1D4C7A
:105AD00000222346FAF73BFD05462346D6E9020499
